:100000006F40F07F13000000130000001300000099
:100010001300000013000000130000001300000094
:100020001300000013000000130000001300000084
:08003000130000007300100032
:100038000000000000000000D04E0000E04E00006C
:1000480000000000444F0000000000000000000015
:10005800464F0000484F000000000000000000006C
:100068004A4F0000000000004C4F00000000000054
:100078004E4F0000504F0000524F0000544F0000F8
:10008800564F0000584F00009441000048420000BD
:10009800FC420000B043000064440000644F0000CC
:1000A800664F0000684F00006A4F00006C4F000068
:1000B8006E4F0000704F0000724F0000744F000038
:1000C800764F0000784F00007A4F00001845000076
:1000D8007E4F000062470000824F0000844F0000FE
:1000E80022480000E0480000A04900008C4F0000B2
:1000F8008E4F0000904F0000924F0000944F000078
:10010800964F00009C3A0000603B0000243C000031
:1001180030460000A04F0000A24F0000A44F00008E
:10012800984C0000A84F0000AA4F0000AC4F0000F8
:10013800AE4F0000B04F0000604A0000B44F00000E
:10014800EC3C0000B03D0000204B0000D84B000004
:10015800BE4F0000C04F0000C24F0000C44F000057
:10016800C64F0000C84F0000CA4F0000CC4F000027
:10017800CE4F0000D04F0000D24F00007A6B000035
:10018800D64F0000D84F0000C4400000763E000063
:100198003A3F000004400000E24F0000584D0000C4
:1001A800E64F0000E84F0000EA4F0000184E00003C
:1001B800EE4F0000F04F0000F24F0000F44F000037
:1001C800F64F0000F84F0000FA4F0000FC4F000007
:1001D8000000000000000000000000000000000017
:1001E8000000000000000000000000000000000007
:0801F8000000000000000000FF
:100200003D432A876373C3029377F700BDEFADE5E3
:10021000937606FF3D8ABA960CC34CC30CC74CC7F5
:100220004107E36BD7FE11E28280B306C3408A0622
:100230009702000096966780A6002307B700A306E2
:10024000B7002306B700A305B7002305B700A30432
:10025000B7002304B700A303B7002303B700A3022A
:10026000B7002302B700A301B7002301B700A30022
:10027000B7002300B700828093F5F50F93968500B1
:10028000D58D93960501D58D61B79396270097027A
:10029000000096968682E78086FA9680C1171D8FA9
:1002A0003E96E374C3F8A5B7011122CE00102326B1
:1002B000A4FE37F500E08328450037F500E093F809
:1002C000E8FF2322150183A841810965130505F480
:1002D00033D5A802AA8601470325C4FEAA87014890
:1002E00037F500E03303F702B308D8029A98338356
:1002F000F60233B6F6029A85B387C8003E860CC96B
:1003000050C9B7F700E09843B7F700E0136707015B
:1003100098C3B7F700E09843B7F700E013671702F8
:1003200098C30100B7F700E0DC4313F717008547D7
:10033000E31AF7FEB7F700E09843B7F700E0799BC0
:1003400098C30100724405618280011122CE001021
:100350002326A4FE37F500E08328450037F500E0AA
:1003600093F8E8FF2322150183A8418137157A000D
:100370001305052033D5A802AA8601470325C4FE2C
:10038000AA87014837F500E03303F702B308D80223
:100390009A983383F60233B6F6029A85B387C8007B
:1003A0003E860CC950C9B7F700E09843B7F700E0A4
:1003B0001367070198C3B7F700E09843B7F700E069
:1003C0001367170298C30100B7F700E0DC4313F787
:1003D00017008547E31AF7FEB7F700E09843B7F731
:1003E00000E0799B98C3010072440561828001118D
:1003F00022CE00102326A4FEAE87A305F4FE834779
:10040000B4FE85CB8327C4FEBD8B0547B317F70029
:1004100093960701C1828327C4FE13D75700B707FD
:1004200000200A0793870704BA979C43368798CB26
:100430003DA08327C4FEBD8B0547B317F7009396F5
:100440000701C1828327C4FE13D75700B7070020D6
:100450000A0793870704BA979C433687D8CB0100D5
:10046000724405618280011122CE00102326A4FE71
:100470008327C4FE958313F77700B70700200A0788
:1004800093870704BA979C439C470327C4FE7D8B40
:1004900085463397E600F98FB337F00093F7F70FEF
:1004A0003E85724405618280797122D60018232E20
:1004B000A4FC8327C4FD958393F7F70F9D8BA307B7
:1004C000F4FE8327C4FD93F7F70FFD8B2307F4FE9B
:1004D0000347F4FEB70700200A0793870704BA977B
:1004E0009C43D8478347E4FE8546B397F600C2078E
:1004F000C1833E868346F4FEB70700208A069387B1
:100500000704B6979C43318FD8C701003254456128
:100510008280797106D622D40018232EA4FC232CC5
:10052000B4FCB2872328D4FCA30BF4FC232004FEE4
:10053000232204FE232404FE8327C4FD958393F71E
:10054000F70F9D8BA307F4FE8327C4FD93F7F70FE6
:10055000FD8B2307F4FE8347F4FE91E785451145A3
:10056000EF50A02891A80347F4FE85476317F700D2
:1005700085452145EF50602781A00347F4FE894758
:100580006317F70085454145EF50202635A0034706
:10059000F4FE8D476318F700854513050002EF5000
:1005A000C02419A80347F4FE91476317F700854557
:1005B00013050004EF5060238347E4FE0547B3179B
:1005C000F700C207C1832310F4FE032784FD85478B
:1005D0006317F702832704FDC207C183A183C20703
:1005E000C18389E78D472322F4FE11A8832704FDE8
:1005F000C207C183A183C207C1832322F4FE8327DC
:1006000004FDC207C18393F7F70F2324F4FE0347C9
:10061000F4FEB70700200A0793870704BA979C43A4
:10062000130704FEBA853E85EF40302D032784FD75
:1006300085476319F7020347F4FEB70700200A074E
:1006400093870704BA9794438347E4FE0547B3179B
:10065000F700C207C183034774FD3A86BE8536851D
:10066000EF40504C0100B2502254456182801D7110
:1006700086CEA2CC80102326A4FA2324B4FA854582
:100680000325C4FAEF00A077AA873E871306D00699
:10069000B967938507823A85EF10F052832784FA71
:1006A000B337F00093F7F70F3E871306F006B967EC
:1006B000938507823A85EF101051832784FABD8312
:1006C0002315F4FE8357A4FE85073E87832784FA0B
:1006D000B3D7E7022314F4FE0325C4FAEF008078B1
:1006E000B7370140938707C02326F4FE0327C4FAD7
:1006F000A54763ECE7088327C4FA13972700B96777
:10070000938787A8BA979C438287B737014093871E
:1007100007C02326F4FE95A8B70700402326F4FE61
:10072000ADA0B7070040938707402326F4FEB1A889
:10073000B7170040938707802326F4FEB9A0B717A8
:100740000040938707C02326F4FE81A0B71700401E
:100750002326F4FE1DA8B7170040938707402326E1
:10076000F4FE25A0B7370140938707402326F4FE07
:1007700029A8B7570140938707C02326F4FE31A06C
:10078000B75701402326F4FE0100232E04FC23204A
:1007900004FE231204FE835784FE2310F4FE8357C5
:1007A000A4FE231EF4FC231104FE231F04FC2302D9
:1007B00004FE9307C4FDBE850325C4FEEF50A00BC5
:1007C000054685450325C4FEEF50501B854503258E
:1007D000C4FEEF50B051B56703AE877F1387877FA4
:1007E000032347001387877F832887001387877F2A
:1007F0000328C7001387877F084B1387877F4C4BDD
:100800001387877F104F1387877F544F1387877F06
:1008100018539387877FDC53232AC4FB232C64FA65
:10082000232E14FB232004FD2322A4FC2324B4FC48
:100830002326C4FC2328D4FC232AE4FC232CF4FC28
:100840008327C4FA93F7F70F8A07130704FFBA97B1
:1008500083A747FC8D453E85EF30C01A8327C4FA35
:100860008A07130704FFBA9783A747FC3E85EF303A
:10087000E01585450325C4FEEF50D0040100F64085
:10088000664425618280797106D622D40018232E11
:10089000A4FC232CB4FC032784FD8967938717717C
:1008A000B337F70093F7F70F3E8713065003B96786
:1008B0009385C7843A85EF101031B737014093878D
:1008C00007C02326F4FE8327C4FDC183BD8B2547C3
:1008D000636EF70613972700B967938707ABBA973C
:1008E0009C438287B7370140938707C02326F4FED5
:1008F000B1A8B70700402326F4FE89A8B707004037
:10090000938707402326F4FE91A0B71700409387F2
:1009100007802326F4FE1DA8B7170040938707C061
:100920002326F4FE25A0B7370140938707402326EE
:10093000F4FE29A8B7570140938707C02326F4FE89
:1009400031A0B75701402326F4FE01008327C4FEDF
:1009500083D7C7022315F4FE0357A4FE832784FD23
:100960003307F702896793870771B357F702231498
:10097000F4FE8327C4FDA1838D8B81EB8327C4FE06
:10098000035784FE239AE702A9A88327C4FDA18305
:1009900013F7370085476319F7008327C4FE035711
:1009A00084FE239CE70235A88327C4FDA18313F7A7
:1009B000370089476319F7008327C4FE035784FE75
:1009C000239EE70239A88327C4FDA18313F73700CC
:1009D0008D476318F7008327C4FE035784FE2390D6
:1009E000E7040100B2502254456182805D7186C6E1
:1009F000A2C48008232EA4FA232CB4FA232AC4FA12
:100A00008327C4FBC1838D453E85D52EAA873E87AB
:100A10001306D00AB9679385C7843A85EF10B01AD8
:100A2000032744FB896793871771B337F70093F760
:100A3000F70F3E871306F00AB9679385C7843A8596
:100A4000EF107018232E04FC232004FE231204FE52
:100A5000232604FC232804FC232A04FC232C04FC66
:100A6000231504FE8327C4FBC183BD8B3E85DD2E89
:100A70008327C4FB93F7F70F930680310146854522
:100A80003E85413C85450545EF403056B73701402E
:100A9000938707C02326F4FE8327C4FBC183BD8B45
:100AA0002547636EF70613972700B967938787ADCD
:100AB000BA979C438287B7370140938707C02326A4
:100AC000F4FEB1A8B70700402326F4FE89A8B707B3
:100AD0000040938707402326F4FE91A0B7170040FB
:100AE000938707802326F4FE1DA8B717004093873D
:100AF00007C02326F4FE25A0B7370140938707409F
:100B00002326F4FE29A8B7570140938707C0232660
:100B1000F4FE31A0B75701402326F4FE01008327DD
:100B2000C4FB13D7C7008D47631AF7008545B70785
:100B300016001385070CEF40700215AA8327C4FB2B
:100B400013D7C700C547631AF7008545B7071800D4
:100B500013850710EF40900019AA8327C4FB13D711
:100B6000C700C947631AF7008545B7071800138502
:100B70000720EF40A07EE5A88327C4FB13D7C7005A
:100B8000CD47631AF7008545B7071800138507306E
:100B9000EF40C07CE9A88327C4FB13D7C7009307A5
:100BA0002002631AF7008545B7171A0013850780DE
:100BB000EF40C07A6DA88327C4FB13D7C700930703
:100BC0003002631AF7008545B7171A00138507C06E
:100BD000EF40C07869A88327C4FB13D7C7009307E9
:100BE00010036317F70085450565EF40207741A0A6
:100BF0008327C4FB13D7C70093071007631AF700B6
:100C00008545B707008013854700EF40207585A014
:100C10008327C4FB13D7C70093073008631AF70074
:100C20008545B707138013850701EF40207381A026
:100C30008327C4FB13D7C70093071009631AF70073
:100C40008545B707158013850702EF40207105A081
:100C50008327C4FB13D7C700930730096319F70034
:100C60008545B707158013850704EF40206F03A75C
:100C70004181832784FBB357F702C1832315F4FE18
:100C800003A741818357A4FE8507BE86832784FB83
:100C9000B387F602B357F7022314F4FE035784FE1A
:100CA000832744FB3307F702896793870771B3579C
:100CB000F7022313F4FE835784FEFD17C207C18396
:100CC0002310F4FE8357A4FE231EF4FC231104FE1C
:100CD000231F04FC230204FE9307C4FDBE850325E5
:100CE000C4FEEF405039930700072316F4FC8547F4
:100CF0002317F4FC231804FC835764FE2319F4FC27
:100D00008947231AF4FC8947231BF4FC231C04FCA9
:100D1000231D04FC8327C4FBA1838D8B9DE39307D4
:100D2000C4FCBE850325C4FEEF40D04CA14503257D
:100D3000C4FEEF50A04B91450325C4FEEF50C05FA9
:100D400045A08327C4FBA18313F7370085476315AC
:100D5000F7029307C4FCBE850325C4FEEF40506331
:100D6000A1450325C4FEEF50204D93050040032507
:100D7000C4FEEF502061ADA08327C4FBA18313F70D
:100D8000370089476314F7029307C4FCBE85032527
:100D9000C4FEEF40107EA1450325C4FEEF50604F16
:100DA00091450325C4FEEF5040631DA88327C4FB73
:100DB000A18313F737008D476314F7029307C4FC30
:100DC000BE850325C4FEEF508018A1450325C4FE4F
:100DD000EF50E050930500400325C4FEEF50A0649F
:100DE00085450325C4FEEF50603385450325C4FEC9
:100DF000EF50402D0100B640264461618280797138
:100E000022D60018232EA4FC232CB4FC8547A3076C
:100E1000F4FE0327C4FD0A0793874189BA979C43D0
:100E200099EB0327C4FD0A0793874189BA970327E3
:100E300084FD98C315A00327C4FD0A079387418941
:100E4000BA979C43032784FD6316F7008547A307E1
:100E5000F4FE19A0A30704FE8347F4FE3E85325436
:100E600045618280011106CE22CC00102326A4FE0B
:100E70008327C4FE81EB8545856713850780EF4096
:100E8000D0166DA80327C4FE85476317F700854574
:100E90000545EF40F0195DA00327C4FE894763179D
:100EA000F70085450945EF40B01849A80327C4FE5F
:100EB0008D476317F70085451145EF407017BDA8B2
:100EC0000327C4FE91476317F70085452145EF408E
:100ED0003016ADA00327C4FE95476317F70085457C
:100EE0004145EF40F01499A80327C4FE99476318C1
:100EF000F700854513050002EF40901381A00327FA
:100F0000C4FE9D476317F70085450965EF40F00D66
:100F100035A00327C4FEA1476318F70085453705B0
:100F20000800EF40900C19A80327C4FEA5476317DB
:100F3000F700854537051000EF40300B0100F24007
:100F4000624405618280797122D60018232EA4FCA8
:100F5000B7370140938707C02326F4FE231504FE0C
:100F60000327C4FDA54763ECE7088327C4FD139757
:100F70002700B967938707B0BA979C438287B73732
:100F80000140938707C02326F4FE95A8B7070040C9
:100F90002326F4FEADA0B707004093870740232621
:100FA000F4FEB1A8B7170040938707802326F4FE0C
:100FB000B9A0B7170040938707C02326F4FE81A08D
:100FC000B71700402326F4FE1DA8B71700409387EB
:100FD00007402326F4FE25A0B7370140938707403A
:100FE0002326F4FE29A8B7570140938707C023267C
:100FF000F4FE31A0B75701402326F4FE0100032779
:10100000C4FD0A079387C18BBA9798438947631F2A
:10101000F7008327C4FE83D7470213970701418354
:101020008D47B357F7022315F4FE39A08327C4FE7A
:1010300083D747022315F4FE8357A4FE3E8532541E
:1010400045618280797122D60018232EA4FCB7371F
:101050000140938707C02326F4FE0327C4FDA5475C
:1010600063ECE7088327C4FD13972700B9679387CC
:1010700087B2BA979C438287B7370140938707C0EE
:101080002326F4FE95A8B70700402326F4FEADA062
:10109000B7070040938707402326F4FEB1A8B7178F
:1010A0000040938707802326F4FEB9A0B7170040BD
:1010B000938707C02326F4FE81A0B717004023269C
:1010C000F4FE1DA8B7170040938707402326F4FEBF
:1010D00025A0B7370140938707402326F4FE29A8AF
:1010E000B7570140938707C02326F4FE31A0B757B6
:1010F00001402326F4FE01008327C4FE2392070249
:101100000100325445618280011122CE0010232655
:10111000A4FEAE87A305F4FE0100B9670327C4FE51
:101120000A07938707B5BA979C4383D70700C2077E
:10113000C18393F70708F5D3B9670327C4FE0A07ED
:10114000938707B5BA979C433E878347B4FEC2078F
:10115000C1832312F70001007244056182800111EE
:1011600006CE22CC00102326A4FE2324B4FE83271F
:1011700084FEB337F00093F7F70F3E8713060005A0
:10118000B967938587873A85EF10E02339A88327CD
:1011900084FE138717002324E4FE8387070093F758
:1011A000F70FBE850325C4FE8537832784FE83871A
:1011B0000700F1FF0100F2406244056182800111E5
:1011C00006CE22CC00102326A4FEAE87A305F4FE93
:1011D000B9670327C4FE0A07938707B5BA979C43EC
:1011E0003E878347B4FE3E86930550523A85EF50C2
:1011F000005C138701838327C4FEBA9783C7070067
:1012000081453E85EF2010008347B4FE81CF1387D0
:1012100001838327C4FEBA9783C707003E85EF206A
:10122000E07A19A8138701838327C4FEBA9783C77E
:1012300007003E85EF20407B0100F24062440561DB
:101240008280011122CE00102326A4FE2324B4FEA6
:10125000B9670327C4FE0A07938707B5BA979C436B
:1012600083D70700C207C18393F707028DC7B96709
:101270000327C4FE0A07938707B5BA979C4383D711
:101280004700C207C18313F7F70F832784FE23802B
:10129000E700854711A081473E8572440561828041
:1012A000797106D622D40018232EA4FC232CB4FC7A
:1012B000232AC4FC2328D4FC032744FD832704FDF0
:1012C0003D8F8327C4FDB207F98F93B7170093F7BB
:1012D000F70F3E871306A00AB967938587873A857B
:1012E000EF10600E832744FD13D78700832704FD8A
:1012F000A183B307F74093B7170093F7F70F3E8723
:101300001306B00AB967938587873A85EF10A00B5B
:10131000832744FD93F7F70FE146014685453E8557
:10132000EFF02F9F832704FD93F7F70F93068004B8
:10133000014681453E85EFF0CF9D85450545EF404F
:10134000C04A032744FDC167FD17F98F0D671307D6
:1013500007386387E7200D67130707386369F704C9
:101360000567130757166381E716056713075716B6
:10137000636FF7001307F022638AE70C13076030EE
:101380006381E710130760126388E70865A60967A1
:1013900013078736638BE7160D67130707126387FA
:1013A000E71809671307A7146380E71461A6156798
:1013B0001307A738638EE72615671307A7386362FC
:1013C000F7021167130787386380E7201567130753
:1013D00087126385E722116713074712638CE71AA8
:1013E00091AE19671307C7386388E72A196713078F
:1013F000C7386368F7001967130767106384E72627
:1014000015AE1D671307E7106382E72C1D671307EE
:10141000E7386387E72E39AEB7070140D44FB707E7
:101420000140370700FC7D17758FD8CFB707014003
:10143000D843B70701406D9BD8C3B7070140D843D5
:10144000B707014013674700D8C3EDA4B7070140B1
:10145000D44FB7070140370700FC7D17758FD8CFF1
:10146000B7070140D44FB707014037070004558F35
:10147000D8CFB7070140D843B70701406D9BD8C309
:1014800055ACB7070140D44FB7070140370700FC00
:101490007D17758FD8CFB7070140D44FB7070140EC
:1014A00037070004558FD8CFB7070140D843B70797
:1014B00001406D9BD8C3B7070140D843B70701402F
:1014C00013674700D8C3BDA4B7070140D843B70787
:1014D00001405D9BD8C3B7070140D843B70701401F
:1014E00013678700D8C3B9A4B7070140D843B7072B
:1014F00001401377F7FCD8C3B7070140D843B707BB
:10150000014013670701D8C335A4B7070140D8438A
:10151000B70701401377F7FCD8C3B7070140D8439A
:10152000B707014013670703D8C329A4B7070140D1
:10153000D44FB70701403707FDFF7D17758FD8CF10
:10154000B7070140D44F832744FDA18313970701B8
:10155000B70703007D8FB7070140558FD8CFD9AAB1
:10156000B7070140D44FB70701403707FDFF7D178C
:10157000758FD8CFB7070140D44F832744FDA1838F
:1015800013970701B70703007D8FB7070140558FF9
:10159000D8CF4DA2B7070140D44FB7070140370756
:1015A000F4FF7D17758FD8CFB7070140D44F83273D
:1015B00044FDA18313972701B7070C007D8FB70760
:1015C0000140558FD8CFBDA2B7070140D44FB70710
:1015D00001403707F4FF7D17758FD8CFB70701405B
:1015E000D44F832744FDA18313972701B7070C002D
:1015F0007D8FB7070140558FD8CF2DAAB70701407F
:10160000D44FB70701403707D0FF7D17758FD8CF6C
:10161000B7070140D44F832744FDA18313974701A7
:10162000B70730007D8FB7070140558FD8CF19A27B
:10163000B7070140D44FB70701403707D0FF7D17E8
:10164000758FD8CFB7070140D44F832744FDA183BE
:1016500013974701B70730007D8FB7070140558FBB
:10166000D8CFC9A8B7070140D44FB7070140370703
:1016700040FF7D17758FD8CFB7070140D44F832720
:1016800044FDA18313976701B707C0007D8FB7079B
:101690000140558FD8CF79A8B7070140D44FB7077D
:1016A0000140370740FF7D17758FD8CFB70701403E
:1016B000D44F832744FDA18313976701B707C00068
:1016C0007D8FB7070140558FD8CFADA0B707014038
:1016D000D44FB7070140370700FD7D17758FD8CF6E
:1016E000B7070140D44F832744FDA1831397870197
:1016F000B70700037D8FB7070140558FD8CF1DA8CE
:10170000B7070140D44FB7070140370700FD7D17E9
:10171000758FD8CFB7070140D44F832744FDA183ED
:1017200013978701B70700037D8FB7070140558FD7
:10173000D8CF01008327C4FD91E785451165EF40AF
:10174000C00A69A80327C4FD85476318F7008545CB
:1017500037050200EF40C00D51A00327C4FD8947A3
:101760006318F700854537050400EF40600CBDA005
:101770000327C4FD8D476318F7008545370508002A
:10178000EF40000BA1A80327C4FD91476318F700A1
:10179000854537051000EF40A00989A00327C4FD47
:1017A00095476318F700854513050004EF4040088E
:1017B00035A00327C4FD99476318F7008545130535
:1017C0000008EF40E00619A80327C4FD9D476317F2
:1017D000F700854513050010EF408005232004FE27
:1017E000232204FE232404FE232604FE832784FDF3
:1017F0002320F4FE231204FE231304FE231404FE0C
:10180000231604FEB1472315F4FEB9670327C4FD70
:101810000A07938707B5BA979C433E87930704FE50
:10182000BE853A85EF40704FB9670327C4FD0A07AC
:10183000938707B5BA979C4385453E85EF40307145
:101840000100B250225445618280411106C622C473
:10185000000883A741840547638BE7006388070C72
:101860000947638DE7000D47638FE702E9A083A76F
:1018700001841387170023A0E18475A883A701843E
:101880001387170023A0E18403A70184A54763F110
:10189000E70AB7070020938707049C4B1167D8CB52
:1018A00023A0018471A003A7818485476314F708EE
:1018B0001305F008EFE03FBBAA87ADC31945EFF071
:1018C0008FE8AA873E8783A701841D8F930760094D
:1018D00063F2E7061945EFF0EFF683A70184D3F72B
:1018E00017D05385F720EF80E07FB96703A6878A7A
:1018F00083A6C78AEF706044AA872E883E85C2857A
:10190000EF800067AA87139707014183B70700207C
:10191000239CE726094723A4E18429A81945EFF071
:101920008FE2AA873E8723A0E18429A0010021A09D
:10193000010011A001000100B24022444101828057
:10194000411106C622C4000883A741840947637C6D
:10195000F7000D47639AE7001945EFF0AFEE054732
:1019600023A4E18411A001000100B24022444101FE
:101970008280011106CE22CC0010232204FE83C7F0
:10198000D1846381071409A8930734FE0546BE85F8
:101990001385418EEF10801A930734FEBE851D45D6
:1019A000EFF03F8AAA87EDF3034734FEA947631B94
:1019B000F71099472322F4FE130744FE930784FE91
:1019C00085463A86BE851385418EEF10C075930714
:1019D00084FE138737000D46B9679385078B3A85D8
:1019E000EF90E055AA879DEB03A7418589476304E3
:1019F000F70C054723AAE1841385418EEF10600C94
:101A0000AA872322F4FE930744FE81463E869385EF
:101A100001981385418EEF10007171A8930784FE21
:101A2000138737000D46B9679385478B3A85EF904A
:101A30000051AA879DEB03A701858947630DF7062F
:101A4000054723A8E1841385418EEF108007AA87FC
:101A50002322F4FE930744FE81463E86938501903F
:101A60001385418EEF10206CB9A0930784FE138775
:101A700037000D46B9679385878B3A85EF90204CE8
:101A8000AA8795EB03A7818589476306F702054777
:101A900023ACE1841385418EEF10A002AA87232294
:101AA000F4FE930744FE81463E86938501A013858C
:101AB000418EEF1040671385418EEF00F05B0547C4
:101AC0002386E1840100F240624405618280411175
:101AD00022C600080100324441018280411122C621
:101AE0000008B71702409843B71702401367170062
:101AF00098C3B7170240D443B71702403707FFF81F
:101B0000758FD8C3B71702409443B7170240370701
:101B1000F7FE7D17758F98C3B71702409443B71728
:101B200002403707FCFF7D17758F98C3B717024037
:101B3000D443B7170240370781FF7D17758FD8C38D
:101B4000B717024037079F0098C701003244410190
:101B50008280797106D622D40018232EA4FCBD3FC2
:101B6000232604FE232404FEB71702409443B7172C
:101B700002404167558F98C3B71702409843B70793
:101B80000200F98F2324F4FE8327C4FE8507232651
:101B9000F4FE832784FE91E70327C4FE8567E31DD7
:101BA000F7FCB71702409843B7070200F98F89C7BF
:101BB00085472324F4FE19A0232404FE032784FE72
:101BC00085476312F71637170240B717024058438C
:101BD000D8C337170240B71702405843D8C3371746
:101BE0000240B71702405843D8C3B7170240D44346
:101BF000B71702403707C1FF7D17758FD8C303277A
:101C0000C4FDB747950893870740631BF700B717D4
:101C10000240D443B71702404167558FD8C355A837
:101C20000327C4FDB7172707938707E0631CF70056
:101C3000B7170240D443B717024037073900558F12
:101C4000D8C341A80327C4FDB7E7B8059387078029
:101C5000631CF700B7170240D443B7170240370799
:101C60002900558FD8C3B5A00327C4FDB7A74A04E0
:101C700093870720631CF700B7170240D443B717B8
:101C8000024037071D00558FD8C3A1A00327C4FD0C
:101C9000B777DC02938707C0631CF700B7170240D1
:101CA000D443B717024037071100558FD8C315A08A
:101CB0000327C4FDB7376E0193870760631BF700E6
:101CC000B7170240D443B717024037070500558FB6
:101CD000D8C3B71702409443B71702403707000133
:101CE000558F98C30100B71702409843B707000209
:101CF000F98FF5DBB7170240D843B7170240719B45
:101D0000D8C3B7170240D843B7170240136727005C
:101D1000D8C30100B7170240DC4313F7C700A1473F
:101D2000E31AF7FE11A001A0B2502254456182804F
:101D3000011106CE22CC00102326A4FE0327C4FEE8
:101D400023AAE180613B0325C4FE2135EF10B05387
:101D50000100F240624405618280411122C6000800
:101D600001000100324441018280011106CE22CCE3
:101D70000010232604FE232404FE232604FE25A0AF
:101D8000232404FE39A0D13F832784FE8507232422
:101D9000F4FE032784FEC167E367F7FE8327C4FED2
:101DA00085072326F4FE0327C4FE9307F00FE3F90B
:101DB000E7FC0100F240624405618280411122C6C5
:101DC00000080100324441018280011106CE22CC7C
:101DD00000102326A4FE8325C4FE0945EFF02FB88A
:101DE0000100F240624405618280130101D923267B
:101DF00011262324812623229126801C232EA4D859
:101E0000232CB4D8232AC4D82328D4D8231504FEDD
:101E1000231404FE231304FE231204FE231104FEE4
:101E2000032584D9EF908010AA87C207C1872313A6
:101E3000F4FE83D7C1AD89C79387C1AD9C4B829710
:101E400083C7D18593F7F70F638D074A83D7C1AD59
:101E5000638707449387C1ADD447835724FE139704
:101E60000701418793170701C1838507C207C18313
:101E7000C207C1872311F4FE93170701C18303260C
:101E8000C4D9BE8501458296832784D92326F4FED2
:101E9000032584D9EF908009AA87C207C18723133D
:101EA000F4FE9387C1AD83D727003E879387C1ADEA
:101EB00083C76700B347F702C207C1872312F4FE46
:101EC00001008327C4FE138717002326E4FE8387BF
:101ED0000700E5FB231404FEA1A88327C4FEFD1719
:101EE0002326F4FE8327C4FE038707009307F0022E
:101EF000630AF7008327C4FE038707009307C00522
:101F0000631BF700835784FEC207C1838507C2079E
:101F1000C1832314F4FE835764FEC207C187C2073E
:101F2000C183FD17C207C183C207C1872313F4FE13
:101F3000835784FE139707014183854763E8E700D1
:101F4000835764FEC207C187E3D907F8835764FE4D
:101F5000C207C18763C207028327C4FE8507232601
:101F6000F4FE130704EE0326C4FEB9679385079AAF
:101F70003A85EF8050771DA8835784FEC207C1833E
:101F800081EF130704EE0326C4FEB9679385C79A51
:101F90003A85EF80507519A8130704EE0326C4FE96
:101FA000B9679385079A3A85EF80F073231504FE8D
:101FB00021AA231404FE59A0930704EE3E85EF8066
:101FC000F0762A87835784FEC207C183BE86835773
:101FD000A4FEC207C1833E86835744FEC207C18761
:101FE000B307F602B6976367F706835784FEC20706
:101FF000C1833E878357A4FEC207C183BE86835731
:1020000044FEC207C187B387F602BA97035784FE1E
:1020100042074183BA86130704FFBA97038707EF85
:10202000930704FFB6972388E7EA835784FEC20725
:10203000C1838507C207C1832314F4FE835784FE3E
:10204000C207C1833E87835744FEC207C187E34569
:10205000F7F611A00100835784FEC207C18313075E
:1020600004FFBA97238807EA9387C1AD03A8C70086
:102070009387C1AD83C777001397070141838357C7
:1020800024FE93960701C18693970601C1838507B5
:10209000C207C183C207C1872311F4FE93970601CB
:1020A000C183B307F702C207C183130704EA3A8664
:1020B000BE85014502988357A4FEC207C1838507E8
:1020C000C207C1832315F4FE8357A4FEC207C18350
:1020D000BE84930704EE3E85EF8050652A878357C0
:1020E00044FEC207C187B357F7028507E3E3F4EC68
:1020F000130704EE032644D9B9679385C79B3A8535
:10210000EF80705E9387C1AD03A8C7009387C1AD10
:1021100083C77700139707014183835724FE939663
:102120000701C18693970601C1838507C207C18352
:10213000C207C1872311F4FE93970601C183B30739
:10214000F702C207C183130704EE3A86BE85014534
:102150000298832704D96386071A231504FE21AA4F
:10216000231404FE59A0032504D9EF80305C2A878C
:10217000835784FEC207C183BE868357A4FEC2076D
:10218000C1833E86835744FEC207C187B307F60268
:10219000B6976368F706835784FEC207C1833E87FC
:1021A0008357A4FEC207C183BE86835744FEC2077D
:1021B000C187B387F602BA973E87832704D9BA97B7
:1021C000035784FE42074183BA86038707009307BB
:1021D00004FFB6972388E7EA835784FEC207C183CA
:1021E0008507C207C1832314F4FE835784FEC20708
:1021F000C1833E87835744FEC207C187E345F7F694
:1022000011A00100835784FEC207C183130704FF96
:10221000BA97238807EA9387C1AD03A8C7009387BD
:10222000C1AD83C77700139707014183835724FE0D
:1022300093960701C18693970601C1838507C2075C
:10224000C183C207C1872311F4FE93970601C1839E
:10225000B307F702C207C183130704EA3A86BE85B3
:10226000014502988357A4FEC207C1838507C207B0
:10227000C1832315F4FE8357A4FEC207C183BE8425
:10228000032504D9EF80904A2A87835744FEC2076A
:10229000C187B357F7028507E3E4F4EC9DA09307E9
:1022A00004DA1306001081453E85EFD07FF5938751
:1022B000C1AD9C470325C4D98297832704D999CF00
:1022C000130504DA032704D9832644D9032684D9C5
:1022D000B9679385879CEF80104129A8130704DA1A
:1022E000832644D9032684D9B9679385479E3A85C6
:1022F000EF80703F9387C1AD9847930704DA3E851E
:10230000029701008320C1260324812683244126CD
:10231000130101278280411106C622C4000883C729
:10232000D18593F7F70F89CF9385C1850945EFE0F4
:102330005FF105469385C185138501ACEF00100060
:102340000100B240224441018280797106D622D434
:102350000018232EA4FC232CB4FC232AC4FC23261F
:1023600004FEA9A00100B967938707B59C479305B0
:1023700000043E85EF40C052AA87F5D7B96793871E
:1023800007B59C47BE86832784FD13871700232C3F
:10239000E4FC83870700C207C183BE853685EF4012
:1023A000404D8327C4FE85072326F4FE0327C4FE81
:1023B000832744FDE348F7FA832744FD3E85B25066
:1023C000225445618280011106CE22CC0010AA87DA
:1023D0002324B4FE2322C4FEA307F4FE8347F4FEA5
:1023E000B1E383C7818193F7F70F8DCF83C7E18571
:1023F00091C301A083C7E185850713F7F70F238FEA
:10240000E184EF10A065EFF07F9B8146032644FE38
:10241000832584FEB9671385C79FEFF01F9DEFF0FA
:10242000DF94E5B70100F24062440561828001114A
:1024300022CE00102326A4FE8327C4FE239007008B
:102440008327C4FE7D572391E7008327C4FE7D5771
:102450002392E7008327C4FE7D572383E700832769
:10246000C4FE7D57A383E7008327C4FE23A407008F
:102470008327C4FE23A607008327C4FE23A80700E2
:102480000100724405618280011122CE00102326D2
:10249000A4FE8327C4FE03D70700239EE1AC832755
:1024A000C4FE03D727009387C1AD2391E70083279C
:1024B000C4FE03D747009387C1AD2392E70083276B
:1024C000C4FE03C767009387C1AD2383E70083275A
:1024D000C4FE03C777009387C1ADA383E7008327BA
:1024E000C4FE98479387C1AD98C78327C4FED847D9
:1024F0009387C1ADD8C78327C4FE984B9387C1ADDE
:1025000098CB0547A38EE184010072440561828067
:10251000797106D622D400189307C4FD3E85013F89
:10252000B72700009387A7DC2322F4FE9307C4FD9E
:102530003E85993F89679386B70289671386A7020C
:10254000F167938507200945EFE09FD593060004C6
:10255000138601A88145138501ACEF10001785454E
:102560000945EFE0DFC50100B25022544561828089
:10257000011122CE00102326A4FE2324B4FE8327BB
:10258000C4FE03C7970083C6A700A206558F83C663
:10259000B700C206558F83C7C700E207D98F3E87B1
:1025A000832784FE3E978327C4FE9375F70F83C667
:1025B0009700818A3686AE86D18EA384D700935643
:1025C000870093F5F60F83C6A700818A3686AE860C
:1025D000D18E2385D7009356070193F5F60F83C656
:1025E000B700818A3686AE86D18EA385D700135672
:1025F000870103C7C700018BBA863287558F2386B0
:10260000E70055A08327C4FE03C7970083C6A70031
:10261000A206558F83C6B700C206558F83C7C70071
:10262000E207D98F3E868327C4FE03C7570183C6BE
:102630006701A206558F83C67701C206558F83C7EF
:102640008701E207D98F3307F6408327C4FE9375CD
:10265000F70F83C69700818A3686AE86D18EA38413
:10266000D7009356870093F5F60F83C6A700818A9B
:102670003686AE86D18E2385D7009356070193F513
:10268000F60F83C6B700818A3686AE86D18EA385C3
:10269000D7001356870103C7C700018BBA8632875C
:1026A000558F2386E7008327C4FE03C7570183C6DF
:1026B0006701A206558F83C67701C206558F83C76F
:1026C0008701E207D98F3E868327C4FE03C79700A0
:1026D00083C6A700A206558F83C6B700C206558FD2
:1026E00083C7C700E207D98FE3FEC7F00100724439
:1026F00005618280011122CE00102326A4FE23242E
:10270000B4FE8327C4FE03C7D70083C6E700A20632
:10271000558F83C6F700C206558F83C70701E207AE
:10272000D98F3E87832784FE3E978327C4FE937507
:10273000F70F83C6D700818A3686AE86D18EA386F0
:10274000D7009356870093F5F60F83C6E700818A7A
:102750003686AE86D18E2387D7009356070193F530
:10276000F60F83C6F700818A3686AE86D18EA387A0
:10277000D7001356870103C70701018BBA8632873A
:10278000558F2388E70055A08327C4FE03C7D700D1
:1027900083C6E700A206558F83C6F700C206558F91
:1027A00083C70701E207D98F3E868327C4FE03C78C
:1027B000570183C66701A206558F83C67701C206FB
:1027C000558F83C78701E207D98F3307F6408327E8
:1027D000C4FE9375F70F83C6D700818A3686AE860E
:1027E000D18EA386D7009356870093F5F60F83C644
:1027F000E700818A3686AE86D18E2387D70093562E
:10280000070193F5F60F83C6F700818A3686AE86F8
:10281000D18EA387D7001356870103C70701018B09
:10282000BA863287558F2388E7008327C4FE03C703
:10283000570183C66701A206558F83C67701C2067A
:10284000558F83C78701E207D98F3E868327C4FE51
:1028500003C7D70083C6E700A206558F83C6F700DB
:10286000C206558F83C70701E207D98FE3FEC7F081
:102870000100724405618280797106D622D4001865
:10288000232EA4FC8327C4FDB337F00093F7F70F82
:102890003E8713065005B967938587A13A85EFF007
:1028A0009FB2232604FE8327C4FD83C7070093E756
:1028B000170013F7F70F8327C4FD2380E700832752
:1028C000C4FD03C79700018BA384E70003C7A700DB
:1028D000018B2385E70003C7B700018BA385E700C1
:1028E00003C7C700018B2386E7008327C4FD03C706
:1028F000D700018BA386E70003C7E700018B23877E
:10290000E70003C7F700018BA387E70003C70701B0
:10291000018B2388E7008327C4FD03C7570183C6C3
:102920006701A206558F83C67701C206558F83C7FC
:102930008701E207D98F3E878327C4FD9375F70F80
:1029400083C61701818A3686AE86D18EA388D700CA
:102950009356870093F5F60F83C62701818A368642
:10296000AE86D18E2389D7009356070193F5F60FD3
:1029700083C63701818A3686AE86D18EA389D70079
:102980001356870103C74701018BBA863287558FDB
:10299000238AE7008327C4FD03C7170083C62700E7
:1029A000A206558F83C63700C206558F83C74700DE
:1029B000E207D98F0547638DE70489C7094763801C
:1029C000E70AEDA08327C4FD03C7570083C667004D
:1029D000A206558F83C67700C206558F83C787002E
:1029E000E207D98F3E858327C4FD03C7570183C6FD
:1029F0006701A206558F83C67701C206558F83C72C
:102A00008701E207D98F3E868145EFD06FFF79A815
:102A10008327C4FD03C7570083C66700A206558FEE
:102A200083C67700C206558F83C78700E207D98F18
:102A30003E858327C4FD03C7570183C66701A206ED
:102A4000558F83C67701C206558F83C78701E2077A
:102A5000D98F86073E868145EFD08FFA81A88327DC
:102A6000C4FD03C7570083C66700A206558F83C6FF
:102A70007700C206558F83C78700E207D98F3E854E
:102A80008327C4FD03C7570183C66701A206558F7C
:102A900083C67701C206558F83C78701E207D98FA6
:102AA0008A073E868145EFD0AFF501008327C4FD3C
:102AB000238007008327C4FE3E85B250225445611F
:102AC0008280011106CE22CC00102326A4FE83278B
:102AD000C4FEB337F00093F7F70F3E871306600785
:102AE000B967938587A13A85EFF0FF8D8327C4FEF0
:102AF00003C7570183C66701A206558F83C67701B6
:102B0000C206558F83C78701E207D98F3E86832788
:102B1000C4FE03C7170183C62701A206558F83C6CB
:102B20003701C206558F83C74701E207D98FB30724
:102B3000F6403E85F240624405618280797106D696
:102B400022D40018232EA4FC232CB4FC232AC4FC7A
:102B50008327C4FDB337F00093F7F70F3E871306C2
:102B6000000BB967938587A13A85EFF0DF852326AF
:102B700004FE232404FE832784FD89E78D47232652
:102B8000F4FE59AB8327C4FD83C70700958B93F7E9
:102B9000F70F89C791472326F4FEBDAB8327C4FDF9
:102BA00083C7070093E7470013F7F70F8327C4FD98
:102BB0002380E7008327C4FD03C7170183C62701CD
:102BC000A206558F83C63701C206558F83C74701BA
:102BD000E207D98F3E87832744FD6361F75283273D
:102BE000C4FD03C7570183C66701A206558F83C67C
:102BF0007701C206558F83C78701E207D98F3E86CA
:102C00008327C4FD03C7970083C6A700A206558F7C
:102C100083C6B700C206558F83C7C700E207D98FA6
:102C2000B307F6402324F4FE032744FD832784FEE4
:102C300063F3E72E8327C4FD03C7170083C627006D
:102C4000A206558F83C63700C206558F83C747003B
:102C5000E207D98F05476385E70E89C70947638671
:102C6000E71C11A98327C4FD03C7570083C667006B
:102C7000A206558F83C67700C206558F83C787008B
:102C8000E207D98F3E868327C4FD03C7970083C61A
:102C9000A700A206558F83C6B700C206558F83C70B
:102CA000C700E207D98FB297032684FE832584FDEF
:102CB0003E85EF70A059832584FE0325C4FDEFF007
:102CC0003F8B8327C4FD03C7570083C66700A20656
:102CD000558F83C67700C206558F83C78700E207EA
:102CE000D98F3E868327C4FD03C7970083C6A700FC
:102CF000A206558F83C6B700C206558F83C7C7008B
:102D0000E207D98FB306F600032784FD832784FEEC
:102D1000B305F700032744FD832784FEB307F7407C
:102D20003E863685EF708052032744FD832784FE5C
:102D3000B307F740BE850325C4FDEFF07F8325AEC2
:102D40008327C4FD03C7570083C66700A206558FBB
:102D500083C67700C206558F83C78700E207D98FE5
:102D60003E868327C4FD03C7970083C6A700A2063B
:102D7000558F83C6B700C206558F83C7C700E207C9
:102D8000D98F86073307F600832784FE86073E86A1
:102D9000832584FD3A85EF70604B832584FE0325EF
:102DA000C4FDEFF0EFFC8327C4FD03C7570083C6C3
:102DB0006700A206558F83C67700C206558F83C76A
:102DC0008700E207D98F3E868327C4FD03C797009B
:102DD00083C6A700A206558F83C6B700C206558FCB
:102DE00083C7C700E207D98F8607B306F60083279B
:102DF00084FE8607032784FDB305F700032744FDFF
:102E0000832784FEB307F74086073E863685EF703A
:102E1000E043032744FD832784FEB307F740BE85C4
:102E20000325C4FDEFF0CFF4B9A48327C4FD03C785
:102E3000570083C66700A206558F83C67700C20677
:102E4000558F83C78700E207D98F3E868327C4FD4D
:102E500003C7970083C6A700A206558F83C6B70095
:102E6000C206558F83C7C700E207D98F8A07330789
:102E7000F600832784FE8A073E86832584FD3A85F3
:102E8000EF70C03C832584FE0325C4FDEFF04FEEB8
:102E90008327C4FD03C7570083C66700A206558F6A
:102EA00083C67700C206558F83C78700E207D98F94
:102EB0003E868327C4FD03C7970083C6A700A206EA
:102EC000558F83C6B700C206558F83C7C700E20778
:102ED000D98F8A07B306F600832784FE8A07032763
:102EE00084FDB305F700032744FD832784FEB30761
:102EF000F7408A073E863685EF704035032744FD4C
:102F0000832784FEB307F740BE850325C4FDEFF099
:102F10002FE601008DA28327C4FD03C7170083C6D7
:102F20002700A206558F83C63700C206558F83C778
:102F30004700E207D98F05476387E70689C7094736
:102F40006387E70C0DAA8327C4FD03C7570083C618
:102F50006700A206558F83C67700C206558F83C7C8
:102F60008700E207D98F3E868327C4FD03C79700F9
:102F700083C6A700A206558F83C6B700C206558F29
:102F800083C7C700E207D98FB297032644FD832584
:102F900084FD3E85EF70802B832544FD0325C4FD11
:102FA000EFF00FDDC9A88327C4FD03C7570083C610
:102FB0006700A206558F83C67700C206558F83C768
:102FC0008700E207D98F3E868327C4FD03C7970099
:102FD00083C6A700A206558F83C6B700C206558FC9
:102FE00083C7C700E207D98F86073307F600832718
:102FF00044FD86073E86832584FD3A85EF700025D3
:10300000832544FD0325C4FDEFF08FD6ADA08327B3
:10301000C4FD03C7570083C66700A206558F83C649
:103020007700C206558F83C78700E207D98F3E8697
:103030008327C4FD03C7970083C6A700A206558F48
:1030400083C6B700C206558F83C7C700E207D98F72
:103050008A073307F600832744FD8A073E868325C7
:1030600084FD3A85EF70801E832544FD0325C4FD51
:10307000EFF00FD001008327C4FD03C7170183C6FB
:103080002701A206558F83C63701C206558F83C715
:103090004701E207D98F3E87832744FD1D8F832791
:1030A000C4FD9375F70F83C61701818A3686AE86F5
:1030B000D18EA388D7009356870093F5F60F83C669
:1030C0002701818A3686AE86D18E2389D700935612
:1030D000070193F5F60F83C63701818A3686AE86DF
:1030E000D18EA389D7001356870103C74701018BEF
:1030F000BA863287558F238AE70021A09547232679
:10310000F4FE8327C4FD83C70700ED9B13F7F70F79
:103110008327C4FD2380E7008327C4FE3E85B25089
:10312000225445618280797106D622D40018232E5C
:10313000A4FC232CB4FC232AC4FC2328D4FC83271E
:10314000C4FDB337F00093F7F70F3E871306101650
:10315000B967938587A13A85EFF0EFA6832744FDF1
:10316000B337F00093F7F70F3E8713062016B967C1
:10317000938587A13A85EFF00FA5232604FE23242B
:1031800004FE232204FE832784FD89E78D4723263E
:10319000F4FEA9A18327C4FD83C707008D8B93F795
:1031A000F70F91CB832744FD032744FE98C399472B
:1031B0002326F4FE21A30325C4FDEFF09F902322D4
:1031C000A4FE832744FD9C43032744FE6379F70252
:1031D000832744FD032744FE98C39D472326F4FE1E
:1031E000832744FE89EF8327C4FD83C70700DD9B47
:1031F00013F7F70F8327C4FD2380E700C1A18327BE
:10320000C4FD83C7070093E7870013F7F70F8327F1
:10321000C4FD2380E7008327C4FD03C7570183C68D
:103220006701A206558F83C67701C206558F83C7F3
:103230008701E207D98F3E868327C4FD03C7D700E5
:1032400083C6E700A206558F83C6F700C206558FD6
:1032500083C70701E207D98FB307F6402324F4FEA2
:10326000832744FD9C43032784FE6366F71483276A
:10327000C4FD03C7170083C62700A206558F83C667
:103280003700C206558F83C74700E207D98F05472D
:103290006384E70689C70947638FE70A2DA683275A
:1032A000C4FD03C7570083C66700A206558F83C6B7
:1032B0007700C206558F83C78700E207D98F3E8605
:1032C0008327C4FD03C7D70083C6E700A206558F36
:1032D00083C6F700C206558F83C70701E207D98F5F
:1032E0003307F600832744FD9C433E86BA850325B9
:1032F00084FDEF60B075C1AC8327C4FD03C75700E0
:1033000083C66700A206558F83C67700C206558F15
:1033100083C78700E207D98F3E868327C4FD03C792
:10332000D70083C6E700A206558F83C6F700C20602
:10333000558F83C70701E207D98F86073307F60049
:10334000832744FD9C4386073E86BA85032584FD7A
:10335000EF60D06F8DAC8327C4FD03C7570083C6D1
:103360006700A206558F83C67700C206558F83C7B4
:103370008700E207D98F3E868327C4FD03C7D700A5
:1033800083C6E700A206558F83C6F700C206558F95
:1033900083C70701E207D98F8A073307F60083271F
:1033A00044FD9C438A073E86BA85032584FDEF6071
:1033B000F069010009AC8327C4FD03C7170083C669
:1033C0002700A206558F83C63700C206558F83C7D4
:1033D0004700E207D98F05476383E70A89C7094792
:1033E0006381E714CDA28327C4FD03C7570083C6BA
:1033F0006700A206558F83C67700C206558F83C724
:103400008700E207D98F3E868327C4FD03C7D70014
:1034100083C6E700A206558F83C6F700C206558F04
:1034200083C70701E207D98FB297032684FEBE85C2
:10343000032584FDEF609061032784FD832784FECC
:103440003305F7008327C4FD03C7570083C6670011
:10345000A206558F83C67700C206558F83C78700A3
:10346000E207D98FBE86832744FD9843832784FED5
:10347000B307F7403E86B685EF60505DA9A283276B
:10348000C4FD03C7570083C66700A206558F83C6D5
:103490007700C206558F83C78700E207D98F3E8623
:1034A0008327C4FD03C7D70083C6E700A206558F54
:1034B00083C6F700C206558F83C70701E207D98F7D
:1034C00086073307F600832784FE86073E86BA8583
:1034D000032584FDEF609057832784FE860703272A
:1034E00084FD3305F7008327C4FD03C7570083C657
:1034F0006700A206558F83C67700C206558F83C723
:103500008700E207D98FBE86832744FD984383272F
:1035100084FEB307F74086073E86B685EF601053FA
:103520005DA08327C4FD03C7570083C66700A206BA
:10353000558F83C67700C206558F83C78700E20781
:10354000D98F3E868327C4FD03C7D70083C6E70013
:10355000A206558F83C6F700C206558F83C70701A1
:10356000E207D98F8A073307F600832784FE8A078C
:103570003E86BA85032584FDEF60504D832784FE87
:103580008A07032784FD3305F7008327C4FD03C79B
:10359000570083C66700A206558F83C67700C20610
:1035A000558F83C78700E207D98FBE86832744FDE6
:1035B0009843832784FEB307F7408A073E86B68583
:1035C000EF60D04801008327C4FD83C70700DD9B5F
:1035D00013F7F70F8327C4FD2380E700832704FD3B
:1035E000F1EF8327C4FD03C70700AD476316F7005B
:1035F00089472326F4FED9A08327C4FD83C707008B
:1036000093E7270013F7F70F8327C4FD2380E70014
:10361000832744FD9C43BE850325C4FDEFF08F8DB9
:103620008327C4FD03C7170183C62701A206558F50
:1036300083C63701C206558F83C74701E207D98F7A
:103640003E87832744FD9C433E978327C4FD9375A3
:10365000F70F83C61701818A3686AE86D18EA3887E
:10366000D7009356870093F5F60F83C62701818A0A
:103670003686AE86D18E2389D7009356070193F5FF
:10368000F60F83C63701818A3686AE86D18EA3892E
:10369000D7001356870103C74701018BBA863287CB
:1036A000558F238AE7008327C4FD83C70700F59B56
:1036B00013F7F70F8327C4FD2380E7008327C4FE99
:1036C0003E85B250225445618280797106D622D45B
:1036D0000018232EA4FC232CB4FC232AC4FC23288A
:1036E000D4FC8327C4FDB337F00093F7F70F3E8770
:1036F00013062022B967938587A13A85EFE0BFCCF6
:10370000232604FE8327C4FD032744FD1376F70F09
:1037100003C75700018BBA863287558FA382E70013
:10372000032744FD21831376F70F03C76700018B3E
:10373000BA863287558F2383E700032744FD4183F0
:103740001376F70F03C77700018BBA863287558F40
:10375000A383E700032744FD1356870103C78700AF
:10376000018BBA863287558F2384E7008327C4FDF7
:10377000238007008327C4FD032784FD1376F70FFA
:1037800003C71700018BBA863287558FA380E700E5
:10379000032784FD21831376F70F03C72700018BCE
:1037A000BA863287558F2381E700032784FD418342
:1037B0001376F70F03C73700018BBA863287558F10
:1037C000A381E700032784FD1356870103C7470041
:1037D000018BBA863287558F2382E7008327C4FD89
:1037E00003C79700018BA384E70003C7A700018BE1
:1037F0002385E70003C7B700018BA385E70003C754
:10380000C700018B2386E7008327C4FD03C7D700C9
:10381000018BA386E70003C7E700018B2387E7003E
:1038200003C7F700018BA387E70003C70701018BDC
:103830002388E7008327C4FD032704FD1376F70FD1
:1038400003C71701018BBA863287558FA388E7001B
:10385000032704FD21831376F70F03C72701018B8C
:10386000BA863287558F2389E700032704FD4183F9
:103870001376F70F03C73701018BBA863287558F4E
:10388000A389E700032704FD1356870103C74701F7
:10389000018BBA863287558F238AE7008327C4FDC0
:1038A000032704FD1376F70F03C75701018BBA8670
:1038B0003287558FA38AE700032704FD21831376FF
:1038C000F70F03C76701018BBA863287558F238BA9
:1038D000E700032704FD41831376F70F03C7770141
:1038E000018BBA863287558FA38BE700032704FD2F
:1038F0001356870103C78701018BBA863287558F1C
:10390000238CE7008327C4FE3E85B25022544561D4
:103910008280411122C600089967938787087390B7
:1039200007800100324441018280411122C6000813
:103930009967739007800100324441018280011130
:1039400022CE00102326A4FE8327C4FEFD8B05474C
:10395000B316F70037E700E08327C4FE958393870B
:1039600007048A07BA9794C30100724405618280F4
:10397000011122CE00102326A4FE8327C4FEFD8B56
:103980000547B316F70037E700E08327C4FE9583A9
:10399000938707068A07BA9794C3010072440561AA
:1039A0008280011122CE00102326A4FEAE87A3053B
:1039B000F4FE37E700E08327C4FEBA970347B4FE5E
:1039C0002380E7400100724405618280011106CE28
:1039D00022CC00102326A4FE0325C4FE8D3701004F
:1039E000F240624405618280011106CE22CC0010B3
:1039F0002326A4FE0325C4FEA53F0100F240624435
:103A000005618280011106CE22CC00102326A4FE7F
:103A1000AE87A305F4FE8347B4FEBE850325C4FE2E
:103A200049370100F240624405618280011106CEEF
:103A300022CC00102326A4FE8327C4FE99C783A7A7
:103A400001861387F7FF23A0E18683A7018691E310
:103A5000C9350100F240624405618280411106C609
:103A600022C4000883A7018691E3C13583A701869C
:103A70001387170023A0E18683A701863E85B24005
:103A8000224441018280411106C622C4000801453A
:103A9000713F0100B240224441018280357106CF5E
:103AA00016CD1ACB1EC922C72AC52EC332C1B6DE17
:103AB000BADCBEDAC2D8C6D6F2D4F6D2FAD0FECE7E
:103AC00082E686E48AE28EE012FE16FC1AFA1EF8FE
:103AD0002AF62EF432F236F03AEE3EEC42EA46E8AE
:103AE00072E676E47AE27EE0001193055052B74721
:103AF000014013850780EF20105FAA8789CB9305CB
:103B00005052B747014013850780EF20F06D010048
:103B1000FA40EA425A43CA433A442A459A450A4679
:103B2000F6566657D6574658B658265E965E065FD6
:103B3000F64F3660A660166186617272E272527349
:103B4000C2733275A275127682767267E267526826
:103B5000C268326EA26E126F826F0D6173002030E8
:103B6000357106CF16CD1ACB1EC922C72AC52EC362
:103B700032C1B6DEBADCBEDAC2D8C6D6F2D4F6D2CC
:103B8000FAD0FECE82E686E48AE28EE012FE16FCD1
:103B90001AFA1EF82AF62EF432F236F03AEE3EEC1D
:103BA00042EA46E872E676E47AE27EE000119305A6
:103BB0005052B747004013850740EF20D052AA87E4
:103BC00089CB93055052B747004013850740EF203B
:103BD000B0610100FA40EA425A43CA433A442A45D6
:103BE0009A450A46F6566657D6574658B658265E40
:103BF000965E065FF64F3660A66016618661727249
:103C0000E2725273C2733275A2751276827672674F
:103C1000E2675268C268326EA26E126F826F0D61E7
:103C200073002030357106CF16CD1ACB1EC922C7BE
:103C30002AC52EC332C1B6DEBADCBEDAC2D8C6D6B9
:103C4000F2D4F6D2FAD0FECE82E686E48AE28EE0A4
:103C500012FE16FC1AFA1EF82AF62EF432F236F08C
:103C60003AEE3EEC42EA46E872E676E47AE27EE03C
:103C7000001193055052B757004013850780EF207D
:103C80009046AA8799CBEFE00FE993055052B757BA
:103C9000004013850780EF2030550100FA40EA42CA
:103CA0005A43CA433A442A459A450A46F656665745
:103CB000D6574658B658265E965E065FF64F366073
:103CC000A660166186617272E2725273C2733275B7
:103CD000A275127682767267E2675268C268326EA7
:103CE000A26E126F826F0D6173002030357106CFA6
:103CF00016CD1ACB1EC922C72AC52EC332C1B6DEC5
:103D0000BADCBEDAC2D8C6D6F2D4F6D2FAD0FECE2B
:103D100082E686E48AE28EE012FE16FC1AFA1EF8AB
:103D20002AF62EF432F236F03AEE3EEC42EA46E85B
:103D300072E676E47AE27EE0001193055052B757BE
:103D40000040138507C0EF20103AAA8789CB93055E
:103D50005052B7570040138507C0EF20F0480100CC
:103D6000FA40EA425A43CA433A442A459A450A4627
:103D7000F6566657D6574658B658265E965E065F84
:103D8000F64F3660A660166186617272E2725273F7
:103D9000C2733275A275127682767267E2675268D4
:103DA000C268326EA26E126F826F0D617300203096
:103DB000357106CF16CD1ACB1EC922C72AC52EC310
:103DC00032C1B6DEBADCBEDAC2D8C6D6F2D4F6D27A
:103DD000FAD0FECE82E686E48AE28EE012FE16FC7F
:103DE0001AFA1EF82AF62EF432F236F03AEE3EECCB
:103DF00042EA46E872E676E47AE27EE00011930554
:103E0000505237550040EF20102EAA8781CFB707B8
:103E1000002083A7C727829793055052375500404B
:103E2000EF20903C0100FA40EA425A43CA433A4428
:103E30002A459A450A46F6566657D6574658B65802
:103E4000265E965E065FF64F3660A6601661866156
:103E50007272E2725273C2733275A27512768276F2
:103E60007267E2675268C268326EA26E126F826F2A
:103E70000D6173002030357106CF16CD1ACB1EC9E7
:103E800022C72AC52EC332C1B6DEBADCBEDAC2D81A
:103E9000C6D6F2D4F6D2FAD0FECE82E686E48AE224
:103EA0008EE012FE16FC1AFA1EF82AF62EF432F2F2
:103EB00036F03AEE3EEC42EA46E872E676E47AE222
:103EC0007EE0001193055052B7270040138507800C
:103ED000EF207021AA8789CB93055052B727004065
:103EE00013850780EF2050300100FA40EA425A4320
:103EF000CA433A442A459A450A46F6566657D65763
:103F00004658B658265E965E065FF64F3660A66047
:103F1000166186617272E2725273C2733275A27553
:103F2000127682767267E2675268C268326EA26E5B
:103F3000126F826F0D6173002030357106CF16CD80
:103F40001ACB1EC922C72AC52EC332C1B6DEBADCBF
:103F5000BEDAC2D8C6D6F2D4F6D2FAD0FECE82E607
:103F600086E48AE28EE012FE16FC1AFA1EF82AF6A1
:103F70002EF432F236F03AEE3EEC42EA46E872E6D1
:103F800076E47AE27EE0001193055052B7270040B4
:103F9000138507C0EF203015AA8781CF83A7C18082
:103FA000829793055052B7270040138507C0EF2032
:103FB000B0230100FA40EA425A43CA433A442A4530
:103FC0009A450A46F6566657D6574658B658265E5C
:103FD000965E065FF64F3660A66016618661727265
:103FE000E2725273C2733275A2751276827672676C
:103FF000E2675268C268326EA26E126F826F0D6104
:1040000073002030357106CF16CD1ACB1EC922C7DA
:104010002AC52EC332C1B6DEBADCBEDAC2D8C6D6D5
:10402000F2D4F6D2FAD0FECE82E686E48AE28EE0C0
:1040300012FE16FC1AFA1EF82AF62EF432F236F0A8
:104040003AEE3EEC42EA46E872E676E47AE27EE058
:1040500000119305505237250040EF20D008AA8761
:1040600089CBEFD01F919305505237250040EF20A8
:10407000B0170100FA40EA425A43CA433A442A457B
:104080009A450A46F6566657D6574658B658265E9B
:10409000965E065FF64F3660A660166186617272A4
:1040A000E2725273C2733275A275127682767267AB
:1040B000E2675268C268326EA26E126F826F0D6143
:1040C00073002030357106CF16CD1ACB1EC922C71A
:1040D0002AC52EC332C1B6DEBADCBEDAC2D8C6D615
:1040E000F2D4F6D2FAD0FECE82E686E48AE28EE000
:1040F00012FE16FC1AFA1EF82AF62EF432F236F0E8
:104100003AEE3EEC42EA46E872E676E47AE27EE097
:104110000011B707055083C7070193F7F70F918B7D
:104120008DC383A781808297B707055083C7070196
:1041300013F7F70FB70705506D9B1377F70F238819
:10414000E7000100FA40EA425A43CA433A442A458A
:104150009A450A46F6566657D6574658B658265ECA
:10416000965E065FF64F3660A660166186617272D3
:10417000E2725273C2733275A275127682767267DA
:10418000E2675268C268326EA26E126F826F0D6172
:1041900073002030357106CF16CD1ACB1EC922C749
:1041A0002AC52EC332C1B6DEBADCBEDAC2D8C6D644
:1041B000F2D4F6D2FAD0FECE82E686E48AE28EE02F
:1041C00012FE16FC1AFA1EF82AF62EF432F236F017
:1041D0003AEE3EEC42EA46E872E676E47AE27EE0C7
:1041E00000110545EF00106A2A8785476315F7001F
:1041F0000545EF00906E0100FA40EA425A43CA4377
:104200003A442A459A450A46F6566657D6574658BE
:10421000B658265E965E065FF64F3660A66016615B
:1042200086617272E2725273C2733275A27512762F
:1042300082767267E2675268C268326EA26E126F4F
:10424000826F0D6173002030357106CF16CD1ACB09
:104250001EC922C72AC52EC332C1B6DEBADCBEDAF9
:10426000C2D8C6D6F2D4F6D2FAD0FECE82E686E422
:104270008AE28EE012FE16FC1AFA1EF82AF62EF4D6
:1042800032F236F03AEE3EEC42EA46E872E676E486
:104290007AE27EE000110945EF00D05E2A8785476B
:1042A0006315F7000945EF0050630100FA40EA4248
:1042B0005A43CA433A442A459A450A46F65666572F
:1042C000D6574658B658265E965E065FF64F36605D
:1042D000A660166186617272E2725273C2733275A1
:1042E000A275127682767267E2675268C268326E91
:1042F000A26E126F826F0D6173002030357106CF90
:1043000016CD1ACB1EC922C72AC52EC332C1B6DEAE
:10431000BADCBEDAC2D8C6D6F2D4F6D2FAD0FECE15
:1043200082E686E48AE28EE012FE16FC1AFA1EF895
:104330002AF62EF432F236F03AEE3EEC42EA46E845
:1043400072E676E47AE27EE000111145EF009053C8
:104350002A8785476315F7001145EF0010580100C3
:10436000FA40EA425A43CA433A442A459A450A4621
:10437000F6566657D6574658B658265E965E065F7E
:10438000F64F3660A660166186617272E2725273F1
:10439000C2733275A275127682767267E2675268CE
:1043A000C268326EA26E126F826F0D617300203090
:1043B000357106CF16CD1ACB1EC922C72AC52EC30A
:1043C00032C1B6DEBADCBEDAC2D8C6D6F2D4F6D274
:1043D000FAD0FECE82E686E48AE28EE012FE16FC79
:1043E0001AFA1EF82AF62EF432F236F03AEE3EECC5
:1043F00042EA46E872E676E47AE27EE00011214580
:10440000EF0050482A8785476315F7002145EF00E4
:10441000D04C0100FA40EA425A43CA433A442A4582
:104420009A450A46F6566657D6574658B658265EF7
:10443000965E065FF64F3660A66016618661727200
:10444000E2725273C2733275A27512768276726707
:10445000E2675268C268326EA26E126F826F0D619F
:1044600073002030357106CF16CD1ACB1EC922C776
:104470002AC52EC332C1B6DEBADCBEDAC2D8C6D671
:10448000F2D4F6D2FAD0FECE82E686E48AE28EE05C
:1044900012FE16FC1AFA1EF82AF62EF432F236F044
:1044A0003AEE3EEC42EA46E872E676E47AE27EE0F4
:1044B00000114145EF00103D2A8785476315F7003D
:1044C0004145EF0090410100FA40EA425A43CA4395
:1044D0003A442A459A450A46F6566657D6574658EC
:1044E000B658265E965E065FF64F3660A660166189
:1044F00086617272E2725273C2733275A27512765D
:1045000082767267E2675268C268326EA26E126F7C
:10451000826F0D6173002030357106CF16CD1ACB36
:104520001EC922C72AC52EC332C1B6DEBADCBEDA26
:10453000C2D8C6D6F2D4F6D2FAD0FECE82E686E44F
:104540008AE28EE012FE16FC1AFA1EF82AF62EF403
:1045500032F236F03AEE3EEC42EA46E872E676E4B3
:104560007AE27EE0001113050002EF00B0312A87E5
:1045700085476316F70013050002EF001036130598
:104580000004EF0030302A8785476316F7001305D3
:104590000004EF00903413050008EF00B02E2A87C6
:1045A00085476316F70013050008EF001033130565
:1045B0000010EF00302D2A8785476316F70013059A
:1045C0000010EF00903113050020EF00B02B2A8778
:1045D00085476316F70013050020EF001030010037
:1045E000FA40EA425A43CA433A442A459A450A469F
:1045F000F6566657D6574658B658265E965E065FFC
:10460000F64F3660A660166186617272E27252736E
:10461000C2733275A275127682767267E26752684B
:10462000C268326EA26E126F826F0D61730020300D
:10463000357106CF16CD1ACB1EC922C72AC52EC387
:1046400032C1B6DEBADCBEDAC2D8C6D6F2D4F6D2F1
:10465000FAD0FECE82E686E48AE28EE012FE16FCF6
:104660001AFA1EF82AF62EF432F236F03AEE3EEC42
:1046700042EA46E872E676E47AE27EE0001113054B
:104680000040EF0030202A8785476316F7001305A6
:104690000040EF009024856713850780EF00901E8F
:1046A0002A8785476317F700856713850780EF0022
:1046B000D0220565EF00101D2A8785476315F70096
:1046C0000565EF0090210965EF00D01B2A8785471B
:1046D0006318F70083A7018182970965EF00F01F37
:1046E0001165EF00301A2A8785476317F700EFD06E
:1046F0002FA51165EF00701E2165EF00B0182A8705
:1047000085476317F700EFD04F942165EF00F01C49
:104710000100FA40EA425A43CA433A442A459A45BC
:104720000A46F6566657D6574658B658265E965EDF
:10473000065FF64F3660A660166186617272E2729D
:104740005273C2733275A275127682767267E2670F
:104750005268C268326EA26E126F826F0D61730072
:104760002030357106CF16CD1ACB1EC922C72AC5F7
:104770002EC332C1B6DEBADCBEDAC2D8C6D6F2D497
:10478000F6D2FAD0FECE82E686E48AE28EE012FE0F
:1047900016FC1AFA1EF82AF62EF432F236F03AEE29
:1047A0003EEC42EA46E872E676E47AE27EE0001108
:1047B0008545B7370140138507C0EF10304CAA87F5
:1047C00081CB8545B7370140138507C0EF101052E4
:1047D0000100FA40EA425A43CA433A442A459A45FC
:1047E0000A46F6566657D6574658B658265E965E1F
:1047F000065FF64F3660A660166186617272E272DD
:104800005273C2733275A275127682767267E2674E
:104810005268C268326EA26E126F826F0D617300B1
:104820002030357106CF16CD1ACB1EC922C72AC536
:104830002EC332C1B6DEBADCBEDAC2D8C6D6F2D4D6
:10484000F6D2FAD0FECE82E686E48AE28EE012FE4E
:1048500016FC1AFA1EF82AF62EF432F236F03AEE68
:104860003EEC42EA46E872E676E47AE27EE0001147
:10487000854537050040EF107040AA8789CB8545F4
:1048800037050040EF1090463145EFB0FFC1010001
:10489000FA40EA425A43CA433A442A459A450A46EC
:1048A000F6566657D6574658B658265E965E065F49
:1048B000F64F3660A660166186617272E2725273BC
:1048C000C2733275A275127682767267E267526899
:1048D000C268326EA26E126F826F0D61730020305B
:1048E000357106CF16CD1ACB1EC922C72AC52EC3D5
:1048F00032C1B6DEBADCBEDAC2D8C6D6F2D4F6D23F
:10490000FAD0FECE82E686E48AE28EE012FE16FC43
:104910001AFA1EF82AF62EF432F236F03AEE3EEC8F
:1049200042EA46E872E676E47AE27EE000118545E6
:10493000B707004013850740EF105034AA8781CB9A
:104940008545B707004013850740EF10303A010056
:10495000FA40EA425A43CA433A442A459A450A462B
:10496000F6566657D6574658B658265E965E065F88
:10497000F64F3660A660166186617272E2725273FB
:10498000C2733275A275127682767267E2675268D8
:10499000C268326EA26E126F826F0D61730020309A
:1049A000357106CF16CD1ACB1EC922C72AC52EC314
:1049B00032C1B6DEBADCBEDAC2D8C6D6F2D4F6D27E
:1049C000FAD0FECE82E686E48AE28EE012FE16FC83
:1049D0001AFA1EF82AF62EF432F236F03AEE3EECCF
:1049E00042EA46E872E676E47AE27EE00011854526
:1049F000B717004013850780EF105028AA8781CB96
:104A00008545B717004013850780EF10302E010051
:104A1000FA40EA425A43CA433A442A459A450A466A
:104A2000F6566657D6574658B658265E965E065FC7
:104A3000F64F3660A660166186617272E27252733A
:104A4000C2733275A275127682767267E267526817
:104A5000C268326EA26E126F826F0D6173002030D9
:104A6000357106CF16CD1ACB1EC922C72AC52EC353
:104A700032C1B6DEBADCBEDAC2D8C6D6F2D4F6D2BD
:104A8000FAD0FECE82E686E48AE28EE012FE16FCC2
:104A90001AFA1EF82AF62EF432F236F03AEE3EEC0E
:104AA00042EA46E872E676E47AE27EE00011854565
:104AB000B7170040138507C0EF10501CAA8781CBA1
:104AC0008545B7170040138507C0EF10302201005D
:104AD000FA40EA425A43CA433A442A459A450A46AA
:104AE000F6566657D6574658B658265E965E065F07
:104AF000F64F3660A660166186617272E27252737A
:104B0000C2733275A275127682767267E267526856
:104B1000C268326EA26E126F826F0D617300203018
:104B2000357106CF16CD1ACB1EC922C72AC52EC392
:104B300032C1B6DEBADCBEDAC2D8C6D6F2D4F6D2FC
:104B4000FAD0FECE82E686E48AE28EE012FE16FC01
:104B50001AFA1EF82AF62EF432F236F03AEE3EEC4D
:104B600042EA46E872E676E47AE27EE000118545A4
:104B700037150040EF109010AA8791C7854537156B
:104B80000040EF10B0160100FA40EA425A43CA430F
:104B90003A442A459A450A46F6566657D657465825
:104BA000B658265E965E065FF64F3660A6601661C2
:104BB00086617272E2725273C2733275A275127696
:104BC00082767267E2675268C268326EA26E126FB6
:104BD000826F0D6173002030357106CF16CD1ACB70
:104BE0001EC922C72AC52EC332C1B6DEBADCBEDA60
:104BF000C2D8C6D6F2D4F6D2FAD0FECE82E686E489
:104C00008AE28EE012FE16FC1AFA1EF82AF62EF43C
:104C100032F236F03AEE3EEC42EA46E872E676E4EC
:104C20007AE27EE000118545B71700401385074002
:104C3000EF10D004AA8781CB8545B71700401385B4
:104C40000740EF10B00A0100FA40EA425A43CA4353
:104C50003A442A459A450A46F6566657D657465864
:104C6000B658265E965E065FF64F3660A660166101
:104C700086617272E2725273C2733275A2751276D5
:104C800082767267E2675268C268326EA26E126FF5
:104C9000826F0D6173002030357106CF16CD1ACBAF
:104CA0001EC922C72AC52EC332C1B6DEBADCBEDA9F
:104CB000C2D8C6D6F2D4F6D2FAD0FECE82E686E4C8
:104CC0008AE28EE012FE16FC1AFA1EF82AF62EF47C
:104CD00032F236F03AEE3EEC42EA46E872E676E42C
:104CE0007AE27EE000118545B73701401385074021
:104CF000EF10C078AA8781CB8545B737014013856F
:104D00000740EF10A07E0100FA40EA425A43CA432E
:104D10003A442A459A450A46F6566657D6574658A3
:104D2000B658265E965E065FF64F3660A660166140
:104D300086617272E2725273C2733275A275127614
:104D400082767267E2675268C268326EA26E126F34
:104D5000826F0D6173002030357106CF16CD1ACBEE
:104D60001EC922C72AC52EC332C1B6DEBADCBEDADE
:104D7000C2D8C6D6F2D4F6D2FAD0FECE82E686E407
:104D80008AE28EE012FE16FC1AFA1EF82AF62EF4BB
:104D900032F236F03AEE3EEC42EA46E872E676E46B
:104DA0007AE27EE000118545B7570140138507C0C0
:104DB000EF10C06CAA8781CB8545B757014013859A
:104DC00007C0EF10A0720100FA40EA425A43CA43FA
:104DD0003A442A459A450A46F6566657D6574658E3
:104DE000B658265E965E065FF64F3660A660166180
:104DF00086617272E2725273C2733275A275127654
:104E000082767267E2675268C268326EA26E126F73
:104E1000826F0D6173002030357106CF16CD1ACB2D
:104E20001EC922C72AC52EC332C1B6DEBADCBEDA1D
:104E3000C2D8C6D6F2D4F6D2FAD0FECE82E686E446
:104E40008AE28EE012FE16FC1AFA1EF82AF62EF4FA
:104E500032F236F03AEE3EEC42EA46E872E676E4AA
:104E60007AE27EE00011854537550140EF10006180
:104E7000AA8791C7854537550140EF10206701008B
:104E8000FA40EA425A43CA433A442A459A450A46F6
:104E9000F6566657D6574658B658265E965E065F53
:104EA000F64F3660A660166186617272E2725273C6
:104EB000C2733275A275127682767267E2675268A3
:104EC000C268326EA26E126F826F0D617300203065
:104ED000411122C600080100324441017300203014
:104EE000411122C6000801A0411106C622C40008D3
:104EF000B7172707138507E0EFC09FE3EFD04FE117
:104F0000EF20101901469305007D2145EFB01FAE3B
:104F100003A741819307803E3357F7029307803EF2
:104F2000B307F702BE850545EFB06FF48145130561
:104F3000C002EFE03FADEF205018EF20301BE5BF7F
:104F400001A001A001A001A001A001A001A001A059
:104F500001A001A001A001A001A001A001A001A049
:104F600001A001A001A001A001A001A001A001A039
:104F700001A001A001A001A001A001A001A001A029
:104F800001A001A001A001A001A001A001A001A019
:104F900001A001A001A001A001A001A001A001A009
:104FA00001A001A001A001A001A001A001A001A0F9
:104FB00001A001A001A001A001A001A001A001A0E9
:104FC00001A001A001A001A001A001A001A001A0D9
:104FD00001A001A001A001A001A001A001A001A0C9
:104FE00001A001A001A001A001A001A001A001A0B9
:104FF00001A001A001A001A001A001A001A097C1F2
:10500000FF1F9381A1A717B100201301A1C317951A
:1050100000001305E51697B5FF1F9385A5021386BB
:10502000018463FAC5008322050023A05500110501
:105030009105E3EAC5FE13850184938541AF63774B
:10504000B500232005001105E36DB5FEFD42739008
:1050500002BCFD4273904280B762000093828208D6
:1050600073A0023097B2FFFF938242FD93E23200B9
:105070007390523097020000938242E7739012348B
:1050800073002030797122D60018232EA4FC232629
:1050900004FE232404FEB7070140938707409C4386
:1050A0000327C4FDF98F2324F4FEB707014093873B
:1050B0000740D84B8327C4FDF98F81CB832784FE1B
:1050C00089C785472326F4FE19A0232604FE8327DB
:1050D000C4FE3E85325445618280011122CE00100B
:1050E0002326A4FEB7070140938707400327C4FE89
:1050F000D8CB0100724405618280397122DE8000C4
:105100002326A4FC2324B4FC232604FE232004FE2F
:10511000232404FE232E04FC232204FE232C04FC5F
:10512000832784FC9C47BD8B2326F4FE832784FCC5
:105130009C47C18B89CB832784FCDC430327C4FEB7
:10514000D98F2326F4FE832784FC83D7070093F7A7
:10515000F70FF1CF8327C4FC9C432322F4FE2324C2
:1051600004FE65A8832784FE0547B317F700232EA6
:10517000F4FC832784FC83D707003E878327C4FD84
:10518000F98F2320F4FE032704FE8327C4FD631157
:10519000F708832784FE8A07232EF4FC8327C4FDA7
:1051A0003D47B317F700232CF4FC832784FD93C7F6
:1051B000F7FF032744FEF98F2322F4FE8327C4FD63
:1051C0000327C4FEB317F700032744FED98F232219
:1051D000F4FE832784FC984793078002631BF70043
:1051E000832784FE05473317F7008327C4FCD8CBF9
:1051F00005A0832784FC984793078004631AF7006F
:10520000832784FE05473317F7008327C4FC98CB18
:10521000832784FE85072324F4FE032784FE9D470D
:10522000E3F2E7F48327C4FC032744FE98C38327F3
:1052300084FC03D707009307F00F63F1E70E832781
:10524000C4FCDC432322F4FE232404FE75A8832738
:1052500084FEA1070547B317F700232EF4FC83272C
:1052600084FC83D707003E878327C4FDF98F232062
:10527000F4FE032704FE8327C4FD6312F708832787
:1052800084FE8A07232EF4FC8327C4FD3D47B31711
:10529000F700232CF4FC832784FD93C7F7FF032733
:1052A00044FEF98F2322F4FE8327C4FD0327C4FEA6
:1052B000B317F700032744FED98F2322F4FE832778
:1052C00084FC984793078002631BF700832784FEC2
:1052D000A10705473317F7008327C4FCD8CB8327E2
:1052E00084FC984793078004631BF700832784FEA0
:1052F000A10705473317F7008327C4FC98CB832702
:1053000084FE85072324F4FE032784FE9D47E3F0F3
:10531000E7F48327C4FC032744FED8C3010072547A
:1053200021618280011122CE00102326A4FEAE87C7
:105330002322C4FE2315F4FE832744FE99C7035796
:10534000A4FE8327C4FE98CB31A00357A4FE832775
:10535000C4FED8CB0100724405618280797122D6E7
:105360000018232EA4FC232CB4FC232404FE2322A7
:1053700004FE232604FE232004FE8327C4FD63D8F5
:105380000700B7070140DC4F2326F4FE31A0B70722
:105390000140DC432326F4FE8327C4FDC183BD8B7B
:1053A0002320F4FE0327C4FDC167FD17F98F2324D2
:1053B000F4FE8327C4FD63D407080327C4FDB707A1
:1053C00030007D8FB70730006314F702832704FE97
:1053D000C1070D47B317F7002322F4FE832744FECD
:1053E00093C7F7FF0327C4FEF98F2326F4FEC5A851
:1053F0000327C4FDB7071000F98F95C3832704FE68
:105400000D47B317F7002322F4FE832744FE93C70A
:10541000F7FF0327C4FEF98F2326F4FEC9A08327D4
:10542000C4FDD5839207032784FEB317F70093C703
:10543000F7FF0327C4FEF98F2326F4FE4DA00327B0
:10544000C4FDB70730007D8FB70730006315F70242
:105450000327C4FEB70700F1FD17F98F2326F4FEDA
:10546000B7070140D443B7070140370700F17D1764
:10547000758FD8C3ADA00327C4FDB7071000F98FFF
:105480008DCB832704FE0D47B317F7002322F4FECC
:10549000832744FE93C7F7FF0327C4FEF98F232613
:1054A000F4FE0327C4FEB707000FD98F2326F4FEAE
:1054B0003DA08327C4FDD5839207032784FEB3173D
:1054C000F70093C7F7FF0327C4FEF98F2326F4FEE6
:1054D0000327C4FEB707000FD98F2326F4FE8327C6
:1054E00084FD91CF8327C4FDD5839207032784FED3
:1054F000B317F7000327C4FED98F2326F4FE8327B2
:10550000C4FD63D80700B70701400327C4FED8CF06
:1055100031A0B70701400327C4FED8C301003254AD
:1055200045618280397122DE80002326A4FC23227B
:1055300004FE232604FE232004FE232E04FC232441
:1055400004FEB7170240DC43B18B2322F4FE03278D
:1055500044FE91476303F702032744FEA147630615
:10556000F702832744FE639907148327C4FC371787
:105570007A001307072098C389AA8327C4FC37172A
:105580007A001307072098C389A2B7170240D843AF
:10559000B7073C00F98F2326F4FEB7170240D84323
:1055A000C167F98F2320F4FE8327C4FEC9838907CE
:1055B0002326F4FEB7F7FF1F9387C77098439167C0
:1055C000F98F91EB0327C4FEC5476319F704C94758
:1055D0002326F4FEA1A00327C4FE89476315F70024
:1055E000C9472326F4FE0327C4FEBD476318F7000E
:1055F000B5472326F4FE85472324F4FE0327C4FE83
:10560000C1476315F700BD472326F4FE0327C4FEF8
:10561000C5476315F700C1472326F4FE832704FE20
:10562000A1E3B7470240938707809C43C18B89CF92
:105630000327C4FEB7177A00938707203307F702C2
:105640008327C4FC98C399A80327C4FEB7173D005D
:10565000938707903307F7028327C4FC98C33DA8BC
:10566000B7170240D843B7070200F98F89CF032745
:10567000C4FEB7173D00938707903307F7028327CF
:10568000C4FC98C321A80327C4FEB7177A009387E8
:1056900007203307F7028327C4FC98C3032784FE3F
:1056A00085476313F7028327C4FC9C4313D7170075
:1056B0008327C4FC98C309A88327C4FC37177A0042
:1056C0001307072098C311A00100B7170240DC435D
:1056D00093F7070F2322F4FE832744FE91832322AE
:1056E000F4FEB707002013874705832744FEBA97C7
:1056F00083C7070093F7F70F232EF4FC8327C4FC1E
:1057000098438327C4FD3357F7008327C4FCD8C3CD
:10571000B7170240DC4393F707702322F4FE832778
:1057200044FEA1832322F4FEB70700201387470518
:10573000832744FEBA9783C7070093F7F70F232EFA
:10574000F4FC8327C4FCD8438327C4FD3357F700F8
:105750008327C4FC98C7B7170240D8439167938743
:105760000780F98F2322F4FE832744FEAD83232292
:10577000F4FEB707002013874705832744FEBA9736
:1057800083C7070093F7F70F232EF4FC8327C4FC8D
:10579000D8438327C4FD3357F7008327C4FCD8C7F9
:1057A000B7170240D843B167F98F2322F4FE83274D
:1057B00044FEB9832322F4FE1387C181832744FE6C
:1057C000BA9783C7070093F7F70F232EF4FC8327BC
:1057D000C4FCD8478327C4FD3357F7028327C4FC92
:1057E00098CB0100725421618280011122CE0010F9
:1057F0002326A4FE2324B4FE832784FE99CBB71767
:105800000240944FB71702400327C4FE558F98CF2C
:1058100021A8B7170240944F8327C4FE13C7F7FF90
:10582000B7170240758F98CF0100724405618280DE
:10583000011122CE00102326A4FE2324B4FE8327C8
:1058400084FE99CBB7170240D44FB7170240032705
:10585000C4FE558FD8CF21A8B7170240D44F832755
:10586000C4FE13C7F7FFB7170240758FD8CF0100EA
:10587000724405618280797122D60018232EA4FC1F
:10588000232CB4FC231704FE8327C4FD83D7070011
:105890002317F4FE0327C4FDB7370140938707C0E1
:1058A0006306F7060327C4FDB70700406300F70649
:1058B0000327C4FDB7070040938707406308F70438
:1058C0000327C4FDB7170040938707806300F704E0
:1058D0000327C4FDB7170040938707C06308F7028A
:1058E0000327C4FDB7370140938707406300F702E1
:1058F0000327C4FDB7570140938707C06308F7002B
:105900000327C4FDB75701406311F7028357E4FE34
:1059100093F7F7F82317F4FE832784FD03D72700B6
:105920008357E4FED98F2317F4FE0327C4FDB7176E
:1059300000406309F7020327C4FDB71700409387AF
:1059400007406301F7028357E4FE93F7F7CF23176D
:10595000F4FE832784FD03D767008357E4FED98FC5
:105960002317F4FE8327C4FD0357E4FE2390E700CA
:10597000832784FD03D747008327C4FD2396E702CE
:10598000832784FD03D707008327C4FD2394E70200
:105990000327C4FDB7370140938707C06308F702A8
:1059A0000327C4FDB7370140938707406300F70220
:1059B0000327C4FDB7570140938707C06308F7006A
:1059C0000327C4FDB7570140631DF700832784FDFB
:1059D00083C787001397070141838327C4FD23985A
:1059E000E7028327C4FD0547239AE70001003254EC
:1059F00045618280797122D60018232EA4FC232CC5
:105A0000B4FC231504FE231704FE231604FE83278B
:105A1000C4FD83D70702C207C183F99B139707010F
:105A200041838327C4FD2390E7028327C4FD83D7E6
:105A300007022317F4FE8327C4FD83D747002316EC
:105A4000F4FE8327C4FD83D787012315F4FE835713
:105A5000A4FE93F7F7F82315F4FE8357A4FEF19BF9
:105A60002315F4FE832784FD03D707008357A4FE84
:105A7000D98F2315F4FE8357E4FEF59B2317F4FE1C
:105A8000832784FD03D787008357E4FED98F23172C
:105A9000F4FE832784FD03D727008357E4FED98FC4
:105AA0002317F4FE0327C4FDB7370140938707C0CF
:105AB0006308F7020327C4FDB73701409387074007
:105AC0006300F7020327C4FDB7570140938707C05F
:105AD0006308F7000327C4FDB7570140631CF706AE
