:100000006F50B07C130000001300000013000000CC
:100010001300000013000000130000001300000094
:100020001300000013000000130000001300000084
:08003000130000007300100032
:100038000000000000000000725E0000825E000008
:1000480000000000105F0000000000000000000039
:10005800125F0000145F00000000000000000000B4
:10006800165F000000000000185F0000000000009C
:100078001A5F00001C5F00001E5F0000205F000088
:10008800225F0000245F000036510000EA510000A2
:100098009E5200005253000006540000305F0000DA
:1000A800325F0000345F0000365F0000385F0000F8
:1000B8003A5F00003C5F00003E5F0000405F0000C8
:1000C800425F0000445F0000465F0000BA54000031
:1000D8004A5F0000045700004E5F0000505F0000B8
:1000E800C45700008258000042590000585F0000C1
:1000F8005A5F00005C5F00005E5F0000605F000008
:10010800625F0000424A0000064B0000CA4B000034
:10011800D25500006C5F00006E5F0000705F000049
:100128003A5C0000745F0000765F0000785F0000B2
:100138007A5F00007C5F0000025A0000805F0000C8
:10014800924C0000564D0000C25A00007A5B000035
:100158008A5F00008C5F00008E5F0000905F0000E7
:10016800925F0000945F0000965F0000985F0000B7
:100178009A5F00009C5F00009E5F00009E7D00006B
:10018800A25F0000A45F000066500000184E000047
:10019800DC4E0000A64F0000AE5F0000FA5C0000D5
:1001A800B25F0000B45F0000B65F0000BA5D0000F7
:1001B800BA5F0000BC5F0000BE5F0000C05F0000C7
:1001C800C25F0000C45F0000C65F0000C85F000097
:1001D8000000000000000000000000000000000017
:1001E8000000000000000000000000000000000007
:0801F8000000000000000000FF
:100200003D432A876373C3029377F700BDEFADE5E3
:10021000937606FF3D8ABA960CC34CC30CC74CC7F5
:100220004107E36BD7FE11E28280B306C3408A0622
:100230009702000096966780A6002307B700A306E2
:10024000B7002306B700A305B7002305B700A30432
:10025000B7002304B700A303B7002303B700A3022A
:10026000B7002302B700A301B7002301B700A30022
:10027000B7002300B700828093F5F50F93968500B1
:10028000D58D93960501D58D61B79396270097027A
:10029000000096968682E78086FA9680C1171D8FA9
:1002A0003E96E374C3F8A5B7011122CE00102326B1
:1002B000A4FE37F500E08328450037F500E093F809
:1002C000E8FF2322150183A801820965130505F4BF
:1002D00033D5A802AA8601470325C4FEAA87014890
:1002E00037F500E03303F702B308D8029A98338356
:1002F000F60233B6F6029A85B387C8003E860CC96B
:1003000050C9B7F700E09843B7F700E0136707015B
:1003100098C3B7F700E09843B7F700E013671702F8
:1003200098C30100B7F700E0DC4313F717008547D7
:10033000E31AF7FEB7F700E09843B7F700E0799BC0
:1003400098C30100724405618280011122CE001021
:100350002326A4FE37F500E08328450037F500E0AA
:1003600093F8E8FF2322150183A8018237157A004C
:100370001305052033D5A802AA8601470325C4FE2C
:10038000AA87014837F500E03303F702B308D80223
:100390009A983383F60233B6F6029A85B387C8007B
:1003A0003E860CC950C9B7F700E09843B7F700E0A4
:1003B0001367070198C3B7F700E09843B7F700E069
:1003C0001367170298C30100B7F700E0DC4313F787
:1003D00017008547E31AF7FEB7F700E09843B7F731
:1003E00000E0799B98C3010072440561828001118D
:1003F00022CE00102326A4FEAE87A305F4FE834779
:10040000B4FE85CB8327C4FEBD8B0547B317F70029
:1004100093960701C1828327C4FE13D75700B707FD
:1004200000200A0793870704BA979C43368798CB26
:100430003DA08327C4FEBD8B0547B317F7009396F5
:100440000701C1828327C4FE13D75700B7070020D6
:100450000A0793870704BA979C433687D8CB0100D5
:10046000724405618280011122CE00102326A4FE71
:100470008327C4FE958313F77700B70700200A0788
:1004800093870704BA979C439C470327C4FE7D8B40
:1004900085463397E600F98FB337F00093F7F70FEF
:1004A0003E85724405618280797122D60018232E20
:1004B000A4FC8327C4FD958393F7F70F9D8BA307B7
:1004C000F4FE8327C4FD93F7F70FFD8B2307F4FE9B
:1004D0000347F4FEB70700200A0793870704BA977B
:1004E0009C43D8478347E4FE8546B397F600C2078E
:1004F000C1833E868346F4FEB70700208A069387B1
:100500000704B6979C43318FD8C701003254456128
:100510008280797106D622D40018232EA4FC232CC5
:10052000B4FCB2872328D4FCA30BF4FC232004FEE4
:10053000232204FE232404FE8327C4FD958393F71E
:10054000F70F9D8BA307F4FE8327C4FD93F7F70FE6
:10055000FD8B2307F4FE8347F4FE91E785451145A3
:10056000EF60602591A80347F4FE85476317F70005
:1005700085452145EF60202481A00347F4FE89478B
:100580006317F70085454145EF60E02235A003473A
:10059000F4FE8D476318F700854513050002EF60F0
:1005A000802119A80347F4FE91476317F70085459A
:1005B00013050004EF6020208347E4FE0547B317CE
:1005C000F700C207C1832310F4FE032784FD85478B
:1005D0006317F702832704FDC207C183A183C20703
:1005E000C18389E78D472322F4FE11A8832704FDE8
:1005F000C207C183A183C207C1832322F4FE8327DC
:1006000004FDC207C18393F7F70F2324F4FE0347C9
:10061000F4FEB70700200A0793870704BA979C43A4
:10062000130704FEBA853E85EF50F029032784FDA9
:1006300085476319F7020347F4FEB70700200A074E
:1006400093870704BA9794438347E4FE0547B3179B
:10065000F700C207C183034774FD3A86BE8536851D
:10066000EF5010490100B2502254456182801D7143
:1006700086CEA2CC80102326A4FA2324B4FA854582
:100680000325C4FAEF00D034AA873E871306D006AC
:10069000BD67938547A43A85EF20904C832784FA61
:1006A000B337F00093F7F70F3E871306F006BD67E8
:1006B000938547A43A85EF20B04A832784FABD8307
:1006C0002315F4FE8357A4FE85073E87832784FA0B
:1006D000B3D7E7022314F4FE0325C4FAEF00B035C4
:1006E000B7370140938707C02326F4FE0327C4FAD7
:1006F000A54763ECE7088327C4FA13972700BD6773
:10070000938787D2BA979C438287B73701409387F4
:1007100007C02326F4FE95A8B70700402326F4FE61
:10072000ADA0B7070040938707402326F4FEB1A889
:10073000B7170040938707802326F4FEB9A0B717A8
:100740000040938707C02326F4FE81A0B71700401E
:100750002326F4FE1DA8B7170040938707402326E1
:10076000F4FE25A0B7370140938707402326F4FE07
:1007700029A8B7570140938707C02326F4FE31A06C
:10078000B75701402326F4FE0100232E04FC23204A
:1007900004FE231204FE835784FE2310F4FE8357C5
:1007A000A4FE231EF4FC231104FE231F04FC2302D9
:1007B00004FE9307C4FDBE850325C4FEEF60A02D93
:1007C000054685450325C4FEEF60503D854503255C
:1007D000C4FEEF60B073BD6703AEC7A11387C7A1A6
:1007E000032347001387C7A1832887001387C7A166
:1007F0000328C7001387C7A1084B1387C7A14C4B19
:100800001387C7A1104F1387C7A1544F1387C7A1E0
:1008100018539387C7A1DC53232AC4FB232C64FA03
:10082000232E14FB232004FD2322A4FC2324B4FC48
:100830002326C4FC2328D4FC232AE4FC232CF4FC28
:100840008327C4FA93F7F70F8A07130704FFBA97B1
:1008500083A747FC8D453E85EF40A0148327C4FA4B
:100860008A07130704FFBA9783A747FC3E85EF402A
:10087000800F85450325C4FEEF60D0260100F640B9
:10088000664425618280797106D622D40018232E11
:10089000A4FC232CB4FC032784FD8967938717717C
:1008A000B337F70093F7F70F3E8713065003BD6782
:1008B000938507A73A85EF20B02AB7370140938781
:1008C00007C02326F4FE8327C4FDC183BD8B2547C3
:1008D000636EF70613972700BD67938707D5BA970E
:1008E0009C438287B7370140938707C02326F4FED5
:1008F000B1A8B70700402326F4FE89A8B707004037
:10090000938707402326F4FE91A0B71700409387F2
:1009100007802326F4FE1DA8B7170040938707C061
:100920002326F4FE25A0B7370140938707402326EE
:10093000F4FE29A8B7570140938707C02326F4FE89
:1009400031A0B75701402326F4FE01008327C4FEDF
:1009500083D7C7022315F4FE0357A4FE832784FD23
:100960003307F702896793870771B357F702231498
:10097000F4FE8327C4FDA1838D8B81EB8327C4FE06
:10098000035784FE239AE702A9A88327C4FDA18305
:1009900013F7370085476319F7008327C4FE035711
:1009A00084FE239CE70235A88327C4FDA18313F7A7
:1009B000370089476319F7008327C4FE035784FE75
:1009C000239EE70239A88327C4FDA18313F73700CC
:1009D0008D476318F7008327C4FE035784FE2390D6
:1009E000E7040100B2502254456182805D7186C6E1
:1009F000A2C48008232EA4FA232CB4FA232AC4FA12
:100A00008327C4FBC1838D453E85EF00607CAA87A8
:100A10003E871306D00ABD67938507A73A85EF2066
:100A20003014032744FB896793871771B337F700A6
:100A300093F7F70F3E871306F00ABD67938507A764
:100A40003A85EF20F011232E04FC232004FE23120C
:100A500004FE232604FC232804FC232A04FC232C64
:100A600004FC231504FE8327C4FBC183BD8B3E8594
:100A7000EF00607C8327C4FB93F7F70F9306803168
:100A8000014685453E85713485450545EF50B05298
:100A9000B7370140938707C02326F4FE8327C4FBA2
:100AA000C183BD8B2547636EF70613972700BD678B
:100AB000938787D7BA979C438287B737014093873C
:100AC00007C02326F4FEB1A8B70700402326F4FE92
:100AD00089A8B7070040938707402326F4FE91A01A
:100AE000B7170040938707802326F4FE1DA8B71789
:100AF0000040938707C02326F4FE25A0B7370140A6
:100B0000938707402326F4FE29A8B757014093870F
:100B100007C02326F4FE31A0B75701402326F4FE78
:100B200001008327C4FB13D7C7008D47631AF70062
:100B30008545B70716001385070CEF50E07E15AA10
:100B40008327C4FB13D7C700C547631AF700854541
:100B5000B707180013850710EF50007D19AA8327E7
:100B6000C4FB13D7C700C947631AF7008545B70709
:100B7000180013850720EF50207BE5A88327C4FBCE
:100B800013D7C700CD47631AF7008545B70718008C
:100B900013850730EF504079E9A88327C4FB13D7AA
:100BA000C70093072002631AF7008545B7171A009C
:100BB00013850780EF5040776DA88327C4FB13D7B8
:100BC000C70093073002631AF7008545B7171A006C
:100BD000138507C0EF50407569A88327C4FB13D75E
:100BE000C700930710036317F70085450565EF50AD
:100BF000A07341A08327C4FB13D7C7009307100736
:100C0000631AF7008545B707008013854700EF504A
:100C1000A07185A08327C4FB13D7C70093073008B2
:100C2000631AF7008545B707138013850701EF5056
:100C3000A06F81A08327C4FB13D7C70093071009B7
:100C4000631AF7008545B707158013850702EF5033
:100C5000A06D05A08327C4FB13D7C70093073009F5
:100C60006319F7008545B707158013850704EF5012
:100C7000A06B03A70182832784FBB357F702C183CC
:100C80002315F4FE03A701828357A4FE8507BE86C1
:100C9000832784FBB387F602B357F7022314F4FECD
:100CA000035784FE832744FB3307F7028967938742
:100CB0000771B357F7022313F4FE835784FEFD1721
:100CC000C207C1832310F4FE8357A4FE231EF4FC45
:100CD000231104FE231F04FC230204FE9307C4FD1A
:100CE000BE850325C4FEEF50105B93070007231653
:100CF000F4FC85472317F4FC231804FC835764FE97
:100D00002319F4FC8947231AF4FC8947231BF4FCBC
:100D1000231C04FC231D04FC8327C4FBA1838D8BAF
:100D20009DE39307C4FCBE850325C4FEEF50906E7F
:100D3000A1450325C4FEEF60606D91450325C4FE07
:100D4000EF60900145A08327C4FBA18313F7370010
:100D500085476315F7029307C4FCBE850325C4FECF
:100D6000EF600005A1450325C4FEEF60E06E93052A
:100D700000400325C4FEEF60F002ADA08327C4FB52
:100D8000A18313F7370089476314F7029307C4FC64
:100D9000BE850325C4FEEF60C01FA1450325C4FE28
:100DA000EF60207191450325C4FEEF6010051DA87A
:100DB0008327C4FBA18313F737008D476314F70221
:100DC0009307C4FCBE850325C4FEEF60403AA145ED
:100DD0000325C4FEEF60A072930500400325C4FE06
:100DE000EF60700685450325C4FEEF6020558545FC
:100DF0000325C4FEEF60004F0100B6402644616148
:100E00008280011122CE00102326A4FEAE87A30506
:100E1000F4FEBD670327C4FE0A07938707DABA9773
:100E20009C433E878347B4FEC207C1832316F70065
:100E30000100BD670327C4FE0A07938707DABA9744
:100E40009C4383D78700C207C18393F70708F5F354
:100E50000100724405618280011122CE0010232618
:100E6000A4FEAE872315F4FE8357A4FEA183C20718
:100E7000C18393F6F70FBD670327C4FE0A07938764
:100E800007DABA979C433E8793970601C1832316DE
:100E9000F7000100BD670327C4FE0A07938707DA3E
:100EA000BA979C4383D78700C207C183898BFDD340
:100EB0008357A4FE93F6F70FBD670327C4FE0A0706
:100EC000938707DABA979C433E8793970601C183BD
:100ED0002316F7000100BD670327C4FE0A079387A6
:100EE00007DABA979C4383D78700C207C18393F779
:100EF0000708F5F301007244056182805D7186C6C2
:100F0000A2C480082326A4FC2324B4FC2322C4FC0E
:100F10002320D4FC232EE4FA232CF4FA232A04FB06
:100F2000BD670327C4FC0A07938707DABA979C4377
:100F30003E85EF50D01985450545EF50D007032772
:100F400004FC93073012631DF7000327C4FB9307CB
:100F500050126317F70085450545EF50E03C25A08A
:100F6000032704FC89679387A714631EF7000327F0
:100F7000C4FB89679387C7146317F7008545371546
:100F80002000EF50603A8327C4FC91E78545056552
:100F9000EF50700225A00327C4FC85476317F700B4
:100FA00085451165EF50900511A80327C4FC8947BA
:100FB0006316F70085452165EF505004832704FC34
:100FC00093F7F70F93068031054685453E85EFF090
:100FD0004FD48327C4FB93F7F70F93068031054660
:100FE00085453E85EFF0EFD2032784FBC167F917F3
:100FF000630DF700832784FB93F7F70F9306803484
:10100000054681453E85EFF0CFD0032744FB93078B
:10101000F00F630DF700832744FB93F7F70F930658
:101020000031014685453E85EFF0AFCE232E04FC0E
:10103000232004FE232204FE232404FE231604FEA0
:10104000231E04FC93074010231FF4FC231004FE0E
:10105000032784FC85476305F702832784FC81CF3F
:10106000032784FC89476303F702032784FC8D4729
:101070006304F7020DA8231104FE231204FE25A029
:10108000231104FE85472312F4FE31A8894723115A
:10109000F4FE231204FE01A889472311F4FE8547BC
:1010A0002312F4FE0100231704FE03A70182832705
:1010B00044FCB357F7022317F4FE03A701828327EA
:1010C00044FCB377F70291E78357E4FEFD1723173B
:1010D000F4FE0357E4FE9307F00763F7E700930776
:1010E00080032317F4FE49A80357E4FE9307F00397
:1010F00063F7E700930700032317F4FEB5A803572F
:10110000E4FEFD4763F7E700930780022317F4FE30
:10111000A5A00357E4FEBD4763F7E700930700026D
:101120002317F4FE91A80357E4FE9D4763F6E700FA
:10113000E1472317F4FE89A00357E4FE8D4763F6C9
:10114000E700C1472317F4FE05A80357E4FE8547CF
:1011500063F6E700A1472317F4FE39A88357E4FE9E
:1011600081C7231704FE09A813068022BD67938553
:10117000C7A90145EF20C01E8357E4FE2314F4FEE7
:10118000930700202313F4FE231504FE231604FE08
:10119000BD670327C4FC0A07938707DABA979C4305
:1011A0003E879307C4FDBE853A85EF50A079BD67A1
:1011B0000327C4FC0A07938707DABA979C4385453F
:1011C0003E85EF50B0070100B64026446161828041
:1011D000797122D60018232EA4FC232CB4FC854759
:1011E000A307F4FE0327C4FD0A079387818ABA97F1
:1011F0009C4399EB0327C4FD0A079387818ABA971A
:10120000032784FD98C315A00327C4FD0A0793870D
:10121000818ABA979C43032784FD6316F7008547AC
:10122000A307F4FE19A0A30704FE8347F4FE3E853E
:10123000325445618280011106CE22CC0010232653
:10124000A4FE8327C4FE81EB85458567138507804F
:10125000EF5060566DA80327C4FE85476317F7005B
:1012600085450545EF5080595DA00327C4FE894799
:101270006317F70085450945EF50405849A80327F3
:10128000C4FE8D476317F70085451145EF500057A1
:10129000BDA80327C4FE91476317F7008545214584
:1012A000EF50C055ADA00327C4FE95476317F70064
:1012B00085454145EF50805499A80327C4FE9947BE
:1012C0006318F700854513050002EF50205381A0F5
:1012D0000327C4FE9D476317F70085450965EF5056
:1012E000804D35A00327C4FEA1476318F70085454C
:1012F00037050800EF50204C19A80327C4FEA54766
:101300006317F700854537051000EF50C04A01000C
:10131000F240624405618280797122D60018232E42
:10132000A4FCB7370140938707C02326F4FE23159A
:1013300004FE0327C4FDA54763ECE7088327C4FD2B
:1013400013972700BD679387C7DABA979C438287B4
:10135000B7370140938707C02326F4FE95A8B70747
:1013600000402326F4FEADA0B70700409387074056
:101370002326F4FEB1A8B7170040938707802326E1
:10138000F4FEB9A0B7170040938707C02326F4FEE8
:1013900081A0B71700402326F4FE1DA8B717004010
:1013A000938707402326F4FE25A0B7370140938793
:1013B00007402326F4FE29A8B7570140938707C0AA
:1013C0002326F4FE31A0B75701402326F4FE010086
:1013D0000327C4FD0A079387018DBA97984389476D
:1013E000631FF7008327C4FE83D7470213970701C3
:1013F00041838D47B357F7022315F4FE39A08327A5
:10140000C4FE83D747022315F4FE8357A4FE3E850E
:10141000325445618280797122D60018232EA4FCB3
:10142000B7370140938707C02326F4FE0327C4FD86
:10143000A54763ECE7088327C4FD13972700BD6722
:10144000938747DDBA979C438287B73701409387DC
:1014500007C02326F4FE95A8B70700402326F4FE14
:10146000ADA0B7070040938707402326F4FEB1A83C
:10147000B7170040938707802326F4FEB9A0B7175B
:101480000040938707C02326F4FE81A0B7170040D1
:101490002326F4FE1DA8B717004093870740232694
:1014A000F4FE25A0B7370140938707402326F4FEBA
:1014B00029A8B7570140938707C02326F4FE31A01F
:1014C000B75701402326F4FE01008327C4FE239270
:1014D00007020100325445618280011122CE0010C2
:1014E0002326A4FEAE87A305F4FE0100BD670327F3
:1014F000C4FE0A079387C7DFBA979C4383D70700C8
:10150000C207C18393F70708F5D3BD670327C4FE5D
:101510000A079387C7DFBA979C433E878347B4FE89
:10152000C207C1832312F700010072440561828063
:10153000011106CE22CC00102326A4FE2324B4FEE3
:10154000832784FEB337F00093F7F70F3E87130627
:101550000005BD67938587AC3A85EF10706039A8A8
:10156000832784FE138717002324E4FE8387070064
:1015700093F7F70FBE850325C4FE8537832784FEC6
:1015800083870700F1FF0100F24062440561828019
:10159000011106CE22CC00102326A4FEAE87A3059F
:1015A000F4FEBD670327C4FE0A079387C7DFBA9717
:1015B0009C433E878347B4FE3E86930550523A854E
:1015C000EF60E0401387C1838327C4FEBA9783C7C7
:1015D000070081453E85EF30C03C8347B4FE81CF94
:1015E0001387C1838327C4FEBA9783C707003E854C
:1015F000EF30603719A81387C1838327C4FEBA97D9
:1016000083C707003E85EF30E0370100F2406244B7
:1016100005618280011122CE00102326A4FE23241E
:10162000B4FEBD670327C4FE0A079387C7DFBA97D6
:101630009C4383D70700C207C18393F707028DC776
:10164000BD670327C4FE0A079387C7DFBA979C4389
:1016500083D74700C207C18313F7F70F832784FEA0
:101660002380E700854711A081473E8572440561CC
:101670008280797106D622D40018232EA4FC232C54
:10168000B4FC232AC4FC2328D4FC032744FD83276D
:1016900004FD3D8F8327C4FDB207F98F93B7170070
:1016A00093F7F70F3E871306A00ABD67938587ACB3
:1016B0003A85EF10F04A832744FD13D7870083272C
:1016C00004FDA183B307F74093B7170093F7F70F13
:1016D0003E871306B00ABD67938587AC3A85EF1045
:1016E0003048832744FD93F7F70FE14601468545CF
:1016F0003E85EFE01FE2832704FD93F7F70F930683
:101700008004014681453E85EFE0BFE08545054503
:10171000EF50600A032744FDC167FD17F98F0D677D
:10172000130707386387E7200D67130707386369D6
:10173000F7040567130757166381E7160567130754
:101740005716636FF7001307F022638AE70C13073D
:1017500060306381E710130760126388E70865A6AD
:10176000096713078736638BE7160D6713070712A0
:101770006387E71809671307A7146380E71461A656
:1017800015671307A738638EE72615671307A73871
:101790006362F7021167130787386380E7201567D4
:1017A000130787126385E722116713074712638CBB
:1017B000E71A91AE19671307C7386388E72A1967D4
:1017C0001307C7386368F700196713076710638446
:1017D000E72615AE1D671307E7106382E72C1D6728
:1017E0001307E7386387E72E39AEB7070140D44FB8
:1017F000B7070140370700FC7D17758FD8CFB707B3
:101800000140D843B70701406D9BD8C3B7070140DB
:10181000D843B707014013674700D8C3EDA4B70703
:101820000140D44FB7070140370700FC7D17758F83
:10183000D8CFB7070140D44FB7070140370700049E
:10184000558FD8CFB7070140D843B70701406D9BEC
:10185000D8C355ACB7070140D44FB707014037078D
:1018600000FC7D17758FD8CFB7070140D44FB7075D
:10187000014037070004558FD8CFB7070140D84340
:10188000B70701406D9BD8C3B7070140D843B707DE
:10189000014013674700D8C3BDA4B7070140D84330
:1018A000B70701405D9BD8C3B7070140D843B707CE
:1018B000014013678700D8C3B9A4B7070140D843D4
:1018C000B70701401377F7FCD8C3B7070140D843E7
:1018D000B707014013670701D8C335A4B707014014
:1018E000D843B70701401377F7FCD8C3B7070140C7
:1018F000D843B707014013670703D8C329A4B70724
:101900000140D44FB70701403707FDFF7D17758FA2
:10191000D8CFB7070140D44F832744FDA183139745
:101920000701B70703007D8FB7070140558FD8CF58
:10193000D9AAB7070140D44FB70701403707FDFFC9
:101940007D17758FD8CFB7070140D44F832744FD4B
:10195000A18313970701B70703007D8FB7070140E5
:10196000558FD8CF4DA2B7070140D44FB7070140DC
:101970003707F4FF7D17758FD8CFB7070140D44FD5
:10198000832744FDA18313972701B7070C007D8FA0
:10199000B7070140558FD8CFBDA2B7070140D44F3C
:1019A000B70701403707F4FF7D17758FD8CFB7070A
:1019B0000140D44F832744FDA18313972701B70724
:1019C0000C007D8FB7070140558FD8CF2DAAB707E0
:1019D0000140D44FB70701403707D0FF7D17758FFF
:1019E000D8CFB7070140D44F832744FDA183139775
:1019F0004701B70730007D8FB7070140558FD8CF1B
:101A000019A2B7070140D44FB70701403707D0FFED
:101A10007D17758FD8CFB7070140D44F832744FD7A
:101A2000A18313974701B70730007D8FB7070140A7
:101A3000558FD8CFC9A8B7070140D44FB707014089
:101A4000370740FF7D17758FD8CFB7070140D44FB8
:101A5000832744FDA18313976701B707C0007D8FDB
:101A6000B7070140558FD8CF79A8B7070140D44FA9
:101A7000B7070140370740FF7D17758FD8CFB707ED
:101A80000140D44F832744FDA18313976701B70713
:101A9000C0007D8FB7070140558FD8CFADA0B707E5
:101AA0000140D44FB7070140370700FD7D17758F00
:101AB000D8CFB7070140D44F832744FDA1831397A4
:101AC0008701B70700037D8FB7070140558FD8CF37
:101AD0001DA8B7070140D44FB7070140370700FDE5
:101AE0007D17758FD8CFB7070140D44F832744FDAA
:101AF000A18313978701B70700037D8FB7070140C4
:101B0000558FD8CF01008327C4FD91E78545116526
:101B1000EF40704A69A80327C4FD85476318F700A2
:101B2000854537050200EF40704D51A00327C4FDE5
:101B300089476318F700854537050400EF40104CCE
:101B4000BDA00327C4FD8D476318F7008545370501
:101B50000800EF40B04AA1A80327C4FD91476318CD
:101B6000F700854537051000EF40504989A003274D
:101B7000C4FD95476318F700854513050004EF4041
:101B8000F04735A00327C4FD99476318F700854542
:101B900013050008EF40904619A80327C4FD9D4790
:101BA0006317F700854513050010EF4030452320EB
:101BB00004FE232204FE232404FE232604FE83279E
:101BC00084FD2320F4FE231204FE231304FE2314B9
:101BD00004FE231604FEB1472315F4FEBD67032758
:101BE000C4FD0A079387C7DFBA979C433E879307D4
:101BF00004FEBE853A85EF505034BD670327C4FD0F
:101C00000A079387C7DFBA979C4385453E85EF5007
:101C100010560100B250225445618280411106C61F
:101C200022C4000883A741850547638BE7006388CA
:101C3000070C0947638DE7000D47638FE702E9A0B2
:101C400083A701851387170023A8E18475A883A7BC
:101C500001851387170023A8E18403A70185A54701
:101C600063F1E70AB7070020938707049C4B1167CD
:101C7000D8CB23A8018471A003A78185854763146D
:101C8000F7081305F008EFE00FFEAA87ADC319456A
:101C9000EFF08FE8AA873E8783A701851D8F930702
:101CA000600963F2E7061945EFF0EFF683A70185B7
:101CB000D3F717D05385F720EF900065BD6703A6D3
:101CC00087AF83A6C7AFEF808029AA872E883E857D
:101CD000C285EF90204CAA87139707014183B7076D
:101CE0000020239CE726094723ACE18429A8194555
:101CF000EFF08FE2AA873E8723A8E18429A00100A4
:101D000021A0010011A001000100B24022444101C4
:101D10008280411106C622C4000883A74185094775
:101D2000637CF7000D47639AE7001945EFF0AFEECB
:101D3000054723ACE18411A001000100B240224418
:101D400041018280011106CE22CC0010232204FE24
:101D500083C7D1856381071409A8930734FE05461C
:101D6000BE851385818FEF101057930734FEBE8513
:101D70001D45EFF03F8AAA87EDF3034734FEA947DC
:101D8000631BF71099472322F4FE130744FE9307C1
:101D900084FE85463A86BE851385818FEF204032CA
:101DA000930784FE138737000D46BD67938507B000
:101DB0003A85EFA0003BAA879DEB03A741868947A0
:101DC0006304F70C054723A2E1861385818FEF108A
:101DD000F048AA872322F4FE930744FE81463E86FC
:101DE000938541991385818FEF20802D71A89307EA
:101DF00084FE138737000D46BD67938547B03A854B
:101E0000EFA02036AA879DEB03A701868947630DC3
:101E1000F706054723A0E1861385818FEF10104454
:101E2000AA872322F4FE930744FE81463E869385CB
:101E300041911385818FEF20A028B9A0930784FEDC
:101E4000138737000D46BD67938587B03A85EFA0AD
:101E50004031AA8795EB03A7818689476306F7027D
:101E6000054723A4E1861385818FEF10303FAA87B1
:101E70002322F4FE930744FE81463E86938541A1CA
:101E80001385818FEF20C0231385818FEF10701889
:101E90000547238EE1840100F2406244056182809F
:101EA000011106CE22CC0010AA87A307F4FEB707C3
:101EB000002093870704DC4713070008D8CB83472B
:101EC000F4FEBE850545EFE0DFF3B70700209387FA
:101ED0000704DC471307000898CB0100F240624476
:101EE00005618280011106CE22CC0010AA873687B8
:101EF0002317F4FEAE872316F4FEB2872315F4FEF3
:101F0000BA872314F4FE83C7C180C207C183035775
:101F1000E4FEB337F70093F7F70F3E871306A008E8
:101F2000BD67938507BF3A85EF10804383C7D18093
:101F3000C207C1830357C4FEB337F70093F7F70F07
:101F40003E871306B008BD67938507BF3A85EF103B
:101F5000204183C7C180C207C1830357A4FEB337A2
:101F6000F70093F7F70F3E871306C008BD67938508
:101F700007BF3A85EF10C03E83C7D180C207C18337
:101F8000035784FEB337F70093F7F70F3E87130626
:101F9000D008BD67938507BF3A85EF10603C83A7E3
:101FA000C18605476376F7000D476369F71061A0A6
:101FB0001305A002F53581450545EFE09FE4835701
:101FC000E4FE93F7F70F890793F7F70FBE850545F2
:101FD000EFE03FE381450545EFE0BFE28357A4FE14
:101FE00093F7F70F890793F7F70FBE850545EFE0E5
:101FF0005FE11305B0026D3581450545EFE07FE0F7
:102000008357C4FE93F7F70F850793F7F70FBE8545
:102010000545EFE01FDF81450545EFE09FDE835773
:1020200084FE93F7F70F850793F7F70FBE850545F5
:10203000EFE03FDD61A01305A0029D358145054518
:10204000EFE03FDC8357E4FE93F7F70F850793F744
:10205000F70FBE850545EFE0DFDA81450545EFE086
:102060005FDA8357A4FE93F7F70F850793F7F70F0F
:10207000BE850545EFE0FFD81305B0021535814553
:102080000545EFE01FD88357C4FE93F7F70F890784
:1020900093F7F70FBE850545EFE0BFD681450545AF
:1020A000EFE03FD6835784FE93F7F70F890793F746
:1020B000F70FBE850545EFE0DFD401001305C00230
:1020C000C5330100F240624405618280797106D611
:1020D00022D400189307C4FD3E85EF10E02E8547FB
:1020E000231EF4FC83C7C180C207C183231FF4FCF5
:1020F00083C7D180C207C1832310F4FE83A78180E8
:102100000547638AE70099EF99472301F4FEA14749
:10211000A301F4FE09A8A1472301F4FEC147A301CE
:10212000F4FE11A00100B727000093874753232432
:10213000F4FEB7270000938727152326F4FE9307A4
:10214000C4FD3E85EF10E02D0100B25022544561E0
:102150008280011106CE22CC001083C7C1803E8749
:1021600083C7D180B307F7022326F4FEB707002008
:1021700093870704DC474147D8CB83C7C180C20798
:10218000C183FD1713970701418383C7D180C2071D
:10219000C183FD17C207C183BE863A8681450145CA
:1021A000913331A8B707002083D7C727BE850545DF
:1021B000EFE09FCA8327C4FEFD172326F4FE832782
:1021C000C4FEEDF3B707002093870704DC474147BF
:1021D00098CB0100F240624405618280011122CE59
:1021E00000102326A4FE0327C4FE23A6E18683A7AE
:1021F000C18605476376F7000D476365F70211A8AE
:10220000130700F82386E180130700FAA386E18014
:1022100011A8130700FA2386E180130700F8A386AC
:10222000E18001000100724405618280011122CE2B
:1022300000102326A4FE0327C4FE23A4E18001008E
:10224000724405618280011122CE0010AA872E8778
:102250002317F4FEBA872316F4FEB70700200357AE
:10226000E4FE239DE726B70700200357C4FE239E04
:10227000E7260100724405618280797106D622D476
:102280000018AA87AE863287231FF4FCB687231E68
:10229000F4FCBA87A30DF4FC83C7C180C207C183D5
:1022A0000357E4FDB337F70093F7F70F3E871306A4
:1022B0009019BD67938507BF3A85EF10600A83C701
:1022C000D180C207C1830357C4FDB337F70093F72A
:1022D000F70F3E871306A019BD67938507BF3A85A0
:1022E000EF100008A30704FE230704FEB707002031
:1022F00093870704DC474147D8CB83A781800547F4
:10230000638EE70C639B0720A30704FED1A08347DD
:10231000F4FE1397070141838357E4FDBA971395A1
:10232000070141818347F4FE1397070141838357D7
:10233000E4FDBA971397070141838357C4FDA107B2
:1023400093960701C1828357C4FD3A86BE85EFF09C
:102350007FB98307B4FD138707FE8346F4FE3D660D
:10236000BA878607BA9786071307C640BA97B69703
:1023700083C70700A306F4FE230704FE81A083475A
:10238000D4FE858B91CBB707002083D7A727BE85C6
:102390000545EFE07FAC09A8B707002083D7C72722
:1023A000BE850545EFE05FAB8347D4FE8583A3067A
:1023B000F4FE8347E4FE85072307F4FE0347E4FEAB
:1023C0009D47E3FEE7FA8347F4FE8507A307F4FE83
:1023D0000347F4FE9547E3FCE7F289A2A30704FE56
:1023E0003DA28347F4FE1397070141838357E4FD21
:1023F000BA971395070141818347F4FE13970701AC
:1024000041838357E4FDBA971397070141838357AC
:10241000C4FDBD0793960701C1828357C4FD3A8668
:10242000BE85EFF03FAC8307B4FD938607FE83477C
:10243000F4FE3D6792061307C7E13697BA9783C744
:1024400007002306F4FE8307B4FD938607FE834747
:10245000F4FEA1073D6792061307C7E13697BA97C6
:1024600083C70700A305F4FE230704FE81A083476A
:10247000C4FE858B91CBB707002083D7A727BE85E5
:102480000545EFE07F9D09A8B707002083D7C72740
:10249000BE850545EFE05F9C8347C4FE8583230628
:1024A000F4FE8347E4FE85072307F4FE0347E4FEBA
:1024B0009D47E3FEE7FA230704FE81A08347B4FEAD
:1024C000858B91CBB707002083D7A727BE8505450D
:1024D000EFE09F9809A8B707002083D7C727BE85DC
:1024E0000545EFE07F978347B4FE8583A305F4FE9F
:1024F0008347E4FE85072307F4FE0347E4FE9D4778
:10250000E3FEE7FA8347F4FE8507A307F4FE0347DB
:10251000F4FE9D47E3F7E7EC11A00100B7070020A8
:1025200093870704DC47414798CB0100B2502254FF
:1025300045618280797106D622D40018AA872E8739
:10254000232CC4FC231FF4FCBA87231EF4FC83C78E
:10255000C180C207C1830357E4FDB337F70093F787
:10256000F70F3E871306D01EBD67938507BF3A85D8
:10257000EF00105F83C7D180C207C1830357C4FD3A
:10258000B337F70093F7F70F3E871306E01EBD67DA
:10259000938507BF3A85EF00B05C231704FE61A066
:1025A00083A7818005476380E704A5EB0357E4FE1A
:1025B000BA878607BA97860713970701418383571F
:1025C000E4FDBA9793960701C1828357E4FE03277F
:1025D00084FDBA97038707008357C4FD3A86BE85FA
:1025E0003685613925A88357E4FE8E0713970701C6
:1025F00041838357E4FDBA9793960701C1828357BD
:10260000E4FE032784FDBA97038707008357C4FDC0
:102610003A86BE853685953111A001008357E4FEC8
:1026200085072317F4FE8357E4FE032784FDBA973A
:1026300083870700B5F70100B250225445618280BC
:10264000411106C622C400081308F00FC167F9172C
:1026500005671307F70285669386D60237A64A04F4
:102660001306062081450545EFE05F89C146014616
:10267000854513057006EFD0DFE9C1460146854563
:1026800013057002EFD0FFE8C146054685451305E6
:102690004006EFD01FE8C1460546854513050006F4
:1026A000EFD03FE783A7C1863E85EFF03FB3B70782
:1026B000002003D7A727B707002083D7C727BE85E9
:1026C0003A85EFF05FB8B707002093870704DC4333
:1026D00013070008D8CB2945EFD01FBDB70700204E
:1026E00093870704DC431307000898CB1305800782
:1026F000EFD09FBBB707002093870704DC47414713
:10270000D8CB4545EFF0CFF913058007EFD0DFB9FF
:102710001305100BEFF0CFF885450545EFE06FEEA0
:102720009305C0020545EFE0CFED9305D0020545C6
:10273000EFE02FED1305200BEFF08FF685450545F3
:10274000EFE02FEC9305C0020545EFE08FEB93051A
:10275000D0020545EFE0EFEA1305300BEFF04FF440
:1027600085450545EFE0EFE99305C0020545EFE03B
:102770004FE99305D0020545EFE0AFE885450545F3
:10278000EFE02FE89305C0020545EFE08FE79305E2
:10279000D0020545EFE0EFE61305400BEFF04FF0F8
:1027A0009D450545EFE0EFE51305000CEFF04FEF19
:1027B0009305200A0545EFE0CFE489450545EFE0A4
:1027C0004FE4930540080545EFE0AFE31305100C17
:1027D000EFF00FED9305500C0545EFE08FE2130588
:1027E000200CEFF0EFEBA9450545EFE08FE18145C7
:1027F0000545EFE00FE11305300CEFF06FEA9305AC
:10280000A0080545EFE0EFDF9305A0020545EFE0E6
:102810004FDF1305400CEFF0AFE89305A008054526
:10282000EFE02FDE9305E00E0545EFE08FDD1305A9
:10283000500CEFF0EFE6B9450545EFE08FDC1305EE
:102840006003EFF0EFE583A7C18605476380E702E9
:1028500081CB09476381E7020D476384E70205A83E
:102860009305000C0545EFE0CFD915A0814505453E
:10287000EFE02FD929A89305000A0545EFE06FD8AE
:1028800039A0930500060545EFE0AFD70100130519
:10289000000EEFF0EFE0BD450545EFE08FD6E945CE
:1028A0000545EFE00FD6BD450545EFE08FD5E14585
:1028B0000545EFE00FD59305F0020545EFE06FD435
:1028C000930580020545EFE0CFD39305000205454F
:1028D000EFE02FD3930520020545EFE08FD2FD45B1
:1028E0000545EFE00FD2ED450545EFE08FD19305AB
:1028F00030020545EFE0EFD0930570030545EFE0AA
:102900004FD081450545EFE0CFCF9D450545EFE030
:102910004FCF89450545EFE0CFCEC1450545EFE0F6
:102920004FCE1305100EEFF0AFD7BD450545EFE0D4
:102930004FCDED450545EFE0CFCCBD450545EFE07A
:102940004FCCDD450545EFE0CFCB93053003054582
:10295000EFE02FCB9305C0020545EFE08FCA93054A
:1029600090020545EFE0EFC99305E0020545EFE071
:102970004FC9930500030545EFE0AFC89305000379
:102980000545EFE00FC8930590030545EFE06FC7DD
:102990009305F0030545EFE0CFC681450545EFE01F
:1029A0004FC69D450545EFE0CFC58D450545EFE098
:1029B0004FC5C1450545EFE0CFC41305A002EFF0B8
:1029C0002FCE81450545EFE0CFC389450545EFE0B2
:1029D0004FC381450545EFE0CFC29305200805456B
:1029E000EFE02FC21305B002EFF08FCB8145054514
:1029F000EFE02FC18D450545EFE0AFC081450545AE
:102A0000EFE02FC0930530080545EFE08FBF1305B9
:102A1000000FEFF0EFC885450545EFE08FBE1305C9
:102A2000600FEFF0EFC781450545EFE08FBD13055F
:102A3000A003EFF0EFC695450545EFE08FBC130509
:102A40009002EFF0EFC5B707002093870704DC473B
:102A5000414798CBEFF0EFEFEFF04FE70100B240C6
:102A6000224441018280411122C600080100324403
:102A700041018280411122C60008B71702409843E5
:102A8000B71702401367170098C3B7170240D44323
:102A9000B71702403707FFF8758FD8C3B717024042
:102AA0009443B71702403707F7FE7D17758F98C319
:102AB000B71702409443B71702403707FCFF7D1752
:102AC000758F98C3B7170240D443B7170240370732
:102AD00081FF7D17758FD8C3B717024037079F0056
:102AE00098C70100324441018280797106D622D410
:102AF0000018232EA4FCBD3F232604FE232404FE3D
:102B0000B71702409443B71702404167558F98C3E7
:102B1000B71702409843B7070200F98F2324F4FE49
:102B20008327C4FE85072326F4FE832784FE91E7CE
:102B30000327C4FE8567E31DF7FCB71702409843DF
:102B4000B7070200F98F89C785472324F4FE19A02F
:102B5000232404FE032784FE85476312F7163717E4
:102B60000240B71702405843D8C337170240B7177F
:102B700002405843D8C337170240B71702405843A2
:102B8000D8C3B7170240D443B71702403707C1FF75
:102B90007D17758FD8C30327C4FDB7479508938762
:102BA0000740631BF700B7170240D443B717024032
:102BB0004167558FD8C355A80327C4FDB71727070A
:102BC000938707E0631CF700B7170240D443B71799
:102BD000024037073900558FD8C341A80327C4FDE9
:102BE000B7E7B80593870780631CF700B717024063
:102BF000D443B717024037072900558FD8C3B5A073
:102C00000327C4FDB7A74A0493870720631CF70076
:102C1000B7170240D443B717024037071D00558F3E
:102C2000D8C3A1A00327C4FDB777DC02938707C0F0
:102C3000631CF700B7170240D443B71702403707A9
:102C40001100558FD8C315A00327C4FDB7376E01F7
:102C500093870760631BF700B7170240D443B71789
:102C6000024037070500558FD8C3B7170240944379
:102C7000B717024037070001558F98C30100B717F7
:102C800002409843B7070002F98FF5DBB7170240FF
:102C9000D843B7170240719BD8C3B7170240D84337
:102CA000B717024013672700D8C30100B7170240C7
:102CB000DC4313F7C700A147E31AF7FE11A001A0F8
:102CC000B250225445618280011106CE22CC001000
:102CD0002326A4FE0327C4FE23A0E182EFF09FD9A0
:102CE0000325C4FE1935EF1050540100F240624430
:102CF00005618280411122C60008010001003244B2
:102D000041018280011106CE22CC0010232604FE50
:102D1000232404FE232604FE25A0232404FE39A038
:102D2000D13F832784FE85072324F4FE032784FEF6
:102D3000C167E367F7FE8327C4FE85072326F4FEF9
:102D40000327C4FE9307F00FE3F9E7FC0100F2400C
:102D5000624405618280411122C6000801003244AC
:102D600041018280011106CE22CC00102326A4FE50
:102D70008325C4FE0945EFE0AFFB0100F240624449
:102D800005618280130101D923261126232481267F
:102D900023229126801C232EA4D8232CB4D8232AA6
:102DA000C4D82328D4D8231504FE231404FE2313E7
:102DB00004FE231204FE231104FE032584D9EF90A0
:102DC0002039AA87C207C1872313F4FE83D701AF36
:102DD00089C7938701AF9C4B829783C7118793F76D
:102DE000F70F638D074A83D701AF63870744938743
:102DF00001AFD447835724FE1397070141879317E8
:102E00000701C1838507C207C183C207C187231198
:102E1000F4FE93170701C1830326C4D9BE8501457B
:102E20008296832784D92326F4FE032584D9EF9044
:102E30002032AA87C207C1872313F4FE938701AF0C
:102E400083D727003E87938701AF83C76700B347C7
:102E5000F702C207C1872312F4FE01008327C4FED4
:102E6000138717002326E4FE83870700E5FB23145E
:102E700004FEA1A88327C4FEFD172326F4FE8327A2
:102E8000C4FE038707009307F002630AF700832755
:102E9000C4FE038707009307C005631BF700835731
:102EA00084FEC207C1838507C207C1832314F4FED1
:102EB000835764FEC207C187C207C183FD17C207DB
:102EC000C183C207C1872313F4FE835784FE13977F
:102ED00007014183854763E8E700835764FEC20723
:102EE000C187E3D907F8835764FEC207C18763C26D
:102EF00007028327C4FE85072326F4FE130704EE8A
:102F00000326C4FEBD67938507C33A85EF90E01F93
:102F10001DA8835784FEC207C18381EF130704EE07
:102F20000326C4FEBD679385C7C33A85EF90E01DB5
:102F300019A8130704EE0326C4FEBD67938507C3D3
:102F40003A85EF90801C231504FE21AA231404FE69
:102F500059A0930704EE3E85EF90801F2A87835780
:102F600084FEC207C183BE868357A4FEC207C18305
:102F70003E86835744FEC207C187B307F602B69761
:102F80006367F706835784FEC207C1833E87835772
:102F9000A4FEC207C183BE86835744FEC207C18711
:102FA000B387F602BA97035784FE42074183BA8675
:102FB000130704FFBA97038707EF930704FFB69739
:102FC0002388E7EA835784FEC207C1838507C207C7
:102FD000C1832314F4FE835784FEC207C1833E8756
:102FE000835744FEC207C187E345F7F611A00100ED
:102FF000835784FEC207C183130704FFBA9723884F
:1030000007EA938701AF03A8C700938701AF83C77F
:103010007700139707014183835724FE9396070196
:10302000C18693970601C1838507C207C183C20782
:10303000C1872311F4FE93970601C183B307F702FA
:10304000C207C183130704EA3A86BE850145029888
:103050008357A4FEC207C1838507C207C183231516
:10306000F4FE8357A4FEC207C183BE84930704EE17
:103070003E85EF90E00D2A87835744FEC207C18743
:10308000B357F7028507E3E3F4EC130704EE0326D6
:1030900044D9BD679385C7C43A85EF9000079387ED
:1030A00001AF03A8C700938701AF83C777001397C9
:1030B00007014183835724FE93960701C1869397A6
:1030C0000601C1838507C207C183C207C1872311D7
:1030D000F4FE93970601C183B307F702C207C183C9
:1030E000130704EE3A86BE8501450298832704D96A
:1030F0006386071A231504FE21AA231404FE59A08F
:10310000032504D9EF90C0042A87835784FEC207A1
:10311000C183BE868357A4FEC207C1833E86835700
:1031200044FEC207C187B307F602B6976368F70685
:10313000835784FEC207C1833E878357A4FEC2071C
:10314000C183BE86835744FEC207C187B387F60298
:10315000BA973E87832704D9BA97035784FE42075C
:103160004183BA8603870700930704FFB697238835
:10317000E7EA835784FEC207C1838507C207C1837C
:103180002314F4FE835784FEC207C1833E8783570E
:1031900044FEC207C187E345F7F611A0010083573B
:1031A00084FEC207C183130704FFBA97238807EA86
:1031B000938701AF03A8C700938701AF83C7770048
:1031C000139707014183835724FE93960701C18615
:1031D00093970601C1838507C207C183C207C187D0
:1031E0002311F4FE93970601C183B307F702C207C8
:1031F000C183130704EA3A86BE85014502988357C6
:10320000A4FEC207C1838507C207C1832315F4FE4C
:103210008357A4FEC207C183BE84032504D9EF806F
:1032200030732A87835744FEC207C187B357F7021A
:103230008507E3E4F4EC9DA0930704DA130600107D
:1032400081453E85EFC0DFFB938701AF9C47032597
:10325000C4D98297832704D999CF130504DA0327A9
:1032600004D9832644D9032684D9BD67938587C5AD
:10327000EF80B06929A8130704DA832644D903260E
:1032800084D9BD67938547C73A85EF8010689387D7
:1032900001AF9847930704DA3E8502970100832027
:1032A000C12603248126832441261301012782801D
:1032B000411106C622C4000883C7118793F7F70F90
:1032C00089CF938501870945EFE0CFB40546938503
:1032D0000187138541ADEF0010000100B240224488
:1032E00041018280797106D622D40018232EA4FCD5
:1032F000232CB4FC232AC4FC232604FEA9A001002D
:10330000BD679387C7DF9C47930500043E85EF4068
:10331000207BAA87F5D7BD679387C7DF9C47BE860A
:10332000832784FD13871700232CE4FC8387070081
:10333000C207C183BE853685EF40A0758327C4FED2
:1033400085072326F4FE0327C4FE832744FDE348B4
:10335000F7FA832744FD3E85B250225445618280AE
:10336000011106CE22CC0010AA872324B4FE23220A
:10337000C4FEA307F4FE8347F4FEB1E383C7418292
:1033800093F7F70F8DCF83C7218791C301A083C720
:103390002187850713F7F70F2389E186EF10206651
:1033A000EFF07F9B8146032644FE832584FEBD67A4
:1033B0001385C7C8EFF01F9DEFF0DF94E5B701005C
:1033C000F240624405618280011122CE0010232662
:1033D000A4FE8327C4FE239007008327C4FE7D57E5
:1033E0002391E7008327C4FE7D572392E7008327BC
:1033F000C4FE7D572383E7008327C4FE7D57A38344
:10340000E7008327C4FE23A407008327C4FE23A666
:1034100007008327C4FE23A807000100724405614A
:103420008280011122CE00102326A4FE8327C4FE31
:1034300003D707002398E1AE8327C4FE03D72700F4
:10344000938701AF2391E7008327C4FE03D747008A
:10345000938701AF2392E7008327C4FE03C7670069
:10346000938701AF2383E7008327C4FE03C7770058
:10347000938701AFA383E7008327C4FE9847938710
:1034800001AF98C78327C4FED847938701AFD8C739
:103490008327C4FE984B938701AF98CB0547A38839
:1034A000E1860100724405618280797106D622D4DA
:1034B00000189307C4FD3E85013FB737000093878E
:1034C00047D62322F4FE9307C4FD3E85993F8967C2
:1034D0009386B70289671386A702F1679385072051
:1034E0000945EFE00F9993060004138641A9814531
:1034F000138541ADEF10001785450945EFE04F8971
:103500000100B250225445618280011122CE001088
:103510002326A4FE2324B4FE8327C4FE03C79700FA
:1035200083C6A700A206558F83C6B700C206558F73
:1035300083C7C700E207D98F3E87832784FE3E9763
:103540008327C4FE9375F70F83C69700818A36865A
:10355000AE86D18EA384D7009356870093F5F60FDD
:1035600083C6A700818A3686AE86D18E2385D70092
:103570009356070193F5F60F83C6B700818A368606
:10358000AE86D18EA385D7001356870103C7C70027
:10359000018BBA863287558F2386E70055A0832793
:1035A000C4FE03C7970083C6A700A206558F83C633
:1035B000B700C206558F83C7C700E207D98F3E8682
:1035C0008327C4FE03C7570183C66701A206558F30
:1035D00083C67701C206558F83C78701E207D98F5B
:1035E0003307F6408327C4FE9375F70F83C6970011
:1035F000818A3686AE86D18EA384D7009356870003
:1036000093F5F60F83C6A700818A3686AE86D18EE3
:103610002385D7009356070193F5F60F83C6B700AD
:10362000818A3686AE86D18EA385D7001356870150
:1036300003C7C700018BBA863287558F2386E70000
:103640008327C4FE03C7570183C66701A206558FAF
:1036500083C67701C206558F83C78701E207D98FDA
:103660003E868327C4FE03C7970083C6A700A20631
:10367000558F83C6B700C206558F83C7C700E207C0
:10368000D98FE3FEC7F00100724405618280011109
:1036900022CE00102326A4FE2324B4FE8327C4FEDA
:1036A00003C7D70083C6E700A206558F83C6F7007D
:1036B000C206558F83C70701E207D98F3E8783274C
:1036C00084FE3E978327C4FE9375F70F83C6D70009
:1036D000818A3686AE86D18EA386D7009356870020
:1036E00093F5F60F83C6E700818A3686AE86D18EC3
:1036F0002387D7009356070193F5F60F83C6F7008B
:10370000818A3686AE86D18EA387D700135687016D
:1037100003C70701018BBA863287558F2388E700DC
:1037200055A08327C4FE03C7D70083C6E700A206BF
:10373000558F83C6F700C206558F83C70701E2077E
:10374000D98F3E868327C4FE03C7570183C667010E
:10375000A206558F83C67701C206558F83C787019E
:10376000E207D98F3307F6408327C4FE9375F70F1E
:1037700083C6D700818A3686AE86D18EA386D700CF
:103780009356870093F5F60F83C6E700818A368645
:10379000AE86D18E2387D7009356070193F5F60F97
:1037A00083C6F700818A3686AE86D18EA387D7007E
:1037B0001356870103C70701018BBA863287558FDD
:1037C0002388E7008327C4FE03C7570183C6670128
:1037D000A206558F83C67701C206558F83C787011E
:1037E000E207D98F3E868327C4FE03C7D70083C66E
:1037F000E700A206558F83C6F700C206558F83C720
:103800000701E207D98FE3FEC7F0010072440561AA
:103810008280797106D622D40018232EA4FC832737
:10382000C4FDB337F00093F7F70F3E87130650053A
:10383000BD67938587CA3A85EFF09FB2232604FEC1
:103840008327C4FD83C7070093E7170013F7F70F1B
:103850008327C4FD2380E7008327C4FD03C79700A7
:10386000018BA384E70003C7A700018B2385E70032
:1038700003C7B700018BA385E70003C7C700018B0F
:103880002386E7008327C4FD03C7D700018BA386E7
:10389000E70003C7E700018B2387E70003C7F700B2
:1038A000018BA387E70003C70701018B2388E7008B
:1038B0008327C4FD03C7570183C66701A206558F3E
:1038C00083C67701C206558F83C78701E207D98F68
:1038D0003E878327C4FD9375F70F83C61701818A3E
:1038E0003686AE86D18EA388D7009356870093F58F
:1038F000F60F83C62701818A3686AE86D18E23894C
:10390000D7009356070193F5F60F83C63701818AD6
:103910003686AE86D18EA389D7001356870103C79A
:103920004701018BBA863287558F238AE7008327A8
:10393000C4FD03C7170083C62700A206558F83C6A0
:103940003700C206558F83C74700E207D98F054766
:10395000638DE70489C709476380E70AEDA08327E1
:10396000C4FD03C7570083C66700A206558F83C6F0
:103970007700C206558F83C78700E207D98F3E853F
:103980008327C4FD03C7570183C66701A206558F6D
:1039900083C67701C206558F83C78701E207D98F97
:1039A0003E868145EFC0DF8579A88327C4FD03C724
:1039B000570083C66700A206558F83C67700C206EC
:1039C000558F83C78700E207D98F3E858327C4FDC3
:1039D00003C7570183C66701A206558F83C67701C7
:1039E000C206558F83C78701E207D98F86073E86B7
:1039F0008145EFC0FF8081A88327C4FD03C757001E
:103A000083C66700A206558F83C67700C206558F0E
:103A100083C78700E207D98F3E858327C4FD03C78C
:103A2000570183C66701A206558F83C67701C20678
:103A3000558F83C78701E207D98F8A073E86814564
:103A4000EFC00FFC01008327C4FD238007008327FC
:103A5000C4FE3E85B250225445618280011106CEDB
:103A600022CC00102326A4FE8327C4FEB337F00027
:103A700093F7F70F3E8713066007BD67938587CAE4
:103A80003A85EFF0FF8D8327C4FE03C7570183C635
:103A90006701A206558F83C67701C206558F83C77B
:103AA0008701E207D98F3E868327C4FE03C717012B
:103AB00083C62701A206558F83C63701C206558FDC
:103AC00083C74701E207D98FB307F6403E85F2402E
:103AD000624405618280797106D622D40018232EB3
:103AE000A4FC232CB4FC232AC4FC8327C4FDB337D5
:103AF000F00093F7F70F3E871306000BBD67938521
:103B000087CA3A85EFF0DF85232604FE232404FECE
:103B1000832784FD89E78D472326F4FE59AB83274D
:103B2000C4FD83C70700958B93F7F70F89C79147AB
:103B30002326F4FEBDAB8327C4FD83C7070093E7AC
:103B4000470013F7F70F8327C4FD2380E70083277F
:103B5000C4FD03C7170183C62701A206558F83C67C
:103B60003701C206558F83C74701E207D98F3E87C9
:103B7000832744FD6361F7528327C4FD03C75701C0
:103B800083C66701A206558F83C67701C206558F8B
:103B900083C78701E207D98F3E868327C4FD03C709
:103BA000970083C6A700A206558F83C6B700C2063A
:103BB000558F83C7C700E207D98FB307F640232488
:103BC000F4FE032744FD832784FE63F3E72E832757
:103BD000C4FD03C7170083C62700A206558F83C6FE
:103BE0003700C206558F83C74700E207D98F0547C4
:103BF0006385E70E89C709476386E71C11A98327F8
:103C0000C4FD03C7570083C66700A206558F83C64D
:103C10007700C206558F83C78700E207D98F3E869B
:103C20008327C4FD03C7970083C6A700A206558F4C
:103C300083C6B700C206558F83C7C700E207D98F76
:103C4000B297032684FE832584FD3E85EF705002E3
:103C5000832584FE0325C4FDEFF03F8B8327C4FD3D
:103C600003C7570083C66700A206558F83C6770037
:103C7000C206558F83C78700E207D98F3E86832708
:103C8000C4FD03C7970083C6A700A206558F83C64D
:103C9000B700C206558F83C7C700E207D98FB306A6
:103CA000F600032784FD832784FEB305F70003276E
:103CB00044FD832784FEB307F7403E863685EF70C8
:103CC000207B032744FD832784FEB307F740BE858E
:103CD0000325C4FDEFF07F8325AE8327C4FD03C712
:103CE000570083C66700A206558F83C67700C206B9
:103CF000558F83C78700E207D98F3E868327C4FD8F
:103D000003C7970083C6A700A206558F83C6B700D6
:103D1000C206558F83C7C700E207D98F86073307CE
:103D2000F600832784FE86073E86832584FD3A8538
:103D3000EF700074832584FE0325C4FDEFF0EFFCD3
:103D40008327C4FD03C7570083C66700A206558FAB
:103D500083C67700C206558F83C78700E207D98FD5
:103D60003E868327C4FD03C7970083C6A700A2062B
:103D7000558F83C6B700C206558F83C7C700E207B9
:103D8000D98F8607B306F600832784FE86070327AC
:103D900084FDB305F700032744FD832784FEB307A2
:103DA000F74086073E863685EF70806C032744FD1A
:103DB000832784FEB307F740BE850325C4FDEFF0DB
:103DC000CFF4B9A48327C4FD03C7570083C6670097
:103DD000A206558F83C67700C206558F83C787001A
:103DE000E207D98F3E868327C4FD03C7970083C6A9
:103DF000A700A206558F83C6B700C206558F83C79A
:103E0000C700E207D98F8A073307F600832784FEAD
:103E10008A073E86832584FD3A85EF706065832599
:103E200084FE0325C4FDEFF04FEE8327C4FD03C7D6
:103E3000570083C66700A206558F83C67700C20667
:103E4000558F83C78700E207D98F3E868327C4FD3D
:103E500003C7970083C6A700A206558F83C6B70085
:103E6000C206558F83C7C700E207D98F8A07B306FA
:103E7000F600832784FE8A07032784FDB305F70035
:103E8000032744FD832784FEB307F7408A073E8655
:103E90003685EF70E05D032744FD832784FEB3077A
:103EA000F740BE850325C4FDEFF02FE601008DA28B
:103EB0008327C4FD03C7170083C62700A206558FBA
:103EC00083C63700C206558F83C74700E207D98FE4
:103ED00005476387E70689C709476387E70C0DAA8B
:103EE0008327C4FD03C7570083C66700A206558F0A
:103EF00083C67700C206558F83C78700E207D98F34
:103F00003E868327C4FD03C7970083C6A700A20689
:103F1000558F83C6B700C206558F83C7C700E20717
:103F2000D98FB297032644FD832584FD3E85EF702B
:103F30002054832544FD0325C4FDEFF00FDDC9A8FF
:103F40008327C4FD03C7570083C66700A206558FA9
:103F500083C67700C206558F83C78700E207D98FD3
:103F60003E868327C4FD03C7970083C6A700A20629
:103F7000558F83C6B700C206558F83C7C700E207B7
:103F8000D98F86073307F600832744FD86073E86D0
:103F9000832584FD3A85EF70A04D832544FD0325DC
:103FA000C4FDEFF08FD6ADA08327C4FD03C7570033
:103FB00083C66700A206558F83C67700C206558F59
:103FC00083C78700E207D98F3E868327C4FD03C7D6
:103FD000970083C6A700A206558F83C6B700C20606
:103FE000558F83C7C700E207D98F8A073307F600CA
:103FF000832744FD8A073E86832584FD3A85EF703A
:104000002047832544FD0325C4FDEFF00FD00100B8
:104010008327C4FD03C7170183C62701A206558F56
:1040200083C63701C206558F83C74701E207D98F80
:104030003E87832744FD1D8F8327C4FD9375F70FAB
:1040400083C61701818A3686AE86D18EA388D700B3
:104050009356870093F5F60F83C62701818A36862B
:10406000AE86D18E2389D7009356070193F5F60FBC
:1040700083C63701818A3686AE86D18EA389D70062
:104080001356870103C74701018BBA863287558FC4
:10409000238AE70021A095472326F4FE8327C4FD49
:1040A00083C70700ED9B13F7F70F8327C4FD238019
:1040B000E7008327C4FE3E85B250225445618280CA
:1040C000797106D622D40018232EA4FC232CB4FC2C
:1040D000232AC4FC2328D4FC8327C4FDB337F00073
:1040E00093F7F70F3E8713061016BD67938587CAAF
:1040F0003A85EFF0EFA6832744FDB337F00093F73E
:10410000F70F3E8713062016BD67938587CA3A8549
:10411000EFF00FA5232604FE232404FE232204FE31
:10412000832784FD89E78D472326F4FEA9A18327F1
:10413000C4FD83C707008D8B93F7F70F91CB8327BF
:1041400044FD032744FE98C399472326F4FE21A388
:104150000325C4FDEFF09F902322A4FE832744FD96
:104160009C43032744FE6379F702832744FD03271A
:1041700044FE98C39D472326F4FE832744FE89EF1F
:104180008327C4FD83C70700DD9B13F7F70F832741
:10419000C4FD2380E700C1A18327C4FD83C70700B6
:1041A00093E7870013F7F70F8327C4FD2380E70009
:1041B0008327C4FD03C7570183C66701A206558F35
:1041C00083C67701C206558F83C78701E207D98F5F
:1041D0003E868327C4FD03C7D70083C6E700A20637
:1041E000558F83C6F700C206558F83C70701E207C4
:1041F000D98FB307F6402324F4FE832744FD9C4364
:10420000032784FE6366F7148327C4FD03C71700E2
:1042100083C62700A206558F83C63700C206558F76
:1042200083C74700E207D98F05476384E70689C73C
:104230000947638FE70A2DA68327C4FD03C75700EC
:1042400083C66700A206558F83C67700C206558FC6
:1042500083C78700E207D98F3E868327C4FD03C743
:10426000D70083C6E700A206558F83C6F700C206B3
:10427000558F83C70701E207D98F3307F6008327DD
:1042800044FD9C433E86BA85032584FDEF70401EA5
:10429000C1AC8327C4FD03C7570083C66700A206CD
:1042A000558F83C67700C206558F83C78700E20704
:1042B000D98F3E868327C4FD03C7D70083C6E70096
:1042C000A206558F83C6F700C206558F83C7070124
:1042D000E207D98F86073307F600832744FD9C4306
:1042E00086073E86BA85032584FDEF7060188DAC85
:1042F0008327C4FD03C7570083C66700A206558FF6
:1043000083C67700C206558F83C78700E207D98F1F
:104310003E868327C4FD03C7D70083C6E700A206F5
:10432000558F83C6F700C206558F83C70701E20782
:10433000D98F8A073307F600832744FD9C438A07F9
:104340003E86BA85032584FDEF708012010009AC1A
:104350008327C4FD03C7170083C62700A206558F15
:1043600083C63700C206558F83C74700E207D98F3F
:1043700005476383E70A89C709476381E714CDA22C
:104380008327C4FD03C7570083C66700A206558F65
:1043900083C67700C206558F83C78700E207D98F8F
:1043A0003E868327C4FD03C7D70083C6E700A20665
:1043B000558F83C6F700C206558F83C70701E207F2
:1043C000D98FB297032684FEBE85032584FDEF7046
:1043D000200A032784FD832784FE3305F700832703
:1043E000C4FD03C7570083C66700A206558F83C666
:1043F0007700C206558F83C78700E207D98FBE8634
:10440000832744FD9843832784FEB307F7403E8605
:10441000B685EF70E005A9A28327C4FD03C7570046
:1044200083C66700A206558F83C67700C206558FE4
:1044300083C78700E207D98F3E868327C4FD03C761
:10444000D70083C6E700A206558F83C6F700C206D1
:10445000558F83C70701E207D98F86073307F60018
:10446000832784FE86073E86BA85032584FDEF7088
:104470002000832784FE8607032784FD3305F70089
:104480008327C4FD03C7570083C66700A206558F64
:1044900083C67700C206558F83C78700E207D98F8E
:1044A000BE86832744FD9843832784FEB307F740E5
:1044B00086073E86B685EF60B07B5DA08327C4FD8E
:1044C00003C7570083C66700A206558F83C67700CF
:1044D000C206558F83C78700E207D98F3E868327A0
:1044E000C4FD03C7D70083C6E700A206558F83C665
:1044F000F700C206558F83C70701E207D98F8A07E5
:104500003307F600832784FE8A073E86BA85032593
:1045100084FDEF60F075832784FE8A07032784FDFE
:104520003305F7008327C4FD03C7570083C6670020
:10453000A206558F83C67700C206558F83C78700B2
:10454000E207D98FBE86832744FD9843832784FEE4
:10455000B307F7408A073E86B685EF6070710100A9
:104560008327C4FD83C70700DD9B13F7F70F83275D
:10457000C4FD2380E700832704FDF1EF8327C4FDFA
:1045800003C70700AD476316F70089472326F4FEEB
:10459000D9A08327C4FD83C7070093E7270013F73B
:1045A000F70F8327C4FD2380E700832744FD9C4346
:1045B000BE850325C4FDEFF08F8D8327C4FD03C79F
:1045C000170183C62701A206558F83C63701C2068D
:1045D000558F83C74701E207D98F3E87832744FD64
:1045E0009C433E978327C4FD9375F70F83C617013D
:1045F000818A3686AE86D18EA388D70093568700EF
:1046000093F5F60F83C62701818A3686AE86D18E52
:104610002389D7009356070193F5F60F83C6370118
:10462000818A3686AE86D18EA389D700135687013C
:1046300003C74701018BBA863287558F238AE7006B
:104640008327C4FD83C70700F59B13F7F70F832764
:10465000C4FD2380E7008327C4FE3E85B250225468
:1046600045618280797106D622D40018232EA4FCDD
:10467000232CB4FC232AC4FC2328D4FC8327C4FDA8
:10468000B337F00093F7F70F3E8713062022BD677C
:10469000938587CA3A85EFE0BFCC232604FE8327A3
:1046A000C4FD032744FD1376F70F03C75700018BA2
:1046B000BA863287558FA382E700032744FD218302
:1046C0001376F70F03C76700018BBA863287558FC1
:1046D0002383E700032744FD41831376F70F03C7C5
:1046E0007700018BBA863287558FA383E7000327B3
:1046F00044FD1356870103C78700018BBA863287B2
:10470000558F2384E7008327C4FD23800700832778
:10471000C4FD032784FD1376F70F03C71700018B31
:10472000BA863287558FA380E700032784FD218353
:104730001376F70F03C72700018BBA863287558F90
:104740002381E700032784FD41831376F70F03C716
:104750003700018BBA863287558FA381E700032784
:1047600084FD1356870103C74700018BBA86328741
:10477000558F2382E7008327C4FD03C79700018B71
:10478000A384E70003C7A700018B2385E70003C7C5
:10479000B700018BA385E70003C7C700018B238601
:1047A000E7008327C4FD03C7D700018BA386E7007A
:1047B00003C7E700018B2387E70003C7F700018BDE
:1047C000A387E70003C70701018B2388E70083273E
:1047D000C4FD032704FD1376F70F03C71701018BF0
:1047E000BA863287558FA388E700032704FD21830B
:1047F0001376F70F03C72701018BBA863287558FCF
:104800002389E700032704FD41831376F70F03C7CD
:104810003701018BBA863287558FA389E7000327BA
:1048200004FD1356870103C74701018BBA863287FF
:10483000558F238AE7008327C4FD032704FD1376E1
:10484000F70F03C75701018BBA863287558FA38AAA
:10485000E700032704FD21831376F70F03C76701E1
:10486000018BBA863287558F238BE700032704FD1F
:1048700041831376F70F03C77701018BBA8632871E
:10488000558FA38BE700032704FD1356870103C749
:104890008701018BBA863287558F238CE7008327E7
:1048A000C4FE3E85B250225445618280411122C629
:1048B0000008996793878708739007800100324446
:1048C00041018280411122C60008996773900780D8
:1048D0000100324441018280011122CE00102326C2
:1048E000A4FE8327C4FEFD8B0547B316F70037E708
:1048F00000E08327C4FE9583938707048A07BA974D
:1049000094C30100724405618280011122CE00101F
:104910002326A4FE8327C4FEFD8B0547B316F700AC
:1049200037E700E08327C4FE9583938707068A074D
:10493000BA9794C30100724405618280011122CEAE
:1049400000102326A4FEAE87A305F4FE37E700E09F
:104950008327C4FEBA970347B4FE2380E7400100D3
:10496000724405618280011106CE22CC00102326FC
:10497000A4FE0325C4FEEFF03FF60100F2406244BE
:1049800005618280011106CE22CC00102326A4FEF0
:104990000325C4FEEFF07FF70100F2406244056199
:1049A0008280011106CE22CC00102326A4FEAE8701
:1049B000A305F4FE8347B4FEBE850325C4FEEFF0D5
:1049C000FFF70100F240624405618280011106CECA
:1049D00022CC00102326A4FE8327C4FE99C783A7F8
:1049E00041871387F7FF23AAE18683A7418799E3CD
:1049F000EFF0DFEB0100F24062440561828041117B
:104A000006C622C4000883A7418799E3EFF09FEB15
:104A100083A741871387170023AAE18683A74187CD
:104A20003E85B240224441018280411106C622C423
:104A300000080145EFF09FF90100B2402244410116
:104A40008280357106CF16CD1ACB1EC922C72AC562
:104A50002EC332C1B6DEBADCBEDAC2D8C6D6F2D4B4
:104A6000F6D2FAD0FECE82E686E48AE28EE012FE2C
:104A700016FC1AFA1EF82AF62EF432F236F03AEE46
:104A80003EEC42EA46E872E676E47AE27EE0001125
:104A900093055052B747014013850780EF30A006B9
:104AA000AA8789CB93055052B747014013850780E9
:104AB000EF3080150100FA40EA425A43CA433A44B3
:104AC0002A459A450A46F6566657D6574658B65866
:104AD000265E965E065FF64F3660A66016618661BA
:104AE0007272E2725273C2733275A2751276827656
:104AF0007267E2675268C268326EA26E126F826F8E
:104B00000D6173002030357106CF16CD1ACB1EC94A
:104B100022C72AC52EC332C1B6DEBADCBEDAC2D87D
:104B2000C6D6F2D4F6D2FAD0FECE82E686E48AE287
:104B30008EE012FE16FC1AFA1EF82AF62EF432F255
:104B400036F03AEE3EEC42EA46E872E676E47AE285
:104B50007EE0001193055052B7470040138507408F
:104B6000EF20707AAA8789CB93055052B74700404F
:104B700013850740EF3040090100FA40EA425A43EA
:104B8000CA433A442A459A450A46F6566657D657C6
:104B90004658B658265E965E065FF64F3660A660AB
:104BA000166186617272E2725273C2733275A275B7
:104BB000127682767267E2675268C268326EA26EBF
:104BC000126F826F0D6173002030357106CF16CDE4
:104BD0001ACB1EC922C72AC52EC332C1B6DEBADC23
:104BE000BEDAC2D8C6D6F2D4F6D2FAD0FECE82E66B
:104BF00086E48AE28EE012FE16FC1AFA1EF82AF605
:104C00002EF432F236F03AEE3EEC42EA46E872E634
:104C100076E47AE27EE0001193055052B7570040E7
:104C200013850780EF20306EAA8799CBEFE04FE81D
:104C300093055052B757004013850780EF20D07C72
:104C40000100FA40EA425A43CA433A442A459A4587
:104C50000A46F6566657D6574658B658265E965EAA
:104C6000065FF64F3660A660166186617272E27268
:104C70005273C2733275A275127682767267E267DA
:104C80005268C268326EA26E126F826F0D6173003D
:104C90002030357106CF16CD1ACB1EC922C72AC5C2
:104CA0002EC332C1B6DEBADCBEDAC2D8C6D6F2D462
:104CB000F6D2FAD0FECE82E686E48AE28EE012FEDA
:104CC00016FC1AFA1EF82AF62EF432F236F03AEEF4
:104CD0003EEC42EA46E872E676E47AE27EE00011D3
:104CE00093055052B7570040138507C0EF20B061BD
:104CF000AA8789CB93055052B7570040138507C048
:104D0000EF2090700100FA40EA425A43CA433A4405
:104D10002A459A450A46F6566657D6574658B65813
:104D2000265E965E065FF64F3660A6601661866167
:104D30007272E2725273C2733275A2751276827603
:104D40007267E2675268C268326EA26E126F826F3B
:104D50000D6173002030357106CF16CD1ACB1EC9F8
:104D600022C72AC52EC332C1B6DEBADCBEDAC2D82B
:104D7000C6D6F2D4F6D2FAD0FECE82E686E48AE235
:104D80008EE012FE16FC1AFA1EF82AF62EF432F203
:104D900036F03AEE3EEC42EA46E872E676E47AE233
:104DA0007EE000119305505237550040EF20B0557A
:104DB000AA8791CB83A701818297930550523755DB
:104DC0000040EF2070640100FA40EA425A43CA43AF
:104DD0003A442A459A450A46F6566657D6574658E3
:104DE000B658265E965E065FF64F3660A660166180
:104DF00086617272E2725273C2733275A275127654
:104E000082767267E2675268C268326EA26E126F73
:104E1000826F0D6173002030357106CF16CD1ACB2D
:104E20001EC922C72AC52EC332C1B6DEBADCBEDA1D
:104E3000C2D8C6D6F2D4F6D2FAD0FECE82E686E446
:104E40008AE28EE012FE16FC1AFA1EF82AF62EF4FA
:104E500032F236F03AEE3EEC42EA46E872E676E4AA
:104E60007AE27EE0001193055052B7270040138587
:104E70000780EF205049AA8789CB93055052B72766
:104E8000004013850780EF2030580100FA40EA42C5
:104E90005A43CA433A442A459A450A46F656665743
:104EA000D6574658B658265E965E065FF64F366071
:104EB000A660166186617272E2725273C2733275B5
:104EC000A275127682767267E2675268C268326EA5
:104ED000A26E126F826F0D6173002030357106CFA4
:104EE00016CD1ACB1EC922C72AC52EC332C1B6DEC3
:104EF000BADCBEDAC2D8C6D6F2D4F6D2FAD0FECE2A
:104F000082E686E48AE28EE012FE16FC1AFA1EF8A9
:104F10002AF62EF432F236F03AEE3EEC42EA46E859
:104F200072E676E47AE27EE0001193055052B727EC
:104F30000040138507C0EF20103DAA8781CF83A7CB
:104F40008181829793055052B7270040138507C08F
:104F5000EF20904B0100FA40EA425A43CA433A44D8
:104F60002A459A450A46F6566657D6574658B658C1
:104F7000265E965E065FF64F3660A6601661866115
:104F80007272E2725273C2733275A27512768276B1
:104F90007267E2675268C268326EA26E126F826FE9
:104FA0000D6173002030357106CF16CD1ACB1EC9A6
:104FB00022C72AC52EC332C1B6DEBADCBEDAC2D8D9
:104FC000C6D6F2D4F6D2FAD0FECE82E686E48AE2E3
:104FD0008EE012FE16FC1AFA1EF82AF62EF432F2B1
:104FE00036F03AEE3EEC42EA46E872E676E47AE2E1
:104FF0007EE000119305505237250040EF20B0307D
:10500000AA8789CBEFC01FD49305505237250040A3
:10501000EF20903F0100FA40EA425A43CA433A4423
:105020002A459A450A46F6566657D6574658B65800
:10503000265E965E065FF64F3660A6601661866154
:105040007272E2725273C2733275A27512768276F0
:105050007267E2675268C268326EA26E126F826F28
:105060000D6173002030357106CF16CD1ACB1EC9E5
:1050700022C72AC52EC332C1B6DEBADCBEDAC2D818
:10508000C6D6F2D4F6D2FAD0FECE82E686E48AE222
:105090008EE012FE16FC1AFA1EF82AF62EF432F2F0
:1050A00036F03AEE3EEC42EA46E872E676E47AE220
:1050B0007EE00011B707055083C7070193F7F70F8C
:1050C000918B8DC383A741818297B707055083C712
:1050D000070113F7F70FB70705506D9B1377F70F0D
:1050E0002388E7000100FA40EA425A43CA433A449F
:1050F0002A459A450A46F6566657D6574658B65830
:10510000265E965E065FF64F3660A6601661866183
:105110007272E2725273C2733275A275127682761F
:105120007267E2675268C268326EA26E126F826F57
:105130000D6173002030357106CF16CD1ACB1EC914
:1051400022C72AC52EC332C1B6DEBADCBEDAC2D847
:10515000C6D6F2D4F6D2FAD0FECE82E686E48AE251
:105160008EE012FE16FC1AFA1EF82AF62EF432F21F
:1051700036F03AEE3EEC42EA46E872E676E47AE24F
:105180007EE000110545EF00B06C2A878547631566
:10519000F7000545EF0030710100FA40EA425A433A
:1051A000CA433A442A459A450A46F6566657D657A0
:1051B0004658B658265E965E065FF64F3660A66085
:1051C000166186617272E2725273C2733275A27591
:1051D000127682767267E2675268C268326EA26E99
:1051E000126F826F0D6173002030357106CF16CDBE
:1051F0001ACB1EC922C72AC52EC332C1B6DEBADCFD
:10520000BEDAC2D8C6D6F2D4F6D2FAD0FECE82E644
:1052100086E48AE28EE012FE16FC1AFA1EF82AF6DE
:105220002EF432F236F03AEE3EEC42EA46E872E60E
:1052300076E47AE27EE000110945EF0070612A878A
:1052400085476315F7000945EF00F0650100FA4056
:10525000EA425A43CA433A442A459A450A46F65610
:105260006657D6574658B658265E965E065FF64F86
:105270003660A660166186617272E2725273C27302
:105280003275A275127682767267E2675268C268DA
:10529000326EA26E126F826F0D6173002030357115
:1052A00006CF16CD1ACB1EC922C72AC52EC332C1BE
:1052B000B6DEBADCBEDAC2D8C6D6F2D4F6D2FAD09E
:1052C000FECE82E686E48AE28EE012FE16FC1AFA30
:1052D0001EF82AF62EF432F236F03AEE3EEC42EAAE
:1052E00046E872E676E47AE27EE000111145EF00CE
:1052F00030562A8785476315F7001145EF00B05AED
:105300000100FA40EA425A43CA433A442A459A45C0
:105310000A46F6566657D6574658B658265E965EE3
:10532000065FF64F3660A660166186617272E272A1
:105330005273C2733275A275127682767267E26713
:105340005268C268326EA26E126F826F0D61730076
:105350002030357106CF16CD1ACB1EC922C72AC5FB
:105360002EC332C1B6DEBADCBEDAC2D8C6D6F2D49B
:10537000F6D2FAD0FECE82E686E48AE28EE012FE13
:1053800016FC1AFA1EF82AF62EF432F236F03AEE2D
:105390003EEC42EA46E872E676E47AE27EE000110C
:1053A0002145EF00F04A2A8785476315F70021451C
:1053B000EF00704F0100FA40EA425A43CA433A44B0
:1053C0002A459A450A46F6566657D6574658B6585D
:1053D000265E965E065FF64F3660A66016618661B1
:1053E0007272E2725273C2733275A275127682764D
:1053F0007267E2675268C268326EA26E126F826F85
:105400000D6173002030357106CF16CD1ACB1EC941
:1054100022C72AC52EC332C1B6DEBADCBEDAC2D874
:10542000C6D6F2D4F6D2FAD0FECE82E686E48AE27E
:105430008EE012FE16FC1AFA1EF82AF62EF432F24C
:1054400036F03AEE3EEC42EA46E872E676E47AE27C
:105450007EE000114145EF00B03F2A878547631584
:10546000F7004145EF0030440100FA40EA425A4358
:10547000CA433A442A459A450A46F6566657D657CD
:105480004658B658265E965E065FF64F3660A660B2
:10549000166186617272E2725273C2733275A275BE
:1054A000127682767267E2675268C268326EA26EC6
:1054B000126F826F0D6173002030357106CF16CDEB
:1054C0001ACB1EC922C72AC52EC332C1B6DEBADC2A
:1054D000BEDAC2D8C6D6F2D4F6D2FAD0FECE82E672
:1054E00086E48AE28EE012FE16FC1AFA1EF82AF60C
:1054F0002EF432F236F03AEE3EEC42EA46E872E63C
:1055000076E47AE27EE0001113050002EF005034E9
:105510002A8785476316F70013050002EF00B038AD
:1055200013050004EF00D0322A8785476316F70081
:1055300013050004EF00303713050008EF00503169
:105540002A8785476316F70013050008EF00B0357A
:1055500013050010EF00D02F2A8785476316F70048
:1055600013050010EF00303413050020EF00502E1B
:105570002A8785476316F70013050020EF00B03235
:105580000100FA40EA425A43CA433A442A459A453E
:105590000A46F6566657D6574658B658265E965E61
:1055A000065FF64F3660A660166186617272E2721F
:1055B0005273C2733275A275127682767267E26791
:1055C0005268C268326EA26E126F826F0D617300F4
:1055D0002030357106CF16CD1ACB1EC922C72AC579
:1055E0002EC332C1B6DEBADCBEDAC2D8C6D6F2D419
:1055F000F6D2FAD0FECE82E686E48AE28EE012FE91
:1056000016FC1AFA1EF82AF62EF432F236F03AEEAA
:105610003EEC42EA46E872E676E47AE27EE0001189
:1056200013050040EF00D0222A8785476316F70054
:1056300013050040EF003027856713850780EF00D2
:1056400030212A8785476317F70085671385078010
:10565000EF0070250565EF00B01F2A8785476315A9
:10566000F7000565EF0030240965EF00701E2A87FA
:1056700085476318F70083A7C18182970965EF000A
:1056800090221165EF00D01C2A8785476317F70029
:10569000EFC02FE81165EF0010212165EF00501BCE
:1056A0002A8785476317F700EFC04FD72165EF00C2
:1056B000901F0100FA40EA425A43CA433A442A453D
:1056C0009A450A46F6566657D6574658B658265E45
:1056D000965E065FF64F3660A6601661866172724E
:1056E000E2725273C2733275A27512768276726755
:1056F000E2675268C268326EA26E126F826F0D61ED
:1057000073002030357106CF16CD1ACB1EC922C7C3
:105710002AC52EC332C1B6DEBADCBEDAC2D8C6D6BE
:10572000F2D4F6D2FAD0FECE82E686E48AE28EE0A9
:1057300012FE16FC1AFA1EF82AF62EF432F236F091
:105740003AEE3EEC42EA46E872E676E47AE27EE041
:1057500000118545B7370140138507C0EF1010745D
:10576000AA8781CB8545B7370140138507C0EF1065
:10577000F0790100FA40EA425A43CA433A442A45C2
:105780009A450A46F6566657D6574658B658265E84
:10579000965E065FF64F3660A6601661866172728D
:1057A000E2725273C2733275A27512768276726794
:1057B000E2675268C268326EA26E126F826F0D612C
:1057C00073002030357106CF16CD1ACB1EC922C703
:1057D0002AC52EC332C1B6DEBADCBEDAC2D8C6D6FE
:1057E000F2D4F6D2FAD0FECE82E686E48AE28EE0E9
:1057F00012FE16FC1AFA1EF82AF62EF432F236F0D1
:105800003AEE3EEC42EA46E872E676E47AE27EE080
:105810000011854537050040EF105068AA8789CBF5
:10582000854537050040EF10706E3145EFA0DFC7AA
:105830000100FA40EA425A43CA433A442A459A458B
:105840000A46F6566657D6574658B658265E965EAE
:10585000065FF64F3660A660166186617272E2726C
:105860005273C2733275A275127682767267E267DE
:105870005268C268326EA26E126F826F0D61730041
:105880002030357106CF16CD1ACB1EC922C72AC5C6
:105890002EC332C1B6DEBADCBEDAC2D8C6D6F2D466
:1058A000F6D2FAD0FECE82E686E48AE28EE012FEDE
:1058B00016FC1AFA1EF82AF62EF432F236F03AEEF8
:1058C0003EEC42EA46E872E676E47AE27EE00011D7
:1058D0008545B707004013850740EF10305CAA8765
:1058E00081CB8545B707004013850740EF10106254
:1058F0000100FA40EA425A43CA433A442A459A45CB
:105900000A46F6566657D6574658B658265E965EED
:10591000065FF64F3660A660166186617272E272AB
:105920005273C2733275A275127682767267E2671D
:105930005268C268326EA26E126F826F0D61730080
:105940002030357106CF16CD1ACB1EC922C72AC505
:105950002EC332C1B6DEBADCBEDAC2D8C6D6F2D4A5
:10596000F6D2FAD0FECE82E686E48AE28EE012FE1D
:1059700016FC1AFA1EF82AF62EF432F236F03AEE37
:105980003EEC42EA46E872E676E47AE27EE0001116
:105990008545B717004013850780EF103050AA8760
:1059A00081CB8545B717004013850780EF1010564F
:1059B0000100FA40EA425A43CA433A442A459A450A
:1059C0000A46F6566657D6574658B658265E965E2D
:1059D000065FF64F3660A660166186617272E272EB
:1059E0005273C2733275A275127682767267E2675D
:1059F0005268C268326EA26E126F826F0D617300C0
:105A00002030357106CF16CD1ACB1EC922C72AC544
:105A10002EC332C1B6DEBADCBEDAC2D8C6D6F2D4E4
:105A2000F6D2FAD0FECE82E686E48AE28EE012FE5C
:105A300016FC1AFA1EF82AF62EF432F236F03AEE76
:105A40003EEC42EA46E872E676E47AE27EE0001155
:105A50008545B7170040138507C0EF103044AA876B
:105A600081CB8545B7170040138507C0EF10104A5A
:105A70000100FA40EA425A43CA433A442A459A4549
:105A80000A46F6566657D6574658B658265E965E6C
:105A9000065FF64F3660A660166186617272E2722A
:105AA0005273C2733275A275127682767267E2679C
:105AB0005268C268326EA26E126F826F0D617300FF
:105AC0002030357106CF16CD1ACB1EC922C72AC584
:105AD0002EC332C1B6DEBADCBEDAC2D8C6D6F2D424
