:100000006F60604213000000130000001300000046
:100010001300000013000000130000001300000094
:100020001300000013000000130000001300000084
:08003000130000007300100032
:100038000000000000000000AE620000BE62000088
:10004800000000006C6300000000000000000000D9
:100058006E630000706300000000000000000000F4
:1000680072630000000000007463000000000000DC
:1000780076630000786300007A6300007C63000008
:100088007E63000080630000725500002656000061
:10009800DA5600008E570000425800008C630000BA
:1000A8008E63000090630000926300009463000078
:1000B80096630000986300009A6300009C63000048
:1000C8009E630000A0630000A2630000F6580000D1
:1000D800A6630000405B0000AA630000AC63000058
:1000E800005C0000BE5C00007E5D0000B4630000A0
:1000F800B6630000B8630000BA630000BC63000088
:10010800BE6300007E4E0000424F00000650000013
:100118000E5A0000C8630000CA630000CC630000E8
:1001280076600000D0630000D2630000D463000052
:10013800D6630000D86300003E5E0000DC63000068
:10014800CE50000092510000FE5E0000B65F000035
:10015800E6630000E8630000EA630000EC63000067
:10016800EE630000F0630000F2630000F463000037
:10017800F6630000F8630000FA6300008E87000051
:10018800FE63000000640000A25400005452000006
:1001980018530000E25300000A64000036610000B2
:1001A8000E6400001064000012640000F661000094
:1001B80016640000186400001A6400001C64000043
:1001C8001E64000020640000226400002464000013
:1001D8000000000000000000000000000000000017
:1001E8000000000000000000000000000000000007
:0801F8000000000000000000FF
:100200003D432A876373C3029377F700BDEFADE5E3
:10021000937606FF3D8ABA960CC34CC30CC74CC7F5
:100220004107E36BD7FE11E28280B306C3408A0622
:100230009702000096966780A6002307B700A306E2
:10024000B7002306B700A305B7002305B700A30432
:10025000B7002304B700A303B7002303B700A3022A
:10026000B7002302B700A301B7002301B700A30022
:10027000B7002300B700828093F5F50F93968500B1
:10028000D58D93960501D58D61B79396270097027A
:10029000000096968682E78086FA9680C1171D8FA9
:1002A0003E96E374C3F8A5B7797106D622D4001838
:1002B000232EA4FC8327C4FDB18393F7F70FBD8BD6
:1002C000A307F4FE8327C4FDA18393F7F70FBD8B2B
:1002D0002307F4FE0347F4FEB70700200A079387BD
:1002E0008727BA979C430347E4FE91460546BA85A3
:1002F0003E85EF6020440347F4FEB70700200A075D
:1003000093878727BA979C4385453E85EF60403E9B
:1003100001000347F4FEB70700200A0793878727E9
:10032000BA979C4389453E85EF604065AA87F5D31F
:100330000347F4FEB70700200A0793878727BA9779
:100340009C43FC478346F4FE138781853697034719
:100350000700B3D7E700C207C1833E85B2502254DD
:10036000456182805D7186C6A2C48008232EA4FAEE
:10037000232CB4FA232604FC232804FC232A04FC9F
:10038000232C04FC232E04FC232004FE232204FE41
:10039000232404FE8327C4FBB18393F7F70FBD8B9F
:1003A000A307F4FE8327C4FB93F7F70F81460146AA
:1003B00081453E8575268347F4FE99E785451305FB
:1003C0000020EF60505E19A80347F4FE85476317CD
:1003D000F700854513050040EF60F05C3165EF6084
:1003E000D02B0347F4FEB70700200A07938787271F
:1003F000BA979C433E85EF60600B232604FC2328BC
:1004000004FC232A04FCB7070E00232CF4FC232E43
:1004100004FC85472300F4FE0347F4FEB7070020E1
:100420000A0793878727BA979C431307C4FCBA85AA
:100430003E85EF60A00D0347F4FEB70700200A07D2
:1004400093878727BA979C4385453E85EF60201C9C
:100450000347F4FEB70700200A0793878727BA9758
:100460009C4381453E85EF6000550347F4FEB70786
:1004700000200A0793878727BA979C433E85EF6041
:10048000E01C01000347F4FEB70700200A0793872A
:100490008727BA979C433E85EF60601DAA87FDF3CE
:1004A0000347F4FEB70700200A0793878727BA9708
:1004B0009C433E85EF60A01E01000347F4FEB70792
:1004C00000200A0793878727BA979C433E85EF60F1
:1004D000201FAA87FDF38346F4FE832784FB13F7CE
:1004E000F70F93878185B6972380E7000100B64018
:1004F000264461618280011122CE00102326A4FED1
:1005000037F500E08328450037F500E093F8E8FF71
:100510002322150183A881820965130505F433D5CB
:10052000A802AA8601470325C4FEAA87014837F519
:1005300000E03303F702B308D8029A983383F60237
:1005400033B6F6029A85B387C8003E860CC950C9F7
:10055000B7F700E09843B7F700E01367070198C3C7
:10056000B7F700E09843B7F700E01367170298C3A6
:100570000100B7F700E0DC4313F717008547E31AE3
:10058000F7FEB7F700E09843B7F700E0799B98C310
:100590000100724405618280011122CE00102326E1
:1005A000A4FE37F500E08328450037F500E093F816
:1005B000E8FF2322150183A8818237157A001305ED
:1005C000052033D5A802AA8601470325C4FEAA87C1
:1005D000014837F500E03303F702B308D8029A98D0
:1005E0003383F60233B6F6029A85B387C8003E8697
:1005F0000CC950C9B7F700E09843B7F700E013679C
:10060000070198C3B7F700E09843B7F700E0136716
:10061000170298C30100B7F700E0DC4313F7170097
:100620008547E31AF7FEB7F700E09843B7F700E015
:10063000799B98C30100724405618280011122CE2A
:1006400000102326A4FEAE87A305F4FE8347B4FE64
:1006500085CB8327C4FEBD8B0547B317F700939660
:100660000701C1828327C4FE13D75700B7070020B4
:100670000A0793870704BA979C43368798CB3DA017
:100680008327C4FEBD8B0547B317F7009396070178
:10069000C1828327C4FE13D75700B70700200A077B
:1006A00093870704BA979C433687D8CB01007244DE
:1006B00005618280011122CE00102326A4FE83272B
:1006C000C4FE958313F77700B70700200A079387C6
:1006D0000704BA979C439C470327C4FE7D8B85463D
:1006E0003397E600F98FB337F00093F7F70F3E85A5
:1006F000724405618280797122D60018232EA4FCF1
:100700008327C4FD958393F7F70F9D8BA307F4FE12
:100710008327C4FD93F7F70FFD8B2307F4FE0347F0
:10072000F4FEB70700200A0793870704BA979C4393
:10073000D8478347E4FE8546B397F600C207C183D6
:100740003E868346F4FEB70700208A069387070497
:10075000B6979C43318FD8C70100325445618280DF
:10076000797106D622D40018232EA4FC232CB4FCC5
:10077000B2872328D4FCA30BF4FC232004FE2322FD
:1007800004FE232404FE8327C4FD958393F7F70F0B
:100790009D8BA307F4FE8327C4FD93F7F70FFD8B12
:1007A0002307F4FE8347F4FE91E785451145EF608A
:1007B000901F91A80347F4FE85476317F70085450E
:1007C0002145EF60501E81A00347F4FE894763175F
:1007D000F70085454145EF60101D35A00347F4FE45
:1007E0008D476318F700854513050002EF60B01BC5
:1007F00019A80347F4FE91476317F70085451305D1
:100800000004EF60501A8347E4FE0547B317F70072
:10081000C207C1832310F4FE032784FD85476317B5
:10082000F702832704FDC207C183A183C207C183E6
:1008300089E78D472322F4FE11A8832704FDC20710
:10084000C183A183C207C1832322F4FE832704FD51
:10085000C207C18393F7F70F2324F4FE0347F4FE86
:10086000B70700200A0793870704BA979C4313072A
:1008700004FEBA853E85EF60A01F032784FD8547EF
:100880006319F7020347F4FEB70700200A079387AE
:100890000704BA9794438347E4FE0547B317F7006C
:1008A000C207C183034774FD3A86BE853685EF6073
:1008B000C03E0100B2502254456182801D7186CE37
:1008C000A2CC80102326A4FA2324B4FA854503255C
:1008D000C4FAEF00D034AA873E871306D006BD675E
:1008E000938547433A85EF20B05D832784FAB33779
:1008F000F00093F7F70F3E871306F006BD67938568
:1009000047433A85EF20D05B832784FABD832315C4
:10091000F4FE8357A4FE85073E87832784FAB3D766
:10092000E7022314F4FE0325C4FAEF00B035B7370D
:100930000140938707C02326F4FE0327C4FAA54786
:1009400063ECE7088327C4FA13972700BD679387F2
:10095000C778BA979C438287B7370140938707C00F
:100960002326F4FE95A8B70700402326F4FEADA089
:10097000B7070040938707402326F4FEB1A8B717B6
:100980000040938707802326F4FEB9A0B7170040E4
:10099000938707C02326F4FE81A0B71700402326C3
:1009A000F4FE1DA8B7170040938707402326F4FEE6
:1009B00025A0B7370140938707402326F4FE29A8D6
:1009C000B7570140938707C02326F4FE31A0B757DD
:1009D00001402326F4FE0100232E04FC232004FE04
:1009E000231204FE835784FE2310F4FE8357A4FED3
:1009F000231EF4FC231104FE231F04FC230204FE27
:100A00009307C4FDBE850325C4FEEF60D0270546CD
:100A100085450325C4FEEF70603785450325C4FE78
:100A2000EF70C06DBD6703AEC7401387C740032397
:100A300047001387C740832887001387C7400328D0
:100A4000C7001387C740084B1387C7404C4B138719
:100A5000C740104F1387C740544F1387C7401853E0
:100A60009387C740DC53232AC4FB232C64FA232E2C
:100A700014FB232004FD2322A4FC2324B4FC2326FE
:100A8000C4FC2328D4FC232AE4FC232CF4FC832775
:100A9000C4FA93F7F70F8A07130704FFBA9783A7DF
:100AA00047FC8D453E85EF4080338327C4FA8A0793
:100AB000130704FFBA9783A747FC3E85EF40602EDB
:100AC00085450325C4FEEF70E0200100F640664432
:100AD00025618280797106D622D40018232EA4FCC9
:100AE000232CB4FC032784FD896793871771B337E0
:100AF000F70093F7F70F3E8713065003BD67938502
:100B000007463A85EF20D03BB7370140938707C0AF
:100B10002326F4FE8327C4FDC183BD8B2547636E66
:100B2000F70613972700BD679387477BBA979C43C7
:100B30008287B7370140938707C02326F4FEB1A808
:100B4000B70700402326F4FE89A8B7070040938723
:100B500007402326F4FE91A0B71700409387078033
:100B60002326F4FE1DA8B7170040938707C023264D
:100B7000F4FE25A0B7370140938707402326F4FEF3
:100B800029A8B7570140938707C02326F4FE31A058
:100B9000B75701402326F4FE01008327C4FE83D704
:100BA000C7022315F4FE0357A4FE832784FD3307F1
:100BB000F702896793870771B357F7022314F4FE8E
:100BC0008327C4FDA1838D8B81EB8327C4FE03574C
:100BD00084FE239AE702A9A88327C4FDA18313F703
:100BE000370085476319F7008327C4FE035784FE47
:100BF000239CE70235A88327C4FDA18313F73700A0
:100C000089476319F7008327C4FE035784FE239E98
:100C1000E70239A88327C4FDA18313F737008D4766
:100C20006318F7008327C4FE035784FE2390E7046C
:100C30000100B2502254456182805D7186C6A2C413
:100C40008008232EA4FA232CB4FA232AC4FA83277B
:100C5000C4FBC1838D453E85EF00607CAA873E873B
:100C60001306D00ABD67938507463A85EF205025C5
:100C7000032744FB896793871771B337F70093F70E
:100C8000F70F3E871306F00ABD67938507463A853E
:100C9000EF201023232E04FC232004FE231204FE45
:100CA000232604FC232804FC232A04FC232C04FC14
:100CB000231504FE8327C4FBC183BD8B3E85EF0053
:100CC000607C8327C4FB93F7F70F930680310146BE
:100CD00085453E85713485450545EF60C04CB73785
:100CE0000140938707C02326F4FE8327C4FBC183FA
:100CF000BD8B2547636EF70613972700BD67938763
:100D0000C77DBA979C438287B7370140938707C056
:100D10002326F4FEB1A8B70700402326F4FE89A8D5
:100D2000B7070040938707402326F4FE91A0B7172A
:100D30000040938707802326F4FE1DA8B7170040C4
:100D4000938707C02326F4FE25A0B7370140938779
:100D500007402326F4FE29A8B7570140938707C010
:100D60002326F4FE31A0B75701402326F4FE0100EC
:100D70008327C4FB13D7C7008D47631AF700854547
:100D8000B70716001385070CEF50B07415AA832718
:100D9000C4FB13D7C700C547631AF7008545B707DB
:100DA000180013850710EF50D07219AA8327C4FBCF
:100DB00013D7C700C947631AF7008545B70718005E
:100DC00013850720EF50F070E5A88327C4FB13D7E5
:100DD000C700CD47631AF7008545B707180013858C
:100DE0000730EF50106FE9A88327C4FB13D7C70063
:100DF00093072002631AF7008545B7171A00138579
:100E00000780EF50106D6DA88327C4FB13D7C70070
:100E100093073002631AF7008545B7171A00138548
:100E200007C0EF50106B69A88327C4FB13D7C70016
:100E3000930710036317F70085450565EF50706948
:100E400041A08327C4FB13D7C70093071007631A79
:100E5000F7008545B707008013854700EF5070679E
:100E600085A08327C4FB13D7C70093073008631AF4
:100E7000F7008545B707138013850701EF507065AC
:100E800081A08327C4FB13D7C70093071009631AF7
:100E9000F7008545B707158013850702EF5070638B
:100EA00005A08327C4FB13D7C70093073009631934
:100EB000F7008545B707158013850704EF5070616B
:100EC00003A78182832784FBB357F702C1832315CD
:100ED000F4FE03A781828357A4FE8507BE8683277D
:100EE00084FBB387F602B357F7022314F4FE0357CB
:100EF00084FE832744FB3307F702896793870771D2
:100F0000B357F7022313F4FE835784FEFD17C2077D
:100F1000C1832310F4FE8357A4FE231EF4FC231187
:100F200004FE231F04FC230204FE9307C4FDBE85B8
:100F30000325C4FEEF602055930700072316F4FC39
:100F400085472317F4FC231804FC835764FE2319F8
:100F5000F4FC8947231AF4FC8947231BF4FC231C67
:100F600004FC231D04FC8327C4FBA1838D8B9DE31C
:100F70009307C4FCBE850325C4FEEF60A068A145AD
:100F80000325C4FEEF60906791450325C4FEEF6022
:100F9000B07B45A08327C4FBA18313F737008547A7
:100FA0006315F7029307C4FCBE850325C4FEEF60FA
:100FB000207FA1450325C4FEEF6010699305004022
:100FC0000325C4FEEF60107DADA08327C4FBA18381
:100FD00013F7370089476314F7029307C4FCBE85F3
:100FE0000325C4FEEF60F019A1450325C4FEEF60A0
:100FF000506B91450325C4FEEF60307F1DA8832709
:10100000C4FBA18313F737008D476314F7029307DE
:10101000C4FCBE850325C4FEEF607034A1450325E2
:10102000C4FEEF60D06C930500400325C4FEEF7052
:10103000800085450325C4FEEF60504F854503259C
:10104000C4FEEF6030490100B640264461618280F1
:10105000011122CE00102326A4FEAE87A305F4FEC4
:10106000C1670327C4FE0A0793874780BA979C434A
:101070003E878347B4FEC207C1832316F7000100F1
:10108000C1670327C4FE0A0793874780BA979C432A
:1010900083D78700C207C18393F70708F5F30100E0
:1010A000724405618280011122CE00102326A4FE25
:1010B000AE872315F4FE8357A4FEA183C207C18324
:1010C00093F6F70FC1670327C4FE0A07938747808B
:1010D000BA979C433E8793970601C1832316F70076
:1010E0000100C1670327C4FE0A0793874780BA97A8
:1010F0009C4383D78700C207C183898BFDD3835765
:10110000A4FE93F6F70FC1670327C4FE0A0793876F
:101110004780BA979C433E8793970601C183231665
:10112000F7000100C1670327C4FE0A0793874780C1
:10113000BA979C4383D78700C207C18393F70708F8
:10114000F5F301007244056182805D7186C6A2C418
:1011500080082326A4FC2324B4FC2322C4FC2320DF
:10116000D4FC232EE4FA232CF4FA232A04FBC167CF
:101170000327C4FC0A0793874780BA979C433E85A0
:10118000EF60E01385450545EF60E001032704FCAF
:1011900093073012631DF7000327C4FB9307501217
:1011A0006317F70085450545EF50B03225A00327AA
:1011B00004FC89679387A714631EF7000327C4FB09
:1011C00089679387C7146317F70085453715200093
:1011D000EF5030308327C4FC91E785450565EF501B
:1011E000907C25A00327C4FC85476317F70085453D
:1011F0001165EF50B07F11A80327C4FC894763161F
:10120000F70085452165EF50707E832704FC93F736
:10121000F70F93068031054685453E85EFF04FD4A4
:101220008327C4FB93F7F70F930680310546854566
:101230003E85EFF0EFD2032784FBC167F917630DFA
:10124000F700832784FB93F7F70F93068034054656
:1012500081453E85EFF0CFD0032744FB9307F00F85
:10126000630DF700832744FB93F7F70F93060031D4
:10127000014685453E85EFF0AFCE232E04FC2320AA
:1012800004FE232204FE232404FE231604FE231E50
:1012900004FC93074010231FF4FC231004FE0327D3
:1012A00084FC85476305F702832784FC81CF0327ED
:1012B00084FC89476303F702032784FC8D4763049A
:1012C000F7020DA8231104FE231204FE25A023110A
:1012D00004FE85472312F4FE31A889472311F4FE4A
:1012E000231204FE01A889472311F4FE8547231227
:1012F000F4FE0100231704FE03A78182832744FC28
:10130000B357F7022317F4FE03A78182832744FC17
:10131000B377F70291E78357E4FEFD172317F4FE36
:101320000357E4FE9307F00763F7E7009307800392
:101330002317F4FE49A80357E4FE9307F00363F76D
:10134000E700930700032317F4FEB5A80357E4FE54
:10135000FD4763F7E700930780022317F4FEA5A07B
:101360000357E4FEBD4763F7E70093070002231726
:10137000F4FE91A80357E4FE9D4763F6E700E147BA
:101380002317F4FE89A00357E4FE8D4763F6E700B8
:10139000C1472317F4FE05A80357E4FE854763F60B
:1013A000E700A1472317F4FE39A88357E4FE81C75D
:1013B000231704FE09A813068022BD679385C7483A
:1013C0000145EF20E02F8357E4FE2314F4FE93073A
:1013D00000202313F4FE231504FE231604FEC16728
:1013E0000327C4FC0A0793874780BA979C433E872C
:1013F0009307C4FDBE853A85EF50D073C1670327BC
:10140000C4FC0A0793874780BA979C4385453E856D
:10141000EF60C0010100B6402644616182807971AD
:1014200022D60018232EA4FC232CB4FC8547A30746
:10143000F4FE0327C4FD0A079387418BBA979C43A8
:1014400099EB0327C4FD0A079387418BBA970327BB
:1014500084FD98C315A00327C4FD0A079387418B19
:10146000BA979C43032784FD6316F7008547A307BB
:10147000F4FE19A0A30704FE8347F4FE3E85325410
:1014800045618280011106CE22CC00102326A4FEE5
:101490008327C4FE81EB8545856713850780EF5060
:1014A00090506DA80327C4FE85476317F700854554
:1014B0000545EF50B0535DA00327C4FE894763176D
:1014C000F70085450945EF50705249A80327C4FE2F
:1014D0008D476317F70085451145EF503051BDA882
:1014E0000327C4FE91476317F70085452145EF5058
:1014F000F04FADA00327C4FE95476317F70085455D
:101500004145EF50B04E99A80327C4FE9947631890
:10151000F700854513050002EF50504D81A00327C9
:10152000C4FE9D476317F70085450965EF50B04736
:1015300035A00327C4FEA1476318F700854537058A
:101540000800EF50504619A80327C4FEA5476317AB
:10155000F700854537051000EF50F0440100F240D8
:10156000624405618280797122D60018232EA4FC82
:10157000B7370140938707C02326F4FE231504FEE6
:101580000327C4FDA54763ECE7088327C4FD139731
:101590002700C16793870781BA979C438287B73733
:1015A0000140938707C02326F4FE95A8B7070040A3
:1015B0002326F4FEADA0B7070040938707402326FB
:1015C000F4FEB1A8B7170040938707802326F4FEE6
:1015D000B9A0B7170040938707C02326F4FE81A067
:1015E000B71700402326F4FE1DA8B71700409387C5
:1015F00007402326F4FE25A0B73701409387074014
:101600002326F4FE29A8B7570140938707C0232655
:10161000F4FE31A0B75701402326F4FE0100032752
:10162000C4FD0A079387C18DBA9798438947631F02
:10163000F7008327C4FE83D747021397070141832E
:101640008D47B357F7022315F4FE39A08327C4FE54
:1016500083D747022315F4FE8357A4FE3E853254F8
:1016600045618280797122D60018232EA4FCB737F9
:101670000140938707C02326F4FE0327C4FDA54736
:1016800063ECE7088327C4FD13972700C16793879E
:101690008783BA979C438287B7370140938707C0F7
:1016A0002326F4FE95A8B70700402326F4FEADA03C
:1016B000B7070040938707402326F4FEB1A8B71769
:1016C0000040938707802326F4FEB9A0B717004097
:1016D000938707C02326F4FE81A0B7170040232676
:1016E000F4FE1DA8B7170040938707402326F4FE99
:1016F00025A0B7370140938707402326F4FE29A889
:10170000B7570140938707C02326F4FE31A0B7578F
:1017100001402326F4FE01008327C4FE2392070222
:101720000100325445618280011122CE001023262F
:10173000A4FEAE87A305F4FE0100C1670327C4FE23
:101740000A0793870786BA979C4383D70700C20787
:10175000C18393F70708F5D3C1670327C4FE0A07BF
:1017600093870786BA979C433E878347B4FEC20798
:10177000C1832312F70001007244056182800111C8
:1017800006CE22CC00102326A4FE2324B4FE8327F9
:1017900084FEB337F00093F7F70F3E87130600057A
:1017A000BD679385874B3A85EF10907139A88327E1
:1017B00084FE138717002324E4FE8387070093F732
:1017C000F70FBE850325C4FE8537832784FE8387F4
:1017D0000700F1FF0100F2406244056182800111BF
:1017E00006CE22CC00102326A4FEAE87A305F4FE6D
:1017F000C1670327C4FE0A0793870786BA979C43ED
:101800003E878347B4FE3E86930550523A85EF608B
:10181000103B138741848327C4FEBA9783C7070010
:1018200081453E85EF30A05B8347B4FE81CF1387AF
:1018300041848327C4FEBA9783C707003E85EF30F3
:10184000405619A8138741848327C4FEBA9783C7DB
:1018500007003E85EF30C0560100F240624405614A
:101860008280011122CE00102326A4FE2324B4FE80
:10187000C1670327C4FE0A0793870786BA979C436C
:1018800083D70700C207C18393F707028DC7C167DB
:101890000327C4FE0A0793870786BA979C4383D71A
:1018A0004700C207C18313F7F70F832784FE238005
:1018B000E700854711A081473E857244056182801B
:1018C000797106D622D40018232EA4FC232CB4FC54
:1018D000232AC4FC2328D4FC032744FD832704FDCA
:1018E0003D8F8327C4FDB207F98F93B7170093F795
:1018F000F70F3E871306A00ABD679385874B3A858D
:10190000EF10105C832744FD13D78700832704FD65
:10191000A183B307F74093B7170093F7F70F3E87FC
:101920001306B00ABD679385874B3A85EF1050596F
:10193000832744FD93F7F70FE146014685453E8531
:10194000EFE01FE2832704FD93F7F70F930680046F
:10195000014681453E85EFE0BFE085450545EF50F6
:101960009004032744FDC167FD17F98F0D67130726
:1019700007386387E7200D67130707386369F704A3
:101980000567130757166381E71605671307571690
:10199000636FF7001307F022638AE70C13076030C8
:1019A0006381E710130760126388E70865A609677B
:1019B00013078736638BE7160D67130707126387D4
:1019C000E71809671307A7146380E71461A6156772
:1019D0001307A738638EE72615671307A7386362D6
:1019E000F7021167130787386380E720156713072D
:1019F00087126385E722116713074712638CE71A82
:101A000091AE19671307C7386388E72A1967130768
:101A1000C7386368F7001967130767106384E72600
:101A200015AE1D671307E7106382E72C1D671307C8
:101A3000E7386387E72E39AEB7070140D44FB707C1
:101A40000140370700FC7D17758FD8CFB7070140DD
:101A5000D843B70701406D9BD8C3B7070140D843AF
:101A6000B707014013674700D8C3EDA4B70701408B
:101A7000D44FB7070140370700FC7D17758FD8CFCB
:101A8000B7070140D44FB707014037070004558F0F
:101A9000D8CFB7070140D843B70701406D9BD8C3E3
:101AA00055ACB7070140D44FB7070140370700FCDA
:101AB0007D17758FD8CFB7070140D44FB7070140C6
:101AC00037070004558FD8CFB7070140D843B70771
:101AD00001406D9BD8C3B7070140D843B707014009
:101AE00013674700D8C3BDA4B7070140D843B70761
:101AF00001405D9BD8C3B7070140D843B7070140F9
:101B000013678700D8C3B9A4B7070140D843B70704
:101B100001401377F7FCD8C3B7070140D843B70794
:101B2000014013670701D8C335A4B7070140D84364
:101B3000B70701401377F7FCD8C3B7070140D84374
:101B4000B707014013670703D8C329A4B7070140AB
:101B5000D44FB70701403707FDFF7D17758FD8CFEA
:101B6000B7070140D44F832744FDA1831397070192
:101B7000B70703007D8FB7070140558FD8CFD9AA8B
:101B8000B7070140D44FB70701403707FDFF7D1766
:101B9000758FD8CFB7070140D44F832744FDA18369
:101BA00013970701B70703007D8FB7070140558FD3
:101BB000D8CF4DA2B7070140D44FB7070140370730
:101BC000F4FF7D17758FD8CFB7070140D44F832717
:101BD00044FDA18313972701B7070C007D8FB7073A
:101BE0000140558FD8CFBDA2B7070140D44FB707EA
:101BF00001403707F4FF7D17758FD8CFB707014035
:101C0000D44F832744FDA18313972701B7070C0006
:101C10007D8FB7070140558FD8CF2DAAB707014058
:101C2000D44FB70701403707D0FF7D17758FD8CF46
:101C3000B7070140D44F832744FDA1831397470181
:101C4000B70730007D8FB7070140558FD8CF19A255
:101C5000B7070140D44FB70701403707D0FF7D17C2
:101C6000758FD8CFB7070140D44F832744FDA18398
:101C700013974701B70730007D8FB7070140558F95
:101C8000D8CFC9A8B7070140D44FB70701403707DD
:101C900040FF7D17758FD8CFB7070140D44F8327FA
:101CA00044FDA18313976701B707C0007D8FB70775
:101CB0000140558FD8CF79A8B7070140D44FB70757
:101CC0000140370740FF7D17758FD8CFB707014018
:101CD000D44F832744FDA18313976701B707C00042
:101CE0007D8FB7070140558FD8CFADA0B707014012
:101CF000D44FB7070140370700FD7D17758FD8CF48
:101D0000B7070140D44F832744FDA1831397870170
:101D1000B70700037D8FB7070140558FD8CF1DA8A7
:101D2000B7070140D44FB7070140370700FD7D17C3
:101D3000758FD8CFB7070140D44F832744FDA183C7
:101D400013978701B70700037D8FB7070140558FB1
:101D5000D8CF01008327C4FD91E785451165EF5079
:101D6000804469A80327C4FD85476318F7008545AB
:101D700037050200EF50804751A00327C4FD894773
:101D80006318F700854537050400EF502046BDA0D5
:101D90000327C4FD8D476318F70085453705080004
:101DA000EF50C044A1A80327C4FD91476318F70072
:101DB000854537051000EF50604389A00327C4FD17
:101DC00095476318F700854513050004EF5000425E
:101DD00035A00327C4FD99476318F700854513050F
:101DE0000008EF50A04019A80327C4FD9D476317C2
:101DF000F700854513050010EF50403F232004FEF7
:101E0000232204FE232404FE232604FE832784FDCC
:101E10002320F4FE231204FE231304FE231404FEE5
:101E2000231604FEB1472315F4FEC1670327C4FD42
:101E30000A0793870786BA979C433E87930704FE59
:101E4000BE853A85EF60602EC1670327C4FD0A078F
:101E500093870786BA979C4385453E85EF6020505F
:101E60000100B250225445618280411106C622C44D
:101E7000000883A701860547638BE7006386070C8C
:101E80000947638DE7000D47638FE702D9A083A759
:101E9000C1851387170023AEE18465A883A7C18598
:101EA0001387170023AEE18403A7C185A54763FF0D
:101EB000E708B7070020938707049C4B1167D8CB2E
:101EC00023AE018461A003A7418685476312F7080A
:101ED0001305F008EFE00FFEAA87B9CF1945EFF020
:101EE0008FE8AA873E8783A7C1851D8F9307600966
:101EF00063F0E7061945EFF0EFF683A7C185D3F746
:101F000017D05385F720EF90305FBD6703A6874E4B
:101F100083A6C74EEF80B023AA872E883E85C28550
:101F2000EF905046AA871397070141832394E180DD
:101F3000094723A2E18629A81945EFF0CFE2AA8735
:101F40003E8723AEE18429A0010021A0010011A059
:101F500001000100B240224441018280411106C6C5
:101F600022C4000883A701860947637CF7000D4758
:101F7000639AE7001945EFF0EFEE054723A2E186EB
:101F800011A001000100B2402244410182800111F0
:101F900006CE22CC0010232204FE83C791866381E3
:101FA000071409A8930734FE0546BE8513854190A2
:101FB000EF10B068930734FEBE851D45EFF07F8AB1
:101FC000AA87EDF3034734FEA947631BF71099472F
:101FD0002322F4FE130744FE930784FE85463A86C7
:101FE000BE8513854190EF20E043930784FE13875D
:101FF00037000D46BD679385074F3A85EFA07035D2
:10200000AA879DEB03A7018789476304F70C05475F
:1020100023A8E18613854190EF10905AAA872322C6
:10202000F4FE930744FE81463E869385019A13850C
:102030004190EF20203F71A8930784FE138737005B
:102040000D46BD679385474F3A85EFA09030AA872C
:102050009DEB03A7C1868947630DF706054723A6B5
:10206000E18613854190EF10B055AA872322F4FE34
:10207000930744FE81463E869385019213854190E5
:10208000EF20403AB9A0930784FE138737000D462E
:10209000BD679385874F3A85EFA0B02BAA8795EB54
:1020A00003A7418789476306F702054723AAE1860C
:1020B00013854190EF10D050AA872322F4FE930796
:1020C00044FE81463E86938501A213854190EF2010
:1020D000603513854190EF10102A05472384E1866F
:1020E0000100F240624405618280011106CE22CCDB
:1020F0000010AA87A307F4FEB70700209387070400
:10210000DC4713070008D8CB8347F4FEBE8505459E
:10211000EFE01FF4B707002093870704DC4713079D
:10212000000898CB0100F2406244056182800111F1
:1021300006CE22CC0010AA8736872317F4FEAE877E
:102140002316F4FEB2872315F4FEBA872314F4FE97
:1021500083C74181C207C1830357E4FEB337F70049
:1021600093F7F70F3E871306A008BD679385075EB8
:102170003A85EF10E05483C75181C207C1830357EA
:10218000C4FEB337F70093F7F70F3E871306B00886
:10219000BD679385075E3A85EF10805283C7418102
:1021A000C207C1830357A4FEB337F70093F7F70FB5
:1021B0003E871306C008BD679385075E3A85EF101A
:1021C000205083C75181C207C183035784FEB337B0
:1021D000F70093F7F70F3E871306D008BD67938586
:1021E000075E3A85EF10C04D83A781870547637668
:1021F000F7000D476369F71061A01305A002F535DC
:1022000081450545EFE0DFE48357E4FE93F7F70FE0
:10221000890793F7F70FBE850545EFE07FE381451A
:102220000545EFE0FFE28357A4FE93F7F70F890718
:1022300093F7F70FBE850545EFE09FE11305B00268
:102240006D3581450545EFE0BFE08357C4FE93F748
:10225000F70F850793F7F70FBE850545EFE05FDFC2
:1022600081450545EFE0DFDE835784FE93F7F70FE6
:10227000850793F7F70FBE850545EFE07FDD61A089
:102280001305A0029D3581450545EFE07FDC8357AE
:10229000E4FE93F7F70F850793F7F70FBE85054523
:1022A000EFE01FDB81450545EFE09FDA8357A4FE91
:1022B00093F7F70F850793F7F70FBE850545EFE016
:1022C0003FD91305B002153581450545EFE05FD8CC
:1022D0008357C4FE93F7F70F890793F7F70FBE856F
:1022E0000545EFE0FFD681450545EFE07FD68357F2
:1022F00084FE93F7F70F890793F7F70FBE8505451F
:10230000EFE01FD501001305C002C5330100F24004
:10231000624405618280797106D622D40018930741
:10232000C4FD3E85EF1040408547231EF4FC83C763
:102330004181C207C183231FF4FC83C75181C207B7
:10234000C1832310F4FE83A701810547638AE70058
:1023500099EF99472301F4FEA147A301F4FE09A8D0
:10236000A1472301F4FEC147A301F4FE11A001001F
:10237000B72700009387A7752324F4FEB727000032
:102380009387C7392326F4FE9307C4FD3E85EF10DB
:10239000403F0100B250225445618280011106CEB7
:1023A00022CC001083C741813E8783C75181B30788
:1023B000F7022326F4FEB707002093870704DC47C3
:1023C0004147D8CB83C74181C207C183FD1713970B
:1023D0000701418383C75181C207C183FD17C2072B
:1023E000C183BE863A8681450145913321A883D7B2
:1023F000C180BE850545EFE01FCB8327C4FEFD17D6
:102400002326F4FE8327C4FEFDF3B707002093873D
:102410000704DC47414798CB0100F2406244056164
:102420008280011122CE00102326A4FE0327C4FEC1
:1024300023ACE18683A7818705476376F7000D47C4
:102440006365F70211A8130700F8238AE1801307D8
:1024500000FAA38AE18011A8130700FA238AE18019
:10246000130700F8A38AE1800100010072440561AE
:102470008280011122CE00102326A4FE0327C4FE71
:1024800023A8E1800100724405618280011122CEFF
:102490000010AA872E872317F4FEBA872316F4FEAE
:1024A0000357E4FE2395E1800357C4FE2396E180A1
:1024B0000100724405618280797106D622D4001829
:1024C000AA87AE863287231FF4FCB687231EF4FC4E
:1024D000BA87A30DF4FC83C74181C207C1830357A8
:1024E000E4FDB337F70093F7F70F3E871306901913
:1024F000BD679385075E3A85EF10801C83C75181C5
:10250000C207C1830357C4FDB337F70093F7F70F32
:102510003E871306A019BD679385075E3A85EF10C5
:10252000201AA30704FE230704FEB70700209387A1
:102530000704DC474147D8CB83A701810547638A5D
:10254000E70C639F071EA30704FE75A88347F4FEEC
:102550001397070141838357E4FDBA971395070149
:1025600041818347F4FE1397070141838357E4FDBC
:10257000BA971397070141838357C4FDA107939628
:102580000701C1828357C4FD3A86BE85EFF03FBA8A
:102590008307B4FD138707FE8346F4FE4166BA87BE
:1025A0008607BA978607130706E7BA97B69783C7D1
:1025B0000700A306F4FE230704FE25A88347D4FEE4
:1025C000858B81CB83D7A180BE850545EFE0BFAD6C
:1025D00039A083D7C180BE850545EFE0DFAC8347D6
:1025E000D4FE8583A306F4FE8347E4FE8507230714
:1025F000F4FE0347E4FE9D47E3F2E7FC8347F4FE65
:102600008507A307F4FE0347F4FE9547E3F0E7F4DC
:102610000DAAA30704FE39AA8347F4FE1397070106
:1026200041838357E4FDBA9713950701418183479E
:10263000F4FE1397070141838357E4FDBA9713977C
:10264000070141838357C4FDBD0793960701C182EB
:102650008357C4FD3A86BE85EFF07FAD8307B4FD96
:10266000938607FE8347F4FE4167920613070788A7
:102670003697BA9783C707002306F4FE8307B4FD95
:10268000938607FE8347F4FEA1074167920613076E
:1026900007883697BA9783C70700A305F4FE230778
:1026A00004FE25A88347C4FE858B81CB83D7A180F8
:1026B000BE850545EFE03F9F39A083D7C180BE8529
:1026C0000545EFE05F9E8347C4FE85832306F4FE45
:1026D0008347E4FE85072307F4FE0347E4FE9D4796
:1026E000E3F2E7FC230704FE25A88347B4FE858BAD
:1026F00081CB83D7A180BE850545EFE0DF9A39A065
:1027000083D7C180BE850545EFE0FF998347B4FEBE
:102710008583A305F4FE8347E4FE85072307F4FEC3
:102720000347E4FE9D47E3F2E7FC8347F4FE850799
:10273000A307F4FE0347F4FE9D47E3FFE7EC11A077
:102740000100B707002093870704DC47414798CB77
:102750000100B250225445618280797106D622D49C
:102760000018AA872E87232CC4FC231FF4FCBA87E9
:10277000231EF4FC83C74181C207C1830357E4FDD4
:10278000B337F70093F7F70F3E871306D01EBD67E8
:102790009385075E3A85EF00B07283C75181C20707
:1027A000C1830357C4FDB337F70093F7F70F3E8794
:1027B0001306E01EBD679385075E3A85EF005070F3
:1027C000231704FE61A083A7018105476380E70406
:1027D000A5EB0357E4FEBA878607BA9786071397D7
:1027E000070141838357E4FDBA9793960701C1829D
:1027F0008357E4FE032784FDBA97038707008357B6
:10280000C4FD3A86BE853685453925A88357E4FE42
:102810008E071397070141838357E4FDBA97939678
:102820000701C1828357E4FE032784FDBA9703871B
:1028300007008357C4FD3A86BE853685B53911A099
:1028400001008357E4FE85072317F4FE8357E4FE57
:10285000032784FDBA9783870700B5F70100B250BC
:10286000225445618280397106DE22DC8000AA870D
:102870002324C4FC36872317F4FCAE872316F4FC0C
:10288000BA87A303F4FC83C74181C207C1830357FE
:10289000E4FCB337F70093F7F70F3E8713062023C6
:1028A000BD679385075E3A85EF00906183C75181CC
:1028B000C207C1830357C4FCB337F70093F7F70F80
:1028C0003E8713063023BD679385075E3A85EF0088
:1028D000305F834774FCB337F00093F7F70F3E8700
:1028E00013064023BD679385075E3A85EF00505D70
:1028F000834774FC93B7B70093F7F70F3E8713062F
:102900005023BD679385075E3A85EF00705B832790
:1029100084FC2326F4FE85472324F4FE9307C4FD9C
:10292000314681453E85EFD0BF8D034774FC930748
:10293000C4FD3A86930500023E85EFD07F8C0347A5
:1029400074FCA54763EBE70231A8032784FEBA872E
:102950008A07BA9786072324F4FE834774FCFD1781
:10296000A303F4FC834774FCEDF3832784FE032761
:10297000C4FEB377F7022326F4FE9307C4FD832534
:10298000C4FE3E85EF20C0289306C4FD0357C4FC57
:102990008357E4FC3686BA853E85C1330100F25088
:1029A000625421618280411106C622C400081308C6
:1029B000F00FC167F91705671307F702856693865D
:1029C000D60237A64A041306062081450545EFE0E6
:1029D000CFF7C1460146854513057006EFD05FD895
:1029E000C1460146854513057002EFD07FD7C14629
:1029F0000546854513054006EFD09FD6C1460546DE
:102A0000854513050006EFD0BFD583A781873E8596
:102A1000EFF03FA103D7A18083D7C180BE853A855F
:102A2000EFF0DFA6B707002093870704DC43130706
:102A30000008D8CB2945EFD01FACB70700209387FB
:102A40000704DC431307000898CB13058007EFD079
:102A50009FAAB707002093870704DC474147D8CBDC
:102A60004545EFF08FE813058007EFD0DFA8130589
:102A7000100BEFF08FE785450545EFE06FDD93051F
:102A8000C0020545EFE0CFDC9305D0020545EFE03D
:102A90002FDC1305200BEFF04FE585450545EFE0F2
:102AA0002FDB9305C0020545EFE08FDA9305D002D6
:102AB0000545EFE0EFD91305300BEFF00FE3854547
:102AC0000545EFE0EFD89305C0020545EFE04FD88C
:102AD0009305D0020545EFE0AFD785450545EFE00A
:102AE0002FD79305C0020545EFE08FD69305D0029E
:102AF0000545EFE0EFD51305400BEFF00FDF9D45E7
:102B00000545EFE0EFD41305000CEFF00FDE930561
:102B1000200A0545EFE0CFD389450545EFE04FD3C7
:102B2000930540080545EFE0AFD21305100CEFF018
:102B3000CFDB9305500C0545EFE08FD11305200C3A
:102B4000EFF0AFDAA9450545EFE08FD081450545A7
:102B5000EFE00FD01305300CEFF02FD99305A0084C
:102B60000545EFE0EFCE9305A0020545EFE04FCE1F
:102B70001305400CEFF06FD79305A0080545EFE073
:102B80002FCD9305E00E0545EFE08FCC1305500CDB
:102B9000EFF0AFD5B9450545EFE08FCB13056003E6
:102BA000EFF0AFD483A7818705476380E70281CB2D
:102BB00009476381E7020D476384E70205A893058F
:102BC000000C0545EFE0CFC815A081450545EFE0B5
:102BD0002FC829A89305000A0545EFE06FC739A063
:102BE000930500060545EFE0AFC601001305000E92
:102BF000EFF0AFCFBD450545EFE08FC5E945054591
:102C0000EFE00FC5BD450545EFE08FC4E145054543
:102C1000EFE00FC49305F0020545EFE06FC39305A5
:102C200080020545EFE0CFC2930500020545EFE0C5
:102C30002FC2930520020545EFE08FC1FD450545F4
:102C4000EFE00FC1ED450545EFE08FC09305300281
:102C50000545EFE0EFBF930570030545EFE04FBF7B
:102C600081450545EFE0CFBE9D450545EFE04FBEF0
:102C700089450545EFE0CFBDC1450545EFE04FBDB6
:102C80001305100EEFF06FC6BD450545EFE04FBCD4
:102C9000ED450545EFE0CFBBBD450545EFE04FBB3A
:102CA000DD450545EFE0CFBA930530030545EFE07C
:102CB0002FBA9305C0020545EFE08FB99305900246
:102CC0000545EFE0EFB89305E0020545EFE04FB8AA
:102CD000930500030545EFE0AFB7930500030545F5
:102CE000EFE00FB7930590030545EFE06FB693054E
:102CF000F0030545EFE0CFB581450545EFE04FB561
:102D00009D450545EFE0CFB48D450545EFE04FB457
:102D1000C1450545EFE0CFB31305A002EFF0EFBCCE
:102D200081450545EFE0CFB289450545EFE04FB25B
:102D300081450545EFE0CFB1930520080545EFE05B
:102D40002FB11305B002EFF04FBA81450545EFE012
:102D50002FB08D450545EFE0AFAF81450545EFE06C
:102D60002FAF930530080545EFE08FAE1305000F38
:102D7000EFF0AFB785450545EFE08FAD1305600F68
:102D8000EFF0AFB681450545EFE08FAC1305A0032A
:102D9000EFF0AFB595450545EFE08FAB1305900219
:102DA000EFF0AFB4B707002093870704DC47414733
:102DB00098CBEFF0AFDEEFF00FD60100B240224427
:102DC00041018280411122C60008010032444101C4
:102DD0008280411122C60008B71702409843B717F6
:102DE00002401367170098C3B7170240D443B717C0
:102DF00002403707FFF8758FD8C3B71702409443D6
:102E0000B71702403707F7FE7D17758F98C3B717BE
:102E100002409443B71702403707FCFF7D17758FB8
:102E200098C3B7170240D443B7170240370781FF52
:102E30007D17758FD8C3B717024037079F0098C713
:102E40000100324441018280797106D622D40018F3
:102E5000232EA4FCBD3F232604FE232404FEB71723
:102E600002409443B71702404167558F98C3B71784
:102E700002409843B7070200F98F2324F4FE83270A
:102E8000C4FE85072326F4FE832784FE91E70327EB
:102E9000C4FE8567E31DF7FCB71702409843B707E8
:102EA0000200F98F89C785472324F4FE19A0232443
:102EB00004FE032784FE85476312F7163717024086
:102EC000B71702405843D8C337170240B71702401C
:102ED0005843D8C337170240B71702405843D8C3E6
:102EE000B7170240D443B71702403707C1FF7D1719
:102EF000758FD8C30327C4FDB7479508938707404C
:102F0000631BF700B7170240D443B717024041676D
:102F1000558FD8C355A80327C4FDB7172707938734
:102F200007E0631CF700B7170240D443B71702400D
:102F300037073900558FD8C341A80327C4FDB7E729
:102F4000B80593870780631CF700B7170240D44386
:102F5000B717024037072900558FD8C3B5A00327FC
:102F6000C4FDB7A74A0493870720631CF700B7176F
:102F70000240D443B717024037071D00558FD8C30E
:102F8000A1A00327C4FDB777DC02938707C0631CA9
:102F9000F700B7170240D443B717024037071100B4
:102FA000558FD8C315A00327C4FDB7376E0193878B
:102FB0000760631BF700B7170240D443B7170240FE
:102FC00037070500558FD8C3B71702409443B7178A
:102FD000024037070001558F98C30100B717024020
:102FE0009843B7070002F98FF5DBB7170240D843C3
:102FF000B7170240719BD8C3B7170240D843B71721
:10300000024013672700D8C30100B7170240DC4312
:1030100013F7C700A147E31AF7FE11A001A0B250B1
:10302000225445618280011106CE22CC0010232655
:10303000A4FE0327C4FE23A4E182EFF09FD9032559
:10304000C4FEEFF07FE0EF1010620100F240624436
:1030500005618280411122C600080100010032444E
:1030600041018280011106CE22CC0010232604FEED
:10307000232404FE232604FE25A0232404FE39A0D5
:10308000D13F832784FE85072324F4FE032784FE93
:10309000C167E367F7FE8327C4FE85072326F4FE96
:1030A0000327C4FE9307F00FE3F9E7FC0100F240A9
:1030B000624405618280411122C600080100324449
:1030C00041018280011106CE22CC00102326A4FEED
:1030D0008325C4FE0945EFE08FEA0100F240624417
:1030E00005618280130101D923261126232481261C
:1030F00023229126801C232EA4D8232CB4D8232A43
:10310000C4D82328D4D8231504FE231404FE231383
:1031100004FE231204FE231104FE032584D9EF903C
:103120003022AA87C207C1872313F4FE83D7C1AF19
:1031300089C79387C1AF9C4B829783C7D18793F789
:10314000F70F638D074A83D7C1AF6387074493871F
:10315000C1AFD447835724FE1397070141879317C4
:103160000701C1838507C207C183C207C187231135
:10317000F4FE93170701C1830326C4D9BE85014518
:103180008296832784D92326F4FE032584D9EF90E1
:10319000301BAA87C207C1872313F4FE9387C1AFF0
:1031A00083D727003E879387C1AF83C76700B347A4
:1031B000F702C207C1872312F4FE01008327C4FE71
:1031C000138717002326E4FE83870700E5FB2314FB
:1031D00004FEA1A88327C4FEFD172326F4FE83273F
:1031E000C4FE038707009307F002630AF7008327F2
:1031F000C4FE038707009307C005631BF7008357CE
:1032000084FEC207C1838507C207C1832314F4FE6D
:10321000835764FEC207C187C207C183FD17C20777
:10322000C183C207C1872313F4FE835784FE13971B
:1032300007014183854763E8E700835764FEC207BF
:10324000C187E3D907F8835764FEC207C18763C209
:1032500007028327C4FE85072326F4FE130704EE26
:103260000326C4FEBD67938507623A85EF90F00898
:103270001DA8835784FEC207C18381EF130704EEA4
:103280000326C4FEBD679385C7623A85EF90F006BA
:1032900019A8130704EE0326C4FEBD6793850762D1
:1032A0003A85EF909005231504FE21AA231404FE0D
:1032B00059A0930704EE3E85EF9090082A87835724
:1032C00084FEC207C183BE868357A4FEC207C183A2
:1032D0003E86835744FEC207C187B307F602B697FE
:1032E0006367F706835784FEC207C1833E8783570F
:1032F000A4FEC207C183BE86835744FEC207C187AE
:10330000B387F602BA97035784FE42074183BA8611
:10331000130704FFBA97038707EF930704FFB697D5
:103320002388E7EA835784FEC207C1838507C20763
:10333000C1832314F4FE835784FEC207C1833E87F2
:10334000835744FEC207C187E345F7F611A0010089
:10335000835784FEC207C183130704FFBA972388EB
:1033600007EA9387C1AF03A8C7009387C1AF83C79C
:103370007700139707014183835724FE9396070133
:10338000C18693970601C1838507C207C183C2071F
:10339000C1872311F4FE93970601C183B307F70297
:1033A000C207C183130704EA3A86BE850145029825
:1033B0008357A4FEC207C1838507C207C1832315B3
:1033C000F4FE8357A4FEC207C183BE84930704EEB4
:1033D0003E85EF90E0762A87835744FEC207C18777
:1033E000B357F7028507E3E3F4EC130704EE032673
:1033F00044D9BD679385C7633A85EF900070938782
:10340000C1AF03A8C7009387C1AF83C777001397E5
:1034100007014183835724FE93960701C186939742
:103420000601C1838507C207C183C207C187231173
:10343000F4FE93970601C183B307F702C207C18365
:10344000130704EE3A86BE8501450298832704D906
:103450006386071A231504FE21AA231404FE59A02B
:10346000032504D9EF90C06D2A87835784FEC207D5
:10347000C183BE868357A4FEC207C1833E8683579D
:1034800044FEC207C187B307F602B6976368F70622
:10349000835784FEC207C1833E878357A4FEC207B9
:1034A000C183BE86835744FEC207C187B387F60235
:1034B000BA973E87832704D9BA97035784FE4207F9
:1034C0004183BA8603870700930704FFB6972388D2
:1034D000E7EA835784FEC207C1838507C207C18319
:1034E0002314F4FE835784FEC207C1833E878357AB
:1034F00044FEC207C187E345F7F611A001008357D8
:1035000084FEC207C183130704FFBA97238807EA22
:103510009387C1AF03A8C7009387C1AF83C7770064
:10352000139707014183835724FE93960701C186B1
:1035300093970601C1838507C207C183C207C1876C
:103540002311F4FE93970601C183B307F702C20764
:10355000C183130704EA3A86BE8501450298835762
:10356000A4FEC207C1838507C207C1832315F4FEE9
:103570008357A4FEC207C183BE84032504D9EF90FC
:10358000205C2A87835744FEC207C187B357F702DE
:103590008507E3E4F4EC9DA0930704DA130600101A
:1035A00081453E85EFC0DFC59387C1AF9C470325AA
:1035B000C4D98297832704D999CF130504DA032746
:1035C00004D9832644D9032684D9BD6793858764AB
:1035D000EF90A05229A8130704DA832644D90326C2
:1035E00084D9BD67938547663A85EF9000519387EC
:1035F000C1AF9847930704DA3E8502970100832004
:10360000C1260324812683244126130101278280B9
:10361000411106C622C4000883C7D18793F7F70F6C
:1036200089CF9385C1870945EFE0AFA30546938510
:10363000C187138501AEEF0050000100B240224463
:1036400041018280797106D622D40018232EA4FC71
:10365000232CB4FC232AC4FC232604FEA9A00100C9
:10366000C167938707869C47930500043E85EF401A
:103670003064AA87F5D7C167938707869C47BE86C3
:10368000832784FD13871700232CE4FC838707001E
:10369000C207C183BE853685EF40B05E8327C4FE76
:1036A00085072326F4FE0327C4FE832744FDE34851
:1036B000F7FA832744FD3E85B2502254456182804B
:1036C000011106CE22CC0010AA872324B4FE2322A7
:1036D000C4FEA307F4FE8347F4FEB1E383C7C182AF
:1036E00093F7F70F8DCF83C7E18791C301A083C7FD
:1036F000E187850713F7F70F238FE186EF10E0735B
:10370000EFF07F9B8146032644FE832584FEBD6740
:103710001385C767EFF01F9DEFF0DF94E5B7010059
:10372000F240624405618280011122CE00102326FE
:10373000A4FE8327C4FE239007008327C4FE7D5781
:103740002391E7008327C4FE7D572392E700832758
:10375000C4FE7D572383E7008327C4FE7D57A383E0
:10376000E7008327C4FE23A407008327C4FE23A603
:1037700007008327C4FE23A80700010072440561E7
:103780008280011122CE00102326A4FE8327C4FECE
:1037900003D70700239EE1AE8327C4FE03D727008B
:1037A0009387C1AF2391E7008327C4FE03D7470067
:1037B0009387C1AF2392E7008327C4FE03C7670046
:1037C0009387C1AF2383E7008327C4FE03C7770035
:1037D0009387C1AFA383E7008327C4FE98479387ED
:1037E000C1AF98C78327C4FED8479387C1AFD8C756
:1037F0008327C4FE984B9387C1AF98CB0547A38E10
:10380000E1860100724405618280797106D622D476
:1038100000189307C4FD3E85EFF01FF1B737000095
:103820009387470C2322F4FE9307C4FD3E85EFF0F7
:103830005FF589679386B70289671386A702F167E8
:10384000938507200945EFE0AF87930600041386B0
:1038500001AA8145138501AEEF1000178545094582
:10386000EFD0FFF70100B250225445618280011170
:1038700022CE00102326A4FE2324B4FE8327C4FEF8
:1038800003C7970083C6A700A206558F83C6B7005B
:10389000C206558F83C7C700E207D98F3E878327AB
:1038A00084FE3E978327C4FE9375F70F83C6970067
:1038B000818A3686AE86D18EA384D7009356870040
:1038C00093F5F60F83C6A700818A3686AE86D18E21
:1038D0002385D7009356070193F5F60F83C6B700EB
:1038E000818A3686AE86D18EA385D700135687018E
:1038F00003C7C700018BBA863287558F2386E7003E
:1039000055A08327C4FE03C7970083C6A700A2065D
:10391000558F83C6B700C206558F83C7C700E2071D
:10392000D98F3E868327C4FE03C7570183C667012C
:10393000A206558F83C67701C206558F83C78701BC
:10394000E207D98F3307F6408327C4FE9375F70F3C
:1039500083C69700818A3686AE86D18EA384D7002F
:103960009356870093F5F60F83C6A700818A3686A3
:10397000AE86D18E2385D7009356070193F5F60FB7
:1039800083C6B700818A3686AE86D18EA385D700DE
:103990001356870103C7C700018BBA863287558F3C
:1039A0002386E7008327C4FE03C7570183C6670148
:1039B000A206558F83C67701C206558F83C787013C
:1039C000E207D98F3E868327C4FE03C7970083C6CC
:1039D000A700A206558F83C6B700C206558F83C7BE
:1039E000C700E207D98FE3FEC7F00100724405610A
:1039F0008280011122CE00102326A4FE2324B4FECF
:103A00008327C4FE03C7D70083C6E700A206558FED
:103A100083C6F700C206558F83C70701E207D98F17
:103A20003E87832784FE3E978327C4FE9375F70F56
:103A300083C6D700818A3686AE86D18EA386D7000C
:103A40009356870093F5F60F83C6E700818A368682
:103A5000AE86D18E2387D7009356070193F5F60FD4
:103A600083C6F700818A3686AE86D18EA387D700BB
:103A70001356870103C70701018BBA863287558F1A
:103A80002388E70055A08327C4FE03C7D70083C659
:103A9000E700A206558F83C6F700C206558F83C77D
:103AA0000701E207D98F3E868327C4FE03C757016B
:103AB00083C66701A206558F83C67701C206558F5C
:103AC00083C78701E207D98F3307F6408327C4FEF7
:103AD0009375F70F83C6D700818A3686AE86D18E5E
:103AE000A386D7009356870093F5F60F83C6E700A9
:103AF000818A3686AE86D18E2387D70093560701FA
:103B000093F5F60F83C6F700818A3686AE86D18E8E
:103B1000A387D7001356870103C70701018BBA8615
:103B20003287558F2388E7008327C4FE03C75701D8
:103B300083C66701A206558F83C67701C206558FDB
:103B400083C78701E207D98F3E868327C4FE03C758
:103B5000D70083C6E700A206558F83C6F700C206CA
:103B6000558F83C70701E207D98FE3FEC7F0010035
:103B7000724405618280797106D622D40018232E02
:103B8000A4FC8327C4FDB337F00093F7F70F3E87FB
:103B900013065005BD67938587693A85EFF05FB2DC
:103BA000232604FE8327C4FD83C7070093E717007D
:103BB00013F7F70F8327C4FD2380E7008327C4FD95
:103BC00003C79700018BA384E70003C7A700018BFD
:103BD0002385E70003C7B700018BA385E70003C770
:103BE000C700018B2386E7008327C4FD03C7D700E6
:103BF000018BA386E70003C7E700018B2387E7005B
:103C000003C7F700018BA387E70003C70701018BF8
:103C10002388E7008327C4FD03C7570183C66701D4
:103C2000A206558F83C67701C206558F83C78701C9
:103C3000E207D98F3E878327C4FD9375F70F83C6AC
:103C40001701818A3686AE86D18EA388D700935617
:103C5000870093F5F60F83C62701818A3686AE86E4
:103C6000D18E2389D7009356070193F5F60F83C6AB
:103C70003701818A3686AE86D18EA389D700135646
:103C8000870103C74701018BBA863287558F238A84
:103C9000E7008327C4FD03C7170083C62700A206D9
:103CA000558F83C63700C206558F83C74700E2078A
:103CB000D98F0547638DE70489C709476380E70A01
:103CC000EDA08327C4FD03C7570083C66700A20683
:103CD000558F83C67700C206558F83C78700E207DA
:103CE000D98F3E858327C4FD03C7570183C667016B
:103CF000A206558F83C67701C206558F83C78701F9
:103D0000E207D98F3E868145EFC08FCF79A8832700
:103D1000C4FD03C7570083C66700A206558F83C63C
:103D20007700C206558F83C78700E207D98F3E858B
:103D30008327C4FD03C7570183C66701A206558FB9
:103D400083C67701C206558F83C78701E207D98FE3
:103D500086073E868145EFC0AFCA81A88327C4FD90
:103D600003C7570083C66700A206558F83C6770036
:103D7000C206558F83C78700E207D98F3E85832708
:103D8000C4FD03C7570183C66701A206558F83C6CA
:103D90007701C206558F83C78701E207D98F8A074B
:103DA0003E868145EFC0CFC501008327C4FD238037
:103DB00007008327C4FE3E85B250225445618280AD
:103DC000011106CE22CC00102326A4FE8327C4FEB8
:103DD000B337F00093F7F70F3E8713066007BD6710
:103DE000938587693A85EFF0BF8D8327C4FE03C7AB
:103DF000570183C66701A206558F83C67701C206A5
:103E0000558F83C78701E207D98F3E868327C4FE7B
:103E100003C7170183C62701A206558F83C6370142
:103E2000C206558F83C74701E207D98FB307F64013
:103E30003E85F240624405618280797106D622D4C3
:103E40000018232EA4FC232CB4FC232AC4FC8327B3
:103E5000C4FDB337F00093F7F70F3E871306000B4E
:103E6000BD67938587693A85EFF09F85232604FE19
:103E7000232404FE832784FD89E78D472326F4FE4F
:103E800059AB8327C4FD83C70700958B93F7F70FC2
:103E900089C791472326F4FEBDAB8327C4FD83C7A2
:103EA000070093E7470013F7F70F8327C4FD23802C
:103EB000E7008327C4FD03C7170183C62701A206B5
:103EC000558F83C63701C206558F83C74701E20766
:103ED000D98F3E87832744FD6361F7528327C4FD52
:103EE00003C7570183C66701A206558F83C67701B2
:103EF000C206558F83C78701E207D98F3E86832785
:103F0000C4FD03C7970083C6A700A206558F83C6CA
:103F1000B700C206558F83C7C700E207D98FB30722
:103F2000F6402324F4FE032744FD832784FE63F335
:103F3000E72E8327C4FD03C7170083C62700A20608
:103F4000558F83C63700C206558F83C74700E207E7
:103F5000D98F05476385E70E89C709476386E71C44
:103F600011A98327C4FD03C7570083C66700A206B3
:103F7000558F83C67700C206558F83C78700E20737
:103F8000D98F3E868327C4FD03C7970083C6A70049
:103F9000A206558F83C6B700C206558F83C7C700D8
:103FA000E207D98FB297032684FE832584FD3E85E0
:103FB000EF70106B832584FE0325C4FDEFF03F8B6B
:103FC0008327C4FD03C7570083C66700A206558F29
:103FD00083C67700C206558F83C78700E207D98F53
:103FE0003E868327C4FD03C7970083C6A700A206A9
:103FF000558F83C6B700C206558F83C7C700E20737
:10400000D98FB306F600032784FD832784FEB3050A
:10401000F700032744FD832784FEB307F7403E865D
:104020003685EF70F063032744FD832784FEB307D2
:10403000F740BE850325C4FDEFF07F8325AE8327BF
:10404000C4FD03C7570083C66700A206558F83C609
:104050007700C206558F83C78700E207D98F3E8657
:104060008327C4FD03C7970083C6A700A206558F08
:1040700083C6B700C206558F83C7C700E207D98F32
:1040800086073307F600832784FE86073E8683254E
:1040900084FD3A85EF70D05C832584FE0325C4FD42
:1040A000EFF0EFFC8327C4FD03C7570083C667000A
:1040B000A206558F83C67700C206558F83C7870037
:1040C000E207D98F3E868327C4FD03C7970083C6C6
:1040D000A700A206558F83C6B700C206558F83C7B7
:1040E000C700E207D98F8607B306F600832784FE50
:1040F0008607032784FDB305F700032744FD8327C4
:1041000084FEB307F74086073E863685EF7050552C
:10411000032744FD832784FEB307F740BE850325AC
:10412000C4FDEFF0CFF4B9A48327C4FD03C7570043
:1041300083C66700A206558F83C67700C206558FD7
:1041400083C78700E207D98F3E868327C4FD03C754
:10415000970083C6A700A206558F83C6B700C20684
:10416000558F83C7C700E207D98F8A073307F60048
:10417000832784FE8A073E86832584FD3A85EF7077
:10418000304E832584FE0325C4FDEFF04FEE8327D8
:10419000C4FD03C7570083C66700A206558F83C6B8
:1041A0007700C206558F83C78700E207D98F3E8606
:1041B0008327C4FD03C7970083C6A700A206558FB7
:1041C00083C6B700C206558F83C7C700E207D98FE1
:1041D0008A07B306F600832784FE8A07032784FD37
:1041E000B305F700032744FD832784FEB307F74098
:1041F0008A073E863685EF70B046032744FD832745
:1042000084FEB307F740BE850325C4FDEFF02FE61B
:1042100001008DA28327C4FD03C7170083C62700B2
:10422000A206558F83C63700C206558F83C7470045
:10423000E207D98F05476387E70689C70947638780
:10424000E70C0DAA8327C4FD03C7570083C6670088
:10425000A206558F83C67700C206558F83C7870095
:10426000E207D98F3E868327C4FD03C7970083C624
:10427000A700A206558F83C6B700C206558F83C715
:10428000C700E207D98FB297032644FD832584FD3A
:104290003E85EF70F03C832544FD0325C4FDEFF01F
:1042A0000FDDC9A88327C4FD03C7570083C6670075
:1042B000A206558F83C67700C206558F83C7870035
:1042C000E207D98F3E868327C4FD03C7970083C6C4
:1042D000A700A206558F83C6B700C206558F83C7B5
:1042E000C700E207D98F86073307F600832744FD0E
:1042F00086073E86832584FD3A85EF7070368325D8
:1043000044FD0325C4FDEFF08FD6ADA08327C4FD87
:1043100003C7570083C66700A206558F83C6770080
:10432000C206558F83C78700E207D98F3E86832751
:10433000C4FD03C7970083C6A700A206558F83C696
:10434000B700C206558F83C7C700E207D98F8A0717
:104350003307F600832744FD8A073E86832584FDC4
:104360003A85EF70F02F832544FD0325C4FDEFF05F
:104370000FD001008327C4FD03C7170183C627019F
:10438000A206558F83C63701C206558F83C74701E2
:10439000E207D98F3E87832744FD1D8F8327C4FD05
:1043A0009375F70F83C61701818A3686AE86D18E44
:1043B000A388D7009356870093F5F60F83C627018D
:1043C000818A3686AE86D18E2389D700935607011F
:1043D00093F5F60F83C63701818A3686AE86D18E75
:1043E000A389D7001356870103C74701018BBA86FB
:1043F0003287558F238AE70021A095472326F4FEB4
:104400008327C4FD83C70700ED9B13F7F70F8327AE
:10441000C4FD2380E7008327C4FE3E85B2502254AA
:1044200045618280797106D622D40018232EA4FC1F
:10443000232CB4FC232AC4FC2328D4FC8327C4FDEA
:10444000B337F00093F7F70F3E8713061016BD67DA
:10445000938587693A85EFF0AFA6832744FDB3378C
:10446000F00093F7F70F3E8713062016BD6793857C
:1044700087693A85EFF0CFA4232604FE232404FEA7
:10448000232204FE832784FD89E78D472326F4FE3B
:10449000A9A18327C4FD83C707008D8B93F7F70F6E
:1044A00091CB832744FD032744FE98C399472326D5
:1044B000F4FE21A30325C4FDEFF09F902322A4FE68
:1044C000832744FD9C43032744FE6379F702832737
:1044D00044FD032744FE98C39D472326F4FE83270B
:1044E00044FE89EF8327C4FD83C70700DD9B13F7D4
:1044F000F70F8327C4FD2380E700C1A18327C4FDF4
:1045000083C7070093E7870013F7F70F8327C4FDDE
:104510002380E7008327C4FD03C7570183C66701D3
:10452000A206558F83C67701C206558F83C78701C0
:10453000E207D98F3E868327C4FD03C7D70083C611
:10454000E700A206558F83C6F700C206558F83C7C2
:104550000701E207D98FB307F6402324F4FE83272F
:1045600044FD9C43032784FE6366F7148327C4FD40
:1045700003C7170083C62700A206558F83C63700DE
:10458000C206558F83C74700E207D98F054763846A
:10459000E70689C70947638FE70A2DA68327C4FD6D
:1045A00003C7570083C66700A206558F83C67700EE
:1045B000C206558F83C78700E207D98F3E868327BF
:1045C000C4FD03C7D70083C6E700A206558F83C684
:1045D000F700C206558F83C70701E207D98F33075B
:1045E000F600832744FD9C433E86BA85032584FD5F
:1045F000EF701007C1AC8327C4FD03C7570083C603
:104600006700A206558F83C67700C206558F83C701
:104610008700E207D98F3E868327C4FD03C7D700F2
:1046200083C6E700A206558F83C6F700C206558FE2
:1046300083C70701E207D98F86073307F600832770
:1046400044FD9C4386073E86BA85032584FDEF70B2
:1046500030018DAC8327C4FD03C7570083C66700B4
:10466000A206558F83C67700C206558F83C7870081
:10467000E207D98F3E868327C4FD03C7D70083C6D0
:10468000E700A206558F83C6F700C206558F83C781
:104690000701E207D98F8A073307F600832744FD15
:1046A0009C438A073E86BA85032584FDEF70407BD4
:1046B000010009AC8327C4FD03C7170083C6270088
:1046C000A206558F83C63700C206558F83C74700A1
:1046D000E207D98F05476383E70A89C709476381E2
:1046E000E714CDA28327C4FD03C7570083C6670024
:1046F000A206558F83C67700C206558F83C78700F1
:10470000E207D98F3E868327C4FD03C7D70083C63F
:10471000E700A206558F83C6F700C206558F83C7F0
:104720000701E207D98FB297032684FEBE850325D1
:1047300084FDEF70E072032784FD832784FE330538
:10474000F7008327C4FD03C7570083C66700A2068E
:10475000558F83C67700C206558F83C78700E2074F
:10476000D98FBE86832744FD9843832784FEB307F1
:10477000F7403E86B685EF70A06EA9A28327C4FDE0
:1047800003C7570083C66700A206558F83C677000C
:10479000C206558F83C78700E207D98F3E868327DD
:1047A000C4FD03C7D70083C6E700A206558F83C6A2
:1047B000F700C206558F83C70701E207D98F860726
:1047C0003307F600832784FE86073E86BA850325D5
:1047D00084FDEF70E068832784FE8607032784FD4D
:1047E0003305F7008327C4FD03C7570083C667005E
:1047F000A206558F83C67700C206558F83C78700F0
:10480000E207D98FBE86832744FD9843832784FE21
:10481000B307F74086073E86B685EF7060645DA0FB
:104820008327C4FD03C7570083C66700A206558FC0
:1048300083C67700C206558F83C78700E207D98FEA
:104840003E868327C4FD03C7D70083C6E700A206C0
:10485000558F83C6F700C206558F83C70701E2074D
:10486000D98F8A073307F600832784FE8A073E869E
:10487000BA85032584FDEF70A05E832784FE8A0736
:10488000032784FD3305F7008327C4FD03C75700C2
:1048900083C66700A206558F83C67700C206558F70
:1048A00083C78700E207D98FBE86832744FD9843DC
:1048B000832784FEB307F7408A073E86B685EF70EC
:1048C000205A01008327C4FD83C70700DD9B13F72F
:1048D000F70F8327C4FD2380E700832704FDF1EF52
:1048E0008327C4FD03C70700AD476316F700894758
:1048F0002326F4FED9A08327C4FD83C7070093E7CE
:10490000270013F7F70F8327C4FD2380E7008327D1
:1049100044FD9C43BE850325C4FDEFF08F8D8327A6
:10492000C4FD03C7170183C62701A206558F83C69E
:104930003701C206558F83C74701E207D98F3E87EB
:10494000832744FD9C433E978327C4FD9375F70F4F
:1049500083C61701818A3686AE86D18EA388D7009A
:104960009356870093F5F60F83C62701818A368612
:10497000AE86D18E2389D7009356070193F5F60FA3
:1049800083C63701818A3686AE86D18EA389D70049
:104990001356870103C74701018BBA863287558FAB
:1049A000238AE7008327C4FD83C70700F59B13F71D
:1049B000F70F8327C4FD2380E7008327C4FE3E85CD
:1049C000B250225445618280797106D622D40018F3
:1049D000232EA4FC232CB4FC232AC4FC2328D4FCBF
:1049E0008327C4FDB337F00093F7F70F3E87130614
:1049F0002022BD67938587693A85EFE07FCC232627
:104A000004FE8327C4FD032744FD1376F70F03C775
:104A10005700018BBA863287558FA382E7000327A0
:104A200044FD21831376F70F03C76700018BBA8615
:104A30003287558F2383E700032744FD4183137694
:104A4000F70F03C77700018BBA863287558FA38390
:104A5000E700032744FD1356870103C78700018B36
:104A6000BA863287558F2384E7008327C4FD2380CD
:104A700007008327C4FD032784FD1376F70F03C7C0
:104A80001700018BBA863287558FA380E700032772
:104A900084FD21831376F70F03C72700018BBA86A5
:104AA0003287558F2381E700032784FD41831376E6
:104AB000F70F03C73700018BBA863287558FA38162
:104AC000E700032784FD1356870103C74700018BC6
:104AD000BA863287558F2382E7008327C4FD03C738
:104AE0009700018BA384E70003C7A700018B2385F0
:104AF000E70003C7B700018BA385E70003C7C70022
:104B0000018B2386E7008327C4FD03C7D700018BF1
:104B1000A386E70003C7E700018B2387E70003C7ED
:104B2000F700018BA387E70003C70701018B2388E8
:104B3000E7008327C4FD032704FD1376F70F03C79F
:104B40001701018BBA863287558FA388E7000327A8
:104B500004FD21831376F70F03C72701018BBA8663
:104B60003287558F2389E700032704FD418313769D
:104B7000F70F03C73701018BBA863287558FA38998
:104B8000E700032704FD1356870103C74701018B84
:104B9000BA863287558F238AE7008327C4FD03270F
:104BA00004FD1376F70F03C75701018BBA863287CE
:104BB000558FA38AE700032704FD21831376F70F9F
:104BC00003C76701018BBA863287558F238BE700B5
:104BD000032704FD41831376F70F03C77701018B89
:104BE000BA863287558FA38BE700032704FD13563F
:104BF000870103C78701018BBA863287558F238CC3
:104C0000E7008327C4FE3E85B2502254456182806E
:104C1000397106DE22DC80002326A4FC2324B4FCA8
:104C20008327C4FCB337F00093F7F70F3E871306D2
:104C3000C00CBD679385876C3A85EFE07FA8A3071A
:104C400004FE8327C4FCD9CB832784FCB1E38327EC
:104C5000C4FC130700032380E70051A0032784FC52
:104C6000A947B376F7028347F4FE13871700A3071B
:104C7000E4FE139786016187930604FFB6972386A7
:104C8000E7FE032784FCA947B357F7022324F4FC6B
:104C9000832784FCE1F73DA88347F4FEFD17130743
:104CA00004FFBA978387C7FE93F7F70F938707032D
:104CB00093F6F70F8327C4FC138717002326E4FC21
:104CC0001397860161872380E7008347F4FEFD1771
:104CD000A307F4FE8347F4FEE1F311A001000100F5
:104CE000F250625421618280411122C60008996706
:104CF00093878708739007800100324441018280C6
:104D0000411122C600089967739007800100324460
:104D100041018280011122CE00102326A4FE8327A8
:104D2000C4FEFD8B0547B316F70037E700E0832785
:104D3000C4FE9583938707048A07BA9794C301003A
:104D4000724405618280011122CE00102326A4FE48
:104D50008327C4FEFD8B0547B316F70037E700E055
:104D60008327C4FE9583938707068A07BA9794C35F
:104D70000100724405618280011122CE00102326B9
:104D8000A4FEAE87A305F4FE37E700E08327C4FE48
:104D9000BA970347B4FE2380E740010072440561DF
:104DA0008280011106CE22CC00102326A4FE03250A
:104DB000C4FEEFF03FF60100F240624405618280DC
:104DC000011106CE22CC00102326A4FE0325C4FE2A
:104DD000EFF07FF70100F24062440561828001112B
:104DE00006CE22CC00102326A4FEAE87A305F4FE37
:104DF0008347B4FEBE850325C4FEEFF0FFF7010034
:104E0000F240624405618280011106CE22CC00107E
:104E10002326A4FE8327C4FE99C783A7018813878E
:104E2000F7FF23A0E18883A7018899E3EFF0DFEB88
:104E30000100F240624405618280411106C622C42D
:104E4000000883A7018899E3EFF09FEB83A701880F
:104E50001387170023A0E18883A701883E85B2400D
:104E6000224441018280411106C622C40008014546
:104E7000EFF09FF90100B240224441018280357178
:104E800006CF16CD1ACB1EC922C72AC52EC332C1E2
:104E9000B6DEBADCBEDAC2D8C6D6F2D4F6D2FAD0C2
:104EA000FECE82E686E48AE28EE012FE16FC1AFA54
:104EB0001EF82AF62EF432F236F03AEE3EEC42EAD2
:104EC00046E872E676E47AE27EE0001193055052FD
:104ED000B747014013850780EF30E061AA8789CB8F
:104EE00093055052B747014013850780EF30C070DB
:104EF0000100FA40EA425A43CA433A442A459A45D5
:104F00000A46F6566657D6574658B658265E965EF7
:104F1000065FF64F3660A660166186617272E272B5
:104F20005273C2733275A275127682767267E26727
:104F30005268C268326EA26E126F826F0D6173008A
:104F40002030357106CF16CD1ACB1EC922C72AC50F
:104F50002EC332C1B6DEBADCBEDAC2D8C6D6F2D4AF
:104F6000F6D2FAD0FECE82E686E48AE28EE012FE27
:104F700016FC1AFA1EF82AF62EF432F236F03AEE41
:104F80003EEC42EA46E872E676E47AE27EE0001120
:104F900093055052B747004013850740EF30A055A6
:104FA000AA8789CB93055052B74700401385074025
:104FB000EF3080640100FA40EA425A43CA433A445F
:104FC0002A459A450A46F6566657D6574658B65861
:104FD000265E965E065FF64F3660A66016618661B5
:104FE0007272E2725273C2733275A2751276827651
:104FF0007267E2675268C268326EA26E126F826F89
:105000000D6173002030357106CF16CD1ACB1EC945
:1050100022C72AC52EC332C1B6DEBADCBEDAC2D878
:10502000C6D6F2D4F6D2FAD0FECE82E686E48AE282
:105030008EE012FE16FC1AFA1EF82AF62EF432F250
:1050400036F03AEE3EEC42EA46E872E676E47AE280
:105050007EE0001193055052B7570040138507803A
:10506000EF306049AA8799CBEFE08FDA9305505271
:10507000B757004013850780EF3000580100FA4011
:10508000EA425A43CA433A442A459A450A46F656E2
:105090006657D6574658B658265E965E065FF64F58
:1050A0003660A660166186617272E2725273C273D4
:1050B0003275A275127682767267E2675268C268AC
:1050C000326EA26E126F826F0D61730020303571E7
:1050D00006CF16CD1ACB1EC922C72AC52EC332C190
:1050E000B6DEBADCBEDAC2D8C6D6F2D4F6D2FAD070
:1050F000FECE82E686E48AE28EE012FE16FC1AFA02
:105100001EF82AF62EF432F236F03AEE3EEC42EA7F
:1051100046E872E676E47AE27EE0001193055052AA
:10512000B7570040138507C0EF30E03CAA8789CB12
:1051300093055052B7570040138507C0EF30C04B5E
:105140000100FA40EA425A43CA433A442A459A4582
:105150000A46F6566657D6574658B658265E965EA5
:10516000065FF64F3660A660166186617272E27263
:105170005273C2733275A275127682767267E267D5
:105180005268C268326EA26E126F826F0D61730038
:105190002030357106CF16CD1ACB1EC922C72AC5BD
:1051A0002EC332C1B6DEBADCBEDAC2D8C6D6F2D45D
:1051B000F6D2FAD0FECE82E686E48AE28EE012FED5
:1051C00016FC1AFA1EF82AF62EF432F236F03AEEEF
:1051D0003EEC42EA46E872E676E47AE27EE00011CE
:1051E0009305505237550040EF30E030AA8791CBFD
:1051F00083A7818182979305505237550040EF3045
:10520000A03F0100FA40EA425A43CA433A442A45C1
:105210009A450A46F6566657D6574658B658265EF9
:10522000965E065FF64F3660A66016618661727202
:10523000E2725273C2733275A27512768276726709
:10524000E2675268C268326EA26E126F826F0D61A1
:1052500073002030357106CF16CD1ACB1EC922C778
:105260002AC52EC332C1B6DEBADCBEDAC2D8C6D673
:10527000F2D4F6D2FAD0FECE82E686E48AE28EE05E
:1052800012FE16FC1AFA1EF82AF62EF432F236F046
:105290003AEE3EEC42EA46E872E676E47AE27EE0F6
:1052A000001193055052B727004013850780EF3057
:1052B0008024AA8789CB93055052B72700401385D5
:1052C0000780EF3060330100FA40EA425A43CA4394
:1052D0003A442A459A450A46F6566657D6574658DE
:1052E000B658265E965E065FF64F3660A66016617B
:1052F00086617272E2725273C2733275A27512764F
:1053000082767267E2675268C268326EA26E126F6E
:10531000826F0D6173002030357106CF16CD1ACB28
:105320001EC922C72AC52EC332C1B6DEBADCBEDA18
:10533000C2D8C6D6F2D4F6D2FAD0FECE82E686E441
:105340008AE28EE012FE16FC1AFA1EF82AF62EF4F5
:1053500032F236F03AEE3EEC42EA46E872E676E4A5
:105360007AE27EE0001193055052B7270040138582
:1053700007C0EF304018AA8781CF83A701828297A8
:1053800093055052B7270040138507C0EF30C02661
:105390000100FA40EA425A43CA433A442A459A4530
:1053A0000A46F6566657D6574658B658265E965E53
:1053B000065FF64F3660A660166186617272E27211
:1053C0005273C2733275A275127682767267E26783
:1053D0005268C268326EA26E126F826F0D617300E6
:1053E0002030357106CF16CD1ACB1EC922C72AC56B
:1053F0002EC332C1B6DEBADCBEDAC2D8C6D6F2D40B
:10540000F6D2FAD0FECE82E686E48AE28EE012FE82
:1054100016FC1AFA1EF82AF62EF432F236F03AEE9C
:105420003EEC42EA46E872E676E47AE27EE000117B
:105430009305505237250040EF30E00BAA8789CB07
:10544000EFC0FFB49305505237250040EF30C01A2B
:105450000100FA40EA425A43CA433A442A459A456F
:105460000A46F6566657D6574658B658265E965E92
:10547000065FF64F3660A660166186617272E27250
:105480005273C2733275A275127682767267E267C2
:105490005268C268326EA26E126F826F0D61730025
:1054A0002030357106CF16CD1ACB1EC922C72AC5AA
:1054B0002EC332C1B6DEBADCBEDAC2D8C6D6F2D44A
:1054C000F6D2FAD0FECE82E686E48AE28EE012FEC2
:1054D00016FC1AFA1EF82AF62EF432F236F03AEEDC
:1054E0003EEC42EA46E872E676E47AE27EE00011BB
:1054F000B707055083C7070193F7F70F918B8DC34B
:1055000083A7C1818297B707055083C7070113F7A7
:10551000F70FB70705506D9B1377F70F2388E70048
:105520000100FA40EA425A43CA433A442A459A459E
:105530000A46F6566657D6574658B658265E965EC1
:10554000065FF64F3660A660166186617272E2727F
:105550005273C2733275A275127682767267E267F1
:105560005268C268326EA26E126F826F0D61730054
:105570002030357106CF16CD1ACB1EC922C72AC5D9
:105580002EC332C1B6DEBADCBEDAC2D8C6D6F2D479
:10559000F6D2FAD0FECE82E686E48AE28EE012FEF1
:1055A00016FC1AFA1EF82AF62EF432F236F03AEE0B
:1055B0003EEC42EA46E872E676E47AE27EE00011EA
:1055C0000545EF1080432A8785476315F700054599
:1055D000EF1000480100FA40EA425A43CA433A44F5
:1055E0002A459A450A46F6566657D6574658B6583B
:1055F000265E965E065FF64F3660A660166186618F
:105600007272E2725273C2733275A275127682762A
:105610007267E2675268C268326EA26E126F826F62
:105620000D6173002030357106CF16CD1ACB1EC91F
:1056300022C72AC52EC332C1B6DEBADCBEDAC2D852
:10564000C6D6F2D4F6D2FAD0FECE82E686E48AE25C
:105650008EE012FE16FC1AFA1EF82AF62EF432F22A
:1056600036F03AEE3EEC42EA46E872E676E47AE25A
:105670007EE000110945EF1040382A878547631501
:10568000F7000945EF10C03C0100FA40EA425A43D6
:10569000CA433A442A459A450A46F6566657D657AB
:1056A0004658B658265E965E065FF64F3660A66090
:1056B000166186617272E2725273C2733275A2759C
:1056C000127682767267E2675268C268326EA26EA4
:1056D000126F826F0D6173002030357106CF16CDC9
:1056E0001ACB1EC922C72AC52EC332C1B6DEBADC08
:1056F000BEDAC2D8C6D6F2D4F6D2FAD0FECE82E650
:1057000086E48AE28EE012FE16FC1AFA1EF82AF6E9
:105710002EF432F236F03AEE3EEC42EA46E872E619
:1057200076E47AE27EE000111145EF10002D2A8721
:1057300085476315F7001145EF1080310100FA40ED
:10574000EA425A43CA433A442A459A450A46F6561B
:105750006657D6574658B658265E965E065FF64F91
:105760003660A660166186617272E2725273C2730D
:105770003275A275127682767267E2675268C268E5
:10578000326EA26E126F826F0D6173002030357120
:1057900006CF16CD1ACB1EC922C72AC52EC332C1C9
:1057A000B6DEBADCBEDAC2D8C6D6F2D4F6D2FAD0A9
:1057B000FECE82E686E48AE28EE012FE16FC1AFA3B
:1057C0001EF82AF62EF432F236F03AEE3EEC42EAB9
:1057D00046E872E676E47AE27EE000112145EF10B9
:1057E000C0212A8785476315F7002145EF10402621
:1057F0000100FA40EA425A43CA433A442A459A45CC
:105800000A46F6566657D6574658B658265E965EEE
:10581000065FF64F3660A660166186617272E272AC
:105820005273C2733275A275127682767267E2671E
:105830005268C268326EA26E126F826F0D61730081
:105840002030357106CF16CD1ACB1EC922C72AC506
:105850002EC332C1B6DEBADCBEDAC2D8C6D6F2D4A6
:10586000F6D2FAD0FECE82E686E48AE28EE012FE1E
:1058700016FC1AFA1EF82AF62EF432F236F03AEE38
:105880003EEC42EA46E872E676E47AE27EE0001117
:105890004145EF1080162A8785476315F70041457B
:1058A000EF10001B0100FA40EA425A43CA433A444F
:1058B0002A459A450A46F6566657D6574658B65868
:1058C000265E965E065FF64F3660A66016618661BC
:1058D0007272E2725273C2733275A2751276827658
:1058E0007267E2675268C268326EA26E126F826F90
:1058F0000D6173002030357106CF16CD1ACB1EC94D
:1059000022C72AC52EC332C1B6DEBADCBEDAC2D87F
:10591000C6D6F2D4F6D2FAD0FECE82E686E48AE289
:105920008EE012FE16FC1AFA1EF82AF62EF432F257
:1059300036F03AEE3EEC42EA46E872E676E47AE287
:105940007EE0001113050002EF10200B2A87854727
:105950006316F70013050002EF10800F1305000413
:10596000EF10A0092A8785476316F7001305000486
:10597000EF10000E13050008EF1020082A87854756
:105980006316F70013050008EF10800C13050010D4
:10599000EF10A0062A8785476316F700130500104D
:1059A000EF10000B13050020EF1020052A87854714
:1059B0006316F70013050020EF1080090100FA407C
:1059C000EA425A43CA433A442A459A450A46F65699
:1059D0006657D6574658B658265E965E065FF64F0F
:1059E0003660A660166186617272E2725273C2738B
:1059F0003275A275127682767267E2675268C26863
:105A0000326EA26E126F826F0D617300203035719D
:105A100006CF16CD1ACB1EC922C72AC52EC332C146
:105A2000B6DEBADCBEDAC2D8C6D6F2D4F6D2FAD026
:105A3000FECE82E686E48AE28EE012FE16FC1AFAB8
:105A40001EF82AF62EF432F236F03AEE3EEC42EA36
:105A500046E872E676E47AE27EE000111305004043
:105A6000EF00B0792A8785476316F70013050040D9
:105A7000EF00107E856713850780EF0010782A8776
:105A800085476317F700856713850780EF00507C13
:105A90000565EF0090762A8785476315F700056551
:105AA000EF00107B0965EF0050752A878547631862
:105AB000F70083A7418282970965EF00707911652D
:105AC000EF00B0732A8785476317F700EFC00FC94F
:105AD0001165EF00F0772165EF0030722A87854766
