:100000006F40605D1300000013000000130000004B
:100010001300000013000000130000001300000094
:100020001300000013000000130000001300000084
:08003000130000007300100032
:100038000000000000000000DE440000EE44000064
:10004800000000001C450000000000000000000047
:100058001E450000204500000000000000000000D0
:1000680022450000000000002445000000000000B8
:1000780026450000284500002A4500002C450000C0
:100088002E45000030450000A83700005C3800000D
:1000980010390000C4390000783A00003C450000DF
:1000A8003E45000040450000424500004445000030
:1000B80046450000484500004A4500004C45000000
:1000C8004E45000050450000524500002C3B000002
:1000D80056450000763D00005A4500005C4500008A
:1000E800363E0000EE3E0000AE3F000064450000D2
:1000F80066450000684500006A4500006C45000040
:100108006E450000B0300000743100003832000045
:10011800443C0000784500007A4500007C4500001A
:10012800A64200008045000082450000844500008A
:1001380086450000884500006E4000008C450000A0
:1001480000330000C43300002E410000E6410000E7
:1001580096450000984500009A4500009C4500001F
:100168009E450000A0450000A2450000A4450000EF
:10017800A6450000A8450000AA45000084530000D9
:10018800AE450000B0450000D83600008A340000B3
:100198004E35000018360000BA45000066430000DE
:1001A800BE450000C0450000C245000026440000CE
:1001B800C6450000C8450000CA450000CC450000FF
:1001C800CE450000D0450000D2450000D4450000CF
:1001D8000000000000000000000000000000000017
:1001E8000000000000000000000000000000000007
:0801F8000000000000000000FF
:100200003D432A876373C3029377F700BDEFADE5E3
:10021000937606FF3D8ABA960CC34CC30CC74CC7F5
:100220004107E36BD7FE11E28280B306C3408A0622
:100230009702000096966780A6002307B700A306E2
:10024000B7002306B700A305B7002305B700A30432
:10025000B7002304B700A303B7002303B700A3022A
:10026000B7002302B700A301B7002301B700A30022
:10027000B7002300B700828093F5F50F93968500B1
:10028000D58D93960501D58D61B79396270097027A
:10029000000096968682E78086FA9680C1171D8FA9
:1002A0003E96E374C3F8A5B7011122CE00102326B1
:1002B000A4FE37F500E08328450037F500E093F809
:1002C000E8FF2322150183A841810965130505F480
:1002D00033D5A802AA8601470325C4FEAA87014890
:1002E00037F500E03303F702B308D8029A98338356
:1002F000F60233B6F6029A85B387C8003E860CC96B
:1003000050C9B7F700E09843B7F700E0136707015B
:1003100098C3B7F700E09843B7F700E013671702F8
:1003200098C30100B7F700E0DC4313F717008547D7
:10033000E31AF7FEB7F700E09843B7F700E0799BC0
:1003400098C30100724405618280011122CE001021
:100350002326A4FEAE87A305F4FE8347B4FE85CB17
:100360008327C4FEBD8B0547B317F700939607019B
:10037000C1828327C4FE13D75700B70700200A079E
:1003800093870704BA979C43368798CB3DA0832771
:10039000C4FEBD8B0547B317F70093960701C182D2
:1003A0008327C4FE13D75700B70700200A07938797
:1003B0000704BA979C433687D8CB01007244056185
:1003C0008280011122CE00102326A4FE8327C4FEC2
:1003D000958313F77700B70700200A079387070470
:1003E000BA979C439C470327C4FE7D8B8546339771
:1003F000E600F98FB337F00093F7F70F3E857244AC
:1004000005618280797106D622D40018232EA4FCBF
:10041000232CB4FCB2872328D4FCA30BF4FC2320A8
:1004200004FE232204FE232404FE8327C4FD9583B7
:1004300093F7F70F9D8BA307F4FE8327C4FD93F773
:10044000F70FFD8B2307F4FE8347F4FE91E7854504
:100450001145EF40807A91A80347F4FE8547631762
:10046000F70085452145EF40407981A00347F4FE20
:1004700089476317F70085454145EF40007835A06F
:100480000347F4FE8D476318F70085451305000206
:10049000EF40A07619A80347F4FE91476317F700D1
:1004A000854513050004EF4040758347E4FE05478A
:1004B000B317F700C207C1832310F4FE032784FD9E
:1004C00085476317F702832704FDC207C183A18311
:1004D000C207C18389E78D472322F4FE11A8832731
:1004E00004FDC207C183A183C207C1832322F4FE96
:1004F000832704FDC207C18393F7F70F2324F4FE7B
:100500000347F4FEB70700200A0793870704BA974A
:100510009C43130704FEBA853E85EF40801B0327EA
:1005200084FD85476319F7020347F4FEB7070020EF
:100530000A0793870704BA9794438347E4FE054765
:10054000B317F700C207C183034774FD3A86BE851F
:100550003685EF40A03A0100B250225445618280B6
:10056000797122D60018232EA4FCB7370140938757
:1005700007C02326F4FE231504FE0327C4FDA54768
:1005800063ECE7088327C4FD13972700B1679387BF
:10059000071EBA979C438287B7370140938707C0ED
:1005A0002326F4FE95A8B70700402326F4FEADA04D
:1005B000B7070040938707402326F4FEB1A8B7177A
:1005C0000040938707802326F4FEB9A0B7170040A8
:1005D000938707C02326F4FE81A0B7170040232687
:1005E000F4FE1DA8B7170040938707402326F4FEAA
:1005F00025A0B7370140938707402326F4FE29A89A
:10060000B7570140938707C02326F4FE31A0B757A0
:1006100001402326F4FE01000327C4FD0A07938747
:100620000189BA9798438947631FF7008327C4FE5F
:1006300083D747021397070141838D47B357F702CA
:100640002315F4FE39A08327C4FE83D74702231560
:10065000F4FE8357A4FE3E85325445618280797151
:1006600022D60018232EA4FCB7370140938707C079
:100670002326F4FE0327C4FDA54763ECE708832780
:10068000C4FD13972700B16793878720BA979C43CF
:100690008287B7370140938707C02326F4FE95A8C9
:1006A000B70700402326F4FEADA0B70700409387AC
:1006B00007402326F4FEB1A8B717004093870780B0
:1006C0002326F4FEB9A0B7170040938707C023265E
:1006D000F4FE81A0B71700402326F4FE1DA8B7172B
:1006E0000040938707402326F4FE25A0B73701403A
:1006F000938707402326F4FE29A8B7570140938724
:1007000007C02326F4FE31A0B75701402326F4FE8C
:1007100001008327C4FE2392070201003254456181
:100720008280011122CE00102326A4FEAE87A305ED
:10073000F4FE0100B1670327C4FE0A07938707236D
:10074000BA979C4383D70700C207C18393F7070872
:10075000F5D3B1670327C4FE0A0793870723BA9727
:100760009C433E878347B4FEC207C1832312F70030
:100770000100724405618280011106CE22CC001076
:100780002326A4FE2324B4FE832784FEB337F0007F
:1007900093F7F70F3E8713060005B167938507FDB2
:1007A0003A85EF10A02339A8832784FE138717000A
:1007B0002324E4FE8387070093F7F70FBE85032504
:1007C000C4FE8537832784FE83870700F1FF01007D
:1007D000F240624405618280011106CE22CC0010F5
:1007E0002326A4FEAE87A305F4FEB1670327C4FE4B
:1007F0000A0793870723BA979C433E878347B4FE33
:100800003E86930550523A85EF40007B1387018363
:100810008327C4FEBA9783C7070081453E85EF2032
:10082000A07F8347B4FE81CF138701838327C4FE53
:10083000BA9783C707003E85EF20807A19A81387EF
:1008400001838327C4FEBA9783C707003E85EF2044
:10085000E07A0100F240624405618280011122CEFB
:1008600000102326A4FE2324B4FEB1670327C4FE90
:100870000A0793870723BA979C4383D70700C207C9
:10088000C18393F707028DC7B1670327C4FE0A0728
:1008900093870723BA979C4383D74700C207C18336
:1008A00013F7F70F832784FE2380E700854711A005
:1008B00081473E85724405618280797106D622D4D3
:1008C0000018232EA4FC232CB4FC232AC4FC2328C8
:1008D000D4FC032744FD832704FD3D8F8327C4FDFB
:1008E000B207F98F93B7170093F7F70F3E871306F8
:1008F000A00AB167938507FD3A85EF10200E832784
:1009000044FD13D78700832704FDA183B307F74075
:1009100093B7170093F7F70F3E871306B00AB16736
:10092000938507FD3A85EF10600B832744FD93F70D
:10093000F70FE146014685453E85E934832704FDEE
:1009400093F7F70F93068004014681453E855D3C91
:1009500085450545EF40602A032744FDC167FD1723
:10096000F98F0D67130707386387E7200D671307B3
:1009700007386369F7040567130757166381E7169D
:10098000056713075716636FF7001307F022638A92
:10099000E70C130760306381E71013076012638868
:1009A000E70865A6096713078736638BE7160D67A7
:1009B000130707126387E71809671307A7146380F3
:1009C000E71461A615671307A738638EE726156736
:1009D0001307A7386362F70211671307873863802C
:1009E000E7201567130787126385E722116713074E
:1009F0004712638CE71A91AE19671307C7386388EB
:100A0000E72A19671307C7386368F70019671307E0
:100A100067106384E72615AE1D671307E71063822E
:100A2000E72C1D671307E7386387E72E39AEB70752
:100A30000140D44FB7070140370700FC7D17758F81
:100A4000D8CFB7070140D843B70701406D9BD8C343
:100A5000B7070140D843B707014013674700D8C321
:100A6000EDA4B7070140D44FB7070140370700FC9A
:100A70007D17758FD8CFB7070140D44FB707014016
:100A800037070004558FD8CFB7070140D843B707C1
:100A900001406D9BD8C355ACB7070140D44FB70791
:100AA0000140370700FC7D17758FD8CFB70701408D
:100AB000D44FB707014037070004558FD8CFB70789
:100AC0000140D843B70701406D9BD8C3B707014029
:100AD000D843B707014013674700D8C3BDA4B70781
:100AE0000140D843B70701405D9BD8C3B707014019
:100AF000D843B707014013678700D8C3B9A4B70725
:100B00000140D843B70701401377F7FCD8C3B707B4
:100B10000140D843B707014013670701D8C335A484
:100B2000B7070140D843B70701401377F7FCD8C394
:100B3000B7070140D843B707014013670703D8C37D
:100B400029A4B7070140D44FB70701403707FDFF7D
:100B50007D17758FD8CFB7070140D44F832744FD49
:100B6000A18313970701B70703007D8FB7070140E3
:100B7000558FD8CFD9AAB7070140D44FB707014046
:100B80003707FDFF7D17758FD8CFB7070140D44FCA
:100B9000832744FDA18313970701B70703007D8FC7
:100BA000B7070140558FD8CF4DA2B7070140D44FAA
:100BB000B70701403707F4FF7D17758FD8CFB70708
:100BC0000140D44F832744FDA18313972701B70722
:100BD0000C007D8FB7070140558FD8CFBDA2B70756
:100BE0000140D44FB70701403707F4FF7D17758FD9
:100BF000D8CFB7070140D44F832744FDA183139773
:100C00002701B7070C007D8FB7070140558FD8CF5C
:100C10002DAAB7070140D44FB70701403707D0FFCF
:100C20007D17758FD8CFB7070140D44F832744FD78
:100C3000A18313974701B70730007D8FB7070140A5
:100C4000558FD8CF19A2B7070140D44FB70701403D
:100C50003707D0FF7D17758FD8CFB7070140D44F26
:100C6000832744FDA18313974701B70730007D8F89
:100C7000B7070140558FD8CFC9A8B7070140D44F57
:100C8000B7070140370740FF7D17758FD8CFB707EB
:100C90000140D44F832744FDA18313976701B70711
:100CA000C0007D8FB7070140558FD8CF79A8B7070F
:100CB0000140D44FB7070140370740FF7D17758FBC
:100CC000D8CFB7070140D44F832744FDA1831397A2
:100CD0006701B707C0007D8FB7070140558FD8CF98
:100CE000ADA0B7070140D44FB7070140370700FD5B
:100CF0007D17758FD8CFB7070140D44F832744FDA8
:100D0000A18313978701B70700037D8FB7070140C1
:100D1000558FD8CF1DA8B7070140D44FB707014062
:100D2000370700FD7D17758FD8CFB7070140D44F27
:100D3000832744FDA18313978701B70700037D8FA5
:100D4000B7070140558FD8CF01008327C4FD91E735
:100D500085451165EF30706A69A80327C4FD854792
:100D60006318F700854537050200EF30706D51A01C
:100D70000327C4FD89476318F7008545370504003C
:100D8000EF30106CBDA00327C4FD8D476318F7003A
:100D9000854537050800EF30B06AA1A80327C4FDD8
:100DA00091476318F700854537051000EF3050690B
:100DB00089A00327C4FD95476318F70085451305EF
:100DC0000004EF30F06735A00327C4FD994763188E
:100DD000F700854513050008EF30906619A8032732
:100DE000C4FD9D476317F700854513050010EF30DC
:100DF0003065232004FE232204FE232404FE232640
:100E000004FE832784FD2320F4FE231204FE231313
:100E100004FE231404FE231604FEB1472315F4FE3A
:100E2000B1670327C4FD0A0793870723BA979C433A
:100E30003E87930704FEBE853A85EF30B06EB167FA
:100E40000327C4FD0A0793870723BA979C43854568
:100E50003E85EF4060100100B2502254456182800F
:100E6000411106C622C4000883A741840547638B4D
:100E7000E7006388070C0947638DE7000D47638F20
:100E8000E702E9A083A701841387170023A0E18468
:100E900075A883A701841387170023A0E18403A703
:100EA0000184A54763F1E70AB70700209387070489
:100EB0009C4B1167D8CB23A0018471A003A7818428
:100EC00085476314F7081305F008EFF08FCFAA8762
:100ED000ADC31945EFF0CFE8AA873E8783A7018409
:100EE0001D8F9307600963F2E7061945EFF02FF7AE
:100EF00083A70184D3F717D05385F720EF70101C18
:100F0000B16703A6070083A64700EF608060AA8749
:100F10002E883E85C285EF703003AA87139707019C
:100F20004183B7070020239CE726094723A4E184D7
:100F300029A81945EFF0CFE2AA873E8723A0E184D4
:100F400029A0010021A0010011A001000100B24070
:100F5000224441018280411106C622C4000883A7B1
:100F600041840947637CF7000D47639AE700194500
:100F7000EFF0EFEE054723A4E18411A0010001008A
:100F8000B240224441018280011106CE22CC0010E1
:100F9000232204FE83C7D1846381071409A8930721
:100FA00034FE0546BE851385818BEF10601A9307CA
:100FB00034FEBE851D45EFF07F8AAA87EDF3034717
:100FC00034FEA947631BF71099472322F4FE130749
:100FD00044FE930784FE85463A86BE851385818B41
:100FE000EF10A075930784FE138737000D46B16795
:100FF000938587003A85EF800072AA879DEB03A74F
:10100000418589476304F70C054723AAE1841385CA
:10101000818BEF10400CAA872322F4FE930744FE35
:1010200081463E86938541951385818BEF10E07054
:1010300071A8930784FE138737000D46B167938527
:10104000C7003A85EF80206DAA879DEB03A7018535
:101050008947630DF706054723A8E1841385818B33
:10106000EF106007AA872322F4FE930744FE81460F
:101070003E869385418D1385818BEF10006CB9A05E
:10108000930784FE138737000D46B16793850701E8
:101090003A85EF804068AA8795EB03A78185894749
:1010A0006306F702054723ACE1841385818BEF10BB
:1010B0008002AA872322F4FE930744FE81463E86DF
:1010C0009385419D1385818BEF1020671385818B5C
:1010D000EF00F05B05472386E1840100F2406244A3
:1010E00005618280411122C600080100324441019D
:1010F0008280411122C60008B71702409843B717F3
:1011000002401367170098C3B7170240D443B717BC
:1011100002403707FFF8758FD8C3B71702409443D2
:10112000B71702403707F7FE7D17758F98C3B717BB
:1011300002409443B71702403707FCFF7D17758FB5
:1011400098C3B7170240D443B7170240370781FF4F
:101150007D17758FD8C3B717024037079F0098C710
:101160000100324441018280797106D622D40018F0
:10117000232EA4FCBD3F232604FE232404FEB71720
:1011800002409443B71702404167558F98C3B71781
:1011900002409843B7070200F98F2324F4FE832707
:1011A000C4FE85072326F4FE832784FE91E70327E8
:1011B000C4FE8567E31DF7FCB71702409843B707E5
:1011C0000200F98F89C785472324F4FE19A0232440
:1011D00004FE032784FE85476312F7163717024083
:1011E000B71702405843D8C337170240B717024019
:1011F0005843D8C337170240B71702405843D8C3E3
:10120000B7170240D443B71702403707C1FF7D1715
:10121000758FD8C30327C4FDB74795089387074048
:10122000631BF700B7170240D443B717024041676A
:10123000558FD8C355A80327C4FDB7172707938731
:1012400007E0631CF700B7170240D443B71702400A
:1012500037073900558FD8C341A80327C4FDB7E726
:10126000B80593870780631CF700B7170240D44383
:10127000B717024037072900558FD8C3B5A00327F9
:10128000C4FDB7A74A0493870720631CF700B7176C
:101290000240D443B717024037071D00558FD8C30B
:1012A000A1A00327C4FDB777DC02938707C0631CA6
:1012B000F700B7170240D443B717024037071100B1
:1012C000558FD8C315A00327C4FDB7376E01938788
:1012D0000760631BF700B7170240D443B7170240FB
:1012E00037070500558FD8C3B71702409443B71787
:1012F000024037070001558F98C30100B71702401D
:101300009843B7070002F98FF5DBB7170240D843BF
:10131000B7170240719BD8C3B7170240D843B7171D
:10132000024013672700D8C30100B7170240DC430F
:1013300013F7C700A147E31AF7FE11A001A0B250AE
:10134000225445618280011106CE22CC0010232652
:10135000A4FE0327C4FE23AAE180613B0325C4FE4B
:101360002135EF1090530100F24062440561828004
:10137000411122C60008010001003244410182806F
:10138000011106CE22CC0010232604FE232404FEE5
:10139000232604FE25A0232404FE39A0D13F832761
:1013A00084FE85072324F4FE032784FEC167E367D8
:1013B000F7FE8327C4FE85072326F4FE0327C4FE19
:1013C0009307F00FE3F9E7FC0100F2406244056186
:1013D0008280411122C6000801003244410182800E
:1013E000011106CE22CC00102326A4FE8325C4FEC4
:1013F0000945EFF06FB80100F24062440561828058
:10140000130101D923261126232481262322912684
:10141000801C232EA4D8232CB4D8232AC4D8232854
:10142000D4D8231504FE231404FE231304FE231230
:1014300004FE231104FE032584D9EF80A02CAA8783
:10144000C207C1872313F4FE83D701AB89C79387F3
:1014500001AB9C4B829783C7D18593F7F70F638DC0
:10146000074A83D701AB63870744938701ABD4470F
:10147000835724FE13970701418793170701C18300
:101480008507C207C183C207C1872311F4FE9317E2
:101490000701C1830326C4D9BE85014582968327EF
:1014A00084D92326F4FE032584D9EF80A025AA87BA
:1014B000C207C1872313F4FE938701AB83D72700AC
:1014C0003E87938701AB83C76700B347F702C20724
:1014D000C1872312F4FE01008327C4FE138717007F
:1014E0002326E4FE83870700E5FB231404FEA1A85E
:1014F0008327C4FEFD172326F4FE8327C4FE03873B
:1015000007009307F002630AF7008327C4FE0387EE
:1015100007009307C005631BF700835784FEC207CB
:10152000C1838507C207C1832314F4FE835764FE79
:10153000C207C187C207C183FD17C207C183C207A3
:10154000C1872313F4FE835784FE13970701418359
:10155000854763E8E700835764FEC207C187E3D984
:1015600007F8835764FEC207C18763C20702832757
:10157000C4FE85072326F4FE130704EE0326C4FEEB
:10158000B1679385870F3A85EF8060131DA8835755
:1015900084FEC207C18381EF130704EE0326C4FE55
:1015A000B167938547103A85EF80601119A813073A
:1015B00004EE0326C4FEB1679385870F3A85EF805A
:1015C0000010231504FE21AA231404FE59A093073A
:1015D00004EE3E85EF8000132A87835784FEC207FE
:1015E000C183BE868357A4FEC207C1833E8683574C
:1015F00044FEC207C187B307F602B6976367F706D2
:10160000835784FEC207C1833E878357A4FEC20767
:10161000C183BE86835744FEC207C187B387F602E3
:10162000BA97035784FE42074183BA86130704FF23
:10163000BA97038707EF930704FFB6972388E7EA73
:10164000835784FEC207C1838507C207C183231461
:10165000F4FE835784FEC207C1833E87835744FE4E
:10166000C207C187E345F7F611A00100835784FE46
:10167000C207C183130704FFBA97238807EA938739
:1016800001AB03A8C700938701AB83C7770013970B
:1016900007014183835724FE93960701C1869397E0
:1016A0000601C1838507C207C183C207C187231111
:1016B000F4FE93970601C183B307F702C207C18303
:1016C000130704EA3A86BE85014502988357A4FEB3
:1016D000C207C1838507C207C1832315F4FE835760
:1016E000A4FEC207C183BE84930704EE3E85EF804B
:1016F00060012A87835744FEC207C187B357F702A8
:101700008507E3E3F4EC130704EE032644D9B1673D
:10171000938547113A85EF70907A938701AB03A8C0
:10172000C700938701AB83C77700139707014183F5
:10173000835724FE93960701C18693970601C183C0
:101740008507C207C183C207C1872311F4FE93979F
:101750000601C183B307F702C207C183130704EE72
:101760003A86BE8501450298832704D96386071A05
:10177000231504FE21AA231404FE59A0032504D92D
:10178000EF7050782A87835784FEC207C183BE86D4
:101790008357A4FEC207C1833E86835744FEC20717
:1017A000C187B307F602B6976368F706835784FECE
:1017B000C207C1833E878357A4FEC207C183BE868A
:1017C000835744FEC207C187B387F602BA973E87A4
:1017D000832704D9BA97035784FE42074183BA8608
:1017E00003870700930704FFB6972388E7EA835728
:1017F00084FEC207C1838507C207C1832314F4FE98
:10180000835784FEC207C1833E87835744FEC207C5
:10181000C187E345F7F611A00100835784FEC20794
:10182000C183130704FFBA97238807EA938701ABA4
:1018300003A8C700938701AB83C7770013970701FD
:101840004183835724FE93960701C186939706012F
:10185000C1838507C207C183C207C1872311F4FE74
:1018600093970601C183B307F702C207C183130729
:1018700004EA3A86BE85014502988357A4FEC20752
:10188000C1838507C207C1832315F4FE8357A4FED5
:10189000C207C183BE84032504D9EF70B0662A87CE
:1018A000835744FEC207C187B357F7028507E3E4B5
:1018B000F4EC9DA0930704DA1306001081453E85E1
:1018C000EFE01F94938701AB9C470325C4D982970F
:1018D000832704D999CF130504DA032704D9832673
:1018E00044D9032684D9B16793850712EF70305D20
:1018F00029A8130704DA832644D9032684D9B167BB
:101900009385C7133A85EF70905B938701AB984737
:10191000930704DA3E85029701008320C126032441
:10192000812683244126130101278280411106C6A6
:1019300022C4000883C7D18593F7F70F89CF938519
:10194000C1850945EFE09FF105469385C185138563
:1019500041A9EF00E07F0100B240224441018280B2
:10196000797106D622D40018232EA4FC232CB4FCB3
:10197000232AC4FC232604FEA9A00100B167938793
:1019800007239C47930500043E85EF300072AA8729
:10199000F5D7B167938707239C47BE86832784FDCD
:1019A00013871700232CE4FC83870700C207C18339
:1019B000BE853685EF30806C8327C4FE85072326DD
:1019C000F4FE0327C4FE832744FDE348F7FA832788
:1019D00044FD3E85B250225445618280011106CEFD
:1019E00022CC0010AA872324B4FE2322C4FEA3071E
:1019F000F4FE8347F4FEB1E383C7818193F7F70FC9
:101A00008DCF83C7E18591C301A083C7E185850799
:101A100013F7F70F238FE184EF108065EFF07F9BC2
:101A20008146032644FE832584FEB167138547154E
:101A3000EFF01F9DEFF0DF94E5B70100F240624444
:101A400005618280011122CE00102326A4FE832787
:101A5000C4FE239007008327C4FE7D572391E7002F
:101A60008327C4FE7D572392E7008327C4FE7D575A
:101A70002383E7008327C4FE7D57A383E7008327E2
:101A8000C4FE23A407008327C4FE23A607008327E0
:101A9000C4FE23A807000100724405618280011181
:101AA00022CE00102326A4FE8327C4FE03D70700FE
:101AB0002398E1AA8327C4FE03D72700938701ABAD
:101AC0002391E7008327C4FE03D74700938701AB28
:101AD0002392E7008327C4FE03C76700938701AB07
:101AE0002383E7008327C4FE03C77700938701ABF6
:101AF000A383E7008327C4FE9847938701AB98C769
:101B00008327C4FED847938701ABD8C78327C4FE79
:101B1000984B938701AB98CB0547A38EE1840100D6
:101B2000724405618280797106D622D40018930729
:101B3000C4FD3E85013FB71700009387073E23226F
:101B4000F4FE9307C4FD3E85993F89679386B702EB
:101B500089671386A702F167938507200945EFE09F
:101B6000DFD593060004138641A58145138541A95D
:101B7000EF10E01685450945EFE01FC60100B250A1
:101B8000225445618280011122CE00102326A4FE3A
:101B90002324B4FE8327C4FE03C7970083C6A7008F
:101BA000A206558F83C6B700C206558F83C7C700EC
:101BB000E207D98F3E87832784FE3E978327C4FEA2
:101BC0009375F70F83C69700818A3686AE86D18ECD
:101BD000A384D7009356870093F5F60F83C6A7001A
:101BE000818A3686AE86D18E2385D700935607012B
:101BF00093F5F60F83C6B700818A3686AE86D18EFE
:101C0000A385D7001356870103C7C700018BBA8687
:101C10003287558F2386E70055A08327C4FE03C76C
:101C2000970083C6A700A206558F83C6B700C206D9
:101C3000558F83C7C700E207D98F3E868327C4FE2E
:101C400003C7570183C66701A206558F83C6770174
:101C5000C206558F83C78701E207D98F3307F64045
:101C60008327C4FE9375F70F83C69700818A368653
:101C7000AE86D18EA384D7009356870093F5F60FD6
:101C800083C6A700818A3686AE86D18E2385D7008B
:101C90009356070193F5F60F83C6B700818A3686FF
:101CA000AE86D18EA385D7001356870103C7C70020
:101CB000018BBA863287558F2386E7008327C4FEBF
:101CC00003C7570183C66701A206558F83C67701F4
:101CD000C206558F83C78701E207D98F3E868327C7
:101CE000C4FE03C7970083C6A700A206558F83C60C
:101CF000B700C206558F83C7C700E207D98FE3FE3E
:101D0000C7F00100724405618280011122CE0010EB
:101D10002326A4FE2324B4FE8327C4FE03C7D700D2
:101D200083C6E700A206558F83C6F700C206558F0B
:101D300083C70701E207D98F3E87832784FE3E973A
:101D40008327C4FE9375F70F83C6D700818A368632
:101D5000AE86D18EA386D7009356870093F5F60FF3
:101D600083C6E700818A3686AE86D18E2387D70068
:101D70009356070193F5F60F83C6F700818A3686DE
:101D8000AE86D18EA387D7001356870103C70701FC
:101D9000018BBA863287558F2388E70055A08327A9
:101DA000C4FE03C7D70083C6E700A206558F83C6CB
:101DB000F700C206558F83C70701E207D98F3E8619
:101DC0008327C4FE03C7570183C66701A206558F48
:101DD00083C67701C206558F83C78701E207D98F73
:101DE0003307F6408327C4FE9375F70F83C6D700E9
:101DF000818A3686AE86D18EA386D7009356870019
:101E000093F5F60F83C6E700818A3686AE86D18EBB
:101E10002387D7009356070193F5F60F83C6F70083
:101E2000818A3686AE86D18EA387D7001356870166
:101E300003C70701018BBA863287558F2388E700D5
:101E40008327C4FE03C7570183C66701A206558FC7
:101E500083C67701C206558F83C78701E207D98FF2
:101E60003E868327C4FE03C7D70083C6E700A206C9
:101E7000558F83C6F700C206558F83C70701E20757
:101E8000D98FE3FEC7F00100724405618280797149
:101E900006D622D40018232EA4FC8327C4FDB33712
:101EA000F00093F7F70F3E8713065005B16793854F
:101EB00007173A852536232604FE8327C4FD83C7EA
:101EC000070093E7170013F7F70F8327C4FD23805C
:101ED000E7008327C4FD03C79700018BA384E700B5
:101EE00003C7A700018B2385E70003C7B700018B59
:101EF000A385E70003C7C700018B2386E70083277C
:101F0000C4FD03C7D700018BA386E70003C7E70022
:101F1000018B2387E70003C7F700018BA387E70046
:101F200003C70701018B2388E7008327C4FD03C78C
:101F3000570183C66701A206558F83C67701C20683
:101F4000558F83C78701E207D98F3E878327C4FD5A
:101F50009375F70F83C61701818A3686AE86D18EB8
:101F6000A388D7009356870093F5F60F83C6270101
:101F7000818A3686AE86D18E2389D7009356070193
:101F800093F5F60F83C63701818A3686AE86D18EE9
:101F9000A389D7001356870103C74701018BBA866F
:101FA0003287558F238AE7008327C4FD03C71700B4
:101FB00083C62700A206558F83C63700C206558FF9
:101FC00083C74700E207D98F0547638DE70489C7B8
:101FD00009476380E70AEDA08327C4FD03C75700C4
:101FE00083C66700A206558F83C67700C206558F49
:101FF00083C78700E207D98F3E858327C4FD03C7C7
:10200000570183C66701A206558F83C67701C206B2
:10201000558F83C78701E207D98F3E868145EFE060
:102020002F9E79A88327C4FD03C7570083C6670086
:10203000A206558F83C67700C206558F83C78700D7
:10204000E207D98F3E858327C4FD03C7570183C6A6
:102050006701A206558F83C67701C206558F83C7D5
:102060008701E207D98F86073E868145EFE04F99C9
:1020700081A88327C4FD03C7570083C66700A20653
:10208000558F83C67700C206558F83C78700E20746
:10209000D98F3E858327C4FD03C7570183C66701D7
:1020A000A206558F83C67701C206558F83C7870165
:1020B000E207D98F8A073E868145EFE06F940100E1
:1020C0008327C4FD238007008327C4FE3E85B250CA
:1020D000225445618280011106CE22CC00102326B5
:1020E000A4FE8327C4FEB337F00093F7F70F3E87B3
:1020F00013066007B167938507173A85EFF01F8EC7
:102100008327C4FE03C7570183C66701A206558F04
:1021100083C67701C206558F83C78701E207D98F2F
:102120003E868327C4FE03C7170183C62701A20684
:10213000558F83C63701C206558F83C74701E20713
:10214000D98FB307F6403E85F24062440561828034
:10215000797106D622D40018232EA4FC232CB4FCBB
:10216000232AC4FC8327C4FDB337F00093F7F70F8D
:102170003E871306000BB167938507173A85EFF08A
:10218000FF85232604FE232404FE832784FD89E79C
:102190008D472326F4FE59AB8327C4FD83C7070070
:1021A000958B93F7F70F89C791472326F4FEBDABB4
:1021B0008327C4FD83C7070093E7470013F7F70F92
:1021C0008327C4FD2380E7008327C4FD03C71701CD
:1021D00083C62701A206558F83C63701C206558FD5
:1021E00083C74701E207D98F3E87832744FD636198
:1021F000F7528327C4FD03C7570183C66701A206B0
:10220000558F83C67701C206558F83C78701E207C2
:10221000D98F3E868327C4FD03C7970083C6A700D6
:10222000A206558F83C6B700C206558F83C7C70065
:10223000E207D98FB307F6402324F4FE032744FDB9
:10224000832784FE63F3E72E8327C4FD03C71700AB
:1022500083C62700A206558F83C63700C206558F56
:1022600083C74700E207D98F05476385E70E89C713
:1022700009476386E71C11A98327C4FD03C75700DC
:1022800083C66700A206558F83C67700C206558FA6
:1022900083C78700E207D98F3E868327C4FD03C723
:1022A000970083C6A700A206558F83C6B700C20653
:1022B000558F83C7C700E207D98FB297032684FEE4
:1022C000832584FD3E85EF60E075832584FE03252C
:1022D000C4FDEFF05F8B8327C4FD03C7570083C69F
:1022E0006700A206558F83C67700C206558F83C745
:1022F0008700E207D98F3E868327C4FD03C7970076
:1023000083C6A700A206558F83C6B700C206558FA5
:1023100083C7C700E207D98FB306F600032784FD01
:10232000832784FEB305F700032744FD832784FE3B
:10233000B307F7403E863685EF60C06E032744FD45
:10234000832784FEB307F740BE850325C4FDEFF065
:102350009F8325AE8327C4FD03C7570083C667004C
:10236000A206558F83C67700C206558F83C78700A4
:10237000E207D98F3E868327C4FD03C7970083C633
:10238000A700A206558F83C6B700C206558F83C724
:10239000C700E207D98F86073307F600832784FE3C
:1023A00086073E86832584FD3A85EF60A0678325F6
:1023B00084FE0325C4FDEFF00FFD8327C4FD03C792
:1023C000570083C66700A206558F83C67700C206F2
:1023D000558F83C78700E207D98F3E868327C4FDC8
:1023E00003C7970083C6A700A206558F83C6B70010
:1023F000C206558F83C7C700E207D98F8607B30689
:10240000F600832784FE8607032784FDB305F700C3
:10241000032744FD832784FEB307F74086073E86E3
:102420003685EF602060032744FD832784FEB307D1
:10243000F740BE850325C4FDEFF0EFF4B9A4832770
:10244000C4FD03C7570083C66700A206558F83C625
:102450007700C206558F83C78700E207D98F3E8673
:102460008327C4FD03C7970083C6A700A206558F24
:1024700083C6B700C206558F83C7C700E207D98F4E
:102480008A073307F600832784FE8A073E86832562
:1024900084FD3A85EF600059832584FE0325C4FD41
:1024A000EFF06FEE8327C4FD03C7570083C66700B4
:1024B000A206558F83C67700C206558F83C7870053
:1024C000E207D98F3E868327C4FD03C7970083C6E2
:1024D000A700A206558F83C6B700C206558F83C7D3
:1024E000C700E207D98F8A07B306F600832784FE68
:1024F0008A07032784FDB305F700032744FD8327DC
:1025000084FEB307F7408A073E863685EF60805128
:10251000032744FD832784FEB307F740BE850325C8
:10252000C4FDEFF04FE601008DA28327C4FD03C771
:10253000170083C62700A206558F83C63700C20640
:10254000558F83C74700E207D98F05476387E706A2
:1025500089C709476387E70C0DAA8327C4FD03C712
:10256000570083C66700A206558F83C67700C20650
:10257000558F83C78700E207D98F3E868327C4FD26
:1025800003C7970083C6A700A206558F83C6B7006E
:10259000C206558F83C7C700E207D98FB2970326BB
:1025A00044FD832584FD3E85EF60C047832544FDBF
:1025B0000325C4FDEFF02FDDC9A88327C4FD03C7A1
:1025C000570083C66700A206558F83C67700C206F0
:1025D000558F83C78700E207D98F3E868327C4FDC6
:1025E00003C7970083C6A700A206558F83C6B7000E
:1025F000C206558F83C7C700E207D98F8607330706
:10260000F600832744FD86073E86832584FD3A85B0
:10261000EF604041832544FD0325C4FDEFF0AFD6B4
:10262000ADA08327C4FD03C7570083C66700A20679
:10263000558F83C67700C206558F83C78700E20790
:10264000D98F3E868327C4FD03C7970083C6A700A2
:10265000A206558F83C6B700C206558F83C7C70031
:10266000E207D98F8A073307F600832744FD8A07DC
:102670003E86832584FD3A85EF60C03A832544FD7C
:102680000325C4FDEFF02FD001008327C4FD03C74D
:10269000170183C62701A206558F83C63701C206DC
:1026A000558F83C74701E207D98F3E87832744FDB3
:1026B0001D8F8327C4FD9375F70F83C61701818A89
:1026C0003686AE86D18EA388D7009356870093F5C1
:1026D000F60F83C62701818A3686AE86D18E23897E
:1026E000D7009356070193F5F60F83C63701818A09
:1026F0003686AE86D18EA389D7001356870103C7CD
:102700004701018BBA863287558F238AE70021A0C3
:1027100095472326F4FE8327C4FD83C70700ED9B5E
:1027200013F7F70F8327C4FD2380E7008327C4FE38
:102730003E85B250225445618280797106D622D4FA
:102740000018232EA4FC232CB4FC232AC4FC232829
:10275000D4FC8327C4FDB337F00093F7F70F3E870F
:1027600013061016B167938507173A85EFF00FA788
:10277000832744FDB337F00093F7F70F3E87130626
:102780002016B167938507173A85EFF02FA523260A
:1027900004FE232404FE232204FE832784FD89E70C
:1027A0008D472326F4FEA9A18327C4FD83C7070014
:1027B0008D8B93F7F70F91CB832744FD032744FEBE
:1027C00098C399472326F4FE21A30325C4FDEFF007
:1027D0009F902322A4FE832744FD9C43032744FEAD
:1027E0006379F702832744FD032744FE98C39D477E
:1027F0002326F4FE832744FE89EF8327C4FD83C785
:102800000700DD9B13F7F70F8327C4FD2380E70044
:10281000C1A18327C4FD83C7070093E7870013F78F
:10282000F70F8327C4FD2380E7008327C4FD03C778
:10283000570183C66701A206558F83C67701C2067A
:10284000558F83C78701E207D98F3E868327C4FD52
:1028500003C7D70083C6E700A206558F83C6F700DB
:10286000C206558F83C70701E207D98FB307F64029
:102870002324F4FE832744FD9C43032784FE6366E0
:10288000F7148327C4FD03C7170083C62700A206D9
:10289000558F83C63700C206558F83C74700E207AE
:1028A000D98F05476384E70689C70947638FE70A1D
:1028B0002DA68327C4FD03C7570083C66700A20661
:1028C000558F83C67700C206558F83C78700E207FE
:1028D000D98F3E868327C4FD03C7D70083C6E70090
:1028E000A206558F83C6F700C206558F83C707011E
:1028F000E207D98F3307F600832744FD9C433E86C9
:10290000BA85032584FDEF60E011C1AC8327C4FDC7
:1029100003C7570083C66700A206558F83C677009A
:10292000C206558F83C78700E207D98F3E8683276B
:10293000C4FD03C7D70083C6E700A206558F83C630
:10294000F700C206558F83C70701E207D98F8607B4
:102950003307F600832744FD9C4386073E86BA85ED
:10296000032584FDEF60000C8DAC8327C4FD03C7F5
:10297000570083C66700A206558F83C67700C2063C
:10298000558F83C78700E207D98F3E868327C4FD12
:1029900003C7D70083C6E700A206558F83C6F7009A
:1029A000C206558F83C70701E207D98F8A0733070D
:1029B000F600832744FD9C438A073E86BA8503259B
:1029C00084FDEF602006010009AC8327C4FD03C726
:1029D000170083C62700A206558F83C63700C2069C
:1029E000558F83C74700E207D98F05476383E70AFE
:1029F00089C709476381E714CDA28327C4FD03C7B4
:102A0000570083C66700A206558F83C67700C206AB
:102A1000558F83C78700E207D98F3E868327C4FD81
:102A200003C7D70083C6E700A206558F83C6F70009
:102A3000C206558F83C70701E207D98FB2970326D5
:102A400084FEBE85032584FDEF50D07D032784FDE1
:102A5000832784FE3305F7008327C4FD03C757008F
:102A600083C66700A206558F83C67700C206558FBE
:102A700083C78700E207D98FBE86832744FD98432A
:102A8000832784FEB307F7403E86B685EF509079E2
:102A9000A9A28327C4FD03C7570083C66700A20607
:102AA000558F83C67700C206558F83C78700E2071C
:102AB000D98F3E868327C4FD03C7D70083C6E700AE
:102AC000A206558F83C6F700C206558F83C707013C
:102AD000E207D98F86073307F600832784FE86072F
:102AE0003E86BA85032584FDEF50D073832784FE8C
:102AF0008607032784FD3305F7008327C4FD03C73A
:102B0000570083C66700A206558F83C67700C206AA
:102B1000558F83C78700E207D98FBE86832744FD80
:102B20009843832784FEB307F74086073E86B68521
:102B3000EF50506F5DA08327C4FD03C7570083C6C5
:102B40006700A206558F83C67700C206558F83C7DC
:102B50008700E207D98F3E868327C4FD03C7D700CD
:102B600083C6E700A206558F83C6F700C206558FBD
:102B700083C70701E207D98F8A073307F600832747
:102B800084FE8A073E86BA85032584FDEF5090694E
:102B9000832784FE8A07032784FD3305F7008327F4
:102BA000C4FD03C7570083C66700A206558F83C6BE
:102BB0007700C206558F83C78700E207D98FBE868C
:102BC000832744FD9843832784FEB307F7408A0791
:102BD0003E86B685EF50106501008327C4FD83C78C
:102BE0000700DD9B13F7F70F8327C4FD2380E70061
:102BF000832704FDF1EF8327C4FD03C70700AD471A
:102C00006316F70089472326F4FED9A08327C4FD65
:102C100083C7070093E7270013F7F70F8327C4FD47
:102C20002380E700832744FD9C43BE850325C4FD24
:102C3000EFF0AF8D8327C4FD03C7170183C62701BB
:102C4000A206558F83C63701C206558F83C7470139
:102C5000E207D98F3E87832744FD9C433E97832715
:102C6000C4FD9375F70F83C61701818A3686AE8639
:102C7000D18EA388D7009356870093F5F60F83C6AD
:102C80002701818A3686AE86D18E2389D700935656
:102C9000070193F5F60F83C63701818A3686AE8623
:102CA000D18EA389D7001356870103C74701018B33
:102CB000BA863287558F238AE7008327C4FD83C7EE
:102CC0000700F59B13F7F70F8327C4FD2380E70068
:102CD0008327C4FE3E85B2502254456182807971BB
:102CE00006D622D40018232EA4FC232CB4FC232ABD
:102CF000C4FC2328D4FC8327C4FDB337F00093F72A
:102D0000F70F3E8713062022B167938507173A8590
:102D1000EFE0DFCC232604FE8327C4FD032744FD18
:102D20001376F70F03C75700018BBA863287558F8A
:102D3000A382E700032744FD21831376F70F03C71F
:102D40006700018BBA863287558F2383E7000327FC
:102D500044FD41831376F70F03C77700018BBA86D2
:102D60003287558FA383E700032744FD135687015D
:102D700003C78700018BBA863287558F2384E7000B
:102D80008327C4FD238007008327C4FD032784FD18
:102D90001376F70F03C71700018BBA863287558F5A
:102DA000A380E700032784FD21831376F70F03C771
:102DB0002700018BBA863287558F2381E7000327CE
:102DC00084FD41831376F70F03C73700018BBA8662
:102DD0003287558FA381E700032784FD13568701AF
:102DE00003C74700018BBA863287558F2382E700DD
:102DF0008327C4FD03C79700018BA384E70003C7A3
:102E0000A700018B2385E70003C7B700018BA385CB
:102E1000E70003C7C700018B2386E7008327C4FDB3
:102E200003C7D700018BA386E70003C7E700018B28
:102E30002387E70003C7F700018BA387E70003C7D9
:102E40000701018B2388E7008327C4FD032704FDC6
:102E50001376F70F03C71701018BBA863287558F98
:102E6000A388E700032704FD21831376F70F03C728
:102E70002701018BBA863287558F2389E700032704
:102E800004FD41831376F70F03C73701018BBA8620
:102E90003287558FA389E700032704FD1356870166
:102EA00003C74701018BBA863287558F238AE70013
:102EB0008327C4FD032704FD1376F70F03C75701CB
:102EC000018BBA863287558FA38AE700032704FD5A
:102ED00021831376F70F03C76701018BBA86328708
:102EE000558F238BE700032704FD41831376F70FEB
:102EF00003C77701018BBA863287558FA38BE70012
:102F0000032704FD1356870103C78701018BBA8687
:102F10003287558F238CE7008327C4FE3E85B2504D
:102F2000225445618280411122C600089967938727
:102F3000870873900780010032444101828041116B
:102F400022C600089967739007800100324441014E
:102F50008280011122CE00102326A4FE8327C4FE06
:102F6000FD8B0547B316F70037E700E08327C4FE63
:102F70009583938707048A07BA9794C30100724424
:102F800005618280011122CE00102326A4FE832732
:102F9000C4FEFD8B0547B316F70037E700E0832733
:102FA000C4FE9583938707068A07BA9794C30100E6
:102FB000724405618280011122CE00102326A4FEF6
:102FC000AE87A305F4FE37E700E08327C4FEBA9777
:102FD0000347B4FE2380E74001007244056182800C
:102FE000011106CE22CC00102326A4FE0325C4FE28
:102FF0008D370100F240624405618280011106CEE6
:1030000022CC00102326A4FE0325C4FEA53F010008
:10301000F240624405618280011106CE22CC00108C
:103020002326A4FEAE87A305F4FE8347B4FEBE8527
:103030000325C4FE49370100F240624405618280E5
:10304000011106CE22CC00102326A4FE8327C4FE45
:1030500099C783A701861387F7FF23A0E18683A77B
:10306000018691E3C9350100F24062440561828026
:10307000411106C622C4000883A7018691E3C13529
:1030800083A701861387170023A0E18683A7018603
:103090003E85B240224441018280411106C622C4CD
:1030A00000080145713F0100B24022444101828085
:1030B000357106CF16CD1ACB1EC922C72AC52EC31D
:1030C00032C1B6DEBADCBEDAC2D8C6D6F2D4F6D287
:1030D000FAD0FECE82E686E48AE28EE012FE16FC8C
:1030E0001AFA1EF82AF62EF432F236F03AEE3EECD8
:1030F00042EA46E872E676E47AE27EE00011930561
:103100005052B747014013850780EF10707EAA87A1
:1031100089CB93055052B747014013850780EF20B4
:10312000400D0100FA40EA425A43CA433A442A4554
:103130009A450A46F6566657D6574658B658265EFA
:10314000965E065FF64F3660A66016618661727203
:10315000E2725273C2733275A2751276827672670A
:10316000E2675268C268326EA26E126F826F0D61A2
:1031700073002030357106CF16CD1ACB1EC922C779
:103180002AC52EC332C1B6DEBADCBEDAC2D8C6D674
:10319000F2D4F6D2FAD0FECE82E686E48AE28EE05F
:1031A00012FE16FC1AFA1EF82AF62EF432F236F047
:1031B0003AEE3EEC42EA46E872E676E47AE27EE0F7
:1031C000001193055052B747004013850740EF1098
:1031D0003072AA8789CB93055052B74700401385B8
:1031E0000740EF2000010100FA40EA425A43CA4377
:1031F0003A442A459A450A46F6566657D6574658DF
:10320000B658265E965E065FF64F3660A66016617B
:1032100086617272E2725273C2733275A27512764F
:1032200082767267E2675268C268326EA26E126F6F
:10323000826F0D6173002030357106CF16CD1ACB29
:103240001EC922C72AC52EC332C1B6DEBADCBEDA19
:10325000C2D8C6D6F2D4F6D2FAD0FECE82E686E442
:103260008AE28EE012FE16FC1AFA1EF82AF62EF4F6
:1032700032F236F03AEE3EEC42EA46E872E676E4A6
:103280007AE27EE0001193055052B7570040138553
:103290000780EF10F065AA8799CBEFE02FE993053F
:1032A0005052B757004013850780EF10907401000B
:1032B000FA40EA425A43CA433A442A459A450A46E2
:1032C000F6566657D6574658B658265E965E065F3F
:1032D000F64F3660A660166186617272E2725273B2
:1032E000C2733275A275127682767267E26752688F
:1032F000C268326EA26E126F826F0D617300203051
:10330000357106CF16CD1ACB1EC922C72AC52EC3CA
:1033100032C1B6DEBADCBEDAC2D8C6D6F2D4F6D234
:10332000FAD0FECE82E686E48AE28EE012FE16FC39
:103330001AFA1EF82AF62EF432F236F03AEE3EEC85
:1033400042EA46E872E676E47AE27EE0001193050E
:103350005052B7570040138507C0EF107059AA8725
:1033600089CB93055052B7570040138507C0EF1023
:1033700050680100FA40EA425A43CA433A442A4597
:103380009A450A46F6566657D6574658B658265EA8
:10339000965E065FF64F3660A660166186617272B1
:1033A000E2725273C2733275A275127682767267B8
:1033B000E2675268C268326EA26E126F826F0D6150
:1033C00073002030357106CF16CD1ACB1EC922C727
:1033D0002AC52EC332C1B6DEBADCBEDAC2D8C6D622
:1033E000F2D4F6D2FAD0FECE82E686E48AE28EE00D
:1033F00012FE16FC1AFA1EF82AF62EF432F236F0F5
:103400003AEE3EEC42EA46E872E676E47AE27EE0A4
:1034100000119305505237550040EF10704DAA87A8
:1034200081CFB707002083A7C72782979305505203
:1034300037550040EF10F05B0100FA40EA425A4372
:10344000CA433A442A459A450A46F6566657D6571D
:103450004658B658265E965E065FF64F3660A66002
:10346000166186617272E2725273C2733275A2750E
:10347000127682767267E2675268C268326EA26E16
:10348000126F826F0D6173002030357106CF16CD3B
:103490001ACB1EC922C72AC52EC332C1B6DEBADC7A
:1034A000BEDAC2D8C6D6F2D4F6D2FAD0FECE82E6C2
:1034B00086E48AE28EE012FE16FC1AFA1EF82AF65C
:1034C0002EF432F236F03AEE3EEC42EA46E872E68C
:1034D00076E47AE27EE0001193055052B72700406F
:1034E00013850780EF10D040AA8789CB93055052EF
:1034F000B727004013850780EF10B04F0100FA4056
:10350000EA425A43CA433A442A459A450A46F6567D
:103510006657D6574658B658265E965E065FF64FF3
:103520003660A660166186617272E2725273C2736F
:103530003275A275127682767267E2675268C26847
:10354000326EA26E126F826F0D6173002030357182
:1035500006CF16CD1ACB1EC922C72AC52EC332C12B
:10356000B6DEBADCBEDAC2D8C6D6F2D4F6D2FAD00B
:10357000FECE82E686E48AE28EE012FE16FC1AFA9D
:103580001EF82AF62EF432F236F03AEE3EEC42EA1B
:1035900046E872E676E47AE27EE000119305505246
:1035A000B7270040138507C0EF109034AA8781CF5A
:1035B00083A7C180829793055052B7270040138597
:1035C00007C0EF1010430100FA40EA425A43CA43D1
:1035D0003A442A459A450A46F6566657D6574658FB
:1035E000B658265E965E065FF64F3660A660166198
:1035F00086617272E2725273C2733275A27512766C
:1036000082767267E2675268C268326EA26E126F8B
:10361000826F0D6173002030357106CF16CD1ACB45
:103620001EC922C72AC52EC332C1B6DEBADCBEDA35
:10363000C2D8C6D6F2D4F6D2FAD0FECE82E686E45E
:103640008AE28EE012FE16FC1AFA1EF82AF62EF412
:1036500032F236F03AEE3EEC42EA46E872E676E4C2
:103660007AE27EE000119305505237250040EF10BA
:103670003028AA8789CBEFD03F9193055052372548
:103680000040EF1010370100FA40EA425A43CA43A3
:103690003A442A459A450A46F6566657D65746583A
:1036A000B658265E965E065FF64F3660A6601661D7
:1036B00086617272E2725273C2733275A2751276AB
:1036C00082767267E2675268C268326EA26E126FCB
:1036D000826F0D6173002030357106CF16CD1ACB85
:1036E0001EC922C72AC52EC332C1B6DEBADCBEDA75
:1036F000C2D8C6D6F2D4F6D2FAD0FECE82E686E49E
:103700008AE28EE012FE16FC1AFA1EF82AF62EF451
:1037100032F236F03AEE3EEC42EA46E872E676E401
:103720007AE27EE00011B707055083C7070193F7DF
:10373000F70F918B8DC383A781808297B7070550C0
:1037400083C7070113F7F70FB70705506D9B137772
:10375000F70F2388E7000100FA40EA425A43CA43C0
:103760003A442A459A450A46F6566657D657465869
:10377000B658265E965E065FF64F3660A660166106
:1037800086617272E2725273C2733275A2751276DA
:1037900082767267E2675268C268326EA26E126FFA
:1037A000826F0D6173002030357106CF16CD1ACBB4
:1037B0001EC922C72AC52EC332C1B6DEBADCBEDAA4
:1037C000C2D8C6D6F2D4F6D2FAD0FECE82E686E4CD
:1037D0008AE28EE012FE16FC1AFA1EF82AF62EF481
:1037E00032F236F03AEE3EEC42EA46E872E676E431
:1037F0007AE27EE000110545EF0050662A87854792
:103800006315F7000545EF00D06A0100FA40EA426F
:103810005A43CA433A442A459A450A46F6566657D9
:10382000D6574658B658265E965E065FF64F366007
:10383000A660166186617272E2725273C27332754B
:10384000A275127682767267E2675268C268326E3B
:10385000A26E126F826F0D6173002030357106CF3A
:1038600016CD1ACB1EC922C72AC52EC332C1B6DE59
:10387000BADCBEDAC2D8C6D6F2D4F6D2FAD0FECEC0
:1038800082E686E48AE28EE012FE16FC1AFA1EF840
:103890002AF62EF432F236F03AEE3EEC42EA46E8F0
:1038A00072E676E47AE27EE000110945EF00105BF3
:1038B0002A8785476315F7000945EF00905F0100EF
:1038C000FA40EA425A43CA433A442A459A450A46CC
:1038D000F6566657D6574658B658265E965E065F29
:1038E000F64F3660A660166186617272E27252739C
:1038F000C2733275A275127682767267E267526879
:10390000C268326EA26E126F826F0D61730020303A
:10391000357106CF16CD1ACB1EC922C72AC52EC3B4
:1039200032C1B6DEBADCBEDAC2D8C6D6F2D4F6D21E
:10393000FAD0FECE82E686E48AE28EE012FE16FC23
:103940001AFA1EF82AF62EF432F236F03AEE3EEC6F
:1039500042EA46E872E676E47AE27EE0001111453A
:10396000EF00D04F2A8785476315F7001145EF0018
:1039700050540100FA40EA425A43CA433A442A45A5
:103980009A450A46F6566657D6574658B658265EA2
:10399000965E065FF64F3660A660166186617272AB
:1039A000E2725273C2733275A275127682767267B2
:1039B000E2675268C268326EA26E126F826F0D614A
:1039C00073002030357106CF16CD1ACB1EC922C721
:1039D0002AC52EC332C1B6DEBADCBEDAC2D8C6D61C
:1039E000F2D4F6D2FAD0FECE82E686E48AE28EE007
:1039F00012FE16FC1AFA1EF82AF62EF432F236F0EF
:103A00003AEE3EEC42EA46E872E676E47AE27EE09E
:103A100000112145EF0090442A8785476315F70080
:103A20002145EF0010490100FA40EA425A43CA43D7
:103A30003A442A459A450A46F6566657D657465896
:103A4000B658265E965E065FF64F3660A660166133
:103A500086617272E2725273C2733275A275127607
:103A600082767267E2675268C268326EA26E126F27
:103A7000826F0D6173002030357106CF16CD1ACBE1
:103A80001EC922C72AC52EC332C1B6DEBADCBEDAD1
:103A9000C2D8C6D6F2D4F6D2FAD0FECE82E686E4FA
:103AA0008AE28EE012FE16FC1AFA1EF82AF62EF4AE
:103AB00032F236F03AEE3EEC42EA46E872E676E45E
:103AC0007AE27EE000114145EF0050392A878547B0
:103AD0006315F7004145EF00D03D0100FA40EA428E
:103AE0005A43CA433A442A459A450A46F656665707
:103AF000D6574658B658265E965E065FF64F366035
:103B0000A660166186617272E2725273C273327578
:103B1000A275127682767267E2675268C268326E68
:103B2000A26E126F826F0D6173002030357106CF67
:103B300016CD1ACB1EC922C72AC52EC332C1B6DE86
:103B4000BADCBEDAC2D8C6D6F2D4F6D2FAD0FECEED
:103B500082E686E48AE28EE012FE16FC1AFA1EF86D
:103B60002AF62EF432F236F03AEE3EEC42EA46E81D
:103B700072E676E47AE27EE0001113050002EF00BF
:103B8000F02D2A8785476316F70013050002EF0022
:103B9000503213050004EF00702C2A878547631606
:103BA000F70013050004EF00D03013050008EF0004
:103BB000F02A2A8785476316F70013050008EF00EF
:103BC000502F13050010EF0070292A8785476316D0
:103BD000F70013050010EF00D02D13050020EF00B3
:103BE000F0272A8785476316F70013050020EF00AA
:103BF000502C0100FA40EA425A43CA433A442A454B
:103C00009A450A46F6566657D6574658B658265E1F
:103C1000965E065FF64F3660A66016618661727228
:103C2000E2725273C2733275A2751276827672672F
:103C3000E2675268C268326EA26E126F826F0D61C7
:103C400073002030357106CF16CD1ACB1EC922C79E
:103C50002AC52EC332C1B6DEBADCBEDAC2D8C6D699
:103C6000F2D4F6D2FAD0FECE82E686E48AE28EE084
:103C700012FE16FC1AFA1EF82AF62EF432F236F06C
:103C80003AEE3EEC42EA46E872E676E47AE27EE01C
:103C9000001113050040EF00701C2A87854763164A
:103CA000F70013050040EF00D020856713850780DB
:103CB000EF00D01A2A8785476317F70085671385B9
:103CC0000780EF00101F0565EF0050192A87854710
:103CD0006315F7000565EF00D01D0965EF001018AA
:103CE0002A8785476318F70083A7018182970965B2
:103CF000EF00301C1165EF0070162A8785476317A7
:103D0000F700EFD04FA51165EF00B01A2165EF0065
:103D1000F0142A8785476317F700EFD06F94216569
:103D2000EF0030190100FA40EA425A43CA433A44CC
:103D30002A459A450A46F6566657D6574658B65803
:103D4000265E965E065FF64F3660A6601661866157
:103D50007272E2725273C2733275A27512768276F3
:103D60007267E2675268C268326EA26E126F826F2B
:103D70000D6173002030357106CF16CD1ACB1EC9E8
:103D800022C72AC52EC332C1B6DEBADCBEDAC2D81B
:103D9000C6D6F2D4F6D2FAD0FECE82E686E48AE225
:103DA0008EE012FE16FC1AFA1EF82AF62EF432F2F3
:103DB00036F03AEE3EEC42EA46E872E676E47AE223
:103DC0007EE000118545B7370140138507C0EF003D
:103DD000906BAA8781CB8545B7370140138507C013
:103DE000EF0070710100FA40EA425A43CA433A4474
:103DF0002A459A450A46F6566657D6574658B65843
:103E0000265E965E065FF64F3660A6601661866196
:103E10007272E2725273C2733275A2751276827632
:103E20007267E2675268C268326EA26E126F826F6A
:103E30000D6173002030357106CF16CD1ACB1EC927
:103E400022C72AC52EC332C1B6DEBADCBEDAC2D85A
:103E5000C6D6F2D4F6D2FAD0FECE82E686E48AE264
:103E60008EE012FE16FC1AFA1EF82AF62EF432F232
:103E700036F03AEE3EEC42EA46E872E676E47AE262
:103E80007EE00011854537050040EF00D05FAA872E
:103E900091C7854537050040EF00F0650100FA4005
:103EA000EA425A43CA433A442A459A450A46F656D4
:103EB0006657D6574658B658265E965E065FF64F4A
:103EC0003660A660166186617272E2725273C273C6
:103ED0003275A275127682767267E2675268C2689E
:103EE000326EA26E126F826F0D61730020303571D9
:103EF00006CF16CD1ACB1EC922C72AC52EC332C182
:103F0000B6DEBADCBEDAC2D8C6D6F2D4F6D2FAD061
:103F1000FECE82E686E48AE28EE012FE16FC1AFAF3
:103F20001EF82AF62EF432F236F03AEE3EEC42EA71
:103F300046E872E676E47AE27EE000118545B7074E
:103F4000004013850740EF001054AA8781CB8545B8
:103F5000B707004013850740EF00F0590100FA4011
:103F6000EA425A43CA433A442A459A450A46F65613
:103F70006657D6574658B658265E965E065FF64F89
:103F80003660A660166186617272E2725273C27305
:103F90003275A275127682767267E2675268C268DD
:103FA000326EA26E126F826F0D6173002030357118
:103FB00006CF16CD1ACB1EC922C72AC52EC332C1C1
:103FC000B6DEBADCBEDAC2D8C6D6F2D4F6D2FAD0A1
:103FD000FECE82E686E48AE28EE012FE16FC1AFA33
:103FE0001EF82AF62EF432F236F03AEE3EEC42EAB1
:103FF00046E872E676E47AE27EE000118545B7177E
:10400000004013850780EF001048AA8781CB8545C3
:10401000B717004013850780EF00F04D0100FA400C
:10402000EA425A43CA433A442A459A450A46F65652
:104030006657D6574658B658265E965E065FF64FC8
:104040003660A660166186617272E2725273C27344
:104050003275A275127682767267E2675268C2681C
:10406000326EA26E126F826F0D6173002030357157
:1040700006CF16CD1ACB1EC922C72AC52EC332C100
:10408000B6DEBADCBEDAC2D8C6D6F2D4F6D2FAD0E0
:10409000FECE82E686E48AE28EE012FE16FC1AFA72
:1040A0001EF82AF62EF432F236F03AEE3EEC42EAF0
:1040B00046E872E676E47AE27EE000118545B717BD
:1040C0000040138507C0EF00103CAA8781CB8545CF
:1040D000B7170040138507C0EF00F0410100FA4018
:1040E000EA425A43CA433A442A459A450A46F65692
:1040F0006657D6574658B658265E965E065FF64F08
:104100003660A660166186617272E2725273C27383
:104110003275A275127682767267E2675268C2685B
:10412000326EA26E126F826F0D6173002030357196
:1041300006CF16CD1ACB1EC922C72AC52EC332C13F
:10414000B6DEBADCBEDAC2D8C6D6F2D4F6D2FAD01F
:10415000FECE82E686E48AE28EE012FE16FC1AFAB1
:104160001EF82AF62EF432F236F03AEE3EEC42EA2F
:1041700046E872E676E47AE27EE00011854537157E
:104180000040EF005030AA8791C7854537150040A1
:10419000EF0070360100FA40EA425A43CA433A44FB
:1041A0002A459A450A46F6566657D6574658B6588F
:1041B000265E965E065FF64F3660A66016618661E3
:1041C0007272E2725273C2733275A275127682767F
:1041D0007267E2675268C268326EA26E126F826FB7
:1041E0000D6173002030357106CF16CD1ACB1EC974
:1041F00022C72AC52EC332C1B6DEBADCBEDAC2D8A7
:10420000C6D6F2D4F6D2FAD0FECE82E686E48AE2B0
:104210008EE012FE16FC1AFA1EF82AF62EF432F27E
:1042200036F03AEE3EEC42EA46E872E676E47AE2AE
:104230007EE000118545B717004013850740EF0069
:104240009024AA8781CB8545B71700401385074086
:10425000EF00702A0100FA40EA425A43CA433A4446
:104260002A459A450A46F6566657D6574658B658CE
:10427000265E965E065FF64F3660A6601661866122
:104280007272E2725273C2733275A27512768276BE
:104290007267E2675268C268326EA26E126F826FF6
:1042A0000D6173002030357106CF16CD1ACB1EC9B3
:1042B00022C72AC52EC332C1B6DEBADCBEDAC2D8E6
:1042C000C6D6F2D4F6D2FAD0FECE82E686E48AE2F0
:1042D0008EE012FE16FC1AFA1EF82AF62EF432F2BE
:1042E00036F03AEE3EEC42EA46E872E676E47AE2EE
:1042F0007EE000118545B737014013850740EF0088
:104300009018AA8781CB8545B737014013850740B0
:10431000EF00701E0100FA40EA425A43CA433A4491
:104320002A459A450A46F6566657D6574658B6580D
:10433000265E965E065FF64F3660A6601661866161
:104340007272E2725273C2733275A27512768276FD
:104350007267E2675268C268326EA26E126F826F35
:104360000D6173002030357106CF16CD1ACB1EC9F2
:1043700022C72AC52EC332C1B6DEBADCBEDAC2D825
:10438000C6D6F2D4F6D2FAD0FECE82E686E48AE22F
:104390008EE012FE16FC1AFA1EF82AF62EF432F2FD
:1043A00036F03AEE3EEC42EA46E872E676E47AE22D
:1043B0007EE000118545B7570140138507C0EF0027
:1043C000900CAA8781CB8545B7570140138507C05C
:1043D000EF0070120100FA40EA425A43CA433A44DD
:1043E0002A459A450A46F6566657D6574658B6584D
:1043F000265E965E065FF64F3660A66016618661A1
:104400007272E2725273C2733275A275127682763C
:104410007267E2675268C268326EA26E126F826F74
:104420000D6173002030357106CF16CD1ACB1EC931
:1044300022C72AC52EC332C1B6DEBADCBEDAC2D864
:10444000C6D6F2D4F6D2FAD0FECE82E686E48AE26E
:104450008EE012FE16FC1AFA1EF82AF62EF432F23C
:1044600036F03AEE3EEC42EA46E872E676E47AE26C
:104470007EE00011854537550140EF00D000AA8746
:1044800091C7854537550140EF00F0060100FA401D
:10449000EA425A43CA433A442A459A450A46F656DE
:1044A0006657D6574658B658265E965E065FF64F54
:1044B0003660A660166186617272E2725273C273D0
:1044C0003275A275127682767267E2675268C268A8
:1044D000326EA26E126F826F0D6173002030411137
:1044E00022C600080100324441017300203041110E
:1044F00022C6000801A0411106C622C40008B71751
:104500002707138507E0EFC01FE4EFD0CFE1EF10DE
:10451000D038EF10303BF5BF01A001A001A001A0F1
:1045200001A001A001A001A001A001A001A001A083
:1045300001A001A001A001A001A001A001A001A073
:1045400001A001A001A001A001A001A001A001A063
:1045500001A001A001A001A001A001A001A001A053
:1045600001A001A001A001A001A001A001A001A043
:1045700001A001A001A001A001A001A001A001A033
:1045800001A001A001A001A001A001A001A001A023
:1045900001A001A001A001A001A001A001A001A013
:1045A00001A001A001A001A001A001A001A001A003
:1045B00001A001A001A001A001A001A001A001A0F3
:1045C00001A001A001A001A001A001A001A001A0E3
:1045D00001A001A001A097C1FF1F9381214A17B13B
:1045E000002013012166178500001305652797C574
:1045F000FF1F938525A51386018463FAC5008322D6
:10460000050023A0550011059105E3EAC5FE1385B9
:104610000184938581AC6377B500232005001105E3
:10462000E36DB5FEFD42739002BCFD427390428083
:10463000B76200009382820873A0023097C2FFFF26
:104640009382C29F93E2320073905230970200002F
:104650009382A2EA7390123473002030797122D6CB
:104660000018232EA4FC232604FE232404FEB707EF
:104670000140938707409C430327C4FDF98F2324FF
:10468000F4FEB707014093870740D84B8327C4FD4A
:10469000F98F81CB832784FE89C785472326F4FEC3
:1046A00019A0232604FE8327C4FE3E8532544561AB
:1046B0008280011122CE00102326A4FEB7070140FC
:1046C000938707400327C4FED8CB010072440561DD
:1046D0008280397122DE80002326A4FC2324B4FCCE
:1046E000232604FE232004FE232404FE232E04FCA0
:1046F000232204FE232C04FC832784FC9C47BD8BCF
:104700002326F4FE832784FC9C47C18B89CB832717
:1047100084FCDC430327C4FED98F2326F4FE8327C1
:1047200084FC83D7070093F7F70FF1CF8327C4FCEE
:104730009C432322F4FE232404FE65A8832784FEE1
:104740000547B317F700232EF4FC832784FC83D797
:1047500007003E878327C4FDF98F2320F4FE03273B
:1047600004FE8327C4FD6311F708832784FE8A07AC
:10477000232EF4FC8327C4FD3D47B317F700232CF9
:10478000F4FC832784FD93C7F7FF032744FEF98FCA
:104790002322F4FE8327C4FD0327C4FEB317F700CA
:1047A000032744FED98F2322F4FE832784FC9847F5
:1047B00093078002631BF700832784FE05473317A6
:1047C000F7008327C4FCD8CB05A0832784FC984737
:1047D00093078004631AF700832784FE0547331785
:1047E000F7008327C4FC98CB832784FE8507232406
:1047F000F4FE032784FE9D47E3F2E7F48327C4FC1D
:10480000032744FE98C3832784FC03D7070093073C
:10481000F00F63F1E70E8327C4FCDC432322F4FE90
:10482000232404FE75A8832784FEA1070547B31738
:10483000F700232EF4FC832784FC83D707003E87F0
:104840008327C4FDF98F2320F4FE032704FE83276A
:10485000C4FD6312F708832784FE8A07232EF4FC25
:104860008327C4FD3D47B317F700232CF4FC8327AF
:1048700084FD93C7F7FF032744FEF98F2322F4FE3C
:104880008327C4FD0327C4FEB317F700032744FEA4
:10489000D98F2322F4FE832784FC98479307800254
:1048A000631BF700832784FEA10705473317F70032
:1048B0008327C4FCD8CB832784FC984793078004C4
:1048C000631BF700832784FEA10705473317F70012
:1048D0008327C4FC98CB832784FE85072324F4FE1A
:1048E000032784FE9D47E3F0E7F48327C4FC0327F6
:1048F00044FED8C30100725421618280011122CE8E
:1049000000102326A4FEAE872322C4FE2315F4FE46
:10491000832744FE99C70357A4FE8327C4FE98CB80
:1049200031A00357A4FE8327C4FED8CB01007244F4
:1049300005618280397122DE80002326A4FC2322B7
:1049400004FE232604FE232004FE232E04FC23243D
:1049500004FEB7170240DC43B18B2322F4FE032789
:1049600044FE91476303F702032744FEA147630611
:10497000F702832744FE639907148327C4FC371783
:104980007A001307072098C389AA8327C4FC371726
:104990007A001307072098C389A2B7170240D843AB
:1049A000B7073C00F98F2326F4FEB7170240D8431F
:1049B000C167F98F2320F4FE8327C4FEC9838907CA
:1049C0002326F4FEB7F7FF1F9387C77098439167BC
:1049D000F98F91EB0327C4FEC5476319F704C94754
:1049E0002326F4FEA1A00327C4FE89476315F70020
:1049F000C9472326F4FE0327C4FEBD476318F7000A
:104A0000B5472326F4FE85472324F4FE0327C4FE7E
:104A1000C1476315F700BD472326F4FE0327C4FEF4
:104A2000C5476315F700C1472326F4FE832704FE1C
:104A3000A1E3B7470240938707809C43C18B89CF8E
:104A40000327C4FEB7177A00938707203307F702BE
:104A50008327C4FC98C399A80327C4FEB7173D0059
:104A6000938707903307F7028327C4FC98C33DA8B8
:104A7000B7170240D843B7070200F98F89CF032741
:104A8000C4FEB7173D00938707903307F7028327CB
:104A9000C4FC98C321A80327C4FEB7177A009387E4
:104AA00007203307F7028327C4FC98C3032784FE3B
:104AB00085476313F7028327C4FC9C4313D7170071
:104AC0008327C4FC98C309A88327C4FC37177A003E
:104AD0001307072098C311A00100B7170240DC4359
:104AE00093F7070F2322F4FE832744FE91832322AA
:104AF000F4FEB707002013874705832744FEBA97C3
:104B000083C7070093F7F70F232EF4FC8327C4FC19
:104B100098438327C4FD3357F7008327C4FCD8C3C9
:104B2000B7170240DC4393F707702322F4FE832774
:104B300044FEA1832322F4FEB70700201387470514
:104B4000832744FEBA9783C7070093F7F70F232EF6
:104B5000F4FC8327C4FCD8438327C4FD3357F700F4
:104B60008327C4FC98C7B7170240D843916793873F
:104B70000780F98F2322F4FE832744FEAD8323228E
:104B8000F4FEB707002013874705832744FEBA9732
:104B900083C7070093F7F70F232EF4FC8327C4FC89
:104BA000D8438327C4FD3357F7008327C4FCD8C7F5
:104BB000B7170240D843B167F98F2322F4FE832749
:104BC00044FEB9832322F4FE1387C181832744FE68
:104BD000BA9783C7070093F7F70F232EF4FC8327B8
:104BE000C4FCD8478327C4FD3357F7028327C4FC8E
:104BF00098CB0100725421618280011122CE0010F5
:104C00002326A4FE2324B4FE832784FE99CBB71762
:104C10000240944FB71702400327C4FE558F98CF28
:104C200021A8B7170240944F8327C4FE13C7F7FF8C
:104C3000B7170240758F98CF0100724405618280DA
:104C4000011122CE00102326A4FE2324B4FE8327C4
:104C500084FE99CBB7170240D44FB7170240032701
:104C6000C4FE558FD8CF21A8B7170240D44F832751
:104C7000C4FE13C7F7FFB7170240758FD8CF0100E6
:104C8000724405618280797122D60018232EA4FC1B
:104C9000AE87231DF4FC232604FE231504FE2314F3
:104CA00004FE8327C4FD83D70701139707014183BF
:104CB0008357A4FDF98F2315F4FE8327C4FD83D702
:104CC000C7001397070141838357A4FDF98F23146D
:104CD000F4FE8357A4FE81CB835784FE89C78547A2
:104CE0002326F4FE19A0232604FE8327C4FE3E8556
:104CF000325445618280011122CE00102326A4FE89
:104D0000AE872315F4FE8357A4FE93C7F7FF1397CE
:104D1000070141838327C4FE2398E7000100724402
:104D2000056182805D7186C6A2C48008232EA4FA24
:104D3000232CB4FA232604FE232404FE232204FE9B
:104D4000232004FE232E04FC8327C4FB232EF4FC23
:104D50008327C4FB83D70701C207C1832326F4FE40
:104D60000327C4FEB567FD17F98F2326F4FE8327BA
:104D700084FB83D767003E878327C4FED98F232611
:104D8000F4FE8327C4FE1397070141838327C4FBE6
:104D90002398E7008327C4FB83D7C700C207C183DA
:104DA0002326F4FE0327C4FEBD679387379FF98F40
:104DB0002326F4FE832784FB03D74700832784FB45
:104DC00083D78700D98F139707014183832784FBFB
:104DD00083D7A700D98FC207C1833E878327C4FE2C
:104DE000D98F2326F4FE8327C4FE1397070141833E
:104DF0008327C4FB2396E7008327C4FB83D747019F
:104E0000C207C1832326F4FE0327C4FEC16793872C
:104E1000F7CFF98F2326F4FE832784FB83D7C700BF
:104E20003E878327C4FED98F2326F4FE8327C4FE42
:104E30001397070141838327C4FB239AE700930755
:104E400084FC3E85EFF01FAF0327C4FDB747014048
:104E5000938707806317F700832744FD2324F4FE1C
:104E600029A0832704FD2324F4FE8327C4FB83D7D2
:104E7000C700C207C183C207C18763D207020327E5
:104E800084FEBA878607BA978E073E97832784FBEE
:104E90009C438607B357F7022322F4FE05A003279D
:104EA00084FEBA878607BA978E073E97832784FBCE
:104EB0009C438A07B357F7022322F4FE032744FEDC
:104EC00093074006B357F70292072326F4FE832781
:104ED000C4FE13D7470093074006B307F702032722
:104EE00044FEB307F7402320F4FE8327C4FB83D797
:104EF000C700C207C183C207C18763D207028327E5
:104F000004FE8E071387270393074006B357F70263
:104F10009D8B0327C4FED98F2326F4FE05A083278B
:104F200004FE92071387270393074006B357F7023F
:104F3000BD8B0327C4FED98F2326F4FE8327C4FE2E
:104F40001397070141838327C4FB2394E7000100E3
:104F5000B640264461618280011122CE00102326D2
:104F6000A4FE2324B4FE832784FE95C38327C4FEB6
:104F700083D7C7001397070141838967D98F139798
:104F8000070141838327C4FE2396E70015A08327EA
:104F9000C4FE83D7C700139707014183F977FD1734
:104FA000F98F1397070141838327C4FE2396E700F7
:104FB0000100724405618280797122D60018232E87
:104FC000A4FCAE87232AC4FC231DF4FC232404FE86
:104FD000232204FE232004FE232604FE8327C4FD8F
:104FE0002326F4FE8357A4FD93F7F70F958393F7D9
:104FF000F70F2324F4FE8357A4FDFD8B2322F4FE38
:10500000832744FE0547B317F7002320F4FE032748
:1050100084FE85476318F7008327C4FEB107232663
:10502000F4FE0DA0032784FE89476318F700832749
:10503000C4FEC1072326F4FE31A08327C4FED10796
:105040002326F4FE832744FD99CB8327C4FE944393
:105050008327C4FE032704FE558F98C321A8832706
:10506000C4FE9443832704FE13C7F7FF8327C4FEBF
:10507000758F98C30100325445618280011122CEA0
:1050800000102326A4FEAE872315F4FE8357A4FE4A
:1050900093F7F71F1397070141838327C4FE2392D9
:1050A000E7000100724405618280797122D6001800
:1050B000232EA4FCAE87231DF4FC232604FE8327A5
:1050C000C4FD83D707001397070141838357A4FDCD
:1050D000F98FC207C18389C785472326F4FE19A02B
:1050E000232604FE8327C4FE3E8532544561828018
:1050F000797122D60018232EA4FCAE87231DF4FC60
:10510000232204FE232604FE232004FE232404FE7F
:105110008357A4FD93F7F70F958393F7F70F232099
:10512000F4FE8357A4FDFD8B2326F4FE8327C4FEE3
:105130000547B317F7002326F4FE032704FE85472F
:10514000631FF7008327C4FD83D7C700C207C1834D
:105150003E878327C4FEF98F2326F4FE3DA803274C
:1051600004FE8947631FF7008327C4FD83D7070127
:10517000C207C1833E878327C4FEF98F2326F4FE2E
:1051800029A88327C4FD83D74701C207C1833E876F
:105190008327C4FEF98F2326F4FE8357A4FDA18341
:1051A000C207C1832322F4FE832744FE0547B317B9
:1051B000F7002322F4FE8327C4FD83D70700C2072C
:1051C000C1833E87832744FEF98F2322F4FE832781
:1051D000C4FE81CB832744FE89C785472324F4FE80
:1051E00019A0232404FE832784FE3E8532544561A2
:1051F0008280797122D60018232EA4FCAE87231D4D
:10520000F4FC231704FE231604FE8357A4FDA18398
:105210002317F4FE8357E4FE0547B317F700231660
:10522000F4FE8357C4FE93C7F7FF1397070141832A
:105230008327C4FD2390E70001003254456182803A
:10524000011122CE0010AA87A307F4FEB707005071
:105250000347F4FE42074183239AE702B707005051
:1052600083C7670313F7F70FB7070050719B1377D6
:10527000F70F238BE7020100724405618280011160
:1052800022CE0010AA87A307F4FEB70700500347F9
:10529000F4FE42074183239CE702B707005083C70F
:1052A000A70313F7F70FB7070050719B1377F70F9A
:1052B000238DE7020100724405618280797106D670
:1052C00022D40018AA87A30FF4FCA30704FE15A894
:1052D00003A701878347F4FEBA9703C7070083A695
:1052E00001878347F4FE93870704B6971347F7FFB8
:1052F0001377F70F2380E7008347F4FE8507A307A2
:10530000F4FE0347F4FE8347F4FDE363F7FC8347B1
:10531000F4FD3E8535370100B2502254456182804C
:10532000797106D622D40018AA87A30FF4FCA3072C
:1053300004FE15A803A741878347F4FEBA9703C765
:10534000070083A641878347F4FE93870704B69737
:105350001347F7FF1377F70F2380E7008347F4FE27
:105360008507A307F4FE0347F4FE8347F4FDE363D8
:10537000F7FC8347F4FD3E8519370100B2502254F3
:1053800045618280717106D716D51AD31ED122CFFE
:105390002ACD2ECB32C936C73AC53EC342C1C6DE7E
:1053A000F2DCF6DAFAD8FED682EE86EC8AEA8EE8ED
:1053B00092E696E49AE29EE02AFE2EFC32FA36F855
:1053C0003AF63EF442F246F072EE76EC7AEA7EE885
:1053D0000019230F04F4B707005083C76700A30E1A
:1053E000F4F48347D4F5898BE38A073CB707005070
:1053F00083C7770093F7F70F93F707034147E384D9
:10540000E73A41476346F700E38E07206F00F03923
:1054100013070002E386E70413070003E397E73866
:10542000B707005019472389E702B7070050114713
:10543000A389E70283A7C18603C7670083C77700F4
:10544000A207D98F1397070141832391E18883A78E
:10545000C18603C717002380E18883A7C18683C75D
:105460000700230EF4F4A30F04F4230F04F483A71E
:10547000C18683C7070093F70706638B071283C7AC
:10548000018893F7F70F93F70702D5C383C7018805
:1054900093F7F70F13071002638BE700130720023F
:1054A0006389E708130700026387E708ADA813873D
:1054B000418223ACE1869D47A30FF4F483D7218872
:1054C0001397070141839D4763E9E70083D721884C
:1054D000C207C18393F7F70F11A0A147A30FF4F4FC
:1054E00003A7C18683A781878346F4F53686BE85E8
:1054F0003A85EF30205383D72188139707014183E2
:105500008347F4F5C207C183B307F7401397070138
:1055100041832391E18803A781878347F4F53E9770
:1055200023ACE18611A8FD57230FF4F431A001004C
:1055300021A0010011A001000347E4F59307F00F3B
:105540006303F7688347F4F513970701418383D713
:105550002188C207C1836379F7008347F4F5139765
:10556000070141832391E18883D7C18713970701FE
:1055700041839D4763E9E70083D7C187C207C183A1
:1055800093F7F70F11A0A147A30FF4F483A7818726
:105590000347F4F53A86BE8513854186EF3080488F
:1055A00003A781878347F4F53E9723ACE18621ADBD
:1055B00083C7018893F7F70F2D47636BF75E139747
:1055C0002700B1679387C72FBA979C43828783A729
:1055D000C18603C7270083C73700A207D98FC20738
:1055E000C183A183C207C183130720026365F71239
:1055F00013972700B1679387C732BA979C43828776
:1056000031671307072523ACE186C947A30FF4F4DC
:1056100039A231671307472623ACE186930730048C
:10562000A30FF4F4EDA883A7C18603C7270083C79F
:105630003700A207D98FC207C18393F7F70F054739
:105640006386E70205476344F70089CB99A80947B9
:105650006387E7020D47638DE702A1A0138781836B
:1056600023ACE1869147A30FF4F481A031671307BF
:10567000C72B23ACE186B947A30FF4F43DA03167F3
:105680001307C72C23ACE186B147A30FF4F431A86C
:1056900031671307872D23ACE186D947A30FF4F4B4
:1056A00029A0FD57230FF4F4010095A831671307D3
:1056B000872A23ACE186D147A30FF4F48DA031678C
:1056C0001307072F23ACE186A947A30FF4F481A8A1
:1056D00083C7018293F7F70F9DE713061004B167A4
:1056E00093856726B707002013856706EF30803360
:1056F000370700201307470623ACE18693073004E1
:10570000A30FF4F429A8FD57230FF4F409A8FD57BB
:10571000230FF4F429A0FD57230FF4F4010083476D
:10572000F4F513970701418383D72188C207C1830A
:105730006379F7008347F4F51397070141832391B9
:10574000E18883D721881397070141839D4763E947
:10575000E70083D72188C207C18393F7F70F11A011
:10576000A147A30FF4F403A7C18683A781878346CB
:10577000F4F53686BE853A85EF30C02A03A78187C7
:105780008347F4F53E9723ACE18635A983A7C1860C
:1057900003C7270083C73700A207D98FC207C18379
:1057A00093F7F70F1397070141832391E18821A90C
:1057B00083A7C18603C7F1871377F70F2380E7001C
:1057C00083D72188139707014183854763F6E73E16
:1057D00005472391E188CDA683A7C18603C727008B
:1057E00083C73700A207D98FC207C18313F7F70F0A
:1057F000A38FE186C9AE83A7C18683C7070013F7CD
:10580000F7018947631FF70C83A7C18603C74700C9
:1058100083C75700A207D98FC207C18393F7F70F39
:1058200009476388E70409476346F700054763872C
:10583000E7085DA013071008638BE704130720082F
:10584000639CE708B707005083C7A70393F7F70FD8
:10585000E207E187E19BE207E18793E727001397DF
:1058600087016187B70700501377F70F238DE70291
:10587000ADA8B707005083C7B70313F7F70FB707F3
:105880000050619B1377F70FA38DE702B9A8B70704
:10589000005083C7670393F7F70FE207E187E19BA7
:1058A000E207E18793E72700139787016187B7072E
:1058B00000501377F70F238BE70205A8B7070050B6
:1058C00083C7770313F7F70FB7070050619B137770
:1058D000F70FA38BE70211A8FD57230FF4F4010083
:1058E00029A0FD57230FF4F4F9ACF1AC938741865E
:1058F00083C70700FD8BA1E39387418603C7270079
:1059000083C73700A207D98F1397070141838547C3
:10591000631FF7009307000A93F7070289C705473B
:10592000238FE1864DA4FD57230FF4F469ACFD5796
:10593000230FF4F449AC9387418683C7070013F71C
:10594000F7018947631CF7109387418603C7270037
:1059500083C73700A207D98FC207C183E5EF9387BA
:10596000418603C7470083C75700A207D98FC207E4
:10597000C18393F7F70F09476387E7040947634635
:10598000F7000547638DE708C9A013071008638275
:10599000E70613072008639AE70AB707005083C792
:1059A000A70393F7F70F37070050F19B93F7F70F13
:1059B000230DF7023707005093E7370093F7F70FEF
:1059C000230DF70245A0B707005083C7B70393F72D
:1059D000F70F37070050F19B93F7F70FA30DF7026E
:1059E0003707005093E7370093F7F70FA30DF7023F
:1059F00095A8B707005083C7670393F7F70F3707DA
:105A00000050F19B93F7F70F230BF7023707005075
:105A100093E7370093F7F70F230BF702A1A0B7071F
:105A2000005083C7770393F7F70F37070050F19BB8
:105A300093F7F70FA30BF7023707005093E73700F0
:105A400093F7F70FA30BF70231A8FD57230FF4F4D8
:105A5000010009A8FD57230FF4F4B5A2FD57230F49
:105A6000F4F495A28DA283A7C1862380070083D773
:105A70002188139707014183854763F1E7140547A0
:105A80002391E18825AA2382018683D7C1871397B2
:105A900007014183854763F5E7120547239EE186A9
:105AA00005A22382018693874186A38007009387FE
:105AB000418603C7470083C75700A207D98F1397B2
:105AC00007014183930710086311F702B7070050DD
:105AD00083C7670393F7F70F13F737008D47631DED
