:100000006F700038130000001300000013000000A0
:100010001300000013000000130000001300000094
:100020001300000013000000130000001300000084
:08003000130000007300100032
:100038000000000000000000D06F0000E06F00002A
:1000480000000000C6720000000000000000000070
:10005800C8720000CA720000000000000000000022
:10006800CC72000000000000CE720000000000000A
:10007800D0720000D2720000D4720000D672000064
:10008800D8720000DA720000866200003A6300004D
:10009800EE630000A264000056650000E6720000EE
:1000A800E8720000EA720000EC720000EE720000D4
:1000B800F0720000F2720000F4720000F6720000A4
:1000C800F8720000FA720000FC7200000A66000074
:1000D80000730000626800000473000006730000EB
:1000E80022690000E0690000A06A00000E730000A9
:1000F80010730000127300001473000016730000E0
:1001080018730000925B0000565C00001A5D000046
:100118002867000022730000247300002673000083
:10012800986D00002A7300002C7300002E730000E5
:100138003073000032730000606B000036730000FB
:10014800E25D0000A65E0000206C0000D86C000094
:1001580040730000427300004473000046730000BF
:10016800487300004A7300004C7300004E7300008F
:10017800507300005273000054730000FA98000096
:10018800587300005A730000B6610000685F0000F1
:100198002C600000F660000064730000586E0000D8
:1001A800687300006A7300006C730000186F000029
:1001B800707300007273000074730000767300009F
:1001C800787300007A7300007C7300007E7300006F
:1001D8000000000000000000000000000000000017
:1001E8000000000000000000000000000000000007
:0801F8000000000000000000FF
:100200003D432A876373C3029377F700BDEFADE5E3
:10021000937606FF3D8ABA960CC34CC30CC74CC7F5
:100220004107E36BD7FE11E28280B306C3408A0622
:100230009702000096966780A6002307B700A306E2
:10024000B7002306B700A305B7002305B700A30432
:10025000B7002304B700A303B7002303B700A3022A
:10026000B7002302B700A301B7002301B700A30022
:10027000B7002300B700828093F5F50F93968500B1
:10028000D58D93960501D58D61B79396270097027A
:10029000000096968682E78086FA9680C1171D8FA9
:1002A0003E96E374C3F8A5B7797106D622D4001838
:1002B000232EA4FC8327C4FDB18393F7F70FBD8BD6
:1002C000A307F4FE8327C4FDA18393F7F70FBD8B2B
:1002D0002307F4FE0347F4FEB70700200A079387BD
:1002E0008727BA979C430347E4FE91460546BA85A3
:1002F0003E85EF70C0390347F4FEB70700200A07B8
:1003000093878727BA979C4385453E85EF70E033F6
:1003100001000347F4FEB70700200A0793878727E9
:10032000BA979C4389453E85EF70E05AAA87F5D37A
:100330000347F4FEB70700200A0793878727BA9779
:100340009C43FC478346F4FE138701853697034799
:100350000700B3D7E700C207C1833E85B2502254DD
:10036000456182805D7186C6A2C48008232EA4FAEE
:10037000232CB4FA232604FC232804FC232A04FC9F
:10038000232C04FC232E04FC232004FE232204FE41
:10039000232404FE8327C4FBB18393F7F70FBD8B9F
:1003A000A307F4FE8327C4FB93F7F70F81460146AA
:1003B00081453E8535238347F4FE99E7854513053E
:1003C0000020EF70107519A80347F4FE85476317E6
:1003D000F700854513050040EF70B0733165EF708D
:1003E00090420347F4FEB70700200A079387872748
:1003F000BA979C433E85EF700001232604FC232816
:1004000004FC232A04FCB7070E00232CF4FC232E43
:1004100004FC85472300F4FE0347F4FEB7070020E1
:100420000A0793878727BA979C431307C4FCBA85AA
:100430003E85EF7040030347F4FEB70700200A072C
:1004400093878727BA979C4385453E85EF70C011F7
:100450000347F4FEB70700200A0793878727BA9758
:100460009C4381453E85EF70A04A0347F4FEB707E1
:1004700000200A0793878727BA979C433E85EF7031
:10048000801201000347F4FEB70700200A07938794
:100490008727BA979C433E85EF700013AA87FDF328
:1004A0000347F4FEB70700200A0793878727BA9708
:1004B0009C433E85EF70401401000347F4FEB707EC
:1004C00000200A0793878727BA979C433E85EF70E1
:1004D000C014AA87FDF38346F4FE832784FB13F739
:1004E000F70F93870185B6972380E7000100B64098
:1004F000264461618280011122CE00102326A4FED1
:1005000037F500E08328450037F500E093F8E8FF71
:100510002322150183A881820965130505F433D5CB
:10052000A802AA8601470325C4FEAA87014837F519
:1005300000E03303F702B308D8029A983383F60237
:1005400033B6F6029A85B387C8003E860CC950C9F7
:10055000B7F700E09843B7F700E01367070198C3C7
:10056000B7F700E09843B7F700E01367170298C3A6
:100570000100B7F700E0DC4313F717008547E31AE3
:10058000F7FEB7F700E09843B7F700E0799B98C310
:100590000100724405618280011122CE00102326E1
:1005A000A4FEB70701409387074098438327C4FE02
:1005B000FD8B8546B397F600BE86B707014093874B
:1005C0000740558F98C30100724405618280011174
:1005D00022CE00102326A4FEB707014093870740D0
:1005E00098438327C4FEFD8B8546B397F60093C7D7
:1005F000F7FFBE86B707014093870740758F98C302
:100600000100724405618280797106D622D40018F7
:10061000232EA4FC232CB4FC85450545EF70704FB8
:1006200093068004054681450325C4FD552C832788
:10063000C4FD958313F7F70F8327C4FD93F7F70FD6
:10064000FD8B93F7F70FBE853A85EF70B01123202D
:1006500004FE232204FE232404FE232604FE832713
:10066000C4FDFD8B0547B317F7002320F4FE2322BA
:1006700004FE832784FD2324F4FE85472326F4FE0D
:10068000930704FE3E85EF70E02C8327C4FDFD8BAD
:1006900089E75945EF502042BDA08327C4FDF98B5F
:1006A00089E75D45EF502041B9A88327C4FD13F7C2
:1006B000F701894763E6E7006145EF50C03FA1A01D
:1006C0008327C4FDF18B89E76545EF50C03E25A81F
:1006D0008327C4FD13F7F701914763E6E7006945F7
:1006E000EF50603D0DA08327C4FD13F7F701A54728
:1006F00063E7E70013057002EF50E03B29A0130504
:100700008003EF50403B0100B2502254456182808B
:10071000797106D622D40018232EA4FC232CB4FC15
:100720008327C4FD93B7070493F7F70F3E8713069B
:10073000800DC1679385C7653A85EF30901F832789
:1007400084FD93B7470093F7F70F3E871306900D8C
:10075000C1679385C7653A85EF30B01D0327C4FD97
:10076000A167BA9713972700832784FDBA97AA0732
:100770002324F4FE231704FE3DA08357E4FE8A07DA
:100780003E87832784FEBA978356E4FE9843B707D3
:1007900000208A0693878732B69798C38357E4FE72
:1007A00085072317F4FE0357E4FE9307F00FE3F6E3
:1007B000E7FC0100B250225445618280011122CE33
:1007C00000102326A4FEAE87A305F4FE8347B4FEE3
:1007D00085CB8327C4FEBD8B0547B317F7009396DF
:1007E0000701C1828327C4FE13D75700B707002033
:1007F0000A0793870704BA979C43368798CB3DA096
:100800008327C4FEBD8B0547B317F70093960701F6
:10081000C1828327C4FE13D75700B70700200A07F9
:1008200093870704BA979C433687D8CB010072445C
:1008300005618280011122CE00102326A4FE8327A9
:10084000C4FE958313F77700B70700200A07938744
:100850000704BA979C439C470327C4FE7D8B8546BB
:100860003397E600F98FB337F00093F7F70F3E8523
:10087000724405618280797122D60018232EA4FC6F
:100880008327C4FD958393F7F70F9D8BA307F4FE91
:100890008327C4FD93F7F70FFD8B2307F4FE03476F
:1008A000F4FEB70700200A0793870704BA979C4312
:1008B000D8478347E4FE8546B397F600C207C18355
:1008C0003E868346F4FEB70700208A069387070416
:1008D000B6979C43318FD8C701003254456182805E
:1008E000797106D622D40018232EA4FC232CB4FC44
:1008F000B2872328D4FCA30BF4FC232004FE23227C
:1009000004FE232404FE8327C4FD958393F7F70F89
:100910009D8BA307F4FE8327C4FD93F7F70FFD8B90
:100920002307F4FE8347F4FE91E785451145EF70F8
:10093000501E91A80347F4FE85476317F7008545CD
:100940002145EF70101D81A00347F4FE894763170E
:10095000F70085454145EF70D01B35A00347F4FEF5
:100960008D476318F700854513050002EF70701A74
:1009700019A80347F4FE91476317F700854513054F
:100980000004EF7010198347E4FE0547B317F70022
:10099000C207C1832310F4FE032784FD8547631734
:1009A000F702832704FDC207C183A183C207C18365
:1009B00089E78D472322F4FE11A8832704FDC2078F
:1009C000C183A183C207C1832322F4FE832704FDD0
:1009D000C207C18393F7F70F2324F4FE0347F4FE05
:1009E000B70700200A0793870704BA979C431307A9
:1009F00004FEBA853E85EF704014032784FD8547C9
:100A00006319F7020347F4FEB70700200A0793872C
:100A10000704BA9794438347E4FE0547B317F700EA
:100A2000C207C183034774FD3A86BE853685EF70E1
:100A300060330100B2502254456182801D7186CE20
:100A4000A2CC80102326A4FA2324B4FA85450325DA
:100A5000C4FAEF00D034AA873E871306D006C167D8
:100A60009385476B3A85EF30C06C832784FAB337A0
:100A7000F00093F7F70F3E871306F006C1679385E2
:100A8000476B3A85EF30E06A832784FABD832315EC
:100A9000F4FE8357A4FE85073E87832784FAB3D7E5
:100AA000E7022314F4FE0325C4FAEF00B035B7378C
:100AB0000140938707C02326F4FE0327C4FAA54705
:100AC00063ECE7088327C4FA13972700C567938769
:100AD000C7ACBA979C438287B7370140938707C05A
:100AE0002326F4FE95A8B70700402326F4FEADA008
:100AF000B7070040938707402326F4FEB1A8B71735
:100B00000040938707802326F4FEB9A0B717004062
:100B1000938707C02326F4FE81A0B7170040232641
:100B2000F4FE1DA8B7170040938707402326F4FE64
:100B300025A0B7370140938707402326F4FE29A854
:100B4000B7570140938707C02326F4FE31A0B7575B
:100B500001402326F4FE0100232E04FC232004FE82
:100B6000231204FE835784FE2310F4FE8357A4FE51
:100B7000231EF4FC231104FE231F04FC230204FEA5
:100B80009307C4FDBE850325C4FEEF70902605467D
:100B900085450325C4FEEF80203685450325C4FE28
:100BA000EF80806CC16703AEC7681387C7680323F3
:100BB00047001387C768832887001387C7680328FF
:100BC000C7001387C768084B1387C7684C4B138748
:100BD000C768104F1387C768544F1387C7681853E7
:100BE0009387C768DC53232AC4FB232C64FA232E83
:100BF00014FB232004FD2322A4FC2324B4FC23267D
:100C0000C4FC2328D4FC232AE4FC232CF4FC8327F3
:100C1000C4FA93F7F70F8A07130704FFBA9783A75D
:100C200047FC8D453E85EF40D06C8327C4FA8A0788
:100C3000130704FFBA9783A747FC3E85EF40B067D0
:100C400085450325C4FEEF80A01F0100F6406644E1
:100C500025618280797106D622D40018232EA4FC47
:100C6000232CB4FC032784FD896793871771B3375E
:100C7000F70093F7F70F3E8713065003C16793857C
:100C8000076E3A85EF30E04AB7370140938707C0D7
:100C90002326F4FE8327C4FDC183BD8B2547636EE5
:100CA000F70613972700C567938747AFBA979C430A
:100CB0008287B7370140938707C02326F4FEB1A887
:100CC000B70700402326F4FE89A8B70700409387A2
:100CD00007402326F4FE91A0B717004093870780B2
:100CE0002326F4FE1DA8B7170040938707C02326CC
:100CF000F4FE25A0B7370140938707402326F4FE72
:100D000029A8B7570140938707C02326F4FE31A0D6
:100D1000B75701402326F4FE01008327C4FE83D782
:100D2000C7022315F4FE0357A4FE832784FD33076F
:100D3000F702896793870771B357F7022314F4FE0C
:100D40008327C4FDA1838D8B81EB8327C4FE0357CA
:100D500084FE239AE702A9A88327C4FDA18313F781
:100D6000370085476319F7008327C4FE035784FEC5
:100D7000239CE70235A88327C4FDA18313F737001E
:100D800089476319F7008327C4FE035784FE239E17
:100D9000E70239A88327C4FDA18313F737008D47E5
:100DA0006318F7008327C4FE035784FE2390E704EB
:100DB0000100B2502254456182805D7186C6A2C492
:100DC0008008232EA4FA232CB4FA232AC4FA8327FA
:100DD000C4FBC1838D453E85EF00607CAA873E87BA
:100DE0001306D00AC1679385076E3A85EF306034E9
:100DF000032744FB896793871771B337F70093F78D
:100E0000F70F3E871306F00AC1679385076E3A8590
:100E1000EF302032232E04FC232004FE231204FE94
:100E2000232604FC232804FC232A04FC232C04FC92
:100E3000231504FE8327C4FBC183BD8B3E85EF00D1
:100E4000607C8327C4FB93F7F70F9306803101463C
:100E500085453E85713485450545EF70804BB73734
:100E60000140938707C02326F4FE8327C4FBC18378
:100E7000BD8B2547636EF70613972700C5679387D9
:100E8000C7B1BA979C438287B7370140938707C0A1
:100E90002326F4FEB1A8B70700402326F4FE89A854
:100EA000B7070040938707402326F4FE91A0B717A9
:100EB0000040938707802326F4FE1DA8B717004043
:100EC000938707C02326F4FE25A0B73701409387F8
:100ED00007402326F4FE29A8B7570140938707C08F
:100EE0002326F4FE31A0B75701402326F4FE01006B
:100EF0008327C4FB13D7C7008D47631AF7008545C6
:100F0000B70716001385070CEF60506915AA8327F1
:100F1000C4FB13D7C700C547631AF7008545B70759
:100F2000180013850710EF60706719AA8327C4FBA8
:100F300013D7C700C947631AF7008545B7071800DC
:100F400013850720EF609065E5A88327C4FB13D7BE
:100F5000C700CD47631AF7008545B707180013850A
:100F60000730EF60B063E9A88327C4FB13D7C7003D
:100F700093072002631AF7008545B7171A001385F7
:100F80000780EF60B0616DA88327C4FB13D7C7004B
:100F900093073002631AF7008545B7171A001385C7
:100FA00007C0EF60B05F69A88327C4FB13D7C700F1
:100FB000930710036317F70085450565EF60105E22
:100FC00041A08327C4FB13D7C70093071007631AF8
:100FD000F7008545B707008013854700EF60105C78
:100FE00085A08327C4FB13D7C70093073008631A73
:100FF000F7008545B707138013850701EF60105A86
:1010000081A08327C4FB13D7C70093071009631A75
:10101000F7008545B707158013850702EF60105864
:1010200005A08327C4FB13D7C700930730096319B2
:10103000F7008545B707158013850704EF60105644
:1010400003A78182832784FBB357F702C18323154B
:10105000F4FE03A781828357A4FE8507BE868327FB
:1010600084FBB387F602B357F7022314F4FE035749
:1010700084FE832744FB3307F70289679387077150
:10108000B357F7022313F4FE835784FEFD17C207FC
:10109000C1832310F4FE8357A4FE231EF4FC231106
:1010A00004FE231F04FC230204FE9307C4FDBE8537
:1010B0000325C4FEEF70E053930700072316F4FCEA
:1010C00085472317F4FC231804FC835764FE231977
:1010D000F4FC8947231AF4FC8947231BF4FC231CE6
:1010E00004FC231D04FC8327C4FBA1838D8B9DE39B
:1010F0009307C4FCBE850325C4FEEF706067A1455D
:101100000325C4FEEF70506691450325C4FEEF70C1
:10111000707A45A08327C4FBA18313F73700854766
:101120006315F7029307C4FCBE850325C4FEEF7068
:10113000E07DA1450325C4FEEF70D0679305004014
:101140000325C4FEEF70D07BADA08327C4FBA18331
:1011500013F7370089476314F7029307C4FCBE8571
:101160000325C4FEEF70B018A1450325C4FEEF703F
:10117000106A91450325C4FEEF70F07D1DA88327FA
:10118000C4FBA18313F737008D476314F70293075D
:10119000C4FCBE850325C4FEEF703033A145032592
:1011A000C4FEEF70906B930500400325C4FEEF7002
:1011B000507F85450325C4FEEF70104E85450325FD
:1011C000C4FEEF70F0470100B640264461618280A2
:1011D000011122CE00102326A4FEAE87A305F4FE43
:1011E000C5670327C4FE0A07938747B4BA979C4391
:1011F0003E878347B4FEC207C1832316F700010070
:10120000C5670327C4FE0A07938747B4BA979C4370
:1012100083D78700C207C18393F70708F5F301005E
:10122000724405618280011122CE00102326A4FEA3
:10123000AE872315F4FE8357A4FEA183C207C183A2
:1012400093F6F70FC5670327C4FE0A07938747B4D1
:10125000BA979C433E8793970601C1832316F700F4
:101260000100C5670327C4FE0A07938747B4BA97EE
:101270009C4383D78700C207C183898BFDD38357E3
:10128000A4FE93F6F70FC5670327C4FE0A079387EA
:1012900047B4BA979C433E8793970601C1832316B0
:1012A000F7000100C5670327C4FE0A07938747B408
:1012B000BA979C4383D78700C207C18393F7070877
:1012C000F5F301007244056182805D7186C6A2C497
:1012D00080082326A4FC2324B4FC2322C4FC23205E
:1012E000D4FC232EE4FA232CF4FA232A04FBC5674A
:1012F0000327C4FC0A07938747B4BA979C433E85EB
:10130000EF70A01285450545EF70A000032704FC8F
:1013100093073012631DF7000327C4FB9307501295
:101320006317F70085450545EF60502725A0032783
:1013300004FC89679387A714631EF7000327C4FB87
:1013400089679387C7146317F70085453715200011
:10135000EF60D0248327C4FC91E785450565EF60E5
:10136000507B25A00327C4FC85476317F7008545FC
:101370001165EF60707E11A80327C4FC89476316CE
:10138000F70085452165EF60307D832704FC93F7E6
:10139000F70F93068031054685453E85EFF04FD423
:1013A0008327C4FB93F7F70F9306803105468545E5
:1013B0003E85EFF0EFD2032784FBC167F917630D79
:1013C000F700832784FB93F7F70F930680340546D5
:1013D00081453E85EFF0CFD0032744FB9307F00F04
:1013E000630DF700832744FB93F7F70F9306003153
:1013F000014685453E85EFF0AFCE232E04FC232029
:1014000004FE232204FE232404FE231604FE231ECE
:1014100004FC93074010231FF4FC231004FE032751
:1014200084FC85476305F702832784FC81CF03276B
:1014300084FC89476303F702032784FC8D47630418
:10144000F7020DA8231104FE231204FE25A0231188
:1014500004FE85472312F4FE31A889472311F4FEC8
:10146000231204FE01A889472311F4FE85472312A5
:10147000F4FE0100231704FE03A78182832744FCA6
:10148000B357F7022317F4FE03A78182832744FC96
:10149000B377F70291E78357E4FEFD172317F4FEB5
:1014A0000357E4FE9307F00763F7E7009307800311
:1014B0002317F4FE49A80357E4FE9307F00363F7EC
:1014C000E700930700032317F4FEB5A80357E4FED3
:1014D000FD4763F7E700930780022317F4FEA5A0FA
:1014E0000357E4FEBD4763F7E700930700022317A5
:1014F000F4FE91A80357E4FE9D4763F6E700E14739
:101500002317F4FE89A00357E4FE8D4763F6E70036
:10151000C1472317F4FE05A80357E4FE854763F689
:10152000E700A1472317F4FE39A88357E4FE81C7DB
:10153000231704FE09A813068022C1679385C7708C
:101540000145EF20103F8357E4FE2314F4FE930778
:1015500000202313F4FE231504FE231604FEC567A2
:101560000327C4FC0A07938747B4BA979C433E8776
:101570009307C4FDBE853A85EF609072C567032767
:10158000C4FC0A07938747B4BA979C4385453E85B8
:10159000EF7080000100B64026446161828079715D
:1015A00022D60018232EA4FC232CB4FC8547A307C5
:1015B000F4FE0327C4FD0A07938701CBBA979C4327
:1015C00099EB0327C4FD0A07938701CBBA9703273A
:1015D00084FD98C315A00327C4FD0A07938701CB98
:1015E000BA979C43032784FD6316F7008547A3073A
:1015F000F4FE19A0A30704FE8347F4FE3E8532548F
:1016000045618280011106CE22CC00102326A4FE63
:101610008327C4FE81EB8545856713850780EF60CE
:10162000504F6DA80327C4FE85476317F700854513
:101630000545EF6070525DA00327C4FE894763171C
:10164000F70085450945EF60305149A80327C4FEDE
:101650008D476317F70085451145EF60F04FBDA832
:101660000327C4FE91476317F70085452145EF60C6
:10167000B04EADA00327C4FE95476317F70085451C
:101680004145EF60704D99A80327C4FE9947631840
:10169000F700854513050002EF60104C81A0032779
:1016A000C4FE9D476317F70085450965EF607046E6
:1016B00035A00327C4FEA1476318F7008545370509
:1016C0000800EF60104519A80327C4FEA54763175B
:1016D000F700854537051000EF60B0430100F24088
:1016E000624405618280797122D60018232EA4FC01
:1016F000B7370140938707C02326F4FE231504FE65
:101700000327C4FDA54763ECE7088327C4FD1397AF
:101710002700C567938707B5BA979C438287B73779
:101720000140938707C02326F4FE95A8B707004021
:101730002326F4FEADA0B707004093870740232679
:10174000F4FEB1A8B7170040938707802326F4FE64
:10175000B9A0B7170040938707C02326F4FE81A0E5
:10176000B71700402326F4FE1DA8B7170040938743
:1017700007402326F4FE25A0B73701409387074092
:101780002326F4FE29A8B7570140938707C02326D4
:10179000F4FE31A0B75701402326F4FE01000327D1
:1017A000C4FD0A07938781CDBA9798438947631F81
:1017B000F7008327C4FE83D74702139707014183AD
:1017C0008D47B357F7022315F4FE39A08327C4FED3
:1017D00083D747022315F4FE8357A4FE3E85325477
:1017E00045618280797122D60018232EA4FCB73778
:1017F0000140938707C02326F4FE0327C4FDA547B5
:1018000063ECE7088327C4FD13972700C567938718
:1018100087B7BA979C438287B7370140938707C041
:101820002326F4FE95A8B70700402326F4FEADA0BA
:10183000B7070040938707402326F4FEB1A8B717E7
:101840000040938707802326F4FEB9A0B717004015
:10185000938707C02326F4FE81A0B71700402326F4
:10186000F4FE1DA8B7170040938707402326F4FE17
:1018700025A0B7370140938707402326F4FE29A807
:10188000B7570140938707C02326F4FE31A0B7570E
:1018900001402326F4FE01008327C4FE23920702A1
:1018A0000100325445618280011122CE00102326AE
:1018B000A4FEAE87A305F4FE0100C5670327C4FE9E
:1018C0000A07938707BABA979C4383D70700C207D2
:1018D000C18393F70708F5D3C5670327C4FE0A073A
:1018E000938707BABA979C433E878347B4FEC207E3
:1018F000C1832312F7000100724405618280011147
:1019000006CE22CC00102326A4FE2324B4FE832777
:1019100084FEB337F00093F7F70F3E8713060005F8
:10192000C167938587733A85EF20B00039A8832774
:1019300084FE138717002324E4FE8387070093F7B0
:10194000F70FBE850325C4FE8537832784FE838772
:101950000700F1FF0100F24062440561828001113D
:1019600006CE22CC00102326A4FEAE87A305F4FEEB
:10197000C5670327C4FE0A07938707BABA979C4333
:101980003E878347B4FE3E86930550523A85EF70FA
:10199000D039138741848327C4FEBA9783C70700D1
:1019A00081453E85EF40E0148347B4FE81CF138725
:1019B00041848327C4FEBA9783C707003E85EF4062
:1019C000800F19A8138741848327C4FEBA9783C761
:1019D00007003E85EF4000100100F24062440561BF
:1019E0008280011122CE00102326A4FE2324B4FEFF
:1019F000C5670327C4FE0A07938707BABA979C43B3
:101A000083D70700C207C18393F707028DC7C56755
:101A10000327C4FE0A07938707BABA979C4383D764
:101A20004700C207C18313F7F70F832784FE238083
:101A3000E700854711A081473E8572440561828099
:101A4000797106D622D40018232EA4FC232CB4FCD2
:101A5000232AC4FC2328D4FC032744FD832704FD48
:101A60003D8F8327C4FDB207F98F93B7170093F713
:101A7000F70F3E871306A00AC167938587733A85DF
:101A8000EF20206B832744FD13D78700832704FDB5
:101A9000A183B307F74093B7170093F7F70F3E877B
:101AA0001306B00AC167938587733A85EF20606893
:101AB000832744FD93F7F70FE146014685453E85B0
:101AC000EFE01FE2832704FD93F7F70F93068004EE
:101AD000014681453E85EFE0BFE085450545EF6065
:101AE0005003032744FDC167FD17F98F0D671307E6
:101AF00007386387E7200D67130707386369F70422
:101B00000567130757166381E7160567130757160E
:101B1000636FF7001307F022638AE70C1307603046
:101B20006381E710130760126388E70865A60967F9
:101B300013078736638BE7160D6713070712638752
:101B4000E71809671307A7146380E71461A61567F0
:101B50001307A738638EE72615671307A738636254
:101B6000F7021167130787386380E72015671307AB
:101B700087126385E722116713074712638CE71A00
:101B800091AE19671307C7386388E72A19671307E7
:101B9000C7386368F7001967130767106384E7267F
:101BA00015AE1D671307E7106382E72C1D67130747
:101BB000E7386387E72E39AEB7070140D44FB70740
:101BC0000140370700FC7D17758FD8CFB70701405C
:101BD000D843B70701406D9BD8C3B7070140D8432E
:101BE000B707014013674700D8C3EDA4B70701400A
:101BF000D44FB7070140370700FC7D17758FD8CF4A
:101C0000B7070140D44FB707014037070004558F8D
:101C1000D8CFB7070140D843B70701406D9BD8C361
:101C200055ACB7070140D44FB7070140370700FC58
:101C30007D17758FD8CFB7070140D44FB707014044
:101C400037070004558FD8CFB7070140D843B707EF
:101C500001406D9BD8C3B7070140D843B707014087
:101C600013674700D8C3BDA4B7070140D843B707DF
:101C700001405D9BD8C3B7070140D843B707014077
:101C800013678700D8C3B9A4B7070140D843B70783
:101C900001401377F7FCD8C3B7070140D843B70713
:101CA000014013670701D8C335A4B7070140D843E3
:101CB000B70701401377F7FCD8C3B7070140D843F3
:101CC000B707014013670703D8C329A4B70701402A
:101CD000D44FB70701403707FDFF7D17758FD8CF69
:101CE000B7070140D44F832744FDA1831397070111
:101CF000B70703007D8FB7070140558FD8CFD9AA0A
:101D0000B7070140D44FB70701403707FDFF7D17E4
:101D1000758FD8CFB7070140D44F832744FDA183E7
:101D200013970701B70703007D8FB7070140558F51
:101D3000D8CF4DA2B7070140D44FB70701403707AE
:101D4000F4FF7D17758FD8CFB7070140D44F832795
:101D500044FDA18313972701B7070C007D8FB707B8
:101D60000140558FD8CFBDA2B7070140D44FB70768
:101D700001403707F4FF7D17758FD8CFB7070140B3
:101D8000D44F832744FDA18313972701B7070C0085
:101D90007D8FB7070140558FD8CF2DAAB7070140D7
:101DA000D44FB70701403707D0FF7D17758FD8CFC5
:101DB000B7070140D44F832744FDA1831397470100
:101DC000B70730007D8FB7070140558FD8CF19A2D4
:101DD000B7070140D44FB70701403707D0FF7D1741
:101DE000758FD8CFB7070140D44F832744FDA18317
:101DF00013974701B70730007D8FB7070140558F14
:101E0000D8CFC9A8B7070140D44FB707014037075B
:101E100040FF7D17758FD8CFB7070140D44F832778
:101E200044FDA18313976701B707C0007D8FB707F3
:101E30000140558FD8CF79A8B7070140D44FB707D5
:101E40000140370740FF7D17758FD8CFB707014096
:101E5000D44F832744FDA18313976701B707C000C0
:101E60007D8FB7070140558FD8CFADA0B707014090
:101E7000D44FB7070140370700FD7D17758FD8CFC6
:101E8000B7070140D44F832744FDA18313978701EF
:101E9000B70700037D8FB7070140558FD8CF1DA826
:101EA000B7070140D44FB7070140370700FD7D1742
:101EB000758FD8CFB7070140D44F832744FDA18346
:101EC00013978701B70700037D8FB7070140558F30
:101ED000D8CF01008327C4FD91E785451165EF60E8
:101EE000404369A80327C4FD85476318F70085456B
:101EF00037050200EF60404651A00327C4FD894723
:101F00006318F700854537050400EF60E044BDA085
:101F10000327C4FD8D476318F70085453705080082
:101F2000EF608043A1A80327C4FD91476318F70021
:101F3000854537051000EF60204289A00327C4FDC6
:101F400095476318F700854513050004EF60C0400E
:101F500035A00327C4FD99476318F700854513058D
:101F60000008EF60603F19A80327C4FD9D47631771
:101F7000F700854513050010EF60003E232004FEA6
:101F8000232204FE232404FE232604FE832784FD4B
:101F90002320F4FE231204FE231304FE231404FE64
:101FA000231604FEB1472315F4FEC5670327C4FDBD
:101FB0000A07938707BABA979C433E87930704FEA4
:101FC000BE853A85EF70202DC5670327C4FD0A073B
:101FD000938707BABA979C4385453E85EF70E04EDC
:101FE0000100B250225445618280411106C622C4CC
:101FF000000883A781850547638BE7006386070C8C
:102000000947638DE7000D47638FE702D9A083A7D7
:1020100041851387170023AAE18465A883A741851A
:102020001387170023AAE18403A74185A54763FF0F
:10203000E708B7070020938707049C4B1167D8CBAC
:1020400023AA018461A003A7C18585476312F7080D
:102050001305F008EFE00FFEAA87B9CF1945EFF09E
:102060008FE8AA873E8783A741851D8F9307600964
:1020700063F0E7061945EFF0EFF683A74185D3F744
:1020800017D05385F720EFC06029C16703A6877674
:1020900083A6C776EFA03039AA872E883E85C285F1
:1020A000EFB0D05BAA871397070141832394E180A7
:1020B000094723AEE18429A81945EFF0CFE2AA87AA
:1020C0003E8723AAE18429A0010021A0010011A0DC
:1020D00001000100B240224441018280011106CE7C
:1020E00022CC0010232204FE83C7118663810714CB
:1020F00009A8930734FE0546BE85138501D0EF205D
:10210000E07A930734FEBE851D45EFF09F8DAA87C8
:10211000EDF3034734FEA947631BF71099472322C9
:10212000F4FE130744FE930784FE85463A86BE8577
:10213000138501D0EF203056930784FE13873700B4
:102140000D46C167938507773A85EFC0D044AA87CB
:102150009DEB03A7818689476304F70C054723A4F9
:10216000E186138501D0EF20C06CAA872322F4FEFC
:10217000930744FE81463E869385C1D9138501D0DD
:10218000EF20705171A8930784FE138737000D4626
:10219000C167938547773A85EFC0F03FAA879DEBEB
:1021A00003A741868947630DF706054723A2E18609
:1021B000138501D0EF20E067AA872322F4FE93075E
:1021C00044FE81463E869385C1D1138501D0EF2020
:1021D000904CB9A0930784FE138737000D46C16762
:1021E000938587773A85EFC0103BAA8795EB03A7C5
:1021F000C18689476306F702054723A6E186138552
:1022000001D0EF200063AA872322F4FE930744FE47
:1022100081463E869385C1E1138501D0EF20B0470A
:10222000138501D0EF20403C05472380E186010063
:10223000F240624405618280011106CE22CC00107A
:10224000AA87A307F4FEB707002093870704DC479B
:1022500013070008D8CB8347F4FEBE850545EFE0A1
:102260003FF7B707002093870704DC4713070008F0
:1022700098CB0100F240624405618280011106CED4
:1022800022CC0010AA8736872317F4FEAE872316C8
:10229000F4FEB2872315F4FEBA872314F4FE83C735
:1022A0004181C207C1830357E4FEB337F70093F7B8
:1022B000F70F3E871306A008C567938507863A8502
:1022C000EF10306783C75181C207C1830357C4FE33
:1022D000B337F70093F7F70F3E871306B008C567CB
:1022E000938507863A85EF10D06483C74181C20782
:1022F000C1830357A4FEB337F70093F7F70F3E8768
:102300001306C008C567938507863A85EF1070628B
:1023100083C75181C207C183035784FEB337F700D7
:1023200093F7F70F3E871306D008C5679385078696
:102330003A85EF10106083A7018705476376F700A1
:102340000D476369F71061A01305A002F5358145BB
:102350000545EFE0FFE78357E4FE93F7F70F8907A2
:1023600093F7F70FBE850545EFE09FE681450545EC
:10237000EFE01FE68357A4FE93F7F70F890793F763
:10238000F70FBE850545EFE0BFE41305B0026D35DC
:1023900081450545EFE0DFE38357C4FE93F7F70F70
:1023A000850793F7F70FBE850545EFE07FE281458E
:1023B0000545EFE0FFE1835784FE93F7F70F8507AC
:1023C00093F7F70FBE850545EFE09FE061A0130589
:1023D000A0029D3581450545EFE09FDF8357E4FE70
:1023E00093F7F70F850793F7F70FBE850545EFE0E5
:1023F0003FDE81450545EFE0BFDD8357A4FE93F73F
:10240000F70F850793F7F70FBE850545EFE05FDC13
:102410001305B002153581450545EFE07FDB835795
:10242000C4FE93F7F70F890793F7F70FBE850545AD
:10243000EFE01FDA81450545EFE09FD9835784FE21
:1024400093F7F70F890793F7F70FBE850545EFE080
:102450003FD801001305C002C5330100F2406244B9
:1024600005618280797106D622D400189307C4FDD5
:102470003E85EF1090528547231EF4FC83C74181AF
:10248000C207C183231FF4FC83C75181C207C183E4
:102490002310F4FE83A701810547638AE70099EFC3
:1024A00099472301F4FEA147A301F4FE09A8A1471F
:1024B0002301F4FEC147A301F4FE11A00100B737C8
:1024C0000000938707BB2324F4FEB72700009387FF
:1024D000A74E2326F4FE9307C4FD3E85EF109051CE
:1024E0000100B250225445618280011106CE22CCF7
:1024F000001083C741813E8783C75181B307F7022C
:102500002326F4FEB707002093870704DC474147E2
:10251000D8CB83C74181C207C183FD171397070139
:10252000418383C75181C207C183FD17C207C1839D
:10253000BE863A8681450145913321A883D7C18063
:10254000BE850545EFE03FCE8327C4FEFD17232659
:10255000F4FE8327C4FEFDF3B7070020938707042A
:10256000DC47414798CB0100F2406244056182801C
:10257000011122CE00102326A4FE0327C4FE23A8A7
:10258000E18683A7018705476376F7000D476365FA
:10259000F70211A8130700F8238AE180130700FA55
:1025A000A38AE18011A8130700FA238AE1801307A8
:1025B00000F8A38AE1800100010072440561828075
:1025C000011122CE00102326A4FE0327C4FE23A857
:1025D000E1800100724405618280011122CE001069
:1025E000AA872E872317F4FEBA872316F4FE035713
:1025F000E4FE2395E1800357C4FE2396E1800100A9
:10260000724405618280011106CE22CC0010AA8797
:10261000AE8632872317F4FEB6872316F4FEBA87F8
:102620002315F4FE83C74181C207C1830357E4FE2B
:10263000B337F70093F7F70F3E8713064014C567CB
:10264000938507863A85EF10D02E83C75181C20744
:10265000C1830357C4FEB337F70093F7F70F3E87E4
:1026600013065014C567938507863A85EF10702CC2
:10267000B707002093870704DC474147D8CB835630
:10268000C4FE0356E4FE0357C4FE8357E4FEBA8536
:102690003E85EFF0BFBE8357A4FEBE850545EFE043
:1026A0009FB8B707002093870704DC47414798CBC2
:1026B0000100F240624405618280797106D622D41D
:1026C0000018AA87231FF4FCAE87231EF4FCB287F0
:1026D000231DF4FCB687231CF4FCBA87231BF4FCEF
:1026E00083C74181C207C1830357E4FDB337F700B5
:1026F00093F7F70F3E871306C015C56793850786C6
:102700003A85EF10102383C75181C207C183035755
:10271000C4FDB337F70093F7F70F3E871306D015C4
:10272000C567938507863A85EF10B02083C741813E
:10273000C207C1830357A4FDB337F70093F7F70F20
:102740003E871306E015C567938507863A85EF1027
:10275000501E83C75181C207C183035784FDB3371D
:10276000F70093F7F70F3E871306F015C5679385BB
:1027700007863A85EF10F01B0357E4FD8357A4FD4D
:102780006374F700854711A0FD572317F4FE035724
:10279000C4FD835784FD6374F700854711A0FD577E
:1027A0002316F4FE232404FE232204FE0357E4FD33
:1027B0008357A4FD630DF7080357C4FD835784FDB9
:1027C000B307F74053F707D00357E4FD8357A4FD41
:1027D000B307F740D3F707D0D377F7182724F4FED1
:1027E0008357C4FD53F717D08357E4FDD3F617D0B2
:1027F000872784FED3F7F610D377F7082722F4FE55
:102800000357C4FD835784FD1D8F9357F7413D8FB8
:102810001D8F8356E4FD8357A4FDB387F64093D6FE
:10282000F741B58F958F63D8E70CA5A8835664FD53
:102830000357C4FD8357E4FD3686BA853E85E133F0
:102840000357C4FE8357C4FDBA97231EF4FC0357F5
:10285000C4FD835784FDE31BF7FC6DA0835664FD24
:102860000357C4FD8357E4FD3686BA853E85613B38
:102870000357C4FE8357C4FDBA97231EF4FC835745
:10288000C4FD53F717D0872744FE5377F7088727EF
:1028900084FED377F718D39707C0C207C187231FD9
:1028A000F4FC0357C4FD835784FDE319F7FA99A894
:1028B000835664FD0357C4FD8357E4FD3686BA850D
:1028C0003E8591330357E4FE8357E4FDBA97231FF7
:1028D000F4FC8357E4FD53F717D0872784FE537722
:1028E000F710872744FED377F700D39707C0C207B6
:1028F000C187231EF4FC0357E4FD8357A4FDE319AD
:10290000F7FA09A00100B250225445618280797122
:1029100006D622D40018AA87AE863287231FF4FC7D
:10292000B687231EF4FCBA87A30DF4FC83C741814C
:10293000C207C1830357E4FDB337F70093F7F70FDE
:102940003E8713069019C567938507863A85EF1071
:10295000407E83C75181C207C1830357C4FDB3378B
:10296000F70093F7F70F3E871306A019C567938505
:1029700007863A85EF10E07BA30704FE230704FED9
:10298000B707002093870704DC474147D8CB83A7CC
:1029900001810547638AE70C639F071EA30704FEB6
:1029A00075A88347F4FE1397070141838357E4FD1D
:1029B000BA971395070141818347F4FE13970701E6
:1029C00041838357E4FDBA971397070141838357E7
:1029D000C4FDA10793960701C1828357C4FD3A86BF
:1029E000BE85EFF0BF898307B4FD138707FE8346DA
:1029F000F4FE4566BA878607BA9786071307061B53
:102A0000BA97B69783C70700A306F4FE230704FE10
:102A100025A88347D4FE858B81CB83D7A180BE8533
:102A20000545EFE05F8039A083D7C180BE850545AD
:102A3000EFE06FFF8347D4FE8583A306F4FE834750
:102A4000E4FE85072307F4FE0347E4FE9D47E3F217
:102A5000E7FC8347F4FE8507A307F4FE0347F4FE73
:102A60009547E3F0E7F40DAAA30704FE39AA8347CC
:102A7000F4FE1397070141838357E4FDBA9713953A
:102A8000070141818347F4FE139707014183835770
:102A9000E4FDBA971397070141838357C4FDBD072F
:102AA00093960701C1828357C4FD3A86BE85EFF035
:102AB000EFFC8307B4FD938607FE8347F4FE45676A
:102AC0009206130707BC3697BA9783C707002306F9
:102AD000F4FE8307B4FD938607FE8347F4FEA10747
:102AE00045679206130707BC3697BA9783C7070056
:102AF000A305F4FE230704FE25A88347C4FE858BA7
:102B000081CB83D7A180BE850545EFE0CFF139A009
:102B100083D7C180BE850545EFE0EFF08347C4FE53
:102B200085832306F4FE8347E4FE85072307F4FE2E
:102B30000347E4FE9D47E3F2E7FC230704FE25A8D4
:102B40008347B4FE858B81CB83D7A180BE850545A5
:102B5000EFE06FED39A083D7C180BE850545EFE07A
:102B60008FEC8347B4FE8583A305F4FE8347E4FE20
:102B700085072307F4FE0347E4FE9D47E3F2E7FCE5
:102B80008347F4FE8507A307F4FE0347F4FE9D4741
:102B9000E3FFE7EC11A00100B707002093870704CB
:102BA000DC47414798CB0100B250225445618280F6
:102BB000797106D622D40018AA872E87232CC4FC4C
:102BC000231FF4FCBA87231EF4FC83C74181C2078C
:102BD000C1830357E4FDB337F70093F7F70F3E8740
:102BE0001306D01EC567938507863A85EF1060549B
:102BF00083C75181C207C1830357C4FDB337F700B0
:102C000093F7F70F3E871306E01EC5679385078687
:102C10003A85EF100052231704FE71A083A70181AB
:102C200005476381E704B5EB0357E4FEBA878607DF
:102C3000BA9786071397070141838357E4FDBA9734
:102C400093960701C1828357E4FE032784FDBA9758
:102C5000038707008357C4FD3A86BE853685EFF0AB
:102C60001FCB2DA88357E4FE8E07139707014183DE
:102C70008357E4FDBA9793960701C1828357E4FE18
:102C8000032784FDBA97038707008357C4FD3A865C
:102C9000BE853685EFF0BFC711A001008357E4FE63
:102CA00085072317F4FE8357E4FE032784FDBA97B4
:102CB00083870700A5F70100B25022544561828046
:102CC000397106DE22DC8000AA872324C4FC368703
:102CD0002317F4FCAE872316F4FCBA87A303F4FC95
:102CE00083C74181C207C1830357E4FCB337F700B0
:102CF00093F7F70F3E8713062023C5679385078652
:102D00003A85EF10004383C75181C207C18303573F
:102D1000C4FCB337F70093F7F70F3E871306302351
:102D2000C567938507863A85EF10A040834774FCFA
:102D3000B337F00093F7F70F3E8713064023C567BC
:102D4000938507863A85EF10C03E834774FC93B79E
:102D5000B70093F7F70F3E8713065023C567938597
:102D600007863A85EF10E03C832784FC2326F4FE97
:102D700085472324F4FE9307C4FD314681453E85F3
:102D8000EFD00FC8034774FC9307C4FD3A86930540
:102D900000023E85EFD0CFC6034774FCA54763EB26
:102DA000E70231A8032784FEBA878A07BA97860705
:102DB0002324F4FE834774FCFD17A303F4FC83472C
:102DC00074FCEDF3832784FE0327C4FEB377F70278
:102DD0002326F4FE9307C4FD8325C4FE3E85EF2021
:102DE000500A9306C4FD0357C4FC8357E4FC36869F
:102DF000BA853E85753B0100F250625421618280A4
:102E00005D7186C6A2C4A6C280082328C4FA232AFC
:102E1000D4FABA863E87AA87231FF4FAAE87231E08
:102E2000F4FAB687A30DF4FABA87230DF4FA83C730
:102E30004181C207C1830357E4FBB337F70093F71F
:102E4000F70F3E871306C025C567938507863A8529
:102E5000EF10202E83C75181C207C1830357C4FBE3
:102E6000B337F70093F7F70F3E871306D025C567F2
:102E7000938507863A85EF10C02B8347B4FBB337A1
:102E8000F00093F7F70F3E871306E025C56793859B
:102E900007863A85EF10E0298347B4FB93B7970084
:102EA00093F7F70F3E871306F025C56793850786CE
:102EB0003A85EF1000288347A4FBB337F00093F75F
:102EC000F70F3E8713060026C567938507863A8568
:102ED000EF1020268347A4FB93B7770093F7F70FF3
:102EE0003E8713061026C567938507863A85EF103F
:102EF0004024832704FB032844FB2320F4FE2322E1
:102F000004FFC56703A8478983A707892324F4FE24
:102F1000232604FF9307C4FC454681453E85EFD038
:102F20002FAE0347B4FB8347A4FBBA9789073E87BC
:102F30009307C4FC3A86930500023E85EFD04FAC60
:102F40003DA0C56703A6878983A6C789032584FE9C
:102F50008325C4FEEF90304DAA872E882324F4FEEB
:102F6000232604FF8347B4FBFD17A30DF4FA834720
:102F7000B4FBE1FB032504FE832544FEEFA0906033
:102F8000AA84032584FE8325C4FEEFA0B05FAA8730
:102F9000B3C7F4023E85EFA05076AA872E88032699
:102FA00084FE8326C4FE3E85C285EF90D047AA8763
:102FB0002E883E86C286032504FE832544FEEFA0AC
:102FC000E02BAA872E882320F4FE232204FF034748
:102FD000A4FB9307C4FCBA86832504FE032644FEA3
:102FE0003E85EF2080779306C4FC0357C4FB8357CC
:102FF000E4FB3686BA853E85EFF09FBB0100B64004
:1030000026449644616182805D7186C6A2C48008B0
:103010002A8E2E832324C4FC3685BA853E86C2863A
:103020004687F2872317F4FC9A872316F4FCAA87B5
:103030002313F4FCAE872312F4FCB2872311F4FCB3
:10304000B6872310F4FCBA87A30FF4FA83C7418133
:10305000C207C1830357E4FCB337F70093F7F70FB8
:103060003E871306602FC567938507863A85EF1064
:10307000400C83C75181C207C1830357C4FCB337D7
:10308000F70093F7F70F3E871306702FC5679385F8
:1030900007863A85EF10E009832784FCB337F000F8
:1030A00093F7F70F3E871306802FC5679385078632
:1030B0003A85EF100008232604FE232404FE231380
:1030C00004FE232004FE232E04FCB7070020938770
:1030D0000704DC474147D8CB0357E4FC835724FC63
:1030E000BA97C207C183FD171396070141820357A0
:1030F000C4FC835704FCBA97C207C183FD1793969B
:103100000701C1820357C4FC8357E4FCBA853E859E
:10311000EFF0CF96232404FE45A8035744FC8327F1
:1031200084FE3307F702835704FCB357F702232EBC
:10313000F4FC232604FEB5A8035764FC8327C4FED1
:103140003307F702835724FCB357F7022320F4FE1A
:10315000035764FC8327C4FD3307F702832704FE6B
:10316000BA978607032784FCBA9783D707002313EF
:10317000F4FE8347F4FB9DC3835764FEA2071397B5
:1031800007014187835764FEA183C207C183C20739
:10319000C187D98FC207C1872313F4FE835764FE0A
:1031A000BE850545EFE02F888327C4FE85072326CB
:1031B000F4FE835724FC0327C4FEE36FF7F683274E
:1031C00084FE85072324F4FE835704FC032784FE32
:1031D000E365F7F4B707002093870704DC4741470E
:1031E00098CB0100B640264461618280397106DEC9
:1031F00022DC80002322D4FCBA863E87AA872317CC
:10320000F4FCAE872316F4FCB287A305F4FCB68762
:103210002305F4FCBA872314F4FC83C74181C20759
:10322000C1830357E4FCB337F70093F7F70F3E87EA
:103230001306D034C567938507863A85EF00706F13
:1032400083C75181C207C1830357C4FCB337F7005A
:1032500093F7F70F3E871306E034C567938507861B
:103260003A85EF00106D832744FCB337F00093F7E5
:10327000F70F3E871306F034C567938507863A85B6
:10328000EF00306B232604FE232404FE232204FED9
:10329000A30D04FCA30104FE230D04FC832744FCBE
:1032A000232EF4FC8347B4FC8D83230DF4FCB70775
:1032B000002093870704DC474147D8CB8347A4FC11
:1032C0001397070141838347B4FCC207C183B30747
:1032D000F7021397070141838357E4FCBA97C207AB
:1032E000C183FD171396070141828347B4FC1397EE
:1032F000070141838357C4FCBA97C207C183FD17F6
:1033000093960701C1820357C4FC8357E4FCBA8536
:103310003E85EFE0BFF6232604FEE9A88347A4FC20
:10332000A301F4FE0347A4FD8327C4FEB307F702FD
:103330003E87832744FCBA97232EF4FC45A0232222
:1033400004FEBDA0A1472324F4FEA9A08327C4FD49
:1033500083C707003E87832784FEFD17B357F740D6
:1033600093F7F70F858BA30DF4FC8347B4FD81CB56
:10337000835784FCBE850545EFD0FFEA39A083D78B
:10338000C180BE850545EFD01FEA832784FEFD1767
:103390002324F4FE832784FEE34AF0FA8327C4FD46
:1033A0008507232EF4FC832744FE85072322F4FEA1
:1033B0008347A4FD032744FEE346F7F80347A4FD33
:1033C0008347B4FCB307F7023E878347A4FDB307E6
:1033D000F7400327C4FDBA97232EF4FC834734FE3D
:1033E0001387F7FFA301E4FEB9FB8327C4FE85071B
:1033F0002326F4FE8347B4FC0327C4FEE340F7F220
:10340000B707002093870704DC47414798CB0100AA
:10341000F250625421618280411106C622C4000824
:103420001308F00FC167F91705671307F7028566E0
:103430009386D60237A64A04130606208145054521
:10344000EFD0BFE8C1460146854513057006EFD0B1
:103450002FC9C1460146854513057002EFD04FC8FC
:10346000C1460546854513054006EFD06FC7C146E6
:103470000546854513050006EFD08FC683A7018753
:103480003E85EFF0EF8E03D7A18083D7C180BE8544
:103490003A85EFF08F94B707002093870704DC4349
:1034A00013070008D8CB2945EFD0EF84B7070020D9
:1034B00093870704DC431307000898CB13058007A4
:1034C000EFD06F83B707002093870704DC4741479D
:1034D000D8CB4545EFE05FD613058007EFD0AF812D
:1034E0001305100BEFE05FD585450545EFD05FCEA6
:1034F0009305C0020545EFD0BFCD9305D002054529
:10350000EFD01FCD1305200BEFE01FD385450545F8
:10351000EFD01FCC9305C0020545EFD07FCB9305BC
:10352000D0020545EFD0DFCA1305300BEFE0DFD046
:1035300085450545EFD0DFC99305C0020545EFD0AD
:103540003FC99305D0020545EFD09FC88545054585
:10355000EFD01FC89305C0020545EFD07FC7930584
:10356000D0020545EFD0DFC61305400BEFE0DFCCFE
:103570009D450545EFD0DFC51305000CEFE0DFCB1F
:103580009305200A0545EFD0BFC489450545EFD016
:103590003FC4930540080545EFD09FC31305100CA9
:1035A000EFE09FC99305500C0545EFD07FC213058E
:1035B000200CEFE07FC8A9450545EFD07FC18145CC
:1035C0000545EFD0FFC01305300CEFE0FFC69305B3
:1035D000A0080545EFD0DFBF9305A0020545EFD059
:1035E0003FBF1305400CEFE03FC59305A00805451C
:1035F000EFD01FBE9305E00E0545EFD07FBD13054C
:10360000500CEFE07FC3B9450545EFD07FBC1305F3
:103610006003EFE07FC283A7018705476380E7026D
:1036200081CB09476381E7020D476384E70205A860
:103630009305000C0545EFD0BFB915A081450545A0
:10364000EFD01FB929A89305000A0545EFD05FB850
:1036500039A0930500060545EFD09FB7010013057B
:10366000000EEFE07FBDBD450545EFD07FB6E945D3
:103670000545EFD0FFB5BD450545EFD07FB5E14528
:103680000545EFD0FFB49305F0020545EFD05FB4D8
:10369000930580020545EFD0BFB3930500020545B1
:1036A000EFD01FB3930520020545EFD07FB2FD4553
:1036B0000545EFD0FFB1ED450545EFD07FB193054E
:1036C00030020545EFD0DFB0930570030545EFD01C
:1036D0003FB081450545EFD0BFAF9D450545EFD0D3
:1036E0003FAF89450545EFD0BFAEC1450545EFD099
:1036F0003FAE1305100EEFE03FB4BD450545EFD0DA
:103700003FADED450545EFD0BFACBD450545EFD01C
:103710003FACDD450545EFD0BFAB93053003054514
:10372000EFD01FAB9305C0020545EFD07FAA9305EC
:1037300090020545EFD0DFA99305E0020545EFD0E3
:103740003FA9930500030545EFD09FA8930500030B
:103750000545EFD0FFA7930590030545EFD05FA780
:103760009305F0030545EFD0BFA681450545EFD091
:103770003FA69D450545EFD0BFA58D450545EFD03A
:103780003FA5C1450545EFD0BFA41305A002EFE05A
:10379000BFAA81450545EFD0BFA389450545EFD0B8
:1037A0003FA381450545EFD0BFA2930520080545FD
:1037B000EFD01FA21305B002EFE01FA88145054519
:1037C000EFD01FA18D450545EFD09FA08145054550
:1037D000EFD01FA0930530080545EFD07F9F13055C
:1037E000000FEFE07FA585450545EFD07F9E1305CF
:1037F000600FEFE07FA481450545EFD07F9D130565
:10380000A003EFE07FA395450545EFD07F9C13050E
:103810009002EFE07FA2B707002093870704DC4700
:10382000414798CBEFE07FCCEFE0DFC30100B2402F
:10383000224441018280411122C600080100324425
:1038400041018280411122C60008B7170240984307
:10385000B71702401367170098C3B7170240D44345
:10386000B71702403707FFF8758FD8C3B717024064
:103870009443B71702403707F7FE7D17758F98C33B
:10388000B71702409443B71702403707FCFF7D1774
:10389000758F98C3B7170240D443B7170240370754
:1038A00081FF7D17758FD8C3B717024037079F0078
:1038B00098C70100324441018280797106D622D432
:1038C0000018232EA4FCBD3F232604FE232404FE5F
:1038D000B71702409443B71702404167558F98C30A
:1038E000B71702409843B7070200F98F2324F4FE6C
:1038F0008327C4FE85072326F4FE832784FE91E7F1
:103900000327C4FE8567E31DF7FCB7170240984301
:10391000B7070200F98F89C785472324F4FE19A051
:10392000232404FE032784FE85476312F716371706
:103930000240B71702405843D8C337170240B717A1
:1039400002405843D8C337170240B71702405843C4
:10395000D8C3B7170240D443B71702403707C1FF97
:103960007D17758FD8C30327C4FDB7479508938784
:103970000740631BF700B7170240D443B717024054
:103980004167558FD8C355A80327C4FDB71727072C
:10399000938707E0631CF700B7170240D443B717BB
:1039A000024037073900558FD8C341A80327C4FD0B
:1039B000B7E7B80593870780631CF700B717024085
:1039C000D443B717024037072900558FD8C3B5A095
:1039D0000327C4FDB7A74A0493870720631CF70099
:1039E000B7170240D443B717024037071D00558F61
:1039F000D8C3A1A00327C4FDB777DC02938707C013
:103A0000631CF700B7170240D443B71702403707CB
:103A10001100558FD8C315A00327C4FDB7376E0119
:103A200093870760631BF700B7170240D443B717AB
:103A3000024037070500558FD8C3B717024094439B
:103A4000B717024037070001558F98C30100B71719
:103A500002409843B7070002F98FF5DBB717024021
:103A6000D843B7170240719BD8C3B7170240D84359
:103A7000B717024013672700D8C30100B7170240E9
:103A8000DC4313F7C700A147E31AF7FE11A001A01A
:103A9000B250225445618280011106CE22CC001022
:103AA0002326A4FE0327C4FE23A4E182EFF09FD9BE
:103AB0000325C4FEEFF07FE0EF20200C0100F24070
:103AC000624405618280411122C6000801000100A4
:103AD000324441018280011106CE22CC00102326FF
:103AE00004FE232404FE232604FE25A0232404FE32
:103AF00039A0D13F832784FE85072324F4FE0327C2
:103B000084FEC167E367F7FE8327C4FE850723268B
:103B1000F4FE0327C4FE9307F00FE3F9E7FC01006E
:103B2000F240624405618280411122C60008010012
:103B3000324441018280011106CE22CC001023269E
:103B4000A4FE8325C4FE0945EFD07FDB0100F240CF
:103B5000624405618280130101D9232611262324A2
:103B6000812623229126801C232EA4D8232CB4D86E
:103B7000232AC4D82328D4D8231504FE231404FEF2
:103B8000231304FE231204FE231104FE032584D90B
:103B9000EFB0401FAA87C207C1872313F4FE83D763
:103BA00081EF89C7938781EF9C4B829783C75187A9
:103BB00093F7F70F638D074A83D781EF6387074435
:103BC000938781EFD447835724FE139707014187DA
:103BD00093170701C1838507C207C183C207C18745
:103BE0002311F4FE93170701C1830326C4D9BE85B0
:103BF00001458296832784D92326F4FE032584D9A0
:103C0000EFB04018AA87C207C1872313F4FE938739
:103C100081EF83D727003E87938781EF83C76700B3
:103C2000B347F702C207C1872312F4FE01008327BE
:103C3000C4FE138717002326E4FE83870700E5FBF5
:103C4000231404FEA1A88327C4FEFD172326F4FE37
:103C50008327C4FE038707009307F002630AF70077
:103C60008327C4FE038707009307C005631BF70083
:103C7000835784FEC207C1838507C207C18323140B
:103C8000F4FE835764FEC207C187C207C183FD17D4
:103C9000C207C183C207C1872313F4FE835784FE82
:103CA000139707014183854763E8E700835764FE64
:103CB000C207C187E3D907F8835764FEC207C187EB
:103CC00063C207028327C4FE85072326F4FE130779
:103CD00004EE0326C4FEC5679385078A3A85EF7014
:103CE000E03F1DA8835784FEC207C18381EF1307FD
:103CF00004EE0326C4FEC5679385C78A3A85EF7034
:103D0000E03D19A8130704EE0326C4FEC56793859A
:103D1000078A3A85EF70803C231504FE21AA2314FC
:103D200004FE59A0930704EE3E85EFB0A0052A8754
:103D3000835784FEC207C183BE868357A4FEC20791
:103D4000C1833E86835744FEC207C187B307F6028C
:103D5000B6976367F706835784FEC207C1833E8721
:103D60008357A4FEC207C183BE86835744FEC207A1
:103D7000C187B387F602BA97035784FE420741838F
:103D8000BA86130704FFBA97038707EF930704FF68
:103D9000B6972388E7EA835784FEC207C183850765
:103DA000C207C1832314F4FE835784FEC207C18374
:103DB0003E87835744FEC207C187E345F7F611A04B
:103DC0000100835784FEC207C183130704FFBA971B
:103DD000238807EA938781EF03A8C700938781EFC1
:103DE00083C77700139707014183835724FE939677
:103DF0000701C18693970601C1838507C207C18366
:103E0000C207C1872311F4FE93970601C183B3074C
:103E1000F702C207C183130704EA3A86BE8501454B
:103E200002988357A4FEC207C1838507C207C183D6
:103E30002315F4FE8357A4FEC207C183BE849307F3
:103E400004EE3E85EFA010742A87835744FEC20714
:103E5000C187B357F7028507E3E3F4EC130704EED9
:103E6000032644D9C5679385C78B3A85EF70002731
:103E7000938781EF03A8C700938781EF83C77700FB
:103E8000139707014183835724FE93960701C18648
:103E900093970601C1838507C207C183C207C18703
:103EA0002311F4FE93970601C183B307F702C207FB
:103EB000C183130704EE3A86BE8501450298832725
:103EC00004D96386071A231504FE21AA231404FECD
:103ED00059A0032504D9EFA0F06A2A87835784FEEE
:103EE000C207C183BE868357A4FEC207C1833E8634
:103EF000835744FEC207C187B307F602B6976368CB
:103F0000F706835784FEC207C1833E878357A4FE0A
:103F1000C207C183BE86835744FEC207C187B387E9
:103F2000F602BA973E87832704D9BA97035784FECF
:103F300042074183BA8603870700930704FFB697B9
:103F40002388E7EA835784FEC207C1838507C20737
:103F5000C1832314F4FE835784FEC207C1833E87C6
:103F6000835744FEC207C187E345F7F611A001005D
:103F7000835784FEC207C183130704FFBA972388BF
:103F800007EA938781EF03A8C700938781EF83C770
:103F90007700139707014183835724FE9396070107
:103FA000C18693970601C1838507C207C183C207F3
:103FB000C1872311F4FE93970601C183B307F7026B
:103FC000C207C183130704EA3A86BE8501450298F9
:103FD0008357A4FEC207C1838507C207C183231587
:103FE000F4FE8357A4FEC207C183BE84032504D90F
:103FF000EFA050592A87835744FEC207C187B357A1
:10400000F7028507E3E4F4EC9DA0930704DA1306B6
:10401000001081453E85EFC0AF9E938781EF9C479E
:104020000325C4D98297832704D999CF130504DACD
:10403000032704D9832644D9032684D9C5679385E9
:10404000878CEF70A00929A8130704DA832644D9C6
:10405000032684D9C5679385478E3A85EF7000089B
:10406000938781EF9847930704DA3E850297010012
:104070008320C1260324812683244126130101279E
:104080008280411106C622C4000883C7518793F776
:10409000F70F89CF938541870945EFD09F94054657
:1040A000938541871385C1EDEF0050000100B240B8
:1040B000224441018280797106D622D40018232E31
:1040C000A4FC232CB4FC232AC4FC232604FEA9A0B0
:1040D0000100C567938707BA9C47930500043E8596
:1040E000EF50C053AA87F5D7C567938707BA9C4797
:1040F000BE86832784FD13871700232CE4FC838767
:104100000700C207C183BE853685EF50404E832726
:10411000C4FE85072326F4FE0327C4FE832744FD3F
:10412000E348F7FA832744FD3E85B25022544561A7
:104130008280011106CE22CC0010AA872324B4FE6F
:104140002322C4FEA307F4FE8347F4FEB1E383C732
:10415000C18293F7F70F8DCF83C7618791C301A009
:1041600083C76187850713F7F70F238BE186EF106D
:10417000101EEFF07F9B8146032644FE832584FEBC
:10418000C5671385C78FEFF01F9DEFF0DF94E5B78C
:104190000100F240624405618280011122CE0010CC
:1041A0002326A4FE8327C4FE239007008327C4FE92
:1041B0007D572391E7008327C4FE7D572392E700B4
:1041C0008327C4FE7D572383E7008327C4FE7D57E2
:1041D000A383E7008327C4FE23A407008327C4FE2C
:1041E00023A607008327C4FE23A80700010072440A
:1041F00005618280011122CE00102326A4FE8327B0
:10420000C4FE03D70700239CE1EE8327C4FE03D737
:104210002700938781EF2391E7008327C4FE03D70C
:104220004700938781EF2392E7008327C4FE03C7EB
:104230006700938781EF2383E7008327C4FE03C7CA
:104240007700938781EFA383E7008327C4FE984715
:10425000938781EF98C78327C4FED847938781EF60
:10426000D8C78327C4FE984B938781EF98CB054727
:10427000A38AE1860100724405618280797106D6C5
:1042800022D400189307C4FD3E85EFF01FF1B74715
:104290000000938767B32322F4FE9307C4FD3E8595
:1042A000EFF05FF589679386B70289671386A702E7
:1042B000F167938507200945EFD08FF89306000436
:1042C0001386C1E981451385C1EDEF1000178545BF
:1042D0000945EFD0CFE80100B250225445618280F9
:1042E000011122CE00102326A4FE2324B4FE83272E
:1042F000C4FE03C7970083C6A700A206558F83C6D6
:10430000B700C206558F83C7C700E207D98F3E8723
:10431000832784FE3E978327C4FE9375F70F83C6D9
:104320009700818A3686AE86D18EA384D7009356B5
:10433000870093F5F60F83C6A700818A3686AE867E
:10434000D18E2385D7009356070193F5F60F83C6C8
:10435000B700818A3686AE86D18EA385D7001356E4
:10436000870103C7C700018BBA863287558F238622
:10437000E70055A08327C4FE03C7970083C6A700A4
:10438000A206558F83C6B700C206558F83C7C700E4
:10439000E207D98F3E868327C4FE03C7570183C631
:1043A0006701A206558F83C67701C206558F83C762
:1043B0008701E207D98F3307F6408327C4FE937540
:1043C000F70F83C69700818A3686AE86D18EA38486
:1043D000D7009356870093F5F60F83C6A700818A0E
:1043E0003686AE86D18E2385D7009356070193F586
:1043F000F60F83C6B700818A3686AE86D18EA38536
:10440000D7001356870103C7C700018BBA863287CE
:10441000558F2386E7008327C4FE03C7570183C651
:104420006701A206558F83C67701C206558F83C7E1
:104430008701E207D98F3E868327C4FE03C7970012
:1044400083C6A700A206558F83C6B700C206558F44
:1044500083C7C700E207D98FE3FEC7F001007244AB
:1044600005618280011122CE00102326A4FE2324A0
:10447000B4FE8327C4FE03C7D70083C6E700A206A5
:10448000558F83C6F700C206558F83C70701E20721
:10449000D98F3E87832784FE3E978327C4FE93757A
:1044A000F70F83C6D700818A3686AE86D18EA38663
:1044B000D7009356870093F5F60F83C6E700818AED
:1044C0003686AE86D18E2387D7009356070193F5A3
:1044D000F60F83C6F700818A3686AE86D18EA38713
:1044E000D7001356870103C70701018BBA863287AD
:1044F000558F2388E70055A08327C4FE03C7D70044
:1045000083C6E700A206558F83C6F700C206558F03
:1045100083C70701E207D98F3E868327C4FE03C7FE
:10452000570183C66701A206558F83C67701C2066D
:10453000558F83C78701E207D98F3307F64083275A
:10454000C4FE9375F70F83C6D700818A3686AE8680
:10455000D18EA386D7009356870093F5F60F83C6B6
:10456000E700818A3686AE86D18E2387D7009356A0
:10457000070193F5F60F83C6F700818A3686AE866B
:10458000D18EA387D7001356870103C70701018B7C
:10459000BA863287558F2388E7008327C4FE03C776
:1045A000570183C66701A206558F83C67701C206ED
:1045B000558F83C78701E207D98F3E868327C4FEC4
:1045C00003C7D70083C6E700A206558F83C6F7004E
:1045D000C206558F83C70701E207D98FE3FEC7F0F4
:1045E0000100724405618280797106D622D40018D8
:1045F000232EA4FC8327C4FDB337F00093F7F70FF5
:104600003E8713065005C567938587913A85EFF07D
:104610005FB2232604FE8327C4FD83C7070093E708
:10462000170013F7F70F8327C4FD2380E7008327C4
:10463000C4FD03C79700018BA384E70003C7A7004D
:10464000018B2385E70003C7B700018BA385E70033
:1046500003C7C700018B2386E7008327C4FD03C778
:10466000D700018BA386E70003C7E700018B2387F0
:10467000E70003C7F700018BA387E70003C7070123
:10468000018B2388E7008327C4FD03C7570183C636
:104690006701A206558F83C67701C206558F83C76F
:1046A0008701E207D98F3E878327C4FD9375F70FF3
:1046B00083C61701818A3686AE86D18EA388D7003D
:1046C0009356870093F5F60F83C62701818A3686B5
:1046D000AE86D18E2389D7009356070193F5F60F46
:1046E00083C63701818A3686AE86D18EA389D700EC
:1046F0001356870103C74701018BBA863287558F4E
:10470000238AE7008327C4FD03C7170083C6270059
:10471000A206558F83C63700C206558F83C7470050
:10472000E207D98F0547638DE70489C7094763808E
:10473000E70AEDA08327C4FD03C7570083C66700BF
:10474000A206558F83C67700C206558F83C78700A0
:10475000E207D98F3E858327C4FD03C7570183C66F
:104760006701A206558F83C67701C206558F83C79E
:104770008701E207D98F3E868145EFB07FA879A8EF
:104780008327C4FD03C7570083C66700A206558F61
:1047900083C67700C206558F83C78700E207D98F8B
:1047A0003E858327C4FD03C7570183C66701A20660
:1047B000558F83C67701C206558F83C78701E207ED
:1047C000D98F86073E868145EFB09FA381A88327B6
:1047D000C4FD03C7570083C66700A206558F83C672
:1047E0007700C206558F83C78700E207D98F3E85C1
:1047F0008327C4FD03C7570183C66701A206558FEF
:1048000083C67701C206558F83C78701E207D98F18
:104810008A073E868145EFB0BF9E01008327C4FD15
:10482000238007008327C4FE3E85B2502254456191
:104830008280011106CE22CC00102326A4FE8327FD
:10484000C4FEB337F00093F7F70F3E8713066007F7
:10485000C567938587913A85EFF0BF8D8327C4FEA6
:1048600003C7570183C66701A206558F83C6770128
:10487000C206558F83C78701E207D98F3E868327FB
:10488000C4FE03C7170183C62701A206558F83C63E
:104890003701C206558F83C74701E207D98FB30797
:1048A000F6403E85F240624405618280797106D609
:1048B00022D40018232EA4FC232CB4FC232AC4FCED
:1048C0008327C4FDB337F00093F7F70F3E87130635
:1048D000000BC567938587913A85EFF09F85232666
:1048E00004FE232404FE832784FD89E78D472326C5
:1048F000F4FE59AB8327C4FD83C70700958B93F75C
:10490000F70F89C791472326F4FEBDAB8327C4FD6B
:1049100083C7070093E7470013F7F70F8327C4FD0A
:104920002380E7008327C4FD03C7170183C627013F
:10493000A206558F83C63701C206558F83C747012C
:10494000E207D98F3E87832744FD6361F7528327AF
:10495000C4FD03C7570183C66701A206558F83C6EE
:104960007701C206558F83C78701E207D98F3E863C
:104970008327C4FD03C7970083C6A700A206558FEF
:1049800083C6B700C206558F83C7C700E207D98F19
:10499000B307F6402324F4FE032744FD832784FE57
:1049A00063F3E72E8327C4FD03C7170083C62700E0
:1049B000A206558F83C63700C206558F83C74700AE
:1049C000E207D98F05476385E70E89C709476386E4
:1049D000E71C11A98327C4FD03C7570083C66700DE
:1049E000A206558F83C67700C206558F83C78700FE
:1049F000E207D98F3E868327C4FD03C7970083C68D
:104A0000A700A206558F83C6B700C206558F83C77D
:104A1000C700E207D98FB297032684FE832584FD61
:104A20003E85EF903026832584FE0325C4FDEFF0FC
:104A30003F8B8327C4FD03C7570083C66700A206C8
:104A4000558F83C67700C206558F83C78700E2075C
:104A5000D98F3E868327C4FD03C7970083C6A7006E
:104A6000A206558F83C6B700C206558F83C7C700FD
:104A7000E207D98FB306F600032784FD832784FE5F
:104A8000B305F700032744FD832784FEB307F740EF
:104A90003E863685EF90101F032744FD832784FE52
:104AA000B307F740BE850325C4FDEFF07F8325AE35
:104AB0008327C4FD03C7570083C66700A206558F2E
:104AC00083C67700C206558F83C78700E207D98F58
:104AD0003E868327C4FD03C7970083C6A700A206AE
:104AE000558F83C6B700C206558F83C7C700E2073C
:104AF000D98F86073307F600832784FE86073E8614
:104B0000832584FD3A85EF90F017832584FE0325E5
:104B1000C4FDEFF0EFFC8327C4FD03C7570083C635
:104B20006700A206558F83C67700C206558F83C7DC
:104B30008700E207D98F3E868327C4FD03C797000D
:104B400083C6A700A206558F83C6B700C206558F3D
:104B500083C7C700E207D98F8607B306F60083270D
:104B600084FE8607032784FDB305F700032744FD71
:104B7000832784FEB307F74086073E863685EF908D
:104B80007010032744FD832784FEB307F740BE85DA
:104B90000325C4FDEFF0CFF4B9A48327C4FD03C7F8
:104BA000570083C66700A206558F83C67700C206EA
:104BB000558F83C78700E207D98F3E868327C4FDC0
:104BC00003C7970083C6A700A206558F83C6B70008
:104BD000C206558F83C7C700E207D98F8A073307FC
:104BE000F600832784FE8A073E86832584FD3A8566
:104BF000EF905009832584FE0325C4FDEFF04FEEAE
:104C00008327C4FD03C7570083C66700A206558FDC
:104C100083C67700C206558F83C78700E207D98F06
:104C20003E868327C4FD03C7970083C6A700A2065C
:104C3000558F83C6B700C206558F83C7C700E207EA
:104C4000D98F8A07B306F600832784FE8A070327D5
:104C500084FDB305F700032744FD832784FEB307D3
:104C6000F7408A073E863685EF90D001032744FD42
:104C7000832784FEB307F740BE850325C4FDEFF00C
:104C80002FE601008DA28327C4FD03C7170083C64A
:104C90002700A206558F83C63700C206558F83C7EB
:104CA0004700E207D98F05476387E70689C70947A9
:104CB0006387E70C0DAA8327C4FD03C7570083C68B
:104CC0006700A206558F83C67700C206558F83C73B
:104CD0008700E207D98F3E868327C4FD03C797006C
:104CE00083C6A700A206558F83C6B700C206558F9C
:104CF00083C7C700E207D98FB297032644FD8325F7
:104D000084FD3E85EF900078832544FD0325C4FD96
:104D1000EFF00FDDC9A88327C4FD03C7570083C682
:104D20006700A206558F83C67700C206558F83C7DA
:104D30008700E207D98F3E868327C4FD03C797000B
:104D400083C6A700A206558F83C6B700C206558F3B
:104D500083C7C700E207D98F86073307F60083278A
:104D600044FD86073E86832584FD3A85EF90807159
:104D7000832544FD0325C4FDEFF08FD6ADA0832726
:104D8000C4FD03C7570083C66700A206558F83C6BC
:104D90007700C206558F83C78700E207D98F3E860A
:104DA0008327C4FD03C7970083C6A700A206558FBB
:104DB00083C6B700C206558F83C7C700E207D98FE5
:104DC0008A073307F600832744FD8A073E8683253A
:104DD00084FD3A85EF90006B832544FD0325C4FDD7
:104DE000EFF00FD001008327C4FD03C7170183C66E
:104DF0002701A206558F83C63701C206558F83C788
:104E00004701E207D98F3E87832744FD1D8F832703
:104E1000C4FD9375F70F83C61701818A3686AE8667
:104E2000D18EA388D7009356870093F5F60F83C6DB
:104E30002701818A3686AE86D18E2389D700935684
:104E4000070193F5F60F83C63701818A3686AE8651
:104E5000D18EA389D7001356870103C74701018B61
:104E6000BA863287558F238AE70021A095472326EB
:104E7000F4FE8327C4FD83C70700ED9B13F7F70FEC
:104E80008327C4FD2380E7008327C4FE3E85B250FC
:104E9000225445618280797106D622D40018232ECF
:104EA000A4FC232CB4FC232AC4FC2328D4FC832791
:104EB000C4FDB337F00093F7F70F3E8713061016C3
:104EC000C567938587913A85EFF0AFA6832744FDA8
:104ED000B337F00093F7F70F3E8713062016C56728
:104EE000938587913A85EFF0CFA4232604FE2324EF
:104EF00004FE232204FE832784FD89E78D472326B1
:104F0000F4FEA9A18327C4FD83C707008D8B93F707
:104F1000F70F91CB832744FD032744FE98C399479D
:104F20002326F4FE21A30325C4FDEFF09F90232246
:104F3000A4FE832744FD9C43032744FE6379F702C4
:104F4000832744FD032744FE98C39D472326F4FE90
:104F5000832744FE89EF8327C4FD83C70700DD9BB9
:104F600013F7F70F8327C4FD2380E700C1A1832730
:104F7000C4FD83C7070093E7870013F7F70F832764
:104F8000C4FD2380E7008327C4FD03C7570183C600
:104F90006701A206558F83C67701C206558F83C766
:104FA0008701E207D98F3E868327C4FD03C7D70058
:104FB00083C6E700A206558F83C6F700C206558F49
:104FC00083C70701E207D98FB307F6402324F4FE15
:104FD000832744FD9C43032784FE6366F7148327DD
:104FE000C4FD03C7170083C62700A206558F83C6DA
:104FF0003700C206558F83C74700E207D98F0547A0
:105000006384E70689C70947638FE70A2DA68327CC
:10501000C4FD03C7570083C66700A206558F83C629
:105020007700C206558F83C78700E207D98F3E8677
:105030008327C4FD03C7D70083C6E700A206558FA8
:1050400083C6F700C206558F83C70701E207D98FD1
:105050003307F600832744FD9C433E86BA8503252B
:1050600084FDEF902042C1AC8327C4FD03C75700E5
:1050700083C66700A206558F83C67700C206558F88
:1050800083C78700E207D98F3E868327C4FD03C705
:10509000D70083C6E700A206558F83C6F700C20675
:1050A000558F83C70701E207D98F86073307F600BC
:1050B000832744FD9C4386073E86BA85032584FDED
:1050C000EF90403C8DAC8327C4FD03C7570083C6D7
:1050D0006700A206558F83C67700C206558F83C727
:1050E0008700E207D98F3E868327C4FD03C7D70018
:1050F00083C6E700A206558F83C6F700C206558F08
:1051000083C70701E207D98F8A073307F600832791
:1051100044FD9C438A073E86BA85032584FDEF90B3
:105120006036010009AC8327C4FD03C7170083C69E
:105130002700A206558F83C63700C206558F83C746
:105140004700E207D98F05476383E70A89C7094704
:105150006381E714CDA28327C4FD03C7570083C62C
:105160006700A206558F83C67700C206558F83C796
:105170008700E207D98F3E868327C4FD03C7D70087
:1051800083C6E700A206558F83C6F700C206558F77
:1051900083C70701E207D98FB297032684FEBE8535
:1051A000032584FDEF90002E032784FD832784FED2
:1051B0003305F7008327C4FD03C7570083C6670084
:1051C000A206558F83C67700C206558F83C7870016
:1051D000E207D98FBE86832744FD9843832784FE48
:1051E000B307F7403E86B685EF90C029A9A2832772
:1051F000C4FD03C7570083C66700A206558F83C648
:105200007700C206558F83C78700E207D98F3E8695
:105210008327C4FD03C7D70083C6E700A206558FC6
:1052200083C6F700C206558F83C70701E207D98FEF
:1052300086073307F600832784FE86073E86BA85F5
:10524000032584FDEF900024832784FE860703272F
:1052500084FD3305F7008327C4FD03C7570083C6C9
:105260006700A206558F83C67700C206558F83C795
:105270008700E207D98FBE86832744FD98438327A2
:1052800084FEB307F74086073E86B685EF90801F01
:105290005DA08327C4FD03C7570083C66700A2062D
:1052A000558F83C67700C206558F83C78700E207F4
:1052B000D98F3E868327C4FD03C7D70083C6E70086
:1052C000A206558F83C6F700C206558F83C7070114
:1052D000E207D98F8A073307F600832784FE8A07FF
:1052E0003E86BA85032584FDEF90C019832784FE8E
:1052F0008A07032784FD3305F7008327C4FD03C70E
:10530000570083C66700A206558F83C67700C20682
:10531000558F83C78700E207D98FBE86832744FD58
:105320009843832784FEB307F7408A073E86B685F5
:10533000EF90401501008327C4FD83C70700DD9B64
:1053400013F7F70F8327C4FD2380E700832704FDAD
:10535000F1EF8327C4FD03C70700AD476316F700CD
:1053600089472326F4FED9A08327C4FD83C70700FD
:1053700093E7270013F7F70F8327C4FD2380E70087
:10538000832744FD9C43BE850325C4FDEFF08F8D2C
:105390008327C4FD03C7170183C62701A206558FC3
:1053A00083C63701C206558F83C74701E207D98FED
:1053B0003E87832744FD9C433E978327C4FD937516
:1053C000F70F83C61701818A3686AE86D18EA388F1
:1053D000D7009356870093F5F60F83C62701818A7D
:1053E0003686AE86D18E2389D7009356070193F572
:1053F000F60F83C63701818A3686AE86D18EA389A1
:10540000D7001356870103C74701018BBA8632873D
:10541000558F238AE7008327C4FD83C70700F59BC8
:1054200013F7F70F8327C4FD2380E7008327C4FE0B
:105430003E85B250225445618280797106D622D4CD
:105440000018232EA4FC232CB4FC232AC4FC2328FC
:10545000D4FC8327C4FDB337F00093F7F70F3E87E2
:1054600013062022C567938587913A85EFE07FCCAC
:10547000232604FE8327C4FD032744FD1376F70F7C
:1054800003C75700018BBA863287558FA382E70086
:10549000032744FD21831376F70F03C76700018BB1
:1054A000BA863287558F2383E700032744FD418363
:1054B0001376F70F03C77700018BBA863287558FB3
:1054C000A383E700032744FD1356870103C7870022
:1054D000018BBA863287558F2384E7008327C4FD6A
:1054E000238007008327C4FD032784FD1376F70F6D
:1054F00003C71700018BBA863287558FA380E70058
:10550000032784FD21831376F70F03C72700018B40
:10551000BA863287558F2381E700032784FD4183B4
:105520001376F70F03C73700018BBA863287558F82
:10553000A381E700032784FD1356870103C74700B3
:10554000018BBA863287558F2382E7008327C4FDFB
:1055500003C79700018BA384E70003C7A700018B53
:105560002385E70003C7B700018BA385E70003C7C6
:10557000C700018B2386E7008327C4FD03C7D7003C
:10558000018BA386E70003C7E700018B2387E700B1
:1055900003C7F700018BA387E70003C70701018B4F
:1055A0002388E7008327C4FD032704FD1376F70F44
:1055B00003C71701018BBA863287558FA388E7008E
:1055C000032704FD21831376F70F03C72701018BFF
:1055D000BA863287558F2389E700032704FD41836C
:1055E0001376F70F03C73701018BBA863287558FC1
:1055F000A389E700032704FD1356870103C747016A
:10560000018BBA863287558F238AE7008327C4FD32
:10561000032704FD1376F70F03C75701018BBA86E2
:105620003287558FA38AE700032704FD2183137671
:10563000F70F03C76701018BBA863287558F238B1B
:10564000E700032704FD41831376F70F03C77701B3
:10565000018BBA863287558FA38BE700032704FDA1
:105660001356870103C78701018BBA863287558F8E
:10567000238CE7008327C4FE3E85B2502254456147
:105680008280397106DE22DC80002326A4FC2324DC
:10569000B4FC8327C4FCB337F00093F7F70F3E87C1
:1056A0001306C00CC567938587943A85EFE07FA801
:1056B000A30704FE8327C4FCD9CB832784FCB1E372
:1056C0008327C4FC130700032380E70051A00327AE
:1056D00084FCA947B376F7028347F4FE13871700CB
:1056E000A307E4FE139786016187930604FFB6972C
:1056F0002386E7FE032784FCA947B357F702232438
:10570000F4FC832784FCE1F73DA88347F4FEFD17F2
:10571000130704FFBA978387C7FE93F7F70F9387A2
:10572000070393F6F70F8327C4FC1387170023267C
:10573000E4FC1397860161872380E7008347F4FE2A
:10574000FD17A307F4FE8347F4FEE1F311A0010067
:105750000100F250625421618280197186DEA2DC60
:1057600000012326A4F82320B4F82322C4F8B68726
:10577000A305F4F88327C4F8B337F00093F7F70FC5
:105780003E871306301CC567938587943A85EFE002
:105790005F9A232604FE232404FE8347B4F8A30360
:1057A000F4FE8327C4F863850724032504F88325C2
:1057B00044F8EF80205DAA872326F4FE0146814647
:1057C000032504F8832544F8EF70803AAA8763DD47
:1057D00007008327C4F8138717002326E4F813076C
:1057E000D0022380E700B1A001468146032504F8DA
:1057F000832544F8EF70E022AA8785EF8327C4F859
:10580000138717002326E4F8130700032380E7001B
:105810008327C4F8138717002326E4F81307E00250
:105820002380E7008327C4F8130700032380E700E1
:10583000C9A20325C4FEEF80406CAA872E883E864D
:10584000C286032504F8832544F8EF703023AA8725
:105850002E882320F4F8232204F915A0C56703A697
:10586000079A83A6479A032504F8832544F8EF7026
:10587000803BAA872E882320F4F8232204F983474B
:1058800074FE1387F7FFA303E4FEE9FB032504F886
:10589000832544F8EF80004FAA872324F4FEA30356
:1058A00004FE834774FE13871700A303E4FEBE863D
:1058B0000327C4FEA9473367F70293972600930690
:1058C00004FFB69723A2E7FC0327C4FEA947B3470A
:1058D000F7022326F4FE8327C4FEE1F7A1A0834745
:1058E00074FEFD178A07130704FFBA9783A747FCC6
:1058F00013D7F741B98F998F93F7F70F9387070362
:1059000093F6F70F8327C4F8138717002326E4F8CC
:105910001397860161872380E700834774FEFD1794
:10592000A303F4FE834774FEDDFB8347B4F8F1C3A1
:10593000A30304FE8327C4F8138717002326E4F883
:105940001307E0022380E700832784FEB9E783275B
:10595000C4F8130700032380E70061A8834774FE9F
:1059600013871700A303E4FEBE86032784FEA9471E
:105970003367F70293972600930604FFB69723A098
:10598000E7FA032784FEA947B347F7022324F4FE6E
:105990008347B4F8FD17A305F4F88347B4F8DDFF97
:1059A000A1A0834774FEFD178A07130704FFBA9767
:1059B00083A707FA13D7F741B98F998F93F7F70F9A
:1059C0009387070393F6F70F8327C4F8138717000D
:1059D0002326E4F81397860161872380E700834735
:1059E00074FEFD17A303F4FE834774FEDDFB11A0D4
:1059F00001000100F650665409618280411122C6FF
:105A000000089967938787087390078001003244E4
:105A100041018280411122C6000899677390078076
:105A20000100324441018280011122CE0010232660
:105A3000A4FE8327C4FEFD8B0547B316F70037E7A6
:105A400000E08327C4FE9583938707048A07BA97EB
:105A500094C30100724405618280011122CE0010BE
:105A60002326A4FE8327C4FEFD8B0547B316F7004B
:105A700037E700E08327C4FE9583938707068A07EC
:105A8000BA9794C30100724405618280011122CE4D
:105A900000102326A4FEAE87A305F4FE37E700E03E
:105AA0008327C4FEBA970347B4FE2380E740010072
:105AB000724405618280011106CE22CC001023269B
:105AC000A4FE0325C4FEEFF03FF60100F24062445D
:105AD00005618280011106CE22CC00102326A4FE8F
