:100000006F70E01E130000001300000013000000DA
:100010001300000013000000130000001300000094
:100020001300000013000000130000001300000084
:08003000130000007300100032
:1000380000000000000000006C6E00007C6E0000F4
:100048000000000034710000000000000000000003
:100058003671000038710000000000000000000048
:100068003A710000000000003C7100000000000030
:100078003E710000407100004271000044710000B0
:10008800467100004871000022610000D66100003E
:100098008A6200003E630000F263000054710000B1
:1000A80056710000587100005A7100005C71000020
:1000B8005E710000607100006271000064710000F0
:1000C80066710000687100006A710000A664000093
:1000D8006E710000FE66000072710000747100000D
:1000E800BE6700007C6800003C6900007C7100006D
:1000F8007E71000080710000827100008471000030
:10010800867100002E5A0000F25A0000B65B00000B
:10011800C4650000907100009271000094710000A5
:10012800346C0000987100009A7100009C71000006
:100138009E710000A0710000FC690000A47100001D
:100148007E5C0000425D0000BC6A0000746B000029
:10015800AE710000B0710000B2710000B47100000F
:10016800B6710000B8710000BA710000BC710000DF
:10017800BE710000C0710000C2710000A2990000A9
:10018800C6710000C871000052600000045E0000E3
:10019800C85E0000925F0000D2710000F46C00009D
:1001A800D6710000D8710000DA710000B46D00004B
:1001B800DE710000E0710000E2710000E4710000EF
:1001C800E6710000E8710000EA710000EC710000BF
:1001D8000000000000000000000000000000000017
:1001E8000000000000000000000000000000000007
:0801F8000000000000000000FF
:100200003D432A876373C3029377F700BDEFADE5E3
:10021000937606FF3D8ABA960CC34CC30CC74CC7F5
:100220004107E36BD7FE11E28280B306C3408A0622
:100230009702000096966780A6002307B700A306E2
:10024000B7002306B700A305B7002305B700A30432
:10025000B7002304B700A303B7002303B700A3022A
:10026000B7002302B700A301B7002301B700A30022
:10027000B7002300B700828093F5F50F93968500B1
:10028000D58D93960501D58D61B79396270097027A
:10029000000096968682E78086FA9680C1171D8FA9
:1002A0003E96E374C3F8A5B7797106D622D4001838
:1002B000232EA4FC8327C4FDB18393F7F70FBD8BD6
:1002C000A307F4FE8327C4FDA18393F7F70FBD8B2B
:1002D0002307F4FE0347F4FEB70700200A079387BD
:1002E0008727BA979C430347E4FE91460546BA85A3
:1002F0003E85EF70A0200347F4FEB70700200A07F1
:1003000093878727BA979C4385453E85EF70C01A2F
:1003100001000347F4FEB70700200A0793878727E9
:10032000BA979C4389453E85EF70C041AA87F5D3B3
:100330000347F4FEB70700200A0793878727BA9779
:100340009C43FC478346F4FE138781853697034719
:100350000700B3D7E700C207C1833E85B2502254DD
:10036000456182805D7186C6A2C48008232EA4FAEE
:10037000232CB4FA232604FC232804FC232A04FC9F
:10038000232C04FC232E04FC232004FE232204FE41
:10039000232404FE8327C4FBB18393F7F70FBD8B9F
:1003A000A307F4FE8327C4FB93F7F70F81460146AA
:1003B00081453E85EF00607D8347F4FE99E78545E2
:1003C00013050020EF70707F19A80347F4FE8547DE
:1003D0006317F700854513050040EF70107E316507
:1003E000EF70F04C0347F4FEB70700200A0793872D
:1003F0008727BA979C433E85EF60D067232604FC8D
:10040000232804FC232A04FCB7070E00232CF4FC49
:10041000232E04FC85472300F4FE0347F4FEB707B0
:1004200000200A0793878727BA979C431307C4FCC9
:10043000BA853E85EF60106A0347F4FEB7070020D7
:100440000A0793878727BA979C4385453E85EF60C7
:1004500090780347F4FEB70700200A0793878727A1
:10046000BA979C4381453E85EF7060310347F4FEA7
:10047000B70700200A0793878727BA979C433E85D2
:10048000EF60507901000347F4FEB70700200A0728
:1004900093878727BA979C433E85EF60D079AA87D8
:1004A000FDF30347F4FEB70700200A079387872769
:1004B000BA979C433E85EF60107B01000347F4FE32
:1004C000B70700200A0793878727BA979C433E8582
:1004D000EF60907BAA87FDF38346F4FE832784FBBD
:1004E00013F7F70F93878185B6972380E700010004
:1004F000B640264461618280011122CE001023267D
:10050000A4FE37F500E08328450037F500E093F8B6
:10051000E8FF2322150183A801830965130505F46B
:1005200033D5A802AA8601470325C4FEAA8701483D
:1005300037F500E03303F702B308D8029A98338303
:10054000F60233B6F6029A85B387C8003E860CC918
:1005500050C9B7F700E09843B7F700E01367070109
:1005600098C3B7F700E09843B7F700E013671702A6
:1005700098C30100B7F700E0DC4313F71700854785
:10058000E31AF7FEB7F700E09843B7F700E0799B6E
:1005900098C30100724405618280011122CE0010CF
:1005A0002326A4FEB707014093870740984383277B
:1005B000C4FEFD8B8546B397F600BE86B7070140A3
:1005C00093870740558F98C301007244056182806C
:1005D000011122CE00102326A4FEB7070140938705
:1005E000074098438327C4FEFD8B8546B397F600EA
:1005F00093C7F7FFBE86B707014093870740758F03
:1006000098C30100724405618280797106D622D4B4
:100610000018232EA4FC232CB4FC85450545EF705F
:10062000D05993068004054681450325C4FDB12BAE
:100630008327C4FD958313F7F70F8327C4FD93F732
:10064000F70FFD8B93F7F70FBE853A85EF70101CFF
:10065000232004FE232204FE232404FE232604FE7A
:100660008327C4FDFD8B0547B317F7002320F4FE55
:10067000232204FE832784FD2324F4FE85472326BA
:10068000F4FE930704FE3E85EF70A0138327C4FD9C
:10069000FD8B89E75945EF50C02BBDA08327C4FDD2
:1006A000F98B89E75D45EF50C02AB9A88327C4FDBF
:1006B00013F7F701894763E6E7006145EF506029CA
:1006C000A1A08327C4FDF18B89E76545EF50602821
:1006D00025A88327C4FD13F7F701914763E6E700D8
:1006E0006945EF5000270DA08327C4FD13F7F701DC
:1006F000A54763E7E70013057002EF50802529A0A6
:1007000013058003EF50E0240100B25022544561EC
:100710008280797106D622D40018232EA4FC232CC3
:10072000B4FC8327C4FD93B7070493F7F70F3E8704
:1007300013068003C1679385475D3A85EF30300922
:10074000832784FD93B7470093F7F70F3E8713067F
:100750009003C1679385475D3A85EF305007A30743
:1007600004FE0327C4FDA167BA97139727008327C8
:1007700084FDBA97AA072324F4FEEF500027232212
:10078000A4FE231604FE35A00357C4FE832784FE6F
:10079000BA979843B7E739E3938797336306F7002F
:1007A0008547A307F4FE21A88357C4FE91072316AB
:1007B000F4FE0357C4FE9307F03FE3F7E7FC03257D
:1007C00044FEEF50601F8347F4FE3E85B250225432
:1007D00045618280797106D622D40018232EA4FCAC
:1007E000232CB4FC8327C4FD93B7070493F7F70FBA
:1007F0003E871306F005C1679385475D3A85EF3064
:10080000007D832784FD93B7470093F7F70F3E875A
:1008100013060006C1679385475D3A85EF30207B5C
:10082000A30704FE0327C4FDA167BA971397270007
:10083000832784FDBA97AA072324F4FEEF50E01A19
:100840002322A4FEEF70401613054003EF70802CA6
:10085000032584FEEF70C0192A8723A4E1801305C5
:100860000002EF70202BEF70C01603A78180914724
:100870006305F7008547A307F4FE032544FEEF5008
:10088000A0138347F4FE3E85B25022544561828016
:10089000797106D622D40018232EA4FC232CB4FC94
:1008A0008327C4FD93B7070493F7F70F3E8713061A
:1008B000800DC1679385475D3A85EF30407183278E
:1008C00084FD93B7470093F7F70F3E871306900D0B
:1008D000C1679385475D3A85EF30606F0327C4FD9C
:1008E000A167BA9713972700832784FDBA97AA07B1
:1008F0002324F4FE231704FE3DA08357E4FE8A0759
:100900003E87832784FEBA978356E4FE9843B70751
:1009100000208A0693870733B69798C38357E4FE6F
:1009200085072317F4FE0357E4FE9307F00FE3F661
:10093000E7FC0100B250225445618280797106D6ED
:1009400022D40018232EA4FC232CB4FC8327C4FD3E
:1009500093B7070493F7F70F3E871306100FC1678D
:100960009385475D3A85EF308066832784FD93B792
:10097000470093F7F70F3E871306200FC167938553
:10098000475D3A85EF30A064A30704FE232404FEEC
:10099000231304FE0327C4FDA167BA97139727000A
:1009A000832784FDBA97AA072324F4FE832584FDB8
:1009B0000325C4FDB93BAA8791C7832584FD032580
:1009C000C4FD093DEF5060022320A4FEEF60D07DFE
:1009D000A9A0035764FEB70700200A0793870733CF
:1009E000BA979C43BE85032584FEEF70C0072A8713
:1009F00023A6E18003A7C18091476306F7008547DE
:100A0000A307F4FE0DA0835764FE85072313F4FEAD
:100A1000832784FE91072324F4FE035764FE930783
:100A2000F00FE3F8E7FAEF60D07A032504FEEF4019
:100A3000B0788347F4FE3E85B250225445618280EF
:100A4000411106C622C40008130600409305F00FAA
:100A5000B707002013850733EFF08FFA0100B2408B
:100A6000224441018280011122CE00102326A4FEDF
:100A7000AE87A305F4FE8347B4FE85CB8327C4FE6F
:100A8000BD8B0547B317F70093960701C1828327F3
:100A9000C4FE13D75700B70700200A07938707043F
:100AA000BA979C43368798CB3DA08327C4FEBD8B65
:100AB0000547B317F70093960701C1828327C4FE49
:100AC00013D75700B70700200A0793870704BA9780
:100AD0009C433687D8CB01007244056182800111A6
:100AE00022CE00102326A4FE8327C4FE958313F78D
:100AF0007700B70700200A0793870704BA979C433B
:100B00009C470327C4FE7D8B85463397E600F98F0B
:100B1000B337F00093F7F70F3E857244056182808A
:100B2000797122D60018232EA4FC8327C4FD958357
:100B300093F7F70F9D8BA307F4FE8327C4FD93F76C
:100B4000F70FFD8B2307F4FE0347F4FEB7070020E1
:100B50000A0793870704BA979C43D8478347E4FE64
:100B60008546B397F600C207C1833E868346F4FEEE
:100B7000B70700208A0693870704B6979C43318FF6
:100B8000D8C70100325445618280797106D622D4DB
:100B90000018232EA4FC232CB4FCB2872328D4FCF9
:100BA000A30BF4FC232004FE232204FE232404FED2
:100BB0008327C4FD958393F7F70F9D8BA307F4FE5E
:100BC0008327C4FD93F7F70FFD8B2307F4FE8347BC
:100BD000F4FE91E785451145EF70207E91A803470B
:100BE000F4FE85476317F70085452145EF70E07CEB
:100BF00081A00347F4FE89476317F7008545414507
:100C0000EF70A07B35A00347F4FE8D476318F70013
:100C1000854513050002EF70407A19A80347F4FEDA
:100C200091476317F700854513050004EF70E078DE
:100C30008347E4FE0547B317F700C207C1832310BB
:100C4000F4FE032784FD85476317F702832704FD1D
:100C5000C207C183A183C207C18389E78D472322CD
:100C6000F4FE11A8832704FDC207C183A183C20734
:100C7000C1832322F4FE832704FDC207C18393F7B7
:100C8000F70F2324F4FE0347F4FEB70700200A07FA
:100C900093870704BA979C43130704FEBA853E85E1
:100CA000EF603074032784FD85476319F70203471B
:100CB000F4FEB70700200A0793870704BA97944306
:100CC0008347E4FE0547B317F700C207C183034714
:100CD00074FD3A86BE853685EF7040130100B25030
:100CE0002254456182801D7186CEA2CC80102326BD
:100CF000A4FA2324B4FA85450325C4FAEF00D034BE
:100D0000AA873E871306D006C1679385C7623A85D6
:100D1000EF30E02B832784FAB337F00093F7F70F17
:100D20003E871306F006C1679385C7623A85EF30A8
:100D3000002A832784FABD832315F4FE8357A4FE7B
:100D400085073E87832784FAB3D7E7022314F4FE8E
:100D50000325C4FAEF00B035B7370140938707C0C9
:100D60002326F4FE0327C4FAA54763ECE70883278C
:100D7000C4FA13972700C5679387479EBA979C4389
:100D80008287B7370140938707C02326F4FE95A8D2
:100D9000B70700402326F4FEADA0B70700409387B5
:100DA00007402326F4FEB1A8B717004093870780B9
:100DB0002326F4FEB9A0B7170040938707C0232667
:100DC000F4FE81A0B71700402326F4FE1DA8B71734
:100DD0000040938707402326F4FE25A0B737014043
:100DE000938707402326F4FE29A8B757014093872D
:100DF00007C02326F4FE31A0B75701402326F4FE96
:100E00000100232E04FC232004FE231204FE83573A
:100E100084FE2310F4FE8357A4FE231EF4FC23114A
:100E200004FE231F04FC230204FE9307C4FDBE85B9
:100E30000325C4FEEF707006054685450325C4FEF4
:100E4000EF80001685450325C4FEEF80604CC16726
:100E500003AE47601387476003234700138747604B
:100E600083288700138747600328C70013874760DC
:100E7000084B138747604C4B13874760104F13870D
:100E80004760544F13874760185393874760DC537C
:100E9000232AC4FB232C64FA232E14FB232004FDF5
:100EA0002322A4FC2324B4FC2326C4FC2328D4FC42
:100EB000232AE4FC232CF4FC8327C4FA93F7F70FCE
:100EC0008A07130704FFBA9783A747FC8D453E8521
:100ED000EF40F02B8327C4FA8A07130704FFBA9761
:100EE00083A747FC3E85EF40D02685450325C4FEF9
:100EF000EF70907F0100F640664425618280797131
:100F000006D622D40018232EA4FC232CB4FC0327DD
:100F100084FD896793871771B337F70093F7F70F4D
:100F20003E8713065003C167938587653A85EF3086
:100F3000000AB7370140938707C02326F4FE8327B2
:100F4000C4FDC183BD8B2547636EF7061397270049
:100F5000C5679387C7A0BA979C438287B73701407C
:100F6000938707C02326F4FEB1A8B70700402326C5
:100F7000F4FE89A8B7070040938707402326F4FEB4
:100F800091A0B7170040938707802326F4FE1DA881
:100F9000B7170040938707C02326F4FE25A0B73774
:100FA0000140938707402326F4FE29A8B757014044
:100FB000938707C02326F4FE31A0B75701402326AC
:100FC000F4FE01008327C4FE83D7C7022315F4FE75
:100FD0000357A4FE832784FD3307F70289679387AD
:100FE0000771B357F7022314F4FE8327C4FDA183CE
:100FF0008D8B81EB8327C4FE035784FE239AE7027F
:10100000A9A88327C4FDA18313F737008547631977
:10101000F7008327C4FE035784FE239CE70235A80C
:101020008327C4FDA18313F7370089476319F700AD
:101030008327C4FE035784FE239EE70239A8832733
:10104000C4FDA18313F737008D476318F70083278A
:10105000C4FE035784FE2390E7040100B2502254DB
:10106000456182805D7186C6A2C48008232EA4FAE1
:10107000232CB4FA232AC4FA8327C4FBC1838D45E9
:101080003E85EF00607CAA873E871306D00AC167C1
:10109000938587653A85EF209073032744FB896722
:1010A00093871771B337F70093F7F70F3E8713064F
:1010B000F00AC167938587653A85EF205071232E2A
:1010C00004FC232004FE231204FE232604FC232810
:1010D00004FC232A04FC232C04FC231504FE832790
:1010E000C4FBC183BD8B3E85EF00607C8327C4FBBE
:1010F00093F7F70F93068031014685453E8571349D
:1011000085450545EF70602BB7370140938707C0D1
:101110002326F4FE8327C4FBC183BD8B2547636E62
:10112000F70613972700C567938747A3BA979C4391
:101130008287B7370140938707C02326F4FEB1A802
:10114000B70700402326F4FE89A8B707004093871D
:1011500007402326F4FE91A0B7170040938707802D
:101160002326F4FE1DA8B7170040938707C0232647
:10117000F4FE25A0B7370140938707402326F4FEED
:1011800029A8B7570140938707C02326F4FE31A052
:10119000B75701402326F4FE01008327C4FB13D771
:1011A000C7008D47631AF7008545B70716001385FA
:1011B000070CEF60304915AA8327C4FB13D7C7007B
:1011C000C547631AF7008545B70718001385071050
:1011D000EF60504719AA8327C4FB13D7C700C9473C
:1011E000631AF7008545B707180013850720EF60DD
:1011F0007045E5A88327C4FB13D7C700CD47631A02
:10120000F7008545B707180013850730EF60904356
:10121000E9A88327C4FB13D7C70093072002631AEA
:10122000F7008545B7171A0013850780EF609041D6
:101230006DA88327C4FB13D7C70093073002631A36
:10124000F7008545B7171A00138507C0EF60903F78
:1012500069A88327C4FB13D7C7009307100363173C
:10126000F70085450565EF60F03D41A08327C4FB8D
:1012700013D7C70093071007631AF7008545B70710
:10128000008013854700EF60F03B85A08327C4FBF7
:1012900013D7C70093073008631AF7008545B707CF
:1012A000138013850701EF60F03981A08327C4FB09
:1012B00013D7C70093071009631AF7008545B707CE
:1012C000158013850702EF60F03705A08327C4FB64
:1012D00013D7C700930730096319F7008545B7078F
:1012E000158013850704EF60F03503A7018383277A
:1012F00084FBB357F702C1832315F4FE03A70183D0
:101300008357A4FE8507BE86832784FBB387F60236
:10131000B357F7022314F4FE035784FE832744FBDC
:101320003307F702896793870771B357F7022313CF
:10133000F4FE835784FEFD17C207C1832310F4FE19
:101340008357A4FE231EF4FC231104FE231F04FC78
:10135000230204FE9307C4FDBE850325C4FEEF707F
:10136000C033930700072316F4FC85472317F4FCCA
:10137000231804FC835764FE2319F4FC8947231ABD
:10138000F4FC8947231BF4FC231C04FC231D04FCF0
:101390008327C4FBA1838D8B9DE39307C4FCBE858B
:1013A0000325C4FEEF704047A1450325C4FEEF703E
:1013B000304691450325C4FEEF70505A45A083275F
:1013C000C4FBA18313F7370085476315F702930722
:1013D000C4FCBE850325C4FEEF70C05DA145032596
:1013E000C4FEEF70B047930500400325C4FEEF70C4
:1013F000B05BADA08327C4FBA18313F737008947F7
:101400006314F7029307C4FCBE850325C4FEEF7086
:101410008078A1450325C4FEEF70F049914503256E
:10142000C4FEEF70D05D1DA88327C4FBA18313F712
:1014300037008D476314F7029307C4FCBE8503256C
:10144000C4FEEF701013A1450325C4FEEF70704B6E
:10145000930500400325C4FEEF70305F85450325EA
:10146000C4FEEF70F02D85450325C4FEEF70D02734
:101470000100B640264461618280011122CE001035
:101480002326A4FEAE87A305F4FEC5670327C4FE8A
:101490000A079387C7A5BA979C433E878347B4FE44
:1014A000C207C1832316F7000100C5670327C4FEE6
:1014B0000A079387C7A5BA979C4383D78700C207BB
:1014C000C18393F70708F5F3010072440561828038
:1014D000011122CE00102326A4FEAE872315F4FEB0
:1014E0008357A4FEA183C207C18393F6F70FC56794
:1014F0000327C4FE0A079387C7A5BA979C433E8774
:1015000093970601C1832316F7000100C5670327DF
:10151000C4FE0A079387C7A5BA979C4383D7870061
:10152000C207C183898BFDD38357A4FE93F6F70FBF
:10153000C5670327C4FE0A079387C7A5BA979C43CC
:101540003E8793970601C1832316F7000100C56704
:101550000327C4FE0A079387C7A5BA979C4383D77E
:101560008700C207C18393F70708F5F301007244AF
:10157000056182805D7186C6A2C480082326A4FC12
:101580002324B4FC2322C4FC2320D4FC232EE4FA1D
:10159000232CF4FA232A04FBC5670327C4FC0A079B
:1015A0009387C7A5BA979C433E85EF6090728545A7
:1015B0000545EF609060032704FC93073012631D1C
:1015C000F7000327C4FB930750126317F700854504
:1015D0000545EF60300725A0032704FC8967938742
:1015E000A714631EF7000327C4FB89679387C714FA
:1015F0006317F700854537152000EF60B004832797
:10160000C4FC91E785450565EF60305B25A00327A5
:10161000C4FC85476317F70085451165EF60505E90
:1016200011A80327C4FC89476316F7008545216587
:10163000EF60105D832704FC93F7F70F930680316A
:10164000054685453E85EFF04FD48327C4FB93F7CD
:10165000F70F93068031054685453E85EFF0EFD2C2
:10166000032784FBC167F917630DF700832784FB09
:1016700093F7F70F93068034054681453E85EFF0DA
:10168000CFD0032744FB9307F00F630DF7008327A8
:1016900044FB93F7F70F93060031014685453E85DD
:1016A000EFF0AFCE232E04FC232004FE232204FE01
:1016B000232404FE231604FE231E04FC930740107B
:1016C000231FF4FC231004FE032784FC85476305D5
:1016D000F702832784FC81CF032784FC89476303B7
:1016E000F702032784FC8D476304F7020DA823113A
:1016F00004FE231204FE25A0231104FE85472312B5
:10170000F4FE31A889472311F4FE231204FE01A838
:1017100089472311F4FE85472312F4FE01002317A5
:1017200004FE03A70183832744FCB357F702231762
:10173000F4FE03A70183832744FCB377F70291E704
:101740008357E4FEFD172317F4FE0357E4FE9307C7
:10175000F00763F7E700930780032317F4FE49A817
:101760000357E4FE9307F00363F7E70093070003D2
:101770002317F4FEB5A80357E4FEFD4763F7E7001F
:10178000930780022317F4FEA5A00357E4FEBD478C
:1017900063F7E700930700022317F4FE91A80357AD
:1017A000E4FE9D4763F6E700E1472317F4FE89A0B6
:1017B0000357E4FE8D4763F6E700C1472317F4FEA5
:1017C00005A80357E4FE854763F6E700A147231702
:1017D000F4FE39A88357E4FE81C7231704FE09A845
:1017E00013068022C167938547680145EF20207E5C
:1017F0008357E4FE2314F4FE930700202313F4FE22
:10180000231504FE231604FEC5670327C4FC0A073C
:101810009387C7A5BA979C433E879307C4FDBE85AF
:101820003A85EF607052C5670327C4FC0A079387A7
:10183000C7A5BA979C4385453E85EF60706001005F
:10184000B640264461618280797122D60018232E29
:10185000A4FC232CB4FC8547A307F4FE0327C4FD96
:101860000A07938781CBBA979C4399EB0327C4FD62
:101870000A07938781CBBA97032784FD98C315A0E5
:101880000327C4FD0A07938781CBBA979C4303279C
:1018900084FD6316F7008547A307F4FE19A0A3078C
:1018A00004FE8347F4FE3E85325445618280011177
:1018B00006CE22CC00102326A4FE8327C4FE81EB93
:1018C0008545856713850780EF60302F6DA8032756
:1018D000C4FE85476317F70085450545EF60503224
:1018E0005DA00327C4FE89476317F70085450945B6
:1018F000EF60103149A80327C4FE8D476317F70036
:1019000085451145EF60D02FBDA80327C4FE914740
:101910006317F70085452145EF60902EADA00327A2
:10192000C4FE95476317F70085454145EF60502D8C
:1019300099A80327C4FE99476318F7008545130546
:101940000002EF60F02B81A00327C4FE9D476317C0
:10195000F70085450965EF60502635A00327C4FED2
:10196000A1476318F700854537050800EF60F024AC
:1019700019A80327C4FEA5476317F7008545370557
:101980001000EF6090230100F24062440561828004
:10199000797122D60018232EA4FCB7370140938713
:1019A00007C02326F4FE231504FE0327C4FDA54724
:1019B00063ECE7088327C4FD13972700C567938767
:1019C00087A6BA979C438287B7370140938707C0A1
:1019D0002326F4FE95A8B70700402326F4FEADA009
:1019E000B7070040938707402326F4FEB1A8B71736
:1019F0000040938707802326F4FEB9A0B717004064
:101A0000938707C02326F4FE81A0B7170040232642
:101A1000F4FE1DA8B7170040938707402326F4FE65
:101A200025A0B7370140938707402326F4FE29A855
:101A3000B7570140938707C02326F4FE31A0B7575C
:101A400001402326F4FE01000327C4FD0A07938703
:101A500001CEBA9798438947631FF7008327C4FED6
:101A600083D747021397070141838D47B357F70286
:101A70002315F4FE39A08327C4FE83D7470223151C
:101A8000F4FE8357A4FE3E8532544561828079710D
:101A900022D60018232EA4FCB7370140938707C035
:101AA0002326F4FE0327C4FDA54763ECE70883273C
:101AB000C4FD13972700C567938707A9BA979C436E
:101AC0008287B7370140938707C02326F4FE95A885
:101AD000B70700402326F4FEADA0B7070040938768
:101AE00007402326F4FEB1A8B7170040938707806C
:101AF0002326F4FEB9A0B7170040938707C023261A
:101B0000F4FE81A0B71700402326F4FE1DA8B717E6
:101B10000040938707402326F4FE25A0B7370140F5
:101B2000938707402326F4FE29A8B75701409387DF
:101B300007C02326F4FE31A0B75701402326F4FE48
:101B400001008327C4FE239207020100325445613D
:101B50008280011122CE00102326A4FEAE87A305A9
:101B6000F4FE0100C5670327C4FE0A07938787AB0D
:101B7000BA979C4383D70700C207C18393F707082E
:101B8000F5D3C5670327C4FE0A07938787ABBA97C7
:101B90009C433E878347B4FEC207C1832312F700EC
:101BA0000100724405618280011106CE22CC001032
:101BB0002326A4FE2324B4FE832784FEB337F0003B
:101BC00093F7F70F3E8713060005C1679385076BF0
:101BD0003A85EF20C03F39A8832784FE138717007A
:101BE0002324E4FE8387070093F7F70FBE850325C0
:101BF000C4FE8537832784FE83870700F1FF010039
:101C0000F240624405618280011106CE22CC0010B0
:101C10002326A4FEAE87A305F4FEC5670327C4FEF2
:101C20000A07938787ABBA979C433E878347B4FEE6
:101C30003E86930550523A85EF70B0191387C184E0
:101C40008327C4FEBA9783C7070081453E85EF30DE
:101C500010548347B4FE81CF1387C1848327C4FE09
:101C6000BA9783C707003E85EF30B04E19A8138797
:101C7000C1848327C4FEBA9783C707003E85EF302F
:101C8000304F0100F240624405618280011122CE92
:101C900000102326A4FE2324B4FEC5670327C4FE38
:101CA0000A07938787ABBA979C4383D70700C2077D
:101CB000C18393F707028DC7C5670327C4FE0A07D0
:101CC000938787ABBA979C4383D74700C207C183EA
:101CD00013F7F70F832784FE2380E700854711A0C1
:101CE00081473E85724405618280797106D622D48F
:101CF0000018232EA4FC232CB4FC232AC4FC232884
:101D0000D4FC032744FD832704FD3D8F8327C4FDB6
:101D1000B207F98F93B7170093F7F70F3E871306B3
:101D2000A00AC1679385076B3A85EF20402A832775
:101D300044FD13D78700832704FDA183B307F74031
:101D400093B7170093F7F70F3E871306B00AC167E2
:101D50009385076B3A85EF208027832744FD93F70F
:101D6000F70FE146014685453E85EFE01FE28327F8
:101D700004FD93F7F70F93068004014681453E85E5
:101D8000EFE0BFE085450545EF602063032744FD94
:101D9000C167FD17F98F0D67130707386387E720C1
:101DA0000D67130707386369F704056713075716AC
:101DB0006381E716056713075716636FF70013076C
:101DC000F022638AE70C130760306381E710130782
:101DD00060126388E70865A6096713078736638B77
:101DE000E7160D67130707126387E71809671307DC
:101DF000A7146380E71461A615671307A738638EDD
:101E0000E72615671307A7386362F7021167130700
:101E100087386380E7201567130787126385E722F9
:101E2000116713074712638CE71A91AE19671307FE
:101E3000C7386388E72A19671307C7386368F7004C
:101E40001967130767106384E72615AE1D6713072C
:101E5000E7106382E72C1D671307E7386387E72ED7
:101E600039AEB7070140D44FB7070140370700FC30
:101E70007D17758FD8CFB7070140D843B70701400A
:101E80006D9BD8C3B7070140D843B707014013671C
:101E90004700D8C3EDA4B7070140D44FB7070140AE
:101EA000370700FC7D17758FD8CFB7070140D44F97
:101EB000B707014037070004558FD8CFB707014057
:101EC000D843B70701406D9BD8C355ACB707014055
:101ED000D44FB7070140370700FC7D17758FD8CF67
:101EE000B7070140D44FB707014037070004558FAB
:101EF000D8CFB7070140D843B70701406D9BD8C37F
:101F0000B7070140D843B707014013674700D8C35C
:101F1000BDA4B7070140D843B70701405D9BD8C3B4
:101F2000B7070140D843B707014013678700D8C3FC
:101F3000B9A4B7070140D843B70701401377F7FCAE
:101F4000D8C3B7070140D843B7070140136707015B
:101F5000D8C335A4B7070140D843B707014013776A
:101F6000F7FCD8C3B7070140D843B7070140136750
:101F70000703D8C329A4B7070140D44FB7070140CE
:101F80003707FDFF7D17758FD8CFB7070140D44FB6
:101F9000832744FDA18313970701B70703007D8FB3
:101FA000B7070140558FD8CFD9AAB7070140D44F02
:101FB000B70701403707FDFF7D17758FD8CFB707EB
:101FC0000140D44F832744FDA18313970701B7072E
:101FD00003007D8FB7070140558FD8CF4DA2B707BB
:101FE0000140D44FB70701403707F4FF7D17758FC5
:101FF000D8CFB7070140D44F832744FDA18313975F
:102000002701B7070C007D8FB7070140558FD8CF48
:10201000BDA2B7070140D44FB70701403707F4FF0F
:102020007D17758FD8CFB7070140D44F832744FD64
:10203000A18313972701B7070C007D8FB7070140D5
:10204000558FD8CF2DAAB7070140D44FB70701400D
:102050003707D0FF7D17758FD8CFB7070140D44F12
:10206000832744FDA18313974701B70730007D8F75
:10207000B7070140558FD8CF19A2B7070140D44FF9
:10208000B70701403707D0FF7D17758FD8CFB70747
:102090000140D44F832744FDA18313974701B7071D
:1020A00030007D8FB7070140558FD8CFC9A8B7073B
:1020B0000140D44FB7070140370740FF7D17758FA8
:1020C000D8CFB7070140D44F832744FDA18313978E
:1020D0006701B707C0007D8FB7070140558FD8CF84
:1020E00079A8B7070140D44FB7070140370740FF31
:1020F0007D17758FD8CFB7070140D44F832744FD94
:10210000A18313976701B707C0007D8FB707014010
:10211000558FD8CFADA0B7070140D44FB7070140C6
:10212000370700FD7D17758FD8CFB7070140D44F13
:10213000832744FDA18313978701B70700037D8F91
:10214000B7070140558FD8CF1DA8B7070140D44F1E
:10215000B7070140370700FD7D17758FD8CFB70748
:102160000140D44F832744FDA18313978701B7070C
:1021700000037D8FB7070140558FD8CF010083271B
:10218000C4FD91E785451165EF60202369A8032709
:10219000C4FD85476318F700854537050200EF60E9
:1021A000202651A00327C4FD89476318F700854501
:1021B00037050400EF60C024BDA00327C4FD8D4790
:1021C0006318F700854537050800EF606023A1A874
:1021D0000327C4FD91476318F700854537051000B4
:1021E000EF60002289A00327C4FD95476318F7001C
:1021F000854513050004EF60A02035A00327C4FD2A
:1022000099476318F700854513050008EF60401FE4
:1022100019A80327C4FD9D476317F70085451305DB
:102220000010EF60E01D232004FE232204FE23247F
:1022300004FE232604FE832784FD2320F4FE2312BC
:1022400004FE231304FE231404FE231604FEB147E8
:102250002315F4FEC5670327C4FD0A07938787ABE0
:10226000BA979C433E87930704FEBE853A85EF707C
:10227000000DC5670327C4FD0A07938787ABBA978C
:102280009C4385453E85EF70C02E0100B25022541C
:1022900045618280411106C622C4000883A70186D9
:1022A0000547638BE7006386070C0947638DE700EA
:1022B0000D47638FE702D9A083A7C1851387170055
:1022C00023AEE18465A883A7C1851387170023AED9
:1022D000E18403A7C185A54763FFE708B70700208E
:1022E000938707049C4B1167D8CB23AE018461A070
:1022F00003A7418685476312F7081305F008EFE04E
:102300000FFEAA87B9CF1945EFF08FE8AA873E875D
:1023100083A7C1851D8F9307600963F0E706194500
:10232000EFF0EFF683A7C185D3F717D05385F720D9
:10233000EFB07076C16703A6076E83A6476EEFA065
:102340003006AA872E883E85C285EFB0D028AA879E
:102350001397070141832398E180094723A2E1866F
:1023600029A81945EFF0CFE2AA873E8723AEE18482
:1023700029A0010021A0010011A001000100B2402C
:10238000224441018280011106CE22CC001023227A
:1023900004FE83C791866381071409A8930734FE5E
:1023A0000546BE85138581D0EF20003A930734FEA1
:1023B000BE851D45EFF09F8DAA87EDF3034734FEE0
:1023C000A947631BF71099472322F4FE130744FE25
:1023D000930784FE85463A86BE85138581D0EF201B
:1023E0005015930784FE138737000D46C167938508
:1023F000876E3A85EFC0D011AA879DEB03A70187AE
:1024000089476304F70C054723A8E186138581D02B
:10241000EF20E02BAA872322F4FE930744FE814697
:102420003E86938541DA138581D0EF20901071A804
:10243000930784FE138737000D46C1679385C76EE7
:102440003A85EFC0F00CAA879DEB03A7C1868947A8
:10245000630DF706054723A6E186138581D0EF209B
:102460000027AA872322F4FE930744FE81463E8676
:10247000938541D2138581D0EF20B00BB9A093078B
:1024800084FE138737000D46C1679385076F3A8531
:10249000EFC01008AA8795EB03A741878947630619
:1024A000F702054723AAE186138581D0EF20202279
:1024B000AA872322F4FE930744FE81463E86938535
:1024C00041E2138581D0EF20D006138581D0EF1033
:1024D000707B05472384E1860100F2406244056178
:1024E0008280011106CE22CC0010AA87A307F4FE39
:1024F000B707002093870704DC4713070008D8CBF1
:102500008347F4FEBE850545EFE03FF7B70700209F
:1025100093870704DC471307000898CB0100F240BB
:10252000624405618280011106CE22CC0010AA8788
:1025300036872317F4FEAE872316F4FEB2872315E1
:10254000F4FEBA872314F4FE83C7C181C207C18396
:102550000357E4FEB337F70093F7F70F3E871306F0
:10256000A008C1679385877D3A85EF10502683C701
:10257000D181C207C1830357C4FEB337F70093F775
:10258000F70F3E871306B008C1679385877D3A85AC
:10259000EF10F02383C7C181C207C1830357A4FE94
:1025A000B337F70093F7F70F3E871306C008C167EC
:1025B0009385877D3A85EF10902183C7D181C2072B
:1025C000C183035784FEB337F70093F7F70F3E87B5
:1025D0001306D008C1679385877D3A85EF10301FB9
:1025E00083A7818705476376F7000D476369F71076
:1025F00061A01305A002F53581450545EFE0FFE731
:102600008357E4FE93F7F70F890793F7F70FBE851B
:102610000545EFE09FE681450545EFE01FE683575E
:10262000A4FE93F7F70F890793F7F70FBE850545CB
:10263000EFE0BFE41305B0026D3581450545EFE0DD
:10264000DFE38357C4FE93F7F70F850793F7F70F80
:10265000BE850545EFE07FE281450545EFE0FFE1FE
:10266000835784FE93F7F70F850793F7F70FBE851F
:102670000545EFE09FE061A01305A0029D3581456F
:102680000545EFE09FDF8357E4FE93F7F70F8507DB
:1026900093F7F70FBE850545EFE03FDE8145054521
:1026A000EFE0BFDD8357A4FE93F7F70F850793F79D
:1026B000F70FBE850545EFE05FDC1305B002153569
:1026C00081450545EFE07FDB8357C4FE93F7F70FA5
:1026D000890793F7F70FBE850545EFE01FDA8145BF
:1026E0000545EFE09FD9835784FE93F7F70F8907DD
:1026F00093F7F70FBE850545EFE03FD801001305BE
:10270000C002C5330100F2406244056182807971E4
:1027100006D622D400189307C4FD3E85EF10B011F1
:102720008547231EF4FC83C7C181C207C183231FD1
:10273000F4FC83C7D181C207C1832310F4FE83A7B1
:1027400081810547638AE70099EF99472301F4FEE9
:10275000A147A301F4FE09A8A1472301F4FEC14744
:10276000A301F4FE11A00100B73700009387A7E58D
:102770002324F4FEB7270000938747792326F4FE2D
:102780009307C4FD3E85EF10B0100100B2502254F3
:1027900045618280011106CE22CC001083C7C18121
:1027A0003E8783C7D181B307F7022326F4FEB7071C
:1027B000002093870704DC474147D8CB83C7C181FA
:1027C000C207C183FD1713970701418383C7D181D6
:1027D000C207C183FD17C207C183BE863A86814501
:1027E0000145913321A883D74181BE850545EFE09E
:1027F0003FCE8327C4FEFD172326F4FE8327C4FEA5
:10280000FDF3B707002093870704DC47414798CBC7
:102810000100F240624405618280011122CE001065
:102820002326A4FE0327C4FE23ACE18683A7818769
:1028300005476376F7000D476365F70211A8130794
:1028400000F8238EE180130700FAA38EE18011A81F
:10285000130700FA238EE180130700F8A38EE180AE
:1028600001000100724405618280011122CE001036
:102870002326A4FE0327C4FE23ACE180010072449A
:1028800005618280011122CE0010AA872E872317AE
:10289000F4FEBA872316F4FE0357E4FE2399E18081
:1028A0000357C4FE239AE1800100724405618280CF
:1028B000011106CE22CC0010AA87AE8632872317DC
:1028C000F4FEB6872316F4FEBA872315F4FE83C7F9
:1028D000C181C207C1830357E4FEB337F70093F702
:1028E000F70F3E8713064014C1679385877D3A85AD
:1028F000EF10E06D83C7D181C207C1830357C4FEC7
:10290000B337F70093F7F70F3E8713065014C167EC
:102910009385877D3A85EF10806BB70700209387FA
:102920000704DC474147D8CB8356C4FE0356E4FE78
:102930000357C4FE8357E4FEBA853E85EFF0BFBE61
:102940008357A4FEBE850545EFE09FB8B70700207A
:1029500093870704DC47414798CB0100F24062446B
:1029600005618280797106D622D40018AA87231FB8
:10297000F4FCAE87231EF4FCB287231DF4FCB6875B
:10298000231CF4FCBA87231BF4FC83C7C181C20754
:10299000C1830357E4FDB337F70093F7F70F3E8782
:1029A0001306C015C1679385877D3A85EF102062B5
:1029B00083C7D181C207C1830357C4FDB337F70072
:1029C00093F7F70F3E871306D015C1679385877D70
:1029D0003A85EF10C05F83C7C181C207C183035727
:1029E000A4FDB337F70093F7F70F3E871306E01502
:1029F000C1679385877D3A85EF10605D83C7D1817C
:102A0000C207C183035784FDB337F70093F7F70F6D
:102A10003E871306F015C1679385877D3A85EF10D1
:102A2000005B0357E4FD8357A4FD6374F7008547FB
:102A300011A0FD572317F4FE0357C4FD835784FDEF
:102A40006374F700854711A0FD572316F4FE232475
:102A500004FE232204FE0357E4FD8357A4FD630D07
:102A6000F7080357C4FD835784FDB307F74053F7B6
:102A700007D00357E4FD8357A4FDB307F740D3F70E
:102A800007D0D377F7182724F4FE8357C4FD53F7F4
:102A900017D08357E4FDD3F617D0872784FED3F7EA
:102AA000F610D377F7082722F4FE0357C4FD8357A7
:102AB00084FD1D8F9357F7413D8F1D8F8356E4FD95
:102AC0008357A4FDB387F64093D6F741B58F958F12
:102AD00063D8E70CA5A8835664FD0357C4FD83574C
:102AE000E4FD3686BA853E85E1330357C4FE83573D
:102AF000C4FDBA97231EF4FC0357C4FD835784FD1D
:102B0000E31BF7FC6DA0835664FD0357C4FD835798
:102B1000E4FD3686BA853E85613B0357C4FE835784
:102B2000C4FDBA97231EF4FC8357C4FD53F717D096
:102B3000872744FE5377F708872784FED377F71853
:102B4000D39707C0C207C187231FF4FC0357C4FDF6
:102B5000835784FDE319F7FA99A8835664FD035758
:102B6000C4FD8357E4FD3686BA853E85913303570D
:102B7000E4FE8357E4FDBA97231FF4FC8357E4FD7A
:102B800053F717D0872784FE5377F710872744FE23
:102B9000D377F700D39707C0C207C187231EF4FC81
:102BA0000357E4FD8357A4FDE319F7FA09A00100D8
:102BB000B250225445618280797106D622D4001821
:102BC000AA87AE863287231FF4FCB687231EF4FC47
:102BD000BA87A30DF4FC83C7C181C207C183035721
:102BE000E4FDB337F70093F7F70F3E87130690190C
:102BF000C1679385877D3A85EF10603D83C7D1819A
:102C0000C207C1830357C4FDB337F70093F7F70F2B
:102C10003E871306A019C1679385877D3A85EF101B
:102C2000003BA30704FE230704FEB7070020938799
:102C30000704DC474147D8CB83A781810547638AD6
:102C4000E70C639F071EA30704FE75A88347F4FEE5
:102C50001397070141838357E4FDBA971395070142
:102C600041818347F4FE1397070141838357E4FDB5
:102C7000BA971397070141838357C4FDA107939621
:102C80000701C1828357C4FD3A86BE85EFF0BF8934
:102C90008307B4FD138707FE8346F4FE4566BA87B3
:102CA0008607BA9786071307860CBA97B69783C725
:102CB0000700A306F4FE230704FE25A88347D4FEDD
:102CC000858B81CB83D72181BE850545EFE05F8071
:102CD00039A083D74181BE850545EFE06FFF83476B
:102CE000D4FE8583A306F4FE8347E4FE850723070D
:102CF000F4FE0347E4FE9D47E3F2E7FC8347F4FE5E
:102D00008507A307F4FE0347F4FE9547E3F0E7F4D5
:102D10000DAAA30704FE39AA8347F4FE13970701FF
:102D200041838357E4FDBA97139507014181834797
:102D3000F4FE1397070141838357E4FDBA97139775
:102D4000070141838357C4FDBD0793960701C182E4
:102D50008357C4FD3A86BE85EFF0EFFC8307B4FDD0
:102D6000938607FE8347F4FE45679206130787ADF7
:102D70003697BA9783C707002306F4FE8307B4FD8E
:102D8000938607FE8347F4FEA10745679206130763
:102D900087AD3697BA9783C70700A305F4FE2307CC
:102DA00004FE25A88347C4FE858B81CB83D7218170
:102DB000BE850545EFE0CFF139A083D74181BE85BF
:102DC0000545EFE0EFF08347C4FE85832306F4FE5C
:102DD0008347E4FE85072307F4FE0347E4FE9D478F
:102DE000E3F2E7FC230704FE25A88347B4FE858BA6
:102DF00081CB83D72181BE850545EFE06FED39A0FA
:102E000083D74181BE850545EFE08FEC8347B4FE53
:102E10008583A305F4FE8347E4FE85072307F4FEBC
:102E20000347E4FE9D47E3F2E7FC8347F4FE850792
:102E3000A307F4FE0347F4FE9D47E3FFE7EC11A070
:102E40000100B707002093870704DC47414798CB70
:102E50000100B250225445618280797106D622D495
:102E60000018AA872E87232CC4FC231FF4FCBA87E2
:102E7000231EF4FC83C7C181C207C1830357E4FD4D
:102E8000B337F70093F7F70F3E871306D01EC167DD
:102E90009385877D3A85EF10801383C7D181C20760
:102EA000C1830357C4FDB337F70093F7F70F3E878D
:102EB0001306E01EC1679385877D3A85EF102011C8
:102EC000231704FE71A083A7818105476381E7046E
:102ED000B5EB0357E4FEBA878607BA9786071397C0
:102EE000070141838357E4FDBA9793960701C18296
:102EF0008357E4FE032784FDBA97038707008357AF
:102F0000C4FD3A86BE853685EFF01FCB2DA88357CA
:102F1000E4FE8E071397070141838357E4FDBA97B8
:102F200093960701C1828357E4FE032784FDBA9775
:102F3000038707008357C4FD3A86BE853685EFF0C8
:102F4000BFC711A001008357E4FE85072317F4FED5
:102F50008357E4FE032784FDBA9783870700A5F70C
:102F60000100B250225445618280397106DE22DCB4
:102F70008000AA872324C4FC36872317F4FCAE877D
:102F80002316F4FCBA87A303F4FC83C7C181C207EC
:102F9000C1830357E4FCB337F70093F7F70F3E877D
:102FA00013062023C1679385877D3A85EF102002A1
:102FB00083C7D181C207C1830357C4FCB337F7006D
:102FC00093F7F70F3E8713063023C1679385877DFC
:102FD0003A85EF00D07F834774FCB337F00093F756
:102FE000F70F3E8713064023C1679385877D3A8597
:102FF000EF00F07D834774FC93B7B70093F7F70FAA
:103000003E8713065023C1679385877D3A85EF007D
:10301000107C832784FC2326F4FE85472324F4FEBA
:103020009307C4FD314681453E85EFD06F9D034730
:1030300074FC9307C4FD3A86930500023E85EFD0E9
:103040002F9C034774FCA54763EBE70231A80327D5
:1030500084FEBA878A07BA9786072324F4FE83473B
:1030600074FCFD17A303F4FC834774FCEDF3832782
:1030700084FE0327C4FEB377F7022326F4FE9307EA
:10308000C4FD8325C4FE3E85EF2060499306C4FD40
:103090000357C4FC8357E4FC3686BA853E85753BEE
:1030A0000100F2506254216182805D7186C6A2C423
:1030B000A6C280082328C4FA232AD4FABA863E87F7
:1030C000AA87231FF4FAAE87231EF4FAB687A30D4E
:1030D000F4FABA87230DF4FA83C7C181C207C1830A
:1030E0000357E4FBB337F70093F7F70F3E87130658
:1030F000C025C1679385877D3A85EF00506D83C7F2
:10310000D181C207C1830357C4FBB337F70093F7DC
:10311000F70F3E871306D025C1679385877D3A85D3
:10312000EF00F06A8347B4FBB337F00093F7F70F73
:103130003E871306E025C1679385877D3A85EF00BA
:1031400010698347B4FB93B7970093F7F70F3E8757
:103150001306F025C1679385877D3A85EF003067B8
:103160008347A4FBB337F00093F7F70F3E871306AE
:103170000026C1679385877D3A85EF0050658347B8
:10318000A4FB93B7770093F7F70F3E87130610263B
:10319000C1679385877D3A85EF007063832704FBC1
:1031A000032844FB2320F4FE232204FFC56703A861
:1031B000C78083A787802324F4FE232604FF930778
:1031C000C4FC454681453E85EFD08F830347B4FB61
:1031D0008347A4FBBA9789073E879307C4FC3A86C6
:1031E000930500023E85EFD0AF813DA0C56703A6E1
:1031F000078183A64781032584FE8325C4FEEF90C3
:10320000301AAA872E882324F4FE232604FF83473E
:10321000B4FBFD17A30DF4FA8347B4FBE1FB0325D0
:1032200004FE832544FEEFA0902DAA84032584FE8E
:103230008325C4FEEFA0B02CAA87B3C7F4023E8555
:10324000EFA05043AA872E88032684FE8326C4FE5F
:103250003E85C285EF90D014AA872E883E86C2860E
:10326000032504FE832544FEEF90F078AA872E887C
:103270002320F4FE232204FF0347A4FB9307C4FC8E
:10328000BA86832504FE032644FE3E85EF20A03641
:103290009306C4FC0357C4FB8357E4FB3686BA8508
:1032A0003E85EFF09FBB0100B64026449644616125
:1032B0008280411106C622C400081308F00FC167BE
:1032C000F91705671307F70285669386D60237A6B6
:1032D0004A041306062081450545EFE0AFA9C14623
:1032E0000146854513057006EFD03F8AC146014669
:1032F000854513057002EFD05F89C14605468545B7
:1033000013054006EFD07F88C14605468545130565
:103310000006EFD09F8783A781873E85EFF0EFCF30
:1033200003D7218183D74181BE853A85EFF08FD5C0
:10333000B707002093870704DC4313070008D8CBA6
:103340002945EFD06F9BB707002093870704DC4324
:103350001307000898CB13058007EFD0EF99B70744
:10336000002093870704DC474147D8CB4545EFF061
:103370004F9713058007EFD02F981305100BEFF030
:103380004F9685450545EFE04F8F9305C0020545F3
:10339000EFE0AF8E9305D0020545EFE00F8E1305E9
:1033A000200BEFF00F9485450545EFE00F8D930559
:1033B000C0020545EFE06F8C9305D0020545EFE0B4
:1033C000CF8B1305300BEFF0CF9185450545EFE02E
:1033D000CF8A9305C0020545EFE02F8A9305D002FE
:1033E0000545EFE08F8985450545EFE00F89930599
:1033F000C0020545EFE06F889305D0020545EFE078
:10340000CF871305400BEFF0CF8D9D450545EFE0CD
:10341000CF861305000CEFF0CF8C9305200A0545ED
:10342000EFE0AF8589450545EFE02F85930540081E
:103430000545EFE08F841305100CEFF08F8A93059C
:10344000500C0545EFE06F831305200CEFF06F89FA
:10345000A9450545EFE06F8281450545EFE0EF8125
:103460001305300CEFF0EF879305A0080545EFE05A
:10347000CF809305A0020545EFE02F801305400C97
:10348000EFF02F869305A0080545EFD01FFF9305A9
:10349000E00E0545EFD07FFE1305500CEFF06F8472
:1034A000B9450545EFD07FFD13056003EFF06F834D
:1034B00083A7818705476380E70281CB0947638142
:1034C000E7020D476384E70205A89305000C054554
:1034D000EFD0BFFA15A081450545EFD01FFA29A806
:1034E0009305000A0545EFD05FF939A09305000662
:1034F0000545EFD09FF801001305000EEFE07FFEB9
:10350000BD450545EFD07FF7E9450545EFD0FFF60E
:10351000BD450545EFD07FF6E1450545EFD0FFF508
:103520009305F0020545EFD05FF593058002054550
:10353000EFD0BFF4930500020545EFD01FF49305CB
:1035400020020545EFD07FF3FD450545EFD0FFF2A2
:10355000ED450545EFD07FF2930530020545EFD0EC
:10356000DFF1930570030545EFD03FF18145054537
:10357000EFD0BFF09D450545EFD03FF089450545AB
:10358000EFD0BFEFC1450545EFD03FEF1305100E5B
:10359000EFE03FF5BD450545EFD03FEEED45054574
:1035A000EFD0BFEDBD450545EFD03FEDDD4505450D
:1035B000EFD0BFEC930530030545EFD01FEC93052A
:1035C000C0020545EFD07FEB930590020545EFD093
:1035D000DFEA9305E0020545EFD03FEA93050003DB
:1035E0000545EFD09FE9930500030545EFD0FFE8BF
:1035F000930590030545EFD05FE89305F00305457B
:10360000EFD0BFE781450545EFD03FE79D45054534
:10361000EFD0BFE68D450545EFD03FE6C1450545F6
:10362000EFD0BFE51305A002EFE0BFEB81450545F4
:10363000EFD0BFE489450545EFD03FE4814505451E
:10364000EFD0BFE3930520080545EFD01FE3130536
:10365000B002EFE01FE981450545EFD01FE28D453F
:103660000545EFD09FE181450545EFD01FE193056A
:1036700030080545EFD07FE01305000FEFE07FE64F
:1036800085450545EFD07FDF1305600FEFE07FE54F
:1036900081450545EFD07FDE1305A003EFE07FE411
:1036A00095450545EFD07FDD13059002EFE07FE300
:1036B000B707002093870704DC47414798CBEFF01A
:1036C0006F8DEFF0CF840100B2402244410182802F
:1036D000411122C60008010032444101828041119B
:1036E00022C60008B71702409843B7170240136775
:1036F000170098C3B7170240D443B71702403707E3
:10370000FFF8758FD8C3B71702409443B71702402C
:103710003707F7FE7D17758F98C3B717024094439C
:10372000B71702403707FCFF7D17758F98C3B7178F
:103730000240D443B7170240370781FF7D17758FCA
:10374000D8C3B717024037079F0098C7010032441B
:1037500041018280797106D622D40018232EA4FC60
:10376000EFF0FFF7232604FE232404FEB7170240E0
:103770009443B71702404167558F98C3B71702406B
:103780009843B7070200F98F2324F4FE8327C4FE71
:1037900085072326F4FE832784FE91E70327C4FED2
:1037A0008567E31DF7FCB71702409843B70702008F
:1037B000F98F89C785472324F4FE19A0232404FE2A
:1037C000032784FE85476312F71637170240B717A1
:1037D00002405843D8C337170240B7170240584336
:1037E000D8C337170240B71702405843D8C3B7179A
:1037F0000240D443B71702403707C1FF7D17758FCA
:10380000D8C30327C4FDB747950893870740631BB8
:10381000F700B7170240D443B71702404167558FEE
:10382000D8C355A80327C4FDB7172707938707E018
:10383000631CF700B7170240D443B717024037079D
:103840003900558FD8C341A80327C4FDB7E7B80591
:1038500093870780631CF700B7170240D443B7175C
:10386000024037072900558FD8C3B5A00327C4FDF0
:10387000B7A74A0493870720631CF700B7170240D5
:10388000D443B717024037071D00558FD8C3A1A0F6
:103890000327C4FDB777DC02938707C0631CF700DA
:1038A000B7170240D443B717024037071100558FAE
:1038B000D8C315A00327C4FDB7376E0193870760EF
:1038C000631BF700B7170240D443B717024037070E
:1038D0000500558FD8C3B71702409443B71702406D
:1038E00037070001558F98C30100B717024098436E
:1038F000B7070002F98FF5DBB7170240D843B717B7
:103900000240719BD8C3B7170240D843B717024093
:1039100013672700D8C30100B7170240DC4313F731
:10392000C700A147E31AF7FE11A001A0B25022542C
:1039300045618280011106CE22CC00102326A4FE10
:103940000327C4FE23A8E182EFF07FD90325C4FE3C
:10395000EFF05FE0EF20200C0100F24062440561CF
:103960008280411122C60008010001003244410159
:103970008280011106CE22CC0010232604FE2324CF
:1039800004FE232604FE25A0232404FE39A0D13FF3
:10399000832784FE85072324F4FE032784FEC16762
:1039A000E367F7FE8327C4FE85072326F4FE03277B
:1039B000C4FE9307F00FE3F9E7FC0100F240624414
:1039C00005618280411122C6000801003244410194
:1039D0008280011106CE22CC00102326A4FE83256E
:1039E000C4FE0945EFE04F9C0100F24062440561CE
:1039F0008280130101D92326112623248126232224
:103A00009126801C232EA4D8232CB4D8232AC4D8D2
:103A10002328D4D8231504FE231404FE231304FE04
:103A2000231204FE231104FE032584D9EFB0202DB8
:103A3000AA87C207C1872313F4FE83D701F089C781
:103A4000938701F09C4B829783C7D18793F7F70F39
:103A5000638D074A83D701F063870744938701F09A
:103A6000D447835724FE1397070141879317070113
:103A7000C1838507C207C183C207C1872311F4FE32
:103A800093170701C1830326C4D9BE8501458296D9
:103A9000832784D92326F4FE032584D9EFB020267A
:103AA000AA87C207C1872313F4FE938701F083D747
:103AB00027003E87938701F083C76700B347F7026B
:103AC000C207C1872312F4FE01008327C4FE1387B7
:103AD00017002326E4FE83870700E5FB231404FE7A
:103AE000A1A88327C4FEFD172326F4FE8327C4FE66
:103AF000038707009307F002630AF7008327C4FED9
:103B0000038707009307C005631BF700835784FEF4
:103B1000C207C1838507C207C1832314F4FE8357FC
:103B200064FEC207C187C207C183FD17C207C183F4
:103B3000C207C1872313F4FE835784FE139707013E
:103B40004183854763E8E700835764FEC207C18766
:103B5000E3D907F8835764FEC207C18763C207022F
:103B60008327C4FE85072326F4FE130704EE0326ED
:103B7000C4FEC567938587813A85EF70C04D1DA847
:103B8000835784FEC207C18381EF130704EE032627
:103B9000C4FEC567938547823A85EF70C04B19A86C
:103BA000130704EE0326C4FEC567938587813A8513
:103BB000EF70604A231504FE21AA231404FE59A0C5
:103BC000930704EE3E85EFB080132A87835784FE67
:103BD000C207C183BE868357A4FEC207C1833E8647
:103BE000835744FEC207C187B307F602B6976367DF
:103BF000F706835784FEC207C1833E878357A4FE1E
:103C0000C207C183BE86835744FEC207C187B387FC
:103C1000F602BA97035784FE42074183BA86130718
:103C200004FFBA97038707EF930704FFB69723882B
:103C3000E7EA835784FEC207C1838507C207C183B1
:103C40002314F4FE835784FEC207C1833E87835743
:103C500044FEC207C187E345F7F611A00100835770
:103C600084FEC207C183130704FFBA97238807EABB
:103C7000938701F003A8C700938701F083C77700FB
:103C8000139707014183835724FE93960701C1864A
:103C900093970601C1838507C207C183C207C18705
:103CA0002311F4FE93970601C183B307F702C207FD
:103CB000C183130704EA3A86BE85014502988357FB
:103CC000A4FEC207C1838507C207C1832315F4FE82
:103CD0008357A4FEC207C183BE84930704EE3E85CA
:103CE000EFB0E0012A87835744FEC207C187B3576C
:103CF000F7028507E3E3F4EC130704EE032644D947
:103D0000C567938547833A85EF70E034938701F068
:103D100003A8C700938701F083C7770013970701B3
:103D20004183835724FE93960701C186939706012A
:103D3000C1838507C207C183C207C1872311F4FE6F
:103D400093970601C183B307F702C207C183130724
:103D500004EE3A86BE8501450298832704D963861E
:103D6000071A231504FE21AA231404FE59A00325D3
:103D700004D9EFA0D0782A87835784FEC207C18375
:103D8000BE868357A4FEC207C1833E86835744FE86
:103D9000C207C187B307F602B6976368F706835771
:103DA00084FEC207C1833E878357A4FEC207C18336
:103DB000BE86835744FEC207C187B387F602BA970F
:103DC0003E87832704D9BA97035784FE420741836D
:103DD000BA8603870700930704FFB6972388E7EAAC
:103DE000835784FEC207C1838507C207C18323149A
:103DF000F4FE835784FEC207C1833E87835744FE87
:103E0000C207C187E345F7F611A00100835784FE7E
:103E1000C207C183130704FFBA97238807EA938771
:103E200001F003A8C700938701F083C777001397B9
:103E300007014183835724FE93960701C186939718
:103E40000601C1838507C207C183C207C187231149
:103E5000F4FE93970601C183B307F702C207C1833B
:103E6000130704EA3A86BE85014502988357A4FEEB
:103E7000C207C1838507C207C1832315F4FE835798
:103E8000A4FEC207C183BE84032504D9EFA0306716
:103E90002A87835744FEC207C187B357F7028507B5
:103EA000E3E4F4EC9DA0930704DA130600108145C7
:103EB0003E85EFC0EFB4938701F09C470325C4D93A
:103EC0008297832704D999CF130504DA032704D9ED
:103ED000832644D9032684D9C56793850784EF7068
:103EE000801729A8130704DA832644D9032684D926
:103EF000C5679385C7853A85EF70E015938701F014
:103F00009847930704DA3E85029701008320C12673
:103F10000324812683244126130101278280411135
:103F200006C622C4000883C7D18793F7F70F89CF4D
:103F30009385C1870945EFD07FD505469385C18715
:103F4000138541EEEF0050000100B24022444101D0
:103F50008280797106D622D40018232EA4FC232C4B
:103F6000B4FC232AC4FC232604FEA9A00100C567D3
:103F7000938787AB9C47930500043E85EF50807480
:103F8000AA87F5D7C567938787AB9C47BE868327EB
:103F900084FD13871700232CE4FC83870700C207E6
:103FA000C183BE853685EF50006F8327C4FE850729
:103FB0002326F4FE0327C4FE832744FDE348F7FAD3
:103FC000832744FD3E85B250225445618280011111
:103FD00006CE22CC0010AA872324B4FE2322C4FEDE
:103FE000A307F4FE8347F4FEB1E383C7418393F74D
:103FF000F70F8DCF83C7E18791C301A083C7E18706
:10400000850713F7F70F238FE186EF10101EEFF0EF
:104010007F9B8146032644FE832584FEC567138566
:104020004787EFF01F9DEFF0DF94E5B70100F24006
:10403000624405618280011122CE00102326A4FE75
:104040008327C4FE239007008327C4FE7D57239156
:10405000E7008327C4FE7D572392E7008327C4FE31
:104060007D572383E7008327C4FE7D57A383E700A2
:104070008327C4FE23A407008327C4FE23A60700CA
:104080008327C4FE23A807000100724405618280D3
:10409000011122CE00102326A4FE8327C4FE03D7DD
:1040A00007002390E1F08327C4FE03D727009387FE
:1040B00001F02391E7008327C4FE03D747009387CD
:1040C00001F02392E7008327C4FE03C767009387AC
:1040D00001F02383E7008327C4FE03C7770093879B
:1040E00001F0A383E7008327C4FE9847938701F07C
:1040F00098C78327C4FED847938701F0D8C7832782
:10410000C4FE984B938701F098CB0547A38EE186B8
:104110000100724405618280797106D622D40018AC
:104120009307C4FD3E85EFF01FF1B747000093876A
:10413000279D2322F4FE9307C4FD3E85EFF05FF533
:1041400089679386B70289671386A702F16793850B
:1041500007200945EFD07FB993060004138641EA92
:104160008145138541EEEF10001785450945EFD0D5
:10417000BFA90100B250225445618280011122CEB4
:1041800000102326A4FE2324B4FE8327C4FE03C705
:10419000970083C6A700A206558F83C6B700C20644
:1041A000558F83C7C700E207D98F3E87832784FED8
:1041B0003E978327C4FE9375F70F83C69700818AC5
:1041C0003686AE86D18EA384D7009356870093F5AA
:1041D000F60F83C6A700818A3686AE86D18E2385E8
:1041E000D7009356070193F5F60F83C6B700818A6F
:1041F0003686AE86D18EA385D7001356870103C7B6
:10420000C700018BBA863287558F2386E70055A0F9
:104210008327C4FE03C7970083C6A700A206558F55
:1042200083C6B700C206558F83C7C700E207D98F80
:104230003E868327C4FE03C7570183C66701A206D3
:10424000558F83C67701C206558F83C78701E20762
:10425000D98F3307F6408327C4FE9375F70F83C6C3
:104260009700818A3686AE86D18EA384D700935676
:10427000870093F5F60F83C6A700818A3686AE863F
:10428000D18E2385D7009356070193F5F60F83C689
:10429000B700818A3686AE86D18EA385D7001356A5
:1042A000870103C7C700018BBA863287558F2386E3
:1042B000E7008327C4FE03C7570183C66701A20630
:1042C000558F83C67701C206558F83C78701E207E2
:1042D000D98F3E868327C4FE03C7970083C6A700F5
:1042E000A206558F83C6B700C206558F83C7C70085
:1042F000E207D98FE3FEC7F00100724405618280B6
:10430000011122CE00102326A4FE2324B4FE83270D
:10431000C4FE03C7D70083C6E700A206558F83C635
:10432000F700C206558F83C70701E207D98F3E8782
:10433000832784FE3E978327C4FE9375F70F83C6B9
:10434000D700818A3686AE86D18EA386D700935653
:10435000870093F5F60F83C6E700818A3686AE861E
:10436000D18E2387D7009356070193F5F60F83C6A6
:10437000F700818A3686AE86D18EA387D700135682
:10438000870103C70701018BBA863287558F2388BF
:10439000E70055A08327C4FE03C7D70083C6E70004
:1043A000A206558F83C6F700C206558F83C7070143
:1043B000E207D98F3E868327C4FE03C7570183C611
:1043C0006701A206558F83C67701C206558F83C742
:1043D0008701E207D98F3307F6408327C4FE937520
:1043E000F70F83C6D700818A3686AE86D18EA38624
:1043F000D7009356870093F5F60F83C6E700818AAE
:104400003686AE86D18E2387D7009356070193F563
:10441000F60F83C6F700818A3686AE86D18EA387D3
:10442000D7001356870103C70701018BBA8632876D
:10443000558F2388E7008327C4FE03C7570183C62F
:104440006701A206558F83C67701C206558F83C7C1
:104450008701E207D98F3E868327C4FE03C7D700B2
:1044600083C6E700A206558F83C6F700C206558FA4
:1044700083C70701E207D98FE3FEC7F0010072444A
:1044800005618280797106D622D40018232EA4FCFF
:104490008327C4FDB337F00093F7F70F3E87130669
:1044A0005005C567938507893A85EFF05FB22326EB
:1044B00004FE8327C4FD83C7070093E7170013F7A3
:1044C000F70F8327C4FD2380E7008327C4FD03C7BC
:1044D0009700018BA384E70003C7A700018B238506
:1044E000E70003C7B700018BA385E70003C7C70038
:1044F000018B2386E7008327C4FD03C7D700018B08
:10450000A386E70003C7E700018B2387E70003C703
:10451000F700018BA387E70003C70701018B2388FE
:10452000E7008327C4FD03C7570183C66701A206BE
:10453000558F83C67701C206558F83C78701E2076F
:10454000D98F3E878327C4FD9375F70F83C6170164
:10455000818A3686AE86D18EA388D700935687008F
:1045600093F5F60F83C62701818A3686AE86D18EF3
:104570002389D7009356070193F5F60F83C63701B9
:10458000818A3686AE86D18EA389D70013568701DD
:1045900003C74701018BBA863287558F238AE7000C
:1045A0008327C4FD03C7170083C62700A206558FC3
:1045B00083C63700C206558F83C74700E207D98FED
:1045C0000547638DE70489C709476380E70AEDA0C3
:1045D0008327C4FD03C7570083C66700A206558F13
:1045E00083C67700C206558F83C78700E207D98F3D
:1045F0003E858327C4FD03C7570183C66701A20612
:10460000558F83C67701C206558F83C78701E2079E
:10461000D98F3E868145EFB0BFBE79A88327C4FD00
:1046200003C7570083C66700A206558F83C677006D
:10463000C206558F83C78700E207D98F3E8583273F
:10464000C4FD03C7570183C66701A206558F83C601
:104650007701C206558F83C78701E207D98F860786
:104660003E868145EFB0DFB981A88327C4FD03C72B
:10467000570083C66700A206558F83C67700C2061F
:10468000558F83C78700E207D98F3E858327C4FDF6
:1046900003C7570183C66701A206558F83C67701FA
:1046A000C206558F83C78701E207D98F8A073E86E6
:1046B0008145EFB0FFB401008327C4FD23800700CC
:1046C0008327C4FE3E85B250225445618280011189
:1046D00006CE22CC00102326A4FE8327C4FEB337C7
:1046E000F00093F7F70F3E8713066007C5679385C1
:1046F00007893A85EFF0BF8D8327C4FE03C75701B2
:1047000083C66701A206558F83C67701C206558FFF
:1047100083C78701E207D98F3E868327C4FE03C77C
:10472000170183C62701A206558F83C63701C2062B
:10473000558F83C74701E207D98FB307F6403E85FF
:10474000F240624405618280797106D622D4001855
:10475000232EA4FC232CB4FC232AC4FC8327C4FDF1
:10476000B337F00093F7F70F3E871306000BC567CA
:10477000938507893A85EFF09F85232604FE23243D
:1047800004FE832784FD89E78D472326F4FE59AB79
:104790008327C4FD83C70700958B93F7F70F89C75D
:1047A00091472326F4FEBDAB8327C4FD83C70700D2
:1047B00093E7470013F7F70F8327C4FD2380E70033
:1047C0008327C4FD03C7170183C62701A206558F9F
:1047D00083C63701C206558F83C74701E207D98FC9
:1047E0003E87832744FD6361F7528327C4FD03C7D7
:1047F000570183C66701A206558F83C67701C2069B
:10480000558F83C78701E207D98F3E868327C4FD72
:1048100003C7970083C6A700A206558F83C6B700BB
:10482000C206558F83C7C700E207D98FB307F6408A
:104830002324F4FE032744FD832784FE63F3E72E3D
:104840008327C4FD03C7170083C62700A206558F20
:1048500083C63700C206558F83C74700E207D98F4A
:1048600005476385E70E89C709476386E71C11A9D9
:104870008327C4FD03C7570083C66700A206558F70
:1048800083C67700C206558F83C78700E207D98F9A
:104890003E868327C4FD03C7970083C6A700A206F0
:1048A000558F83C6B700C206558F83C7C700E2077E
:1048B000D98FB297032684FE832584FD3E85EF9031
:1048C0001034832584FE0325C4FDEFF03F8B83273E
:1048D000C4FD03C7570083C66700A206558F83C671
:1048E0007700C206558F83C78700E207D98F3E86BF
:1048F0008327C4FD03C7970083C6A700A206558F70
:1049000083C6B700C206558F83C7C700E207D98F99
:10491000B306F600032784FD832784FEB305F70062
:10492000032744FD832784FEB307F7403E86368580
:10493000EF90F02C032744FD832784FEB307F74054
:10494000BE850325C4FDEFF07F8325AE8327C4FD1C
:1049500003C7570083C66700A206558F83C677003A
:10496000C206558F83C78700E207D98F3E8683270B
:10497000C4FD03C7970083C6A700A206558F83C650
:10498000B700C206558F83C7C700E207D98F8607D5
:104990003307F600832784FE86073E86832584FD41
:1049A0003A85EF90D025832584FE0325C4FDEFF0E2
:1049B000EFFC8327C4FD03C7570083C66700A20628
:1049C000558F83C67700C206558F83C78700E207DD
:1049D000D98F3E868327C4FD03C7970083C6A700EF
:1049E000A206558F83C6B700C206558F83C7C7007E
:1049F000E207D98F8607B306F600832784FE860771
:104A0000032784FDB305F700032744FD832784FEB5
:104A1000B307F74086073E863685EF90501E032782
:104A200044FD832784FEB307F740BE850325C4FDFC
:104A3000EFF0CFF4B9A48327C4FD03C7570083C6A2
:104A40006700A206558F83C67700C206558F83C7BD
:104A50008700E207D98F3E868327C4FD03C79700EE
:104A600083C6A700A206558F83C6B700C206558F1E
:104A700083C7C700E207D98F8A073307F600832769
:104A800084FE8A073E86832584FD3A85EF903017A1
:104A9000832584FE0325C4FDEFF04FEE8327C4FD7C
:104AA00003C7570083C66700A206558F83C67700E9
:104AB000C206558F83C78700E207D98F3E868327BA
:104AC000C4FD03C7970083C6A700A206558F83C6FF
:104AD000B700C206558F83C7C700E207D98F8A0780
:104AE000B306F600832784FE8A07032784FDB305F7
:104AF000F700032744FD832784FEB307F7408A07A6
:104B00003E863685EF90B00F032744FD832784FE51
:104B1000B307F740BE850325C4FDEFF02FE6010083
:104B20008DA28327C4FD03C7170083C62700A206F2
:104B3000558F83C63700C206558F83C74700E207EB
:104B4000D98F05476387E70689C709476387E70C5D
:104B50000DAA8327C4FD03C7570083C66700A206BA
:104B6000558F83C67700C206558F83C78700E2073B
:104B7000D98F3E868327C4FD03C7970083C6A7004D
:104B8000A206558F83C6B700C206558F83C7C700DC
:104B9000E207D98FB297032644FD832584FD3E8525
:104BA000EF90F005832544FD0325C4FDEFF00FDDF4
:104BB000C9A88327C4FD03C7570083C66700A206A0
:104BC000558F83C67700C206558F83C78700E207DB
:104BD000D98F3E868327C4FD03C7970083C6A700ED
:104BE000A206558F83C6B700C206558F83C7C7007C
:104BF000E207D98F86073307F600832744FD86072F
:104C00003E86832584FD3A85EF90607F832544FDB1
:104C10000325C4FDEFF08FD6ADA08327C4FD03C7E5
:104C2000570083C66700A206558F83C67700C20669
:104C3000558F83C78700E207D98F3E868327C4FD3F
:104C400003C7970083C6A700A206558F83C6B70087
:104C5000C206558F83C7C700E207D98F8A0733077B
:104C6000F600832744FD8A073E86832584FD3A8526
:104C7000EF90E078832544FD0325C4FDEFF00FD0CD
:104C800001008327C4FD03C7170183C62701A206BD
:104C9000558F83C63701C206558F83C74701E20788
:104CA000D98F3E87832744FD1D8F8327C4FD9375CD
:104CB000F70F83C61701818A3686AE86D18EA38808
:104CC000D7009356870093F5F60F83C62701818A94
:104CD0003686AE86D18E2389D7009356070193F589
:104CE000F60F83C63701818A3686AE86D18EA389B8
:104CF000D7001356870103C74701018BBA86328755
:104D0000558F238AE70021A095472326F4FE8327A9
:104D1000C4FD83C70700ED9B13F7F70F8327C4FD7E
:104D20002380E7008327C4FE3E85B25022544561AC
:104D30008280797106D622D40018232EA4FC232C5D
:104D4000B4FC232AC4FC2328D4FC8327C4FDB33736
:104D5000F00093F7F70F3E8713061016C56793858B
:104D600007893A85EFF0AFA6832744FDB337F000FB
:104D700093F7F70F3E8713062016C56793850789BB
:104D80003A85EFF0CFA4232604FE232404FE232239
:104D900004FE832784FD89E78D472326F4FEA9A11D
:104DA0008327C4FD83C707008D8B93F7F70F91CB43
:104DB000832744FD032744FE98C399472326F4FE26
:104DC00021A30325C4FDEFF09F902322A4FE832797
:104DD00044FD9C43032744FE6379F702832744FD87
:104DE000032744FE98C39D472326F4FE832744FEF1
:104DF00089EF8327C4FD83C70700DD9B13F7F70FF7
:104E00008327C4FD2380E700C1A18327C4FD83C796
:104E1000070093E7870013F7F70F8327C4FD23806C
:104E2000E7008327C4FD03C7570183C66701A206B5
:104E3000558F83C67701C206558F83C78701E20766
:104E4000D98F3E868327C4FD03C7D70083C6E700FA
:104E5000A206558F83C6F700C206558F83C7070188
:104E6000E207D98FB307F6402324F4FE832744FDDD
:104E70009C43032784FE6366F7148327C4FD03C79E
:104E8000170083C62700A206558F83C63700C206C7
:104E9000558F83C74700E207D98F05476384E7062C
:104EA00089C70947638FE70A2DA68327C4FD03C777
:104EB000570083C66700A206558F83C67700C206D7
:104EC000558F83C78700E207D98F3E868327C4FDAD
:104ED00003C7D70083C6E700A206558F83C6F70035
:104EE000C206558F83C70701E207D98F3307F60043
:104EF000832744FD9C433E86BA85032584FDEF90BD
:104F00000050C1AC8327C4FD03C7570083C66700A8
:104F1000A206558F83C67700C206558F83C78700C8
:104F2000E207D98F3E868327C4FD03C7D70083C617
:104F3000E700A206558F83C6F700C206558F83C7C8
:104F40000701E207D98F86073307F600832744FD60
:104F50009C4386073E86BA85032584FDEF90204A50
:104F60008DAC8327C4FD03C7570083C66700A20624
:104F7000558F83C67700C206558F83C78700E20727
:104F8000D98F3E868327C4FD03C7D70083C6E700B9
:104F9000A206558F83C6F700C206558F83C7070147
:104FA000E207D98F8A073307F600832744FD9C4325
:104FB0008A073E86BA85032584FDEF9040440100B0
:104FC00009AC8327C4FD03C7170083C62700A206C8
:104FD000558F83C63700C206558F83C74700E20747
:104FE000D98F05476383E70A89C709476381E714B7
:104FF000CDA28327C4FD03C7570083C66700A2065E
:10500000558F83C67700C206558F83C78700E20796
:10501000D98F3E868327C4FD03C7D70083C6E70028
:10502000A206558F83C6F700C206558F83C70701B6
:10503000E207D98FB297032684FEBE85032584FD3F
:10504000EF90E03B032784FD832784FE3305F700C0
:105050008327C4FD03C7570083C66700A206558F88
:1050600083C67700C206558F83C78700E207D98FB2
:10507000BE86832744FD9843832784FEB307F74009
:105080003E86B685EF90A037A9A28327C4FD03C74B
:10509000570083C66700A206558F83C67700C206F5
:1050A000558F83C78700E207D98F3E868327C4FDCB
:1050B00003C7D70083C6E700A206558F83C6F70053
:1050C000C206558F83C70701E207D98F86073307CA
:1050D000F600832784FE86073E86BA85032584FD75
:1050E000EF90E031832784FE8607032784FD330594
:1050F000F7008327C4FD03C7570083C66700A206D5
:10510000558F83C67700C206558F83C78700E20795
:10511000D98FBE86832744FD9843832784FEB30737
:10512000F74086073E86B685EF90602D5DA0832709
:10513000C4FD03C7570083C66700A206558F83C608
:105140007700C206558F83C78700E207D98F3E8656
:105150008327C4FD03C7D70083C6E700A206558F87
:1051600083C6F700C206558F83C70701E207D98FB0
:105170008A073307F600832784FE8A073E86BA85AE
:10518000032584FDEF90A027832784FE8A07032749
:1051900084FD3305F7008327C4FD03C7570083C68A
:1051A0006700A206558F83C67700C206558F83C756
:1051B0008700E207D98FBE86832744FD9843832763
:1051C00084FEB307F7408A073E86B685EF9020231A
:1051D00001008327C4FD83C70700DD9B13F7F70F8A
:1051E0008327C4FD2380E700832704FDF1EF832795
:1051F000C4FD03C70700AD476316F70089472326A0
:10520000F4FED9A08327C4FD83C7070093E72700D6
:1052100013F7F70F8327C4FD2380E700832744FD9E
:105220009C43BE850325C4FDEFF08F8D8327C4FD0D
:1052300003C7170183C62701A206558F83C637010E
:10524000C206558F83C74701E207D98F3E87832760
:1052500044FD9C433E978327C4FD9375F70F83C697
:105260001701818A3686AE86D18EA388D7009356E1
:10527000870093F5F60F83C62701818A3686AE86AE
:10528000D18E2389D7009356070193F5F60F83C675
:105290003701818A3686AE86D18EA389D700135610
:1052A000870103C74701018BBA863287558F238A4E
:1052B000E7008327C4FD83C70700F59B13F7F70FAB
:1052C0008327C4FD2380E7008327C4FE3E85B250B8
:1052D000225445618280797106D622D40018232E8B
:1052E000A4FC232CB4FC232AC4FC2328D4FC83274D
:1052F000C4FDB337F00093F7F70F3E871306202263
:10530000C567938507893A85EFE07FCC232604FEA5
:105310008327C4FD032744FD1376F70F03C7570007
:10532000018BBA863287558FA382E700032744FD9D
:1053300021831376F70F03C76700018BBA86328784
:10534000558F2383E700032744FD41831376F70F2E
:1053500003C77700018BBA863287558FA383E70096
:10536000032744FD1356870103C78700018BBA86C4
:105370003287558F2384E7008327C4FD23800700ED
:105380008327C4FD032784FD1376F70F03C7170097
:10539000018BBA863287558FA380E700032784FDEF
:1053A00021831376F70F03C72700018BBA86328754
:1053B000558F2381E700032784FD41831376F70F80
:1053C00003C73700018BBA863287558FA381E70068
:1053D000032784FD1356870103C74700018BBA8654
:1053E0003287558F2382E7008327C4FD03C79700C8
:1053F000018BA384E70003C7A700018B2385E70087
:1054000003C7B700018BA385E70003C7C700018B63
:105410002386E7008327C4FD03C7D700018BA3863B
:10542000E70003C7E700018B2387E70003C7F70006
:10543000018BA387E70003C70701018B2388E700DF
:105440008327C4FD032704FD1376F70F03C7170155
:10545000018BBA863287558FA388E700032704FDA6
:1054600021831376F70F03C72701018BBA86328792
:10547000558F2389E700032704FD41831376F70F37
:1054800003C73701018BBA863287558FA389E7009E
:10549000032704FD1356870103C74701018BBA8612
:1054A0003287558F238AE7008327C4FD032704FD35
:1054B0001376F70F03C75701018BBA863287558FD2
:1054C000A38AE700032704FD21831376F70F03C7A0
:1054D0006701018BBA863287558F238BE70003273C
:1054E00004FD41831376F70F03C77701018BBA865A
:1054F0003287558FA38BE700032704FD13568701DE
:1055000003C78701018BBA863287558F238CE7004A
:105510008327C4FE3E85B250225445618280397192
:1055200006DE22DC80002326A4FC2324B4FC83278F
:10553000C4FCB337F00093F7F70F3E871306C00C97
:10554000C5679385078C3A85EFE07FA8A30704FE23
:105550008327C4FCD9CB832784FCB1E38327C4FC15
:10556000130700032380E70051A0032784FCA94709
:10557000B376F7028347F4FE13871700A307E4FE10
:10558000139786016187930604FFB6972386E7FE8B
:10559000032784FCA947B357F7022324F4FC83278D
:1055A00084FCE1F73DA88347F4FEFD17130704FFD1
:1055B000BA978387C7FE93F7F70F9387070393F68E
:1055C000F70F8327C4FC138717002326E4FC1397E7
:1055D000860161872380E7008347F4FEFD17A30758
:1055E000F4FE8347F4FEE1F311A001000100F25044
:1055F000625421618280197186DEA2DC00012326BB
:10560000A4F82320B4F82322C4F8B687A305F4F83D
:105610008327C4F8B337F00093F7F70F3E871306DC
:10562000301CC5679385078C3A85EFE05F9A232687
:1056300004FE232404FE8347B4F8A303F4FE832767
:10564000C4F863850724032504F8832544F8EF8014
:10565000006BAA872326F4FE01468146032504F841
:10566000832544F8EF706048AA8763DD070083272D
:10567000C4F8138717002326E4F81307D002238009
:10568000E700B1A001468146032504F8832544F8CC
:10569000EF70C030AA8785EF8327C4F813871700FF
:1056A0002326E4F8130700032380E7008327C4F8C8
:1056B000138717002326E4F81307E0022380E7008E
:1056C0008327C4F8130700032380E700C9A203253A
:1056D000C4FEEF80207AAA872E883E86C2860325E4
:1056E00004F8832544F8EF701031AA872E88232010
:1056F000F4F8232204F915A0C56703A6879183A6B1
:10570000C791032504F8832544F8EF706049AA8700
:105710002E882320F4F8232204F9834774FE13878C
:10572000F7FFA303E4FEE9FB032504F8832544F80F
:10573000EF80E05CAA872324F4FEA30304FE8347E2
:1057400074FE13871700A303E4FEBE860327C4FE7E
:10575000A9473367F70293972600930604FFB6978D
:1057600023A2E7FC0327C4FEA947B347F702232679
:10577000F4FE8327C4FEE1F7A1A0834774FEFD1762
:105780008A07130704FFBA9783A747FC13D7F7418B
:10579000B98F998F93F7F70F9387070393F6F70F56
:1057A0008327C4F8138717002326E4F8139786018C
:1057B00061872380E700834774FEFD17A303F4FE8F
:1057C000834774FEDDFB8347B4F8F1C3A30304FEF3
:1057D0008327C4F8138717002326E4F81307E00291
:1057E0002380E700832784FEB9E78327C4F81307E3
:1057F00000032380E70061A8834774FE1387170026
:10580000A303E4FEBE86032784FEA9473367F7029D
:1058100093972600930604FFB69723A0E7FA032781
:1058200084FEA947B347F7022324F4FE8347B4F864
:10583000FD17A305F4F88347B4F8DDFFA1A0834763
:1058400074FEFD178A07130704FFBA9783A707FAA8
:1058500013D7F741B98F998F93F7F70F9387070302
:1058600093F6F70F8327C4F8138717002326E4F86D
:105870001397860161872380E700834774FEFD1735
:10588000A303F4FE834774FEDDFB11A001000100B9
:10589000F650665409618280411122C6000899675A
:1058A000938787087390078001003244410182800A
:1058B000411122C6000899677390078001003244A5
:1058C00041018280011122CE00102326A4FE8327ED
:1058D000C4FEFD8B0547B316F70037E700E08327CA
:1058E000C4FE9583938707048A07BA9794C301007F
:1058F000724405618280011122CE00102326A4FE8D
:105900008327C4FEFD8B0547B316F70037E700E099
:105910008327C4FE9583938707068A07BA9794C3A3
:105920000100724405618280011122CE00102326FD
:10593000A4FEAE87A305F4FE37E700E08327C4FE8C
:10594000BA970347B4FE2380E74001007244056123
:105950008280011106CE22CC00102326A4FE03254E
:10596000C4FEEFF03FF60100F24062440561828020
:10597000011106CE22CC00102326A4FE0325C4FE6E
:10598000EFF07FF70100F24062440561828001116F
:1059900006CE22CC00102326A4FEAE87A305F4FE7B
:1059A0008347B4FEBE850325C4FEEFF0FFF7010078
:1059B000F240624405618280011106CE22CC0010C3
:1059C0002326A4FE8327C4FE99C783A701881387D3
:1059D000F7FF23A0E18883A7018899E3EFF0DFEBCD
:1059E0000100F240624405618280411106C622C472
:1059F000000883A7018899E3EFF09FEB83A7018854
:105A00001387170023A0E18883A701883E85B24051
:105A1000224441018280411106C622C4000801458A
:105A2000EFF09FF90100B2402244410182803571BC
:105A300006CF16CD1ACB1EC922C72AC52EC332C126
:105A4000B6DEBADCBEDAC2D8C6D6F2D4F6D2FAD006
:105A5000FECE82E686E48AE28EE012FE16FC1AFA98
:105A60001EF82AF62EF432F236F03AEE3EEC42EA16
:105A700046E872E676E47AE27EE000119305505241
:105A8000B747014013850780EF303048AA8789CB9C
:105A900093055052B747014013850780EF301057E8
:105AA0000100FA40EA425A43CA433A442A459A4519
:105AB0000A46F6566657D6574658B658265E965E3C
:105AC000065FF64F3660A660166186617272E272FA
:105AD0005273C2733275A275127682767267E2676C
